:0400000082EF0CF08F
:100E00000000186E1350D96EDA6A010ED926010E51
:100E1000DF6E1450D96EDA6A010ED926DF6A000E31
:100E20001E6E140E1D6E000E026E640E016E000E1C
:100E3000046E140E036E1BEC0BF001C01FF002C019
:100E400020F0000E1A6E000E196E4BEF07F01350D3
:100E5000D96EDA6A1350E16EE26AE750156E152812
:100E6000DF6E1450D96EDA6A1450E16EE26AE75010
:100E7000156E1528DF6E14C00EF031EC09F013C0AA
:100E80000EF031EC09F01FC001F020C002F058EC68
:100E90000CF0194A1A2A1D50195C1A50800A156E56
:100EA0001E50800A1558D8A058EF07F05AEF07F0E7
:100EB00027EF07F0000E1C6E000E1B6E69EF07F0A7
:100EC000D00E156ECA0EE82EFED7152EFCD71B4A83
:100ED0001C2A1850156E166A15501B5C1C50800A8F
:100EE000176E1650800A1758D8A079EF07F07BEFDD
:100EF00007F060EF07F0A9EF07F01450D96EDA6A37
:100F0000DF50D8B486EF07F088EF07F08CEF07F0DA
:100F10001450D96EDA6ADF061350D96EDA6ADF50E0
:100F2000D8B495EF07F097EF07F09BEF07F0135059
:100F3000D96EDA6ADF0614C00EF031EC09F013C086
:100F40000EF031EC09F01FC001F020C002F058ECA7
:100F50000CF01350D96EDA6ADF50D8A4B2EF07F064
:100F6000B4EF07F07DEF07F01450D96EDA6ADF5066
:100F7000D8A4BDEF07F0BFEF07F07DEF07F0120038
:100F8000186E1350D96EDA6A010ED926DF6A145032
:100F9000D96EDA6A010ED926010EDF6E000E1E6EC2
:100FA000140E1D6E000E026E640E016E000E046EB5
:100FB000140E036E1BEC0BF001C01FF002C020F0FA
:100FC000000E1A6E000E196E0AEF08F01350D96E5B
:100FD000DA6A1350E16EE26AE750156E1528DF6E8B
:100FE0001450D96EDA6A1450E16EE26AE750156E59
:100FF0001528DF6E14C00EF031EC09F013C00EF0AE
:1010000031EC09F01FC001F020C002F058EC0CF0E8
:10101000194A1A2A1D50195C1A50800A156E1E5062
:10102000800A1558D8A017EF08F019EF08F0E6EF7E
:1010300007F0000E1C6E000E1B6E28EF08F0D00E9D
:10104000156ECA0EE82EFED7152EFCD71B4A1C2A99
:101050001850156E166A15501B5C1C50800A176ECE
:101060001650800A1758D8A038EF08F03AEF08F069
:101070001FEF08F068EF08F01450D96EDA6ADF50FD
:10108000D8B445EF08F047EF08F04BEF08F01450E4
:10109000D96EDA6ADF061350D96EDA6ADF50D8B437
:1010A00054EF08F056EF08F05AEF08F01350D96EDD
:1010B000DA6ADF0614C00EF031EC09F013C00EF04E
:1010C00031EC09F01FC001F020C002F058EC0CF028
:1010D0001350D96EDA6ADF50D8A471EF08F073EFBD
:1010E00008F03CEF08F01450D96EDA6ADF50D8A44B
:1010F0007CEF08F07EEF08F03CEF08F01200186E6D
:10110000000E1E6E140E1D6E000E026E640E016E39
:10111000000E046E140E036E1BEC0BF001C01FF0EA
:1011200002C020F0000E1A6E000E196EBCEF08F01F
:101130001350D96EDA6A1350E16EE26AE750156E09
:101140001528DF6E1450D96EDA6A1450E16EE26A27
:10115000E750156E1528DF6E14C00EF031EC09F063
:1011600013C00EF031EC09F01FC001F020C002F0F6
:1011700058EC0CF0194A1A2A1D50195C1A50800AB2
:10118000156E1E50800A1558D8A0C9EF08F0CBEF95
:1011900008F098EF08F0000E1C6E000E1B6EDAEFE0
:1011A00008F0D00E156ECA0EE82EFED7152EFCD70D
:1011B0001B4A1C2A1850156E166A15501B5C1C50D1
:1011C000800A176E1650800A1758D8A0EAEF08F068
:1011D000ECEF08F0D1EF08F01AEF09F01450D96ED7
:1011E000DA6ADF50D8B4F7EF08F0F9EF08F0FDEF56
:1011F00008F01450D96EDA6ADF061350D96EDA6A35
:10120000DF50D8B406EF09F008EF09F00CEF09F051
:101210001350D96EDA6ADF0614C00EF031EC09F013
:1012200013C00EF031EC09F01FC001F020C002F035
:1012300058EC0CF01350D96EDA6ADF50D8A423EFC3
:1012400009F025EF09F0EEEF08F01450D96EDA6AD4
:10125000DF50D8A42EEF09F030EF09F0EEEF08F0E0
:1012600012000E50D96EDA6A020ED926DF50D8B4B9
:101270003CEF09F03EEF09F06EEF09F00E50D96E29
:10128000DA6ADF500F6E0F50016E026A0E50D96E8F
:10129000DA6A030ED926DECF03F0DDCF04F06FEC5F
:1012A0000CF001C007F002C008F0000E0A6E640ED8
:1012B000096E1EEC0CF00E50D96EDA6A030ED926B8
:1012C000DF50106E0750105C116E0E50D96EDA6A46
:1012D000030ED926DF50126E8FEF09F0000E116E4B
:1012E0000E50D96EDA6ADF500F6E0F50016E026A2F
:1012F0000E50D96EDA6A030ED926DECF03F0DDCFA9
:1013000004F06FEC0CF001C007F002C008F0000E12
:101310000A6E640E096E1EEC0CF00750126E0E5031
:10132000D96EDA6A010ED926DF50D8B49AEF09F0E7
:101330009CEF09F0BCEF09F00E50D96EDA6A050E89
:10134000D926DECF0FF0DDCF10F00FC0D9FF10C0CF
:10135000DAFF11C0DFFF0E50D96EDA6A070ED92608
:10136000DECF0FF0DDCF10F00FC0D9FF10C0DAFFD5
:1013700012C0DFFFDAEF09F00E50D96EDA6A050EFF
:10138000D926DECF0FF0DDCF10F00FC0D9FF10C08F
:10139000DAFF12C0DFFF0E50D96EDA6A070ED926C7
:1013A000DECF0FF0DDCF10F00FC0D9FF10C0DAFF95
:1013B00011C0DFFF12008EA6E0EF09F0E2EF09F0A6
:1013C000E9EF09F08EB4E7EF09F0E9EF09F0DBEFA0
:1013D00009F0090E036E1E0E026EE40EE82EFED713
:1013E000022EFCD7032EFAD700D08EB6FAEF09F002
:1013F000FCEF09F015EF0AF08EB401EF0AF003EFED
:101400000AF015EF0AF080867C8E520E036E2B0ECA
:10141000026E000EE82EFED7022EFCD7032EFAD75E
:1014200000D080967C9E81EF0AF08EB41AEF0AF00D
:101430001CEF0AF048EF0AF0110E036E3C0E026E2C
:10144000CB0EE82EFED7022EFCD7032EFAD70000D3
:101450000150D96EDA6ADECF02F0DDCF03F0050E5F
:101460000226000E03220150D96EDA6A02C0DEFFA6
:1014700003C0DDFF7C8E110E036E3C0E026ECB0EA0
:10148000E82EFED7022EFCD7032EFAD700007C9E52
:101490008EB64DEF0AF04FEF0AF07FEF0AF0110E13
:1014A000036E3C0E026ECB0EE82EFED7022EFCD74A
:1014B000032EFAD700000150D96EDA6ADECF02F0AF
:1014C000DDCF03F0FB0E0224046EFF0E0320056E39
:1014D0000150D96EDA6A04C0DEFF05C0DDFF8086E8
:1014E000110E036E3C0E026ECB0EE82EFED7022EBE
:1014F000FCD7032EFAD700008096DBEF09F0DBEF74
:1015000009F01200000E026E630E016ED4EC0BF0B7
:10151000000E2A6E010E2B6E010E2C6EAA0E2F6E7F
:101520000F0E306EA60E316E0F0E326E000E2E6E46
:10153000630E2D6E000E216E010E226E010E236EC3
:10154000250E266E0F0E276E210E286E0F0E296EA9
:10155000000E256E630E246E849E7C9E8896809677
:1015600086840E01B4958686B497010E336E000E04
:10157000346E3C0E356E0A0E366E3C0E376E0A0E19
:10158000386E0A0E396E140E3A6E140E3B6E33042A
:10159000D8A4CDEF0AF0CFEF0AF0DEEF0AF0360E56
:1015A000016EDBEC09F02A0E136E210E146E36501C
:1015B00001EC07F0330E016E7DEC0BF0020E3318D8
:1015C000D8A4E5EF0AF0E7EF0AF0F6EF0AF0350EDF
:1015D000016EDBEC09F02A0E136E210E146E3550ED
:1015E000C0EC07F0330E016E7DEC0BF0030E3318E8
:1015F000D8A4FDEF0AF0FFEF0AF00EEF0BF0390E62
:10160000016EDBEC09F02A0E136E210E146E3950B8
:101610007FEC08F0330E016E7DEC0BF0050E3318F5
:10162000D8A415EF0BF017EF0BF0C7EF0AF0010E7F
:10163000336E00EF00F0000E066E04BE24EF0BF0D8
:1016400022EF0BF02AEF0BF0036C041ED8B0042A33
:10165000010E066E02BE31EF0BF02FEF0BF037EFED
:101660000BF0016C021ED8B0022A010E061A000E01
:10167000086E000E076E03500410D8B442EF0BF052
:1016800044EF0BF06CEF0BF0010E056E4CEF0BF01E
:10169000D89003360436052A04AE51EF0BF053EF11
:1016A0000BF048EF0BF0D890073608360350015C7A
:1016B00004500258D8A05FEF0BF061EF0BF066EF1B
:1016C0000BF00350015E0450025A0780D890043298
:1016D0000332052E53EF0BF00650D8B472EF0BF027
:1016E00074EF0BF078EF0BF0076C081ED8B0082AE7
:1016F00007C001F008C002F012008EB482EF0BF0B8
:1017000084EF0BF0B2EF0BF0110E036E3C0E026E85
:10171000CB0EE82EFED7022EFCD7032EFAD7000000
:101720000150D96EDA6ADECF02F0DDCF03F0010E90
:101730000226000E03220150D96EDA6A02C0DEFFD3
:1017400003C0DDFF7C8E110E036E3C0E026ECB0ECD
:10175000E82EFED7022EFCD7032EFAD700007C9E7F
:10176000D3EF0BF08EB6B7EF0BF0B9EF0BF07DEFC8
:101770000BF0110E036E3C0E026ECB0EE82EFED760
:10178000022EFCD7032EFAD700008086110E036EBE
:101790003C0E026ECB0EE82EFED7022EFCD7032E97
:1017A000FAD700008096120085948598839E879CC6
:1017B0007D947D987B9E7F9C050E0E01746F060EB6
:1017C000766F070E696F080E886FBD508F0B40094A
:1017D000BD6EE00EBE16BF50F00B0109BF6E01C01A
:1017E000BCFFBD8E000EAA6E000EA66E000E0F018D
:1017F000256F000E216FFC0EAD16F30EAD16CF0E49
:10180000AD163F0EAD16AB88AB50F00B0C09AB6EAE
:10181000AB8EA788A750F00B0C09A76EA78E268960
:101820002651F00B0C09266F268F22892251F00BCE
:101830000C09226F228F889680961200000E0C6E83
:10184000000E0B6E09500A10D8B429EF0CF02BEFE4
:101850000CF053EF0CF0010E0D6E33EF0CF0D8903E
:1018600009360A360D2A0AAE38EF0CF03AEF0CF0C2
:101870002FEF0CF0D8900B360C360950075C0A504D
:101880000858D8A046EF0CF048EF0CF04DEF0CF0E4
:101890000950075E0A50085A0B80D8900A32093264
:1018A0000D2E3AEF0CF00BC007F00CC008F0120040
:1018B00065EF0CF0150E036EC60EE82EFED7032E54
:1018C000FCD700D00106D8A0020601500210D8A40F
:1018D0006CEF0CF06EEF0CF05AEF0CF012000150B0
:1018E0000302F3CF05F0F4CF06F001500402F350E9
:1018F000062602500302F350062605C001F006C07A
:1019000002F01200280EF66E190EF76E000EF86E39
:101910000900F5CF3CF000EE21F01B0EEE6AE80660
:09192000FDE1000182EF0AF0076D
:020000040030CA
:02000000AAFF55
:020004009FFF5C
:00000001FF
