:04000000CBEF25F02D
:100E00000000C7EC24F005C00CF006C00DF00E6A1F
:100E10000F6A000EE9EC1BF00CC0B5F00DC0B6F087
:100E20000EC0B7F00FC0B8F0EFEC24F005C00CF026
:100E300006C00DF00E6A0F6A000EE9EC1BF00CC044
:100E4000B9F00DC0BAF00EC0BBF00FC0BCF03FEC63
:100E500025F005C00CF006C00DF00E6A0F6A000EFA
:100E6000E9EC1BF00CC0BDF00DC0BEF00EC0BFF031
:100E70000FC0C0F017EC25F005C00CF006C00DF057
:100E80000E6A0F6A000EE9EC1BF00CC0C1F00DC039
:100E9000C2F00EC0C3F00FC0C4F0B5C06AF0B6C057
:100EA0006BF0B7C06CF0B8C06DF0B9C06EF0BAC0EE
:100EB0006FF0BBC070F0BCC071F0BDC072F0BEC0BE
:100EC00073F0BFC074F0C0C075F0C1C076F0C2C08E
:100ED00077F0C3C078F0C4C079F0C70E00017A6F14
:100EE000CB0E7B6FCF0E7C6F1DEC0CF0000E000163
:100EF000C66F000EC56F000E016E800E026EB10E41
:100F0000036E430E046EC7C005F0C8C006F0C9C02A
:100F100007F0CAC008F01FEC22F0D8B092EF07F03B
:100F200094EF07F018EF08F0C7C001F0C8C002F056
:100F3000C9C003F0CAC004F0000E056E000E066EB4
:100F4000B40E076E430E086E1FEC22F0D8B0ABEF64
:100F500007F0ADEF07F018EF08F0000E016E000E7D
:100F6000026EAA0E036E420E046ECBC005F0CCC01A
:100F700006F0CDC007F0CEC008F01FEC22F0D8B0CC
:100F8000C4EF07F0C6EF07F018EF08F0CBC001F090
:100F9000CCC002F0CDC003F0CEC004F0000E056E50
:100FA000000E066EB40E076E420E086E1FEC22F0A5
:100FB000D8B0DDEF07F0DFEF07F018EF08F0000E14
:100FC000016E000E026EA00E036E420E046ECFC0C4
:100FD00005F0D0C006F0D1C007F0D2C008F01FEC79
:100FE00022F0D8B0F6EF07F0F8EF07F018EF08F0AE
:100FF000CFC001F0D0C002F0D1C003F0D2C004F0E5
:10100000000E056E000E066EAA0E076E420E086EEA
:101010001FEC22F0D8B00FEF08F011EF08F018EF36
:1010200008F0000E0001C66F010EC56F18EF0CF03E
:10103000000E016E000E026E860E036E420E046EEE
:10104000C7C005F0C8C006F0C9C007F0CAC008F0A4
:101050001FEC22F0D8B02FEF08F031EF08F0B5EF19
:1010600008F0C7C001F0C8C002F0C9C003F0CAC090
:1010700004F0000E056E000E066E9E0E076E420E08
:10108000086E1FEC22F0D8B048EF08F04AEF08F0E5
:10109000B5EF08F0000E016E000E026E480E036EF2
:1010A000420E046ECBC005F0CCC006F0CDC007F0F8
:1010B000CEC008F01FEC22F0D8B061EF08F063EF6B
:1010C00008F0B5EF08F0CBC001F0CCC002F0CDC005
:1010D00003F0CEC004F0000E056E000E066E640E26
:1010E000076E420E086E1FEC22F0D8B07AEF08F0BF
:1010F0007CEF08F0B5EF08F0000E016E000E026EF6
:10110000200E036E420E046ECFC005F0D0C006F074
:10111000D1C007F0D2C008F01FEC22F0D8B093EF96
:1011200008F095EF08F0B5EF08F0CFC001F0D0C09F
:1011300002F0D1C003F0D2C004F0000E056E000E24
:10114000066E380E076E420E086E1FEC22F0D8B005
:10115000ACEF08F0AEEF08F0B5EF08F0000E0001BC
:10116000C66F020EC56F18EF0CF0CBC001F0CCC0FB
:1011700002F0CDC003F0CEC004F0000E056E000EEC
:10118000066E200E076E410E086E1FEC22F0D8B0DE
:10119000CCEF08F0CEEF08F007EF09F0000E016E7B
:1011A000000E026EF00E036E410E046ECFC005F00D
:1011B000D0C006F0D1C007F0D2C008F01FEC22F07A
:1011C000D8B0E5EF08F0E7EF08F007EF09F0CFC07F
:1011D00001F0D0C002F0D1C003F0D2C004F0000E84
:1011E000056E000E066E200E076E420E086E1FEC96
:1011F00022F0D8B0FEEF08F000EF09F007EF09F099
:10120000000E0001C66F030EC56F18EF0CF0000E44
:10121000016E000E026EA00E036E410E046EC7C07A
:1012200005F0C8C006F0C9C007F0CAC008F01FEC3E
:1012300022F0D8B01EEF09F020EF09F0A4EF09F07A
:10124000C7C001F0C8C002F0C9C003F0CAC004F0B2
:10125000000E056E000E066EC80E076E410E086E7B
:101260001FEC22F0D8B037EF09F039EF09F0A4EF06
:1012700009F0000E016E000E026E820E036E420E29
:10128000046ECBC005F0CCC006F0CDC007F0CEC0D8
:1012900008F01FEC22F0D8B050EF09F052EF09F03F
:1012A000A4EF09F0CBC001F0CCC002F0CDC003F038
:1012B000CEC004F0000E056E000E066E8C0E076E9A
:1012C000420E086E1FEC22F0D8B069EF09F06BEF08
:1012D00009F0A4EF09F0000E016E000E026E580E28
:1012E000036E420E046ECFC005F0D0C006F0D1C030
:1012F00007F0D2C008F01FEC22F0D8B082EF09F05E
:1013000084EF09F0A4EF09F0CFC001F0D0C002F0E3
:10131000D1C003F0D2C004F0000E056E000E066EC0
:10132000640E076E420E086E1FEC22F0D8B09BEFE1
:1013300009F09DEF09F0A4EF09F0000E0001C66F5F
:10134000040EC56F18EF0CF0000E016E000E026E59
:10135000500E036E410E046EC7C005F0C8C006F003
:10136000C9C007F0CAC008F01FEC22F0D8B0BBEF2C
:1013700009F0BDEF09F041EF0AF0C7C001F0C8C0A5
:1013800002F0C9C003F0CAC004F0000E056E000EE2
:10139000066E900E076E410E086E1FEC22F0D8B05C
:1013A000D4EF09F0D6EF09F041EF0AF0000E016E1C
:1013B000000E026E5C0E036E420E046ECBC005F092
:1013C000CCC006F0CDC007F0CEC008F01FEC22F074
:1013D000D8B0EDEF09F0EFEF09F041EF0AF0CBC024
:1013E00001F0CCC002F0CDC003F0CEC004F0000E7E
:1013F000056E000E066E700E076E420E086E1FEC34
:1014000022F0D8B006EF0AF008EF0AF041EF0AF038
:10141000000E016E000E026E480E036E420E046E48
:10142000CFC005F0D0C006F0D1C007F0D2C008F0A0
:101430001FEC22F0D8B01FEF0AF021EF0AF041EFC5
:101440000AF0CFC001F0D0C002F0D1C003F0D2C08A
:1014500004F0000E056E000E066E580E076E420E6A
:10146000086E1FEC22F0D8B038EF0AF03AEF0AF01D
:1014700041EF0AF0000E0001C66F050EC56F18EFB0
:101480000CF0000E016E000E026EA00E036E400EF8
:10149000046EC7C005F0C8C006F0C9C007F0CAC0D6
:1014A00008F01FEC22F0D8B058EF0AF05AEF0AF01B
:1014B000DEEF0AF0C7C001F0C8C002F0C9C003F0F7
:1014C000CAC004F0000E056E000E066E200E076EF8
:1014D000410E086E1FEC22F0D8B071EF0AF073EFE6
:1014E0000AF0DEEF0AF0000E016E000E026E8C0EA6
:1014F000036E420E046ECBC005F0CCC006F0CDC02A
:1015000007F0CEC008F01FEC22F0D8B08AEF0AF046
:101510008CEF0AF0DEEF0AF0CBC001F0CCC002F095
:10152000CDC003F0CEC004F0000E056E000E066EB6
:10153000960E076E420E086E1FEC22F0D8B0A3EF95
:101540000AF0A5EF0AF0DEEF0AF0000E016E000EC1
:10155000026E780E036E420E046ECFC005F0D0C04E
:1015600006F0D1C007F0D2C008F01FEC22F0D8B0CE
:10157000BCEF0AF0BEEF0AF0DEEF0AF0CFC001F0D8
:10158000D0C002F0D1C003F0D2C004F0000E056E4E
:10159000000E066E860E076E420E086E1FEC22F0DD
:1015A000D8B0D5EF0AF0D7EF0AF0DEEF0AF0000E60
:1015B0000001C66F060EC56F18EF0CF0000E016E2D
:1015C000000E026E940E036E420E046EC7C005F04C
:1015D000C8C006F0C9C007F0CAC008F01FEC22F06E
:1015E000D8B0F5EF0AF0F7EF0AF07BEF0BF0C7C0C9
:1015F00001F0C8C002F0C9C003F0CAC004F0000E78
:10160000056E000E066EAA0E076E420E086E1FECE7
:1016100022F0D8B00EEF0BF010EF0BF07BEF0BF0D9
:10162000000E016E000E026EE00E036E410E046E9F
:10163000CBC005F0CCC006F0CDC007F0CEC008F09E
:101640001FEC22F0D8B027EF0BF029EF0BF07BEF67
:101650000BF0CBC001F0CCC002F0CDC003F0CEC087
:1016600004F0000E056E000E066E040E076E420EAC
:10167000086E1FEC22F0D8B040EF0BF042EF0BF0F9
:101680007BEF0BF0000E016E000E026E140E036E67
:10169000420E046ECFC005F0D0C006F0D1C007F0F6
:1016A000D2C008F01FEC22F0D8B059EF0BF05BEF7E
:1016B0000BF07BEF0BF0CFC001F0D0C002F0D1C037
:1016C00003F0D2C004F0000E056E000E066E280E68
:1016D000076E420E086E1FEC22F0D8B072EF0BF0CE
:1016E00074EF0BF07BEF0BF0000E0001C66F070EDE
:1016F000C56F18EF0CF0000E016E000E026EB00EFA
:10170000036E410E046EC7C005F0C8C006F0C9C024
:1017100007F0CAC008F01FEC22F0D8B092EF0BF02F
:1017200094EF0BF018EF0CF0C7C001F0C8C002F046
:10173000C9C003F0CAC004F0000E056E000E066EAC
:10174000D80E076E410E086E1FEC22F0D8B0ABEF3A
:101750000BF0ADEF0BF018EF0CF0000E016E000E69
:10176000026E400E036E420E046ECBC005F0CCC07C
:1017700006F0CDC007F0CEC008F01FEC22F0D8B0C4
:10178000C4EF0BF0C6EF0BF018EF0CF0CBC001F07C
:10179000CCC002F0CDC003F0CEC004F0000E056E48
:1017A000000E066E540E076E420E086E1FEC22F0FD
:1017B000D8B0DDEF0BF0DFEF0BF018EF0CF0000E00
:1017C000016E000E026E340E036E420E046ECFC028
:1017D00005F0D0C006F0D1C007F0D2C008F01FEC71
:1017E00022F0D8B0F6EF0BF0F8EF0BF018EF0CF09A
:1017F000CFC001F0D0C002F0D1C003F0D2C004F0DD
:10180000000E056E000E066E480E076E420E086E44
:101810001FEC22F0D8B00FEF0CF011EF0CF018EF26
:101820000CF0000E0001C66F080EC56F18EF0CF02B
:10183000C5C05CF0C6C05DF012006AC022F06BC08B
:1018400023F06CC024F06DC025F076C026F077C080
:1018500027F078C028F079C029F005EC19F022C0F3
:10186000A9F023C0AAF024C0ABF025C0ACF06EC034
:1018700022F06FC023F070C024F071C025F076C054
:1018800026F077C027F078C028F079C029F005EC61
:1018900019F022C0ADF023C0AEF024C0AFF025C0D7
:1018A000B0F072C022F073C023F074C024F075C091
:1018B00025F076C026F077C027F078C028F079C0F0
:1018C00029F005EC19F022C0B1F023C0B2F024C019
:1018D000B3F025C0B4F0ADC001F0AEC002F0AFC0AF
:1018E00003F0B0C004F0A9C005F0AAC006F0ABC078
:1018F00007F0ACC008F01FEC22F0D8A082EF0CF08B
:1019000084EF0CF0B9EF0CF0B1C001F0B2C002F0FE
:10191000B3C003F0B4C004F0ADC005F0AEC006F033
:10192000AFC007F0B0C008F01FEC22F0D8A09BEFCA
:101930000CF09DEF0CF0A7EF0CF0B1C085F0B2C039
:1019400086F0B3C087F0B4C088F0AFEF0CF0ADC044
:1019500085F0AEC086F0AFC087F0B0C088F085C01B
:10196000A5F086C0A6F087C0A7F088C0A8F0ECEF6D
:101970000CF0B1C001F0B2C002F0B3C003F0B4C0CB
:1019800004F0A9C005F0AAC006F0ABC007F0ACC0D7
:1019900008F01FEC22F0D8A0D0EF0CF0D2EF0CF042
:1019A000DCEF0CF0B1C089F0B2C08AF0B3C08BF0AC
:1019B000B4C08CF0E4EF0CF0A9C089F0AAC08AF0A2
:1019C000ABC08BF0ACC08CF089C0A5F08AC0A6F08B
:1019D0008BC0A7F08CC0A8F0A9C001F0AAC002F08B
:1019E000ABC003F0ACC004F0ADC005F0AEC006F073
:1019F000AFC007F0B0C008F01FEC22F0D8A003EF92
:101A00000DF005EF0DF03AEF0DF0ADC001F0AEC0F6
:101A100002F0AFC003F0B0C004F0B1C005F0B2C036
:101A200006F0B3C007F0B4C008F01FEC22F0D8A055
:101A30001CEF0DF01EEF0DF028EF0DF0B1C091F08E
:101A4000B2C092F0B3C093F0B4C094F030EF0DF098
:101A5000ADC091F0AEC092F0AFC093F0B0C094F0C2
:101A600091C08DF092C08EF093C08FF094C090F032
:101A70006DEF0DF0A9C001F0AAC002F0ABC003F0F9
:101A8000ACC004F0B1C005F0B2C006F0B3C007F0BE
:101A9000B4C008F01FEC22F0D8A051EF0DF053EFC6
:101AA0000DF05DEF0DF0B1C095F0B2C096F0B3C08F
:101AB00097F0B4C098F065EF0DF0A9C095F0AAC0FA
:101AC00096F0ABC097F0ACC098F095C08DF096C082
:101AD0008EF097C08FF098C090F0A5C01AF0A6C005
:101AE0001BF0A7C01CF0A8C01DF08DC01EF08EC05A
:101AF0001FF08FC020F090C021F067EC25F01AC0D5
:101B0000A1F01BC0A2F01CC0A3F01DC0A4F0A1C096
:101B100001F0A2C002F0A3C003F0A4C004F0000EC4
:101B2000056E000E066E000E076E000E086EBFEC0E
:101B300023F0D8A09EEF0DF0A0EF0DF0ABEF0DF06D
:101B4000000E00019D6F000E9E6F000E9F6F000E35
:101B5000A06F0CEF0FF0A5C001F0A6C002F0A7C067
:101B600003F0A8C004F0A9C005F0AAC006F0ABC0FD
:101B700007F0ACC008F0BFEC23F0D8A0C2EF0DF026
:101B8000C4EF0DF026EF0EF0A1C026F0A2C027F0A2
:101B9000A3C028F0A4C029F0B1C01EF0B2C01FF04D
:101BA000B3C020F0B4C021F0ADC01AF0AEC01BF03D
:101BB000AFC01CF0B0C01DF067EC25F01AC022F0D9
:101BC0001BC023F01CC024F01DC025F005EC19F04B
:101BD00022C07DF023C07EF024C07FF025C080F0BD
:101BE000000E586E000E596EC00E5A6E400E5B6E9F
:101BF0007DC054F07EC055F07FC056F080C057F0D5
:101C000010EC21F054C081F055C082F056C083F032
:101C100057C084F081C03BF082C03CF083C03DF0EF
:101C200084C03EF0000E3F6E000E406E700E416E9E
:101C3000420E426EF0EC16F03BC09DF03CC09EF0B0
:101C40003DC09FF03EC0A0F00CEF0FF0A5C001F02A
:101C5000A6C002F0A7C003F0A8C004F0ADC005F014
:101C6000AEC006F0AFC007F0B0C008F0BFEC23F084
:101C7000D8A03DEF0EF03FEF0EF099EF0EF0A1C0AF
:101C800026F0A2C027F0A3C028F0A4C029F0A9C064
:101C90001EF0AAC01FF0ABC020F0ACC021F0B1C054
:101CA0001AF0B2C01BF0B3C01CF0B4C01DF067EC5A
:101CB00025F01AC022F01BC023F01CC024F01DC068
:101CC00025F005EC19F022C099F023C09AF024C049
:101CD0009BF025C09CF0000E056E000E066E000EF7
:101CE000076E400E086E99C001F09AC002F09BC0CA
:101CF00003F09CC004F090EC14F001C03BF002C073
:101D00003CF003C03DF004C03EF0000E3F6E000EFC
:101D1000406E700E416E420E426EF0EC16F03BC00B
:101D20009DF03CC09EF03DC09FF03EC0A0F00CEF87
:101D30000FF0A5C001F0A6C002F0A7C003F0A8C034
:101D400004F0B1C005F0B2C006F0B3C007F0B4C0F3
:101D500008F0BFEC23F0D8A0B0EF0EF0B2EF0EF019
:101D60000CEF0FF0A1C026F0A2C027F0A3C028F00E
:101D7000A4C029F0ADC01EF0AEC01FF0AFC020F06F
:101D8000B0C021F0A9C01AF0AAC01BF0ABC01CF073
:101D9000ACC01DF067EC25F01AC022F01BC023F088
:101DA0001CC024F01DC025F005EC19F022C099F0EC
:101DB00023C09AF024C09BF025C09CF0000E056E55
:101DC000000E066E800E076E400E086E99C001F080
:101DD0009AC002F09BC003F09CC004F090EC14F099
:101DE00001C03BF002C03CF003C03DF004C03EF037
:101DF000000E3F6E000E406E700E416E420E426E3F
:101E0000F0EC16F03BC09DF03CC09EF03DC09FF052
:101E10003EC0A0F00CEF0FF00001A0BF14EF0FF0D8
:101E200012EF0FF02EEF0FF09DC001F09EC002F0F8
:101E30009FC003F0A0C004F0000E056E000E066EF9
:101E4000B40E076E430E086E90EC14F001C09DF0C6
:101E500002C09EF003C09FF004C0A0F000017A51C0
:101E6000D96EDA6A9DC0DEFF9EC0DEFF9FC0DEFF36
:101E7000A0C0DEFFA5C001F0A6C002F0A7C003F01D
:101E8000A8C004F0000E056E000E066E000E076E70
:101E9000000E086EBFEC23F0D8A051EF0FF053EF07
:101EA0000FF061EF0FF000017B51D96EDA6A000E7E
:101EB000DE6E000EDE6E000EDE6E000EDD6E91EF49
:101EC0000FF0A5C026F0A6C027F0A7C028F0A8C034
:101ED00029F0A1C022F0A2C023F0A3C024F0A4C026
:101EE00025F005EC19F022C03BF023C03CF024C0E3
:101EF0003DF025C03EF0000E3F6E000E406EC80E55
:101F0000416E420E426EF0EC16F000017B51D96E2C
:101F1000DA6A3BC0DEFF3CC0DEFF3DC0DEFF3EC0F4
:101F2000DEFFA5C03BF0A6C03CF0A7C03DF0A8C0B6
:101F30003EF0000E3F6E000E406EC80E416E420E27
:101F4000426EF0EC16F000017C51D96EDA6A3BC0AB
:101F5000DEFF3CC0DEFF3DC0DEFF3EC0DEFF120004
:101F6000ABEC25F0290E5F6E960E5E6E7F0EE82EAE
:101F7000FED75E2EFCD75F2EFAD7000080867C8EBF
:101F8000D4C013F0D5C014F00001D351D96EDA6A71
:101F9000050ED926DF50C3EC1CF00001DA2B01EC52
:101FA00007F05CC0D8F05DC0D9F080967C9E0A0E28
:101FB0000001DA65DEEF0FF0E0EF0FF045EF10F013
:101FC000D4C013F0D5C014F0D351D96EDA6A080E1C
:101FD000D926DF5001EC1FF0D4C013F0D5C014F0A7
:101FE0000001D351D96EDA6A010ED926DF5083EC95
:101FF0001DF0D4C013F0D5C014F00001D351D96E38
:10200000DA6A010ED926DF5083EC1DF0D4C013F03C
:10201000D5C014F00001D351D96EDA6A060ED92664
:10202000DF5001EC1FF0000E0001D76F000ED66FDD
:1020300029EF10F0D4C013F0D5C014F0D351D96EED
:10204000DA6A050ED926DF50C3EC1CF00001D64B2E
:10205000D72BD7BF35EF10F0D75109E10A0ED65D67
:10206000D8A035EF10F037EF10F01AEF10F0D4C011
:1020700013F0D5C014F0D351D96EDA6A080ED92600
:10208000DF5001EC1FF02AEF12F0D851D911D8B46B
:102090004CEF10F04EEF10F0B2EF0FF03C0EDB25DE
:1020A000D96EDA6A010EDA22DA510A0FDF6E000EFB
:1020B000DA6FDB2BD805D911D8A461EF10F063EFEC
:1020C00010F087EF10F03C0EDB25D96EDA6A010EB6
:1020D000DA22D8C0DFFFDB2BD4C013F0D5C014F058
:1020E000D351D96EDA6A080ED926DF5001EC1FF001
:1020F000D4C013F0D5C014F00001D351D96EDA6A00
:10210000010ED926DF5083EC1DF0B2EF0FF0020E66
:10211000D819D911D8A48FEF10F091EF10F0B5EFC6
:1021200010F03C0EDB25D96EDA6A010EDA22D8C037
:10213000DFFFDB2BD4C013F0D5C014F0D351D96E20
:10214000DA6A080ED926DF5001EC1FF0D4C013F074
:10215000D5C014F00001D351D96EDA6A020ED92627
:10216000DF5042EC1EF0B2EF0FF0030ED819D91178
:10217000D8A4BDEF10F0BFEF10F00AEF11F03C0E45
:10218000DB25D96EDA6A010EDA22D8C0DFFFDB2B3D
:10219000D4C013F0D5C014F0D351D96EDA6A080E4A
:1021A000D926DF5001EC1FF0D4C013F0D5C014F0D5
:1021B0000001D351D96EDA6A010ED926DF5083ECC3
:1021C0001DF0D4C013F0D5C014F00001D351D96E66
:1021D000DA6A010ED926DF5083EC1DF0D4C013F06B
:1021E000D5C014F00001D351D96EDA6A060ED92693
:1021F000DF5001EC1FF0D4C013F0D5C014F0000183
:10220000D351D96EDA6A070ED926DF50C3EC1CF021
:10221000B2EF0FF0040ED819D911D8A412EF11F0B3
:1022200014EF11F045EF11F03C0EDB25D96EDA6AA0
:10223000010EDA22D8C0DFFFDB2BD4C013F0D5C0EB
:1022400014F0D351D96EDA6A080ED926DF5001ECAA
:102250001FF0D4C013F0D5C014F00001D351D96ED3
:10226000DA6A060ED926DF5001EC1FF0D4C013F055
:10227000D5C014F00001D351D96EDA6A010ED92607
:10228000DF5083EC1DF0B2EF0FF0050ED819D91115
:10229000D8A44DEF11F04FEF11F080EF11F03C0E8C
:1022A000DB25D96EDA6A010EDA22D8C0DFFFDB2B1C
:1022B000D4C013F0D5C014F0D351D96EDA6A080E29
:1022C000D926DF5001EC1FF0D4C013F0D5C014F0B4
:1022D0000001D351D96EDA6A060ED926DF5001EC1F
:1022E0001FF0D4C013F0D5C014F00001D351D96E43
:1022F000DA6A020ED926DF5042EC1EF0B2EF0FF080
:10230000060ED819D911D8A488EF11F08AEF11F070
:10231000AEEF11F03C0EDB25D96EDA6A010EDA223F
:10232000D8C0DFFFDB2BD4C013F0D5C014F0D351DD
:10233000D96EDA6A080ED926DF5001EC1FF0D4C03E
:1023400013F0D5C014F00001D351D96EDA6A030E30
:10235000D926DF5083EC1DF0B2EF0FF0070ED8192D
:10236000D911D8A4B6EF11F0B8EF11F0DCEF11F0ED
:102370003C0EDB25D96EDA6A010EDA22D8C0DFFF07
:10238000DB2BD4C013F0D5C014F0D351D96EDA6A68
:10239000080ED926DF5001EC1FF0D4C013F0D5C0D1
:1023A00014F00001D351D96EDA6A040ED926DF5039
:1023B00042EC1EF0B2EF0FF0080ED819D911D8A4D4
:1023C000E4EF11F0E6EF11F028EF12F0D4C013F0B3
:1023D000D5C014F0D351D96EDA6A080ED926DF5071
:1023E00001EC1FF0D4C013F0D5C014F00001D3519C
:1023F000D96EDA6A010ED926DF5083EC1DF0D4C005
:1024000013F0D5C014F00001D351D96EDA6A010E71
:10241000D926DF5083EC1DF0D4C013F0D5C014F0E2
:102420000001D351D96EDA6A060ED926DF5001ECCD
:102430001FF0D4C013F0D5C014F00001D351D96EF1
:10244000DA6A070ED926DF50C3EC1CF02AEF12F02F
:10245000B2EF0FF01200000E2D6E320E2C6E3C0EFD
:102460002C24D96E010E2D20DA6E0A0EDF643BEFAC
:1024700012F03DEF12F073EF12F03C0E2C24D96EE7
:10248000010E2D20DA6EDF50F60F296E000E286E39
:10249000000E276E5AEF12F022C013F023C014F082
:1024A0002150D96EDA6A050ED926DF50C3EC1CF034
:1024B000274A282AFF0E2924246E256AFF0E25228A
:1024C0002450275C2850800A266E2550800A265802
:1024D000D8A06DEF12F06FEF12F04CEF12F067EF33
:1024E00014F067EF14F03C0E2C24D96E010E2D2051
:1024F000DA6EDE04D8A47FEF12F081EF12F0A7EFBE
:1025000012F022C013F023C014F02150D96EDA6A01
:10251000020ED926DF5042EC1EF022C013F023C079
:1025200014F02150D96EDA6A060ED926DF5001EC7C
:102530001FF022C013F023C014F02150D96EDA6AC4
:10254000070ED926DF50C3EC1CF067EF14F03C0EE9
:102550002C24D96E010E2D20DA6E020EDE18D8A4BE
:10256000B4EF12F0B6EF12F0DCEF12F022C013F06D
:1025700023C014F02150D96EDA6A010ED926DF503B
:1025800083EC1DF022C013F023C014F02150D96E4B
:10259000DA6A060ED926DF5001EC1FF022C013F0D4
:1025A00023C014F02150D96EDA6A070ED926DF5005
:1025B000C3EC1CF067EF14F03C0E2C24D96E010E16
:1025C0002D20DA6E030EDE18D8A4E9EF12F0EBEF3F
:1025D00012F01DEF13F022C013F023C014F02150AD
:1025E000D96EDA6A010ED926DF5083EC1DF022C0C5
:1025F00013F023C014F02150D96EDA6A010ED926E7
:10260000DF5083EC1DF022C013F023C014F02150E2
:10261000D96EDA6A060ED926DF5001EC1FF022C00F
:1026200013F023C014F02150D96EDA6A070ED926B0
:10263000DF50C3EC1CF067EF14F03C0E2C24D96E75
:10264000010E2D20DA6E040EDE18D8A42AEF13F046
:102650002CEF13F08EEF13F022C013F023C014F010
:102660002150D96EDA6A010ED926DF5083EC1DF0B5
:1026700022C013F023C014F02150D96EDA6A050E7F
:10268000D926DF50C3EC1CF022C013F023C014F095
:102690002150D96EDA6A050ED926DF50C3EC1CF042
:1026A00022C013F023C014F02150D96EDA6A080E4C
:1026B000D926DF5001EC1FF022C013F023C014F024
:1026C0002150D96EDA6A010ED926DF5083EC1DF055
:1026D00022C013F023C014F02150D96EDA6A010E23
:1026E000D926DF5083EC1DF022C013F023C014F074
:1026F0002150D96EDA6A060ED926DF5001EC1FF0A0
:1027000022C013F023C014F02150D96EDA6A070EEC
:10271000D926DF50C3EC1CF067EF14F03C0E2C24DC
:10272000D96E010E2D20DA6E050EDE18D8A49BEFAF
:1027300013F09DEF13F0FFEF13F022C013F023C04E
:1027400014F02150D96EDA6A020ED926DF5042EC1D
:102750001EF022C013F023C014F02150D96EDA6AA3
:10276000050ED926DF50C3EC1CF022C013F023C0A5
:1027700014F02150D96EDA6A050ED926DF50C3EC69
:102780001CF022C013F023C014F02150D96EDA6A75
:10279000080ED926DF5001EC1FF022C013F023C031
:1027A00014F02150D96EDA6A010ED926DF5083EC7D
:1027B0001DF022C013F023C014F02150D96EDA6A44
:1027C000010ED926DF5083EC1DF022C013F023C088
:1027D00014F02150D96EDA6A060ED926DF5001ECCA
:1027E0001FF022C013F023C014F02150D96EDA6A12
:1027F000070ED926DF50C3EC1CF067EF14F03C0E37
:102800002C24D96E010E2D20DA6E060EDE18D8A407
:102810000CEF14F00EEF14F034EF14F022C013F0AC
:1028200023C014F02150D96EDA6A040ED926DF5085
:1028300042EC1EF022C013F023C014F02150D96ED8
:10284000DA6A060ED926DF5001EC1FF022C013F021
:1028500023C014F02150D96EDA6A070ED926DF5052
:10286000C3EC1CF067EF14F03C0E2C24D96E010E63
:102870002D20DA6E070EDE18D8A441EF14F043EFD6
:1028800014F071EF12F022C013F023C014F02150A5
:10289000D96EDA6A030ED926DF5083EC1DF022C010
:1028A00013F023C014F02150D96EDA6A060ED9262F
:1028B000DF5001EC1FF022C013F023C014F02150B0
:1028C000D96EDA6A070ED926DF50C3EC1CF02C064D
:1028D000D8A02D062DBE71EF14F06FEF14F02FEF7E
:1028E00012F0000E0001DB6F000E2B6E000E2A6E40
:1028F0003C0E2A24D96E010E2B20DA6EDF6A2A4A9A
:102900002B2A2BBE8DEF14F02B5009E1320E2A5CDE
:10291000D8A08DEF14F08FEF14F078EF14F01200C0
:102920000450800B0D6E045004240F6E03AE9BEF19
:1029300014F09DEF14F09EEF14F00F800F50D8B4F8
:10294000A4EF14F0A6EF14F0BBEF14F00F28D8A4F6
:10295000ACEF14F0AEEF14F0B6EF14F0000E016E11
:10296000000E026E000E036E000E046E038E000E4B
:10297000046EC3EF14F0000E016E000E026E000E26
:10298000036E000E046E0850800B0E6E0D500E1874
:10299000D8B4CDEF14F0CFEF14F0D0EF14F00D8CCD
:1029A000085008240E6E07AED8EF14F0DAEF14F0DA
:1029B000DBEF14F00E800E50D8B4E1EF14F0E3EF2B
:1029C00014F0F8EF14F00E28D8A4E9EF14F0EBEFB0
:1029D00014F0F3EF14F0000E056E000E066E000EFC
:1029E000076E000E086E078E000E086E00EF15F0E1
:1029F000000E056E000E066E000E076E000E086ECD
:102A00000F500E5CD8B007EF15F009EF15F030EF5E
:102A100015F00DAC0EEF15F010EF15F012EF15F0EC
:102A2000800E0D1A0FC010F00EC00FF010C00EF087
:102A300001C010F005C001F010C005F002C010F098
:102A400006C002F010C006F003C010F007C003F08B
:102A500010C007F004C010F008C004F010C008F067
:102A6000000E106E0F500EC009F00A6A095E000ECB
:102A70000A5A0ABE45EF15F00A5009E11A0E095C20
:102A8000D8A045EF15F047EF15F07EEF15F0015097
:102A9000021003100410D8A450EF15F053EF15F0F6
:102AA000010E54EF15F0000E106E000E016E000EB8
:102AB000026E000E036E000E046E0EC00FF087EF64
:102AC00015F010A066EF15F068EF15F06EEF15F039
:102AD000D89010300109106E70EF15F0D8901032B8
:102AE00001A075EF15F077EF15F078EF15F0108E67
:102AF000043404320332023201320F2A0E500F5CCA
:102B0000D8A085EF15F087EF15F061EF15F00DBC3B
:102B10008CEF15F08EEF15F0CEEF15F00F50D8A416
:102B200094EF15F096EF15F0A0EF15F0000E016E82
:102B3000000E026E000E036E000E046EEFEF16F034
:102B40000550012606500222075003220850042295
:102B500004A0ADEF15F0AFEF15F05BEF16F010A08D
:102B6000B4EF15F0B6EF15F0BCEF15F0D8901030BB
:102B70000109106EBEEF15F0D890103201A0C3EF1E
:102B800015F0C5EF15F0C6EF15F0108E04340432C1
:102B90000332023201320F2A5BEF16F00550015C5E
:102BA00006500258075003580450800A096E085016
:102BB000800A0958D8B0DFEF15F0E1EF15F00CEFFF
:102BC00016F00150055C096E025006580A6E03505B
:102BD00007580B6E045008580C6EFF0E0924016E46
:102BE000FF0E0A20026EFF0E0B20036EFF0E0C205C
:102BF000046E800E0D1A106C1050D8A402EF16F05F
:102C000004EF16F014EF16F0010E0126000E02225A
:102C10000322042214EF16F00550015E0650025AFA
:102C20000750035A0850045A0150021003100410B0
:102C3000D8A41DEF16F01FEF16F054EF16F0105049
:102C4000D8A425EF16F027EF16F054EF16F0000E7B
:102C5000016E000E026E000E036E000E046EEFEFAA
:102C600016F0D890013602360336043610AE3BEF2C
:102C700016F03DEF16F03EEF16F0018010A043EF86
:102C800016F045EF16F049EF16F0D88010364BEFEE
:102C900016F0D89010360F50D8B451EF16F053EF0D
:102CA00016F054EF16F00F0603AE59EF16F05BEF77
:102CB00016F031EF16F0000E0E6E10AE62EF16F049
:102CC00064EF16F07CEF16F010C009F07F0E0916C5
:102CD000D8B46DEF16F06FEF16F073EF16F0010E2B
:102CE0000E6E7CEF16F001A078EF16F07AEF16F07A
:102CF0007CEF16F06FEF16F00E50D8B482EF16F09E
:102D000084EF16F0AFEF16F0010E0126000E02223E
:102D10000322042204A08FEF16F091EF16F0AFEF1C
:102D200016F001C009F002C00AF003C00BF004C0A5
:102D30000CF00C340C320B320A32093209C001F0AB
:102D40000AC002F00BC003F00CC004F00F28D8B486
:102D5000ACEF16F0AEEF16F0AFEF16F00F2A0F281B
:102D6000D8B4B5EF16F0B7EF16F0BFEF16F00F506E
:102D7000D8A4BDEF16F0BFEF16F0D1EF16F0000E9D
:102D8000016E000E026E000E036E000E046E0F50F8
:102D9000D8A4CDEF16F0CFEF16F0D1EF16F0000E5D
:102DA0000D6E0FA0D6EF16F0D8EF16F0DBEF16F091
:102DB000038EDCEF16F0039ED8900F30046E0DAE3C
:102DC000E4EF16F0E6EF16F0E7EF16F0048E01C020
:102DD00001F002C002F003C003F004C004F01200CE
:102DE0003E50800B476E3E503E244D6E3DAEFBEF95
:102DF00016F0FDEF16F0FEEF16F04D804D50D8B4F2
:102E000004EF17F006EF17F019EF17F04D28D8A4CC
:102E10000CEF17F00EEF17F016EF17F0000E3B6EE9
:102E2000000E3C6E000E3D6E000E3E6E3D8E21EF9C
:102E300017F0000E3B6E000E3C6E000E3D6E000E55
:102E40003E6E4250800B471A425042244C6E41AEB7
:102E50002CEF17F02EEF17F02FEF17F04C804C509F
:102E6000D8B435EF17F037EF17F04AEF17F04C28CA
:102E7000D8A43DEF17F03FEF17F047EF17F0000E23
:102E80003F6E000E406E000E416E000E426E418E8F
:102E900052EF17F0000E3F6E000E406E000E416EB6
:102EA000000E426E4C50D8B458EF17F05AEF17F09E
:102EB00062EF17F04D50D8A460EF17F062EF17F0F3
:102EC0006CEF17F0000E3B6E000E3C6E000E3D6E78
:102ED000000E3E6E04EF19F041503B02F3CF52F06A
:102EE000F4CF53F05250486E496A4A6A4B6A5350C5
:102EF0004E6E4F6A506A516A40503C02F3CF52F016
:102F0000F4CF53F052504826000E49224A224B2259
:102F100053504E26000E4F22502251223F503D0268
:102F2000F3CF52F0F4CF53F052504826000E49220E
:102F30004A224B2253504E26000E4F22502251223D
:102F40004AC04BF049C04AF048C049F0486A3F5077
:102F50003C02F3CF52F0F4CF53F052504826535076
:102F60004922000E4A22000E4B2240503B02F3CF72
:102F700052F0F4CF53F05250482653504922000EDD
:102F80004A22000E4B224AC04BF049C04AF048C0CA
:102F900049F0486A3F503B02F3CF52F0F4CF53F070
:102FA0005250482653504922000E4A22000E4B220E
:102FB00041503C02F3CF52F0F4CF53F052504E2622
:102FC00053504F22000E5022000E512240503D021D
:102FD000F3CF52F0F4CF53F052504E2653504F22BD
:102FE000000E5022000E512241503D02F3CF52F00C
:102FF000F4CF53F05250436E5350446E456A466AC4
:1030000045C046F044C045F043C044F0436A4350D5
:103010004E2644504F22455050224650512248C01F
:1030200043F049C044F04AC045F04BC046F0190E89
:103030001FEF18F0D8904632453244324332E82E22
:103040001AEF18F043504E2644504F22455050225C
:10305000465051224AC04BF049C04AF048C049F09E
:10306000486A4C504DC043F0446A4326000E442247
:10307000820E4324526EFF0E4420536E55EF18F01B
:10308000D8904E364F36503651364BAE4AEF18F088
:103090004CEF18F04DEF18F04E80D8904836493676
:1030A0004A364B365206D8A0530650AE5AEF18F0A7
:1030B0005CEF18F040EF18F0000E4C6E4BAE63EF73
:1030C00018F065EF18F089EF18F0FF0E4814436E02
:1030D000FF0E4914446EFF0E4A14456E7F0E4B14CA
:1030E000466E4350441045104610D8B47AEF18F09D
:1030F0007CEF18F080EF18F0010E4C6E89EF18F09D
:103100004EA085EF18F087EF18F089EF18F07CEFEC
:1031100018F04C50D8B48FEF18F091EF18F0B5EFCD
:1031200018F0010E4E26000E4F225022512251A0BF
:103130009CEF18F09EEF18F0B5EF18F04EC043F07A
:103140004FC044F050C045F051C046F046344632BE
:1031500045324432433243C04EF044C04FF045C084
:1031600050F046C051F0524A532A53BEC0EF18F0F7
:10317000535008E15228D8A0C0EF18F0C2EF18F061
:10318000CCEF18F0000E4E6E000E4F6E800E506E9B
:103190007F0E516EFAEF18F053BED9EF18F053506E
:1031A00006E15204D8B0D7EF18F0D9EF18F0E5EFE8
:1031B00018F0000E4E6E000E4F6E000E506E000E98
:1031C000516E000E476EFAEF18F052C04DF0FF0E30
:1031D0004E16FF0E4F167F0E5016000E51164DA0C4
:1031E000F4EF18F0F6EF18F0F7EF18F0508ED890D3
:1031F0004D30516E475051124EC03BF04FC03CF025
:1032000050C03DF051C03EF012002550800B326E90
:1032100025502524396E24AE10EF19F012EF19F065
:1032200013EF19F039803950D8B419EF19F01BEFAA
:1032300019F030EF19F03928D8A421EF19F023EF55
:1032400019F02BEF19F0000E226E000E236E000E07
:10325000246E000E256E248E000E256E38EF19F0B8
:10326000000E226E000E236E000E246E000E256EE0
:103270002950800B321A295029243A6E28AE43EF88
:1032800019F045EF19F046EF19F03A803A50D8B4EA
:103290004CEF19F04EEF19F063EF19F03A28D8A46B
:1032A00054EF19F056EF19F05EEF19F0000E266E8C
:1032B000000E276E000E286E000E296E288E000E5E
:1032C000296E6BEF19F0000E266E000E276E000EB1
:1032D000286E000E296E2650271028102910D8A419
:1032E00074EF19F076EF19F08EEF19F0000E226EE0
:1032F000000E236E000E246E000E256E800E24122A
:103300007F0E25123250251222C022F023C023F056
:1033100024C024F025C025F0D1EF1AF03950D8A4EC
:1033200094EF19F096EF19F0A0EF19F0000E226E4D
:10333000000E236E000E246E000E256ED1EF1AF0E3
:103340003A5039C02AF02B6A2A5E000E2B5A7F0EA3
:103350002A24336E000E2B20346E22C02EF023C0A0
:103360002FF024C030F025C031F0000E226E000E88
:10337000236E000E246E000E256E000E356E000EBC
:10338000366E000E376E000E386E000E3A6E01EF8C
:103390001AF03A50D8B4CFEF19F0D1EF19F0E8EFA6
:1033A00019F0D8902E362F3630363136D890223656
:1033B00023362436253638AEE0EF19F0E2EF19F067
:1033C000E3EF19F02280D890353636363736383666
:1033D00026502E5C27502F582850305829503158ED
:1033E000D8A0F5EF19F0F7EF19F000EF1AF0388CCC
:1033F00026502E5E27502F5A2850305A2950315AC5
:103400003A2A190E3A6407EF1AF009EF1AF0C9EFD9
:1034100019F02E502F1030103110D8B412EF1AF0CE
:1034200014EF1AF02CEF1AF035802CEF1AF0D89028
:10343000223623362436253638AE21EF1AF023EF14
:103440001AF024EF1AF02280D89035363636373607
:1034500038363306D8A0340624AE31EF1AF033EFF5
:103460001AF017EF1AF0000E3A6E38AE3AEF1AF073
:103470003CEF1AF060EF1AF0FF0E35142A6EFF0EC3
:1034800036142B6EFF0E37142C6E7F0E38142D6EF3
:103490002A502B102C102D10D8B451EF1AF053EFE6
:1034A0001AF057EF1AF0010E3A6E60EF1AF022A0F0
:1034B0005CEF1AF05EEF1AF060EF1AF053EF1AF0BB
:1034C0003A50D8B466EF1AF068EF1AF08CEF1AF0A1
:1034D000010E2226000E23222422252225A073EF8E
:1034E0001AF075EF1AF08CEF1AF022C02AF023C000
:1034F0002BF024C02CF025C02DF02D342D322C3291
:103500002B322A322AC022F02BC023F02CC024F008
:103510002DC025F0334A342A34BE97EF1AF03450C8
:1035200008E13328D8A097EF1AF099EF1AF0A4EF2A
:103530001AF0000E346E3368000E226E000E236EF9
:10354000000E246E000E256E34BEB1EF1AF034501A
:1035500006E13304D8B0AFEF1AF0B1EF1AF0BFEFC5
:103560001AF0000E346E000E336E000E226E000E46
:10357000236E000E246E000E256E000E326E33C0D8
:1035800039F039A0C6EF1AF0C8EF1AF0CBEF1AF0F5
:10359000248ECCEF1AF0249ED8903930256E82EF1D
:1035A00019F012002150D96EDA6ADE04D8A4DBEFDC
:1035B0001AF0DDEF1AF0F1EF1AF02128016E69EC34
:1035C00020F022C013F023C014F02150D96EDA6A23
:1035D000010ED926DF5083EC1DF021C001F068EC0C
:1035E00023F02150D96EDA6A020EDE18D8A4FBEF60
:1035F0001AF0FDEF1AF012EF1BF02150020F016ECE
:1036000069EC20F022C013F023C014F02150D96ED1
:10361000DA6A020ED926DF5042EC1EF021C001F01A
:1036200068EC23F02150D96EDA6A030EDE18D8A4B4
:103630001CEF1BF01EEF1BF033EF1BF02150030FAC
:10364000016E69EC20F022C013F023C014F0215069
:10365000D96EDA6A030ED926DF5083EC1DF021C043
:1036600001F068EC23F02150D96EDA6A040EDE18FE
:10367000D8A43DEF1BF03FEF1BF054EF1BF021509F
:10368000040F016E69EC20F022C013F023C014F087
:103690002150D96EDA6A040ED926DF5042EC1EF0B2
:1036A00021C001F068EC23F02150D96EDA6A050ED2
:1036B000DE18D8A45EEF1BF060EF1BF075EF1BF077
:1036C0002150050F016E69EC20F022C013F023C0D9
:1036D00014F02150D96EDA6A050ED926DF50C3ECFA
:1036E0001CF021C001F068EC23F02150D96EDA6A99
:1036F000060EDE18D8A47FEF1BF081EF1BF096EFCB
:103700001BF02150060F016E69EC20F022C013F06F
:1037100023C014F02150D96EDA6A060ED926DF5084
:1037200001EC1FF021C001F068EC23F02150D96EAC
:10373000DA6A070EDE18D8A4A0EF1BF0A2EF1BF088
:10374000B7EF1BF02150070F016E69EC20F022C08B
:1037500013F023C014F02150D96EDA6A070ED9266F
:10376000DF50C3EC1CF021C001F068EC23F02150C5
:10377000D96EDA6A080EDE18D8A4C1EF1BF0C3EFC9
:103780001BF0D8EF1BF02150080F016E69EC20F000
:1037900022C013F023C014F02150D96EDA6A080E4B
:1037A000D926DF5001EC1FF021C001F068EC23F0B6
:1037B0002150D96EDA6A080EDF64E1EF1BF0E3EF07
:1037C0001BF0D2EF1AF02150D96EDA6A010EDF6ECB
:1037D0001200146E1450D8B4F0EF1BF0F2EF1BF08F
:1037E00014EF1CF00FBEF9EF1BF0F7EF1BF014EF16
:1037F0001CF00CC010F00DC011F00EC012F00FC084
:1038000013F0101E111E121E131E102A000E11227C
:103810001222132210C016F011C017F012C018F0B7
:1038200013C019F01CEF1CF00CC016F00DC017F0FF
:103830000EC018F00FC019F00C500D100E100F1024
:10384000D8A425EF1CF027EF1CF031EF1CF0000E80
:103850000C6E000E0D6E000E0E6E000E0F6EC2EF9F
:103860001CF0960E156E3BEF1CF0152AD8901932FD
:10387000183217321632000E1614106E000E17147E
:10388000116E000E1814126EFE0E1914136E1050E5
:10389000111012101310D8A450EF1CF052EF1CF0AE
:1038A00035EF1CF060EF1CF0152A010E1626000EF5
:1038B000172218221922D8901932183217321632CC
:1038C000000E1614106E000E1714116E000E181450
:1038D000126EFF0E1914136E1050111012101310E7
:1038E000D8A475EF1CF077EF1CF054EF1CF07FEFBD
:1038F0001CF01506D890163617361836193618BE2D
:1039000084EF1CF086EF1CF08EEF1CF0020E1560A9
:103910008CEF1CF08EEF1CF079EF1CF015B093EFDC
:103920001CF095EF1CF096EF1CF0189ED890153205
:1039300015C010F0116A126A136A10C013F0126AEF
:10394000116A106A105016121150171212501812E4
:10395000135019121450D8B4B0EF1CF0B2EF1CF091
:10396000BAEF1CF00FBEB9EF1CF0B7EF1CF0BAEFC6
:103970001CF0198E16C00CF017C00DF018C00EF018
:1039800019C00FF01200186E1350D96EDA6A010ECA
:10399000D926010EDF6E1450D96EDA6A010ED926CF
:1039A000010EDF6E000E1E6E280E1D6E000E026EE2
:1039B000640E016E000E046E280E036E06EC23F0FA
:1039C00001C01FF002C020F0000E1A6E000E196E2A
:1039D0000EEF1DF01350D96EDA6A1350E16EE26AF1
:1039E000E750156E1528DF6E1450D96EDA6A145040
:1039F000E16EE26AE750156E1528DF6E14C00EF016
:103A0000BFEC1FF013C00EF0BFEC1FF01FC001F0A1
:103A100020C002F0E6EC25F0194A1A2A1D50195C64
:103A20001A50800A156E1E50800A1558D8A01BEF38
:103A30001DF01DEF1DF0EAEF1CF0000E1C6E000ED5
:103A40001B6E2CEF1DF0D00E156ECA0EE82EFED7A1
:103A5000152EFCD71B4A1C2A1850156E166A1550D5
:103A60001B5C1C50800A176E1650800A1758D8A08D
:103A70003CEF1DF03EEF1DF023EF1DF06CEF1DF04D
:103A80001450D96EDA6ADF50D8B449EF1DF04BEF0D
:103A90001DF04FEF1DF01450D96EDA6ADF06135097
:103AA000D96EDA6ADF50D8B458EF1DF05AEF1DF026
:103AB0005EEF1DF01350D96EDA6ADF0614C00EF007
:103AC000BFEC1FF013C00EF0BFEC1FF01FC001F0E1
:103AD00020C002F0E6EC25F01350D96EDA6ADF5010
:103AE000D8A475EF1DF077EF1DF040EF1DF01450D6
:103AF000D96EDA6ADF50D8A480EF1DF082EF1DF096
:103B000040EF1DF01200186E1350D96EDA6A010EE4
:103B1000D926010EDF6E1450D96EDA6A010ED9264D
:103B2000DF6A000E1E6E280E1D6E000E026E640E01
:103B3000016E000E046E280E036E06EC23F001C029
:103B40001FF002C020F0000E1A6E000E196ECDEFAD
:103B50001DF01350D96EDA6A1350E16EE26AE75035
:103B6000156E1528DF6E1450D96EDA6A1450E16EA6
:103B7000E26AE750156E1528DF6E14C00EF0BFEC38
:103B80001FF013C00EF0BFEC1FF01FC001F020C0EB
:103B900002F0E6EC25F0194A1A2A1D50195C1A5059
:103BA000800A156E1E50800A1558D8A0DAEF1DF055
:103BB000DCEF1DF0A9EF1DF0000E1C6E000E1B6E59
:103BC000EBEF1DF0D00E156ECA0EE82EFED7152EA7
:103BD000FCD71B4A1C2A1850156E166A15501B5C20
:103BE0001C50800A176E1650800A1758D8A0FBEF99
:103BF0001DF0FDEF1DF0E2EF1DF02BEF1EF0145055
:103C0000D96EDA6ADF50D8B408EF1EF00AEF1EF062
:103C10000EEF1EF01450D96EDA6ADF061350D96E1B
:103C2000DA6ADF50D8B417EF1EF019EF1EF01DEF5F
:103C30001EF01350D96EDA6ADF0614C00EF0BFEC26
:103C40001FF013C00EF0BFEC1FF01FC001F020C02A
:103C500002F0E6EC25F01350D96EDA6ADF50D8A4F2
:103C600034EF1EF036EF1EF0FFEF1DF01450D96E4A
:103C7000DA6ADF50D8A43FEF1EF041EF1EF0FFEFED
:103C80001DF01200186E1350D96EDA6A010ED92693
:103C9000DF6A1450D96EDA6A010ED926010EDF6E82
:103CA000000E1E6E280E1D6E000E026E640E016E5A
:103CB000000E046E280E036E06EC23F001C01FF008
:103CC00002C020F0000E1A6E000E196E8CEF1EF06E
:103CD0001350D96EDA6A1350E16EE26AE750156E3E
:103CE0001528DF6E1450D96EDA6A1450E16EE26A5C
:103CF000E750156E1528DF6E14C00EF0BFEC1FF0F4
:103D000013C00EF0BFEC1FF01FC001F020C002F086
:103D1000E6EC25F0194A1A2A1D50195C1A50800A3F
:103D2000156E1E50800A1558D8A099EF1EF09BEF13
:103D30001EF068EF1EF0000E1C6E000E1B6EAAEF48
:103D40001EF0D00E156ECA0EE82EFED7152EFCD72B
:103D50001B4A1C2A1850156E166A15501B5C1C5005
:103D6000800A176E1650800A1758D8A0BAEF1EF0B6
:103D7000BCEF1EF0A1EF1EF0EAEF1EF01450D96E5A
:103D8000DA6ADF50D8B4C7EF1EF0C9EF1EF0CDEFEE
:103D90001EF01450D96EDA6ADF061350D96EDA6A53
:103DA000DF50D8B4D6EF1EF0D8EF1EF0DCEF1EF0D7
:103DB0001350D96EDA6ADF0614C00EF0BFEC1FF0A4
:103DC00013C00EF0BFEC1FF01FC001F020C002F0C6
:103DD000E6EC25F01350D96EDA6ADF50D8A4F3EF81
:103DE0001EF0F5EF1EF0BEEF1EF01450D96EDA6A29
:103DF000DF50D8A4FEEF1EF000EF1FF0BEEF1EF064
:103E00001200186E1350D96EDA6A010ED926DF6AD5
:103E10001450D96EDA6A010ED926DF6A000E1E6EC2
:103E2000280E1D6E000E026E640E016E000E046EF2
:103E3000280E036E06EC23F001C01FF002C020F034
:103E4000000E1A6E000E196E4AEF1FF01350D96E55
:103E5000DA6A1350E16EE26AE750156E1528DF6EDC
:103E60001450D96EDA6A1450E16EE26AE750156EAA
:103E70001528DF6E14C00EF0BFEC1FF013C00EF05B
:103E8000BFEC1FF01FC001F020C002F0E6EC25F0EF
:103E9000194A1A2A1D50195C1A50800A156E1E50B4
:103EA000800A1558D8A057EF1FF059EF1FF026EFE2
:103EB0001FF0000E1C6E000E1B6E68EF1FF0D00E80
:103EC000156ECA0EE82EFED7152EFCD71B4A1C2AEB
:103ED0001850156E166A15501B5C1C50800A176E20
:103EE0001650800A1758D8A078EF1FF07AEF1FF00D
:103EF0005FEF1FF0A8EF1FF01450D96EDA6ADF50A1
:103F0000D8B485EF1FF087EF1FF08BEF1FF0145030
:103F1000D96EDA6ADF061350D96EDA6ADF50D8B488
:103F200094EF1FF096EF1FF09AEF1FF01350D96E29
:103F3000DA6ADF0614C00EF0BFEC1FF013C00EF0FB
:103F4000BFEC1FF01FC001F020C002F0E6EC25F02E
:103F50001350D96EDA6ADF50D8A4B1EF1FF0B3EF77
:103F60001FF07CEF1FF01450D96EDA6ADF50D8A42E
:103F7000BCEF1FF0BEEF1FF07CEF1FF012000E50E1
:103F8000D96EDA6A020ED926DF50D8B4CAEF1FF014
:103F9000CCEF1FF0FCEF1FF00E50D96EDA6ADF5045
:103FA0000F6E0F50016E026A0E50D96EDA6A030E60
:103FB000D926DECF03F0DDCF04F026EC26F001C0D9
:103FC00007F002C008F0000E0A6E640E096E5EEC87
:103FD00024F00E50D96EDA6A030ED926DF50106E27
:103FE0000750105C116E0E50D96EDA6A030ED92696
:103FF000DF50126E1DEF20F0000E116E0E50D96EC4
:10400000DA6ADF500F6E0F50016E026A0E50D96EE1
:10401000DA6A030ED926DECF03F0DDCF04F026ECFA
:1040200026F001C007F002C008F0000E0A6E640E10
:10403000096E5EEC24F00750126E0E50D96EDA6AEB
:10404000010ED926DF50D8B428EF20F02AEF20F057
:104050004AEF20F00E50D96EDA6A050ED926DECF6F
:104060000FF0DDCF10F00FC0D9FF10C0DAFF11C084
:10407000DFFF0E50D96EDA6A070ED926DECF0FF0B9
:10408000DDCF10F00FC0D9FF10C0DAFF12C0DFFF84
:1040900068EF20F00E50D96EDA6A050ED926DECF11
:1040A0000FF0DDCF10F00FC0D9FF10C0DAFF12C043
:1040B000DFFF0E50D96EDA6A070ED926DECF0FF079
:1040C000DDCF10F00FC0D9FF10C0DAFF11C0DFFF45
:1040D00012008EA66EEF20F070EF20F077EF20F048
:1040E0008EB475EF20F077EF20F069EF20F0090E25
:1040F000036E1E0E026EE40EE82EFED7022EFCD7D3
:10410000032EFAD700D08EB688EF20F08AEF20F089
:10411000A3EF20F08EB48FEF20F091EF20F0A3EF0B
:1041200020F080867C8E520E036E2B0E026E000EE7
:10413000E82EFED7022EFCD7032EFAD700D08096A9
:104140007C9E0FEF21F08EB4A8EF20F0AAEF20F0B4
:10415000D6EF20F0110E036E3C0E026ECB0EE82E51
:10416000FED7022EFCD7032EFAD700000150D96EDD
:10417000DA6ADECF02F0DDCF03F0010E0226000E78
:1041800003220150D96EDA6A02C0DEFF03C0DDFFF0
:104190007C8E110E036E3C0E026ECB0EE82EFED707
:1041A000022EFCD7032EFAD700007C9E8EB6DBEFE2
:1041B00020F0DDEF20F00DEF21F0110E036E3C0E2C
:1041C000026ECB0EE82EFED7022EFCD7032EFAD7B6
:1041D00000000150D96EDA6ADECF02F0DDCF03F0C5
:1041E000FF0E0224046EFF0E0320056E0150D96EEF
:1041F000DA6A04C0DEFF05C0DDFF8086110E036EA3
:104200003C0E026ECB0EE82EFED7022EFCD7032EFC
:10421000FAD70000809669EF20F069EF20F01200D5
:1042200058C001F059C002F05AC003F05BC004F05E
:10423000000E056E000E066E000E076E000E086E74
:10424000BFEC23F0D8A027EF21F029EF21F033EFC6
:1042500021F0000E546E000E556E000E566E000ECC
:10426000576E9BEF21F054C022F055C023F056C08A
:1042700024F057C025F058C026F059C027F05AC086
:1042800028F05BC029F005EC19F022C060F023C0D3
:1042900061F024C062F025C063F060C001F061C02D
:1042A00002F062C003F063C004F09CEC21F001C096
:1042B00068F002C069F054C01AF055C01BF056C037
:1042C0001CF057C01DF058C03FF059C040F05AC014
:1042D00041F05BC042F068C00CF069C00DF0000E08
:1042E0000DBEFF0E0E6E0F6E010EE9EC1BF00CC042
:1042F0003BF00DC03CF00EC03DF00FC03EF0F0ECC6
:1043000016F03BC01EF03CC01FF03DC020F03EC088
:1043100021F067EC25F01AC064F01BC065F01CC0EA
:1043200066F01DC067F064C054F065C055F066C00B
:1043300056F067C057F01200033404340A6E0A5076
:10434000D8A4A5EF21F0A7EF21F0B1EF21F0000EE6
:10435000016E000E026E000E036E000E046E1EEF64
:1043600022F001C005F002C006F003C007F004C04F
:1043700008F0200EC1EF21F0D89008320732063243
:104380000532E82EBCEF21F00550096E038EFF0EBA
:104390000116FF0E0216FF0E0316000E0416960EEF
:1043A0000A5E0ABED8EF21F0D6EF21F0EEEF21F041
:1043B0000A50800A970FD8B0E0EF21F0E2EF21F029
:1043C000E4EF21F0A7EF21F0D8900432033202325B
:1043D00001320A3EE4EF21F006EF22F01F0E0A64DC
:1043E000F4EF21F0F6EF21F0FEEF21F0A7EF21F03E
:1043F000D89001360236033604360A060A50D8A48D
:1044000004EF22F006EF22F0F8EF21F00950D8B4C3
:104410000CEF22F00EEF22F016EF22F0041E031E26
:10442000021E016C000E02220322042201C001F0D0
:1044300002C002F003C003F004C004F01200000E3A
:104440000114096E000E02140A6E800E03140B6E26
:104450007F0E04140C6E09500A100B100C10D8A417
:1044600034EF22F036EF22F03EEF22F0000E016E24
:10447000000E026E000E036E000E046E000E051498
:10448000096E000E06140A6E800E07140B6E7F0E66
:1044900008140C6E09500A100B100C10D8A453EF1E
:1044A00022F055EF22F05DEF22F0000E056E000EB7
:1044B000066E000E076E000E086E04AE62EF22F06C
:1044C00064EF22F06DEF22F0016C021ED8B0022AD8
:1044D000031ED8B0032A800E045608AE72EF22F0F5
:1044E00074EF22F07DEF22F0056C061ED8B0062A8C
:1044F000071ED8B0072A800E0856000E011A000EBB
:10450000021A000E031A800E041A000E051A000E7D
:10451000061A000E071A800E081A0550015C065094
:1045200002580750035808500458D8B09AEF22F0A8
:104530009CEF22F09FEF22F0D890A0EF22F0D880DD
:104540001200000E026E630E016E14EC24F0849EC5
:104550007C9E8896809686840E01B4958686B49754
:10456000000E0001F26F010EF36F010EF46FAA0E40
:10457000F76F0F0EF86FA60EF96F0F0EFA6F000EA1
:10458000F66F630EF56F000EE96F010EEA6F010E14
:10459000EB6F250EEE6F0F0EEF6F210EF06F0F0E0B
:1045A000F16F000EED6F630EEC6F010EE06F190EF0
:1045B000E16F190EE26F280EE36F280EE46F640EB0
:1045C000E56F640EE66F210EE76F210EE86F98EC41
:1045D00024F0E00E216EF20E226EE90E236ED2EC74
:1045E0001AF0E00E0001D36FF20ED46FE90ED56F12
:1045F000B0EC0FF0E00E216EF20E226EE90E236E8B
:104600002BEC12F0E7EF22F000EF00F0000E066E48
:1046100004BE0FEF23F00DEF23F015EF23F0036C32
:10462000041ED8B0042A010E066E02BE1CEF23F051
:104630001AEF23F022EF23F0016C021ED8B0022AF9
:10464000010E061A000E086E000E076E03500410CD
:10465000D8B42DEF23F02FEF23F057EF23F0010E06
:10466000056E37EF23F0D89003360436052A04AEE2
:104670003CEF23F03EEF23F033EF23F0D8900736E2
:1046800008360350015C04500258D8A04AEF23F0CA
:104690004CEF23F051EF23F00350015E0450025A17
:1046A0000780D89004320332052E3EEF23F00650E7
:1046B000D8B45DEF23F05FEF23F063EF23F0076CD6
:1046C000081ED8B0082A07C001F008C002F0120086
:1046D0008EB46DEF23F06FEF23F09DEF23F0110EFA
:1046E000036E3C0E026ECB0EE82EFED7022EFCD7D8
:1046F000032EFAD700000150D96EDA6ADECF02F03D
:10470000DDCF03F0010E0226000E03220150D96E08
:10471000DA6A02C0DEFF03C0DDFF7C8E110E036E7D
:104720003C0E026ECB0EE82EFED7022EFCD7032ED7
:10473000FAD700007C9EBEEF23F08EB6A2EF23F0E6
:10474000A4EF23F068EF23F0110E036E3C0E026E0F
:10475000CB0EE82EFED7022EFCD7032EFAD7000090
:104760008086110E036E3C0E026ECB0EE82EFED735
:10477000022EFCD7032EFAD7000080961200000EFE
:104780000114096E000E02140A6E800E03140B6EE3
:104790007F0E04140C6E09500A100B100C10D8A4D4
:1047A000D4EF23F0D6EF23F0DEEF23F0000E016EFE
:1047B000000E026E000E036E000E046E000E051455
:1047C000096E000E06140A6E800E07140B6E7F0E23
:1047D00008140C6E09500A100B100C10D8A4F3EF3B
:1047E00023F0F5EF23F0FDEF23F0000E056E000E31
:1047F000066E000E076E000E086E055001180FE1E0
:10480000065002180CE10750031809E1085004187B
:10481000D8B40DEF24F00FEF24F012EF24F0D8906D
:1048200013EF24F0D880120085948598839E879C8E
:104830007D947D987B9E7F9C050E0E01746F060E05
:10484000766F070E696F080E886FBD508F0B400999
:10485000BD6EE00EBE16BF50F00B0109BF6E01C069
:10486000BCFFBD8E000EAA6E000EA66E000E0F01DC
:10487000256F000E216FFC0EAD16F30EAD16CF0E98
:10488000AD163F0EAD16AB88AB50F00B0C09AB6EFE
:10489000AB8EA788A750F00B0C09A76EA78E2689B0
:1048A0002651F00B0C09266F268F22892251F00B1E
:1048B0000C09226F228F889680961200000E0C6ED3
:1048C000000E0B6E09500A10D8B469EF24F06BEF9C
:1048D00024F093EF24F0010E0D6E73EF24F0D890C6
:1048E00009360A360D2A0AAE78EF24F07AEF24F062
:1048F0006FEF24F0D8900B360C360950075C0A5045
:104900000858D8A086EF24F088EF24F08DEF24F02B
:104910000950075E0A50085A0B80D8900A320932B3
:104920000D2E7AEF24F00BC007F00CC008F0120037
:104930007C8E090E026E1E0E016EE40EE82EFED76E
:10494000012EFCD7022EFAD700D07C9E090E026EF3
:104950001E0E016EE40EE82EFED7012EFCD7022EAD
:10496000FAD700D08EB4B7EF24F0B9EF24F098EF67
:1049700024F0110E026E3C0E016ECB0EE82EFED717
:10498000012EFCD7022EFAD700007C9E120054ECB8
:1049900026F0520E49EC26F0B60E49EC26F059EC02
:1049A00026F0530E49EC26F0010E8AEC25F0076E36
:1049B00007500A6E0B6A000E8AEC25F0076E07504E
:1049C000096E086A0A5008100A6E0B5009100B6E27
:1049D0004FEC26F00AC005F00BC006F0120054ECB4
:1049E00026F0520E49EC26F0B80E49EC26F059ECB0
:1049F00026F0530E49EC26F0010E8AEC25F0076EE6
:104A000007500A6E0B6A000E8AEC25F0076E0750FD
:104A1000096E086A0A5008100A6E0B5009100B6ED6
:104A20004FEC26F00AC005F00BC006F0120054EC63
:104A300026F0520E49EC26F0B40E49EC26F059EC63
:104A400026F0530E49EC26F0010E8AEC25F0076E95
:104A500007500A6E0B6A000E8AEC25F0076E0750AD
:104A6000096E086A0A5008100A6E0B5009100B6E86
:104A70004FEC26F00AC005F00BC006F0120054EC13
:104A800026F0520E49EC26F0BA0E49EC26F059EC0D
:104A900026F0530E49EC26F0010E8AEC25F0076E45
:104AA00007500A6E0B6A000E8AEC25F0076E07505D
:104AB000096E086A0A5008100A6E0B5009100B6E36
:104AC0004FEC26F00AC005F00BC006F01200000EF5
:104AD0001E1A000E1F1A000E201A800E211A1AC06C
:104AE00001F01BC002F01CC003F01DC004F01EC08A
:104AF00005F01FC006F020C007F021C008F090ECC0
:104B000014F001C01AF002C01BF003C01CF004C076
:104B10001DF01200036E12EC26F00E01DA8712EC83
:104B200026F0D5CE04F012EC26F00350D8B49BEF5B
:104B300025F09FEF25F0026A022AA0EF25F0026A15
:104B4000023A02460E01DA510218DF0B0218DA6F40
:104B5000DA8904501200FDEC25F0010E036E000E00
:104B600039EC26F03F0E056E550EE82EFED7052EC9
:104B7000FCD70000030E036E000E39EC26F0D50EB4
:104B8000036E010E39EC26F087928198869E7F8213
:104B900079887E8E1200BC0EF66E4C0EF76E000EFB
:104BA000F86E0900F5CFFBF00900F5CFFCF001EE3F
:104BB00000F0820EEE6AE806FDE100EED8F0230E6A
:104BC000EE6AE806FDE10001A1EF22F0F3EF25F027
:104BD000150E036EC60EE82EFED7032EFCD700D0AE
:104BE0000106D8A0020601500210D8A4FAEF25F061
:104BF000FCEF25F0E8EF25F012000E01D951F00B83
:104C00000809D96FD98B9F0ED66F848A848CA79B95
:104C1000A79D1D0E1D6F1E0E1C6F1C0E6F6F1B0EB1
:104C2000706F12000E01D8B518EF26F01AEF26F0BB
:104C300012EF26F0DACE01F01F0E0116D8A423EFF2
:104C400026F025EF26F012EF26F0120001500302A5
:104C5000F3CF05F0F4CF06F001500402F35006261E
:104C600002500302F350062605C001F006C002F010
:104C70001200046E54EC26F0520E49EC26F004505B
:104C8000800949EC26F0035049EC26F04FEC26F061
:104C90001200026E12EC26F002C0D5FE120012ECD9
:104CA00026F00E01DA85120012EC26F00E01DA81F0
:0E4CB000120012EC26F00E01DA8312000A3216
:020000040030CA
:02000000AAFF55
:020004009FFF5C
:00000001FF
