:0400000090EF0CF081
:100E00000000186E1350D96EDA6A010ED926010E51
:100E1000DF6E1450D96EDA6A010ED926010EDF6E2C
:100E2000000E1E6E140E1D6E000E026E640E016E1C
:100E3000000E046E140E036E29EC0BF001C01FF0BF
:100E400002C020F0000E1A6E000E196E4CEF07F073
:100E50001350D96EDA6A1350E16EE26AE750156EEC
:100E60001528DF6E1450D96EDA6A1450E16EE26A0A
:100E7000E750156E1528DF6E14C00EF03FEC09F038
:100E800013C00EF03FEC09F01FC001F020C002F0CB
:100E900066EC0CF0194A1A2A1D50195C1A50800A87
:100EA000156E1E50800A1558D8A059EF07F05BEF59
:100EB00007F028EF07F0000E1C6E000E1B6E6AEFA5
:100EC00007F0D00E156ECA0EE82EFED7152EFCD7F1
:100ED0001B4A1C2A1850156E166A15501B5C1C50B4
:100EE000800A176E1650800A1758D8A07AEF07F0BC
:100EF0007CEF07F061EF07F0AAEF07F01450D96E0E
:100F0000DA6ADF50D8B487EF07F089EF07F08DEF8A
:100F100007F01450D96EDA6ADF061350D96EDA6A18
:100F2000DF50D8B496EF07F098EF07F09CEF07F08A
:100F30001350D96EDA6ADF0614C00EF03FEC09F0E8
:100F400013C00EF03FEC09F01FC001F020C002F00A
:100F500066EC0CF01350D96EDA6ADF50D8A4B3EF08
:100F600007F0B5EF07F07EEF07F01450D96EDA6A9C
:100F7000DF50D8A4BEEF07F0C0EF07F07EEF07F018
:100F80001200186E1350D96EDA6A010ED926010EBE
:100F9000DF6E1450D96EDA6A010ED926DF6A000EB0
:100FA0001E6E140E1D6E000E026E640E016E000E9B
:100FB000046E140E036E29EC0BF001C01FF002C08A
:100FC00020F0000E1A6E000E196E0BEF08F0135091
:100FD000D96EDA6A1350E16EE26AE750156E152891
:100FE000DF6E1450D96EDA6A1450E16EE26AE7508F
:100FF000156E1528DF6E14C00EF03FEC09F013C01B
:101000000EF03FEC09F01FC001F020C002F066ECCA
:101010000CF0194A1A2A1D50195C1A50800A156ED4
:101020001E50800A1558D8A018EF08F01AEF08F0E3
:10103000E7EF07F0000E1C6E000E1B6E29EF08F0A4
:10104000D00E156ECA0EE82EFED7152EFCD71B4A01
:101050001C2A1850156E166A15501B5C1C50800A0D
:10106000176E1650800A1758D8A039EF08F03BEFDA
:1010700008F020EF08F069EF08F01450D96EDA6A32
:10108000DF50D8B446EF08F048EF08F04CEF08F016
:101090001450D96EDA6ADF061350D96EDA6ADF505F
:1010A000D8B455EF08F057EF08F05BEF08F0135095
:1010B000D96EDA6ADF0614C00EF03FEC09F013C0F7
:1010C0000EF03FEC09F01FC001F020C002F066EC0A
:1010D0000CF01350D96EDA6ADF50D8A472EF08F022
:1010E00074EF08F03DEF08F01450D96EDA6ADF5063
:1010F000D8A47DEF08F07FEF08F03DEF08F0120074
:10110000186E1350D96EDA6A010ED926DF6A1450B0
:10111000D96EDA6A010ED926010EDF6E000E1E6E40
:10112000140E1D6E000E026E640E016E000E046E33
:10113000140E036E29EC0BF001C01FF002C020F06A
:10114000000E1A6E000E196ECAEF08F01350D96E19
:10115000DA6A1350E16EE26AE750156E1528DF6E09
:101160001450D96EDA6A1450E16EE26AE750156ED7
:101170001528DF6E14C00EF03FEC09F013C00EF01E
:101180003FEC09F01FC001F020C002F066EC0CF04B
:10119000194A1A2A1D50195C1A50800A156E1E50E1
:1011A000800A1558D8A0D7EF08F0D9EF08F0A6EFBD
:1011B00008F0000E1C6E000E1B6EE8EF08F0D00E5B
:1011C000156ECA0EE82EFED7152EFCD71B4A1C2A18
:1011D0001850156E166A15501B5C1C50800A176E4D
:1011E0001650800A1758D8A0F8EF08F0FAEF08F068
:1011F000DFEF08F028EF09F01450D96EDA6ADF50FB
:10120000D8B405EF09F007EF09F00BEF09F014501F
:10121000D96EDA6ADF061350D96EDA6ADF50D8B4B5
:1012200014EF09F016EF09F01AEF09F01350D96E18
:10123000DA6ADF0614C00EF03FEC09F013C00EF0BE
:101240003FEC09F01FC001F020C002F066EC0CF08A
:101250001350D96EDA6ADF50D8A431EF09F033EFBA
:1012600009F0FCEF08F01450D96EDA6ADF50D8A408
:101270003CEF09F03EEF09F0FCEF08F012000E50D1
:10128000D96EDA6A020ED926DF50D8B44AEF09F0D7
:101290004CEF09F07CEF09F00E50D96EDA6ADF509E
:1012A0000F6E0F50016E026A0E50D96EDA6A030E8D
:1012B000D926DECF03F0DDCF04F07DEC0CF001C0C9
:1012C00007F002C008F0000E0A6E640E096E2CECE6
:1012D0000CF00E50D96EDA6A030ED926DF50106E6C
:1012E0000750105C116E0E50D96EDA6A030ED926C3
:1012F000DF50126E9DEF09F0000E116E0E50D96E88
:10130000DA6ADF500F6E0F50016E026A0E50D96E0E
:10131000DA6A030ED926DECF03F0DDCF04F07DECD0
:101320000CF001C007F002C008F0000E0A6E640E57
:10133000096E2CEC0CF00750126E0E50D96EDA6A62
:10134000010ED926DF50D8B4A8EF09F0AAEF09F0B2
:10135000CAEF09F00E50D96EDA6A050ED926DECF33
:101360000FF0DDCF10F00FC0D9FF10C0DAFF11C0B1
:10137000DFFF0E50D96EDA6A070ED926DECF0FF0E6
:10138000DDCF10F00FC0D9FF10C0DAFF12C0DFFFB1
:10139000E8EF09F00E50D96EDA6A050ED926DECFD5
:1013A0000FF0DDCF10F00FC0D9FF10C0DAFF12C070
:1013B000DFFF0E50D96EDA6A070ED926DECF0FF0A6
:1013C000DDCF10F00FC0D9FF10C0DAFF11C0DFFF72
:1013D00012008EA6EEEF09F0F0EF09F0F7EF09F03A
:1013E0008EB4F5EF09F0F7EF09F0E9EF09F0090E17
:1013F000036E1E0E026EE40EE82EFED7022EFCD700
:10140000032EFAD700D08EB608EF0AF00AEF0AF0E2
:1014100023EF0AF08EB40FEF0AF011EF0AF023EF7A
:101420000AF080867C8E520E036E2B0E026E000E2A
:10143000E82EFED7022EFCD7032EFAD700D08096D6
:101440007C9E8FEF0AF08EB428EF0AF02AEF0AF0A4
:1014500056EF0AF0110E036E3C0E026ECB0EE82E14
:10146000FED7022EFCD7032EFAD700000150D96E0A
:10147000DA6ADECF02F0DDCF03F0050E0226000EA1
:1014800003220150D96EDA6A02C0DEFF03C0DDFF1D
:101490007C8E110E036E3C0E026ECB0EE82EFED734
:1014A000022EFCD7032EFAD700007C9E8EB65BEF8F
:1014B0000AF05DEF0AF08DEF0AF0110E036E3C0E9C
:1014C000026ECB0EE82EFED7022EFCD7032EFAD7E3
:1014D00000000150D96EDA6ADECF02F0DDCF03F0F2
:1014E000FB0E0224046EFF0E0320056E0150D96E20
:1014F000DA6A04C0DEFF05C0DDFF8086110E036ED0
:101500003C0E026ECB0EE82EFED7022EFCD7032E29
:10151000FAD700008096E9EF09F0E9EF09F0120030
:10152000000E026E630E016EE2EC0BF0000E2A6EEE
:10153000010E2B6E010E2C6EAA0E2F6E0F0E306E4A
:10154000A60E316E0F0E326E000E2E6E630E2D6ED5
:10155000000E216E010E226E010E236E250E266EE8
:101560000F0E276E210E286E0F0E296E000E256EAF
:10157000630E246E849E7C9E8896809686840E01DF
:10158000B4958686B497010E336E000E346E3C0E11
:10159000356E0A0E366E3C0E376E0A0E386E0A0E27
:1015A000396E140E3A6E140E3B6E3304D8A4DBEF82
:1015B0000AF0DDEF0AF0ECEF0AF0360E016EE9EC0E
:1015C00009F02A0E136E210E146E3650C1EC07F08E
:1015D000330E016E8BEC0BF0020E3318D8A4F3EF30
:1015E0000AF0F5EF0AF004EF0BF0350E016EE9ECAE
:1015F00009F02A0E136E210E146E355080EC08F09F
:10160000330E016E8BEC0BF0030E3318D8A40BEFE6
:101610000BF00DEF0BF01CEF0BF0390E016EE9EC47
:1016200009F02A0E136E210E146E395001EC07F0EA
:10163000330E016E8BEC0BF0050E3318D8A423EF9C
:101640000BF025EF0BF0D5EF0AF0010E336E00EF33
:1016500000F0000E066E04BE32EF0BF030EF0BF020
:1016600038EF0BF0036C041ED8B0042A010E066E8E
:1016700002BE3FEF0BF03DEF0BF045EF0BF0016CBE
:10168000021ED8B0022A010E061A000E086E000EC5
:10169000076E03500410D8B450EF0BF052EF0BF06C
:1016A0007AEF0BF0010E056E5AEF0BF0D89003366F
:1016B0000436052A04AE5FEF0BF061EF0BF056EF36
:1016C0000BF0D890073608360350015C04500258DE
:1016D000D8A06DEF0BF06FEF0BF074EF0BF0035031
:1016E000015E0450025A0780D89004320332052E5E
:1016F00061EF0BF00650D8B480EF0BF082EF0BF0E7
:1017000086EF0BF0076C081ED8B0082A07C001F05E
:1017100008C002F012008EB490EF0BF092EF0BF0C5
:10172000C0EF0BF0110E036E3C0E026ECB0EE82ED6
:10173000FED7022EFCD7032EFAD700000150D96E37
:10174000DA6ADECF02F0DDCF03F0010E0226000ED2
:1017500003220150D96EDA6A02C0DEFF03C0DDFF4A
:101760007C8E110E036E3C0E026ECB0EE82EFED761
:10177000022EFCD7032EFAD700007C9EE1EF0BF07F
:101780008EB6C5EF0BF0C7EF0BF08BEF0BF0110E21
:10179000036E3C0E026ECB0EE82EFED7022EFCD757
:1017A000032EFAD700008086110E036E3C0E026EE7
:1017B000CB0EE82EFED7022EFCD7032EFAD7000060
:1017C0008096120085948598839E879C7D947D9851
:1017D0007B9E7F9C050E0E01746F060E766F070EC2
:1017E000696F080E886FBD508F0B4009BD6EE00E0B
:1017F000BE16BF50F00B0109BF6E01C0BCFFBD8E0D
:10180000000EAA6E000EA66E000E0F01256F000ED0
:10181000216FFC0EAD16F30EAD16CF0EAD163F0EBA
:10182000AD16AB88AB50F00B0C09AB6EAB8EA78836
:10183000A750F00B0C09A76EA78E26892651F00B36
:101840000C09266F268F22892251F00B0C09226F7A
:10185000228F889680961200000E0C6E000E0B6E82
:1018600009500A10D8B437EF0CF039EF0CF061EFE3
:101870000CF0010E0D6E41EF0CF0D89009360A36CF
:101880000D2A0AAE46EF0CF048EF0CF03DEF0CF0DD
:10189000D8900B360C360950075C0A500858D8A06F
:1018A00054EF0CF056EF0CF05BEF0CF00950075EB4
:1018B0000A50085A0B80D8900A3209320D2E48EF90
:1018C0000CF00BC007F00CC008F0120073EF0CF026
:1018D000150E036EC60EE82EFED7032EFCD700D0E1
:1018E0000106D8A0020601500210D8A47AEF0CF02D
:1018F0007CEF0CF068EF0CF0120001500302F3CF04
:1019000005F0F4CF06F001500402F3500626025011
:101910000302F350062605C001F006C002F01200D3
:10192000440EF66E190EF76E000EF86E0900F5CF34
:101930003CF000EE21F01B0EEE6AE806FDE100012E
:0519400090EF0AF00722
:020000040030CA
:02000000AAFF55
:020004009FFF5C
:00000001FF
