:040000006EEF22F08D
:070E00000025752C20000005
:100E08002BEC21F005C00CF006C00DF00E6A0F6A3D
:100E1800000EF6EC17F00CC0C1F00DC0C2F00EC009
:100E2800C3F00FC0C4F053EC21F005C00CF006C0AD
:100E38000DF00E6A0F6A000EF6EC17F00CC0C5F044
:100E48000DC0C6F00EC0C7F00FC0C8F0A3EC21F06B
:100E580005C00CF006C00DF00E6A0F6A000EF6EC25
:100E680017F00CC0C9F00DC0CAF00EC0CBF00FC00F
:100E7800CCF07BEC21F005C00CF006C00DF00E6A3A
:100E88000F6A000EF6EC17F00CC0CDF00DC0CEF0D6
:100E98000EC0CFF00FC0D0F0C1C06AF0C2C06BF076
:100EA800C3C06CF0C4C06DF0C5C06EF0C6C06FF0B2
:100EB800C7C070F0C8C071F0C9C072F0CAC073F082
:100EC800CBC074F0CCC075F0CDC076F0CEC077F052
:100ED800CFC078F0D0C079F0D30E00017A6FD70E6A
:100EE8007B6FDB0E7C6F20EC0CF0000E0001D26FE4
:100EF800000ED16F000E016E800E026EB10E036EF1
:100F0800430E046ED3C005F0D4C006F0D5C007F078
:100F1800D6C008F086EC1EF0D8B095EF07F097EF32
:100F280007F01BEF08F0D3C001F0D4C002F0D5C021
:100F380003F0D6C004F0000E056E000E066EB40E67
:100F4800076E430E086E86EC1EF0D8B0AEEF07F0C1
:100F5800B0EF07F01BEF08F0000E016E000E026EF6
:100F6800AA0E036E420E046ED7C005F0D8C006F074
:100F7800D9C007F0DAC008F086EC1EF0D8B0C7EF89
:100F880007F0C9EF07F01BEF08F0D7C001F0D8C091
:100F980002F0D9C003F0DAC004F0000E056E000EAE
:100FA800066EB40E076E420E086E86EC1EF0D8B0C0
:100FB800E0EF07F0E2EF07F01BEF08F0000E016E1C
:100FC800000E026EA00E036E420E046EDBC005F02A
:100FD800DCC006F0DDC007F0DEC008F086EC1EF0CD
:100FE800D8B0F9EF07F0FBEF07F01BEF08F0DBC014
:100FF80001F0DCC002F0DDC003F0DEC004F0000E3A
:10100800056E000E066EAA0E076E420E086E86EC7E
:101018001EF0D8B012EF08F014EF08F01BEF08F03C
:10102800000E0001D26F010ED16F1BEF0CF0000E05
:10103800016E000E026E860E036E420E046ED3C061
:1010480005F0D4C006F0D5C007F0D6C008F086EC8D
:101058001EF0D8B032EF08F034EF08F0B8EF08F01F
:10106800D3C001F0D4C002F0D5C003F0D6C004F05C
:10107800000E056E000E066E9E0E076E420E086E7E
:1010880086EC1EF0D8B04BEF08F04DEF08F0B8EF43
:1010980008F0000E016E000E026E480E036E420E3E
:1010A800046ED7C005F0D8C006F0D9C007F0DAC082
:1010B80008F086EC1EF0D8B064EF08F066EF08F090
:1010C800B8EF08F0D7C001F0D8C002F0D9C003F0DB
:1010D800DAC004F0000E056E000E066E640E076E90
:1010E800420E086E86EC1EF0D8B07DEF08F07FEF58
:1010F80008F0B8EF08F0000E016E000E026E200E28
:10110800036E420E046EDBC005F0DCC006F0DDC0E5
:1011180007F0DEC008F086EC1EF0D8B096EF08F0B5
:1011280098EF08F0B8EF08F0DBC001F0DCC002F07F
:10113800DDC003F0DEC004F0000E056E000E066E82
:10114800380E076E420E086E86EC1EF0D8B0AFEF70
:1011580008F0B1EF08F0B8EF08F0000E0001D26F08
:10116800020ED16F1BEF0CF0D7C001F0D8C002F00F
:10117800D9C003F0DAC004F0000E056E000E066E4A
:10118800200E076E410E086E86EC1EF0D8B0CFEF29
:1011980008F0D1EF08F00AEF09F0000E016E000E1A
:1011A800026EF00E036E410E046EDBC005F0DCC06B
:1011B80006F0DDC007F0DEC008F086EC1EF0D8B0FF
:1011C800E8EF08F0EAEF08F00AEF09F0DBC001F0F9
:1011D800DCC002F0DDC003F0DEC004F0000E056ED6
:1011E800000E066E0C0E076E420E086E86EC1EF0A0
:1011F800D8B001EF09F003EF09F00AEF09F0000E8B
:101208000001D26F030ED16F1BEF0CF0000E016EC0
:10121800000E026EA00E036E410E046ED3C005F0E0
:10122800D4C006F0D5C007F0D6C008F086EC1EF092
:10123800D8B021EF09F023EF09F0A7EF09F0D3C0E8
:1012480001F0D4C002F0D5C003F0D6C004F0000EFF
:10125800056E000E066EC80E076E410E086E86EC0F
:101268001EF0D8B03AEF09F03CEF09F0A7EF09F00B
:10127800000E016E000E026E820E036E420E046EA8
:10128800D7C005F0D8C006F0D9C007F0DAC008F01A
:1012980086EC1EF0D8B053EF09F055EF09F0A7EF30
:1012A80009F0D7C001F0D8C002F0D9C003F0DAC005
:1012B80004F0000E056E000E066E8C0E076E420ED0
:1012C800086E86EC1EF0D8B06CEF09F06EEF09F0EE
:1012D800A7EF09F0000E016E000E026E580E036EA5
:1012E800420E046EDBC005F0DCC006F0DDC007F07E
:1012F800DEC008F086EC1EF0D8B085EF09F087EF65
:1013080009F0A7EF09F0DBC001F0DCC002F0DDC096
:1013180003F0DEC004F0000E056E000E066E640ECB
:10132800076E420E086E86EC1EF0D8B09EEF09F0EC
:10133800A0EF09F0A7EF09F0000E0001D26F040E2C
:10134800D16F1BEF0CF0000E016E000E026E500EF6
:10135800036E410E046ED3C005F0D4C006F0D5C0AC
:1013680007F0D6C008F086EC1EF0D8B0BEEF09F042
:10137800C0EF09F044EF0AF0D3C001F0D4C002F086
:10138800D5C003F0D6C004F0000E056E000E066E40
:10139800900E076E410E086E86EC1EF0D8B0D7EF9F
:1013A80009F0D9EF09F044EF0AF0000E016E000EC3
:1013B800026E5C0E036E420E046ED7C005F0D8C0F4
:1013C80006F0D9C007F0DAC008F086EC1EF0D8B0F5
:1013D800F0EF09F0F2EF09F044EF0AF0D7C001F09E
:1013E800D8C002F0D9C003F0DAC004F0000E056ED0
:1013F800000E066E700E076E420E086E86EC1EF02A
:10140800D8B009EF0AF00BEF0AF044EF0AF0000E2B
:10141800016E000E026E480E036E420E046EDBC0B3
:1014280005F0DCC006F0DDC007F0DEC008F086EC91
:101438001EF0D8B022EF0AF024EF0AF044EF0AF0C9
:10144800DBC001F0DCC002F0DDC003F0DEC004F058
:10145800000E056E000E066E580E076E420E086EE0
:1014680086EC1EF0D8B03BEF0AF03DEF0AF044EFEF
:101478000AF0000E0001D26F050ED16F1BEF0CF0C1
:10148800000E016E000E026EA00E036E400E046E7A
:10149800D3C005F0D4C006F0D5C007F0D6C008F018
:1014A80086EC1EF0D8B05BEF0AF05DEF0AF0E1EFD2
:1014B8000AF0D3C001F0D4C002F0D5C003F0D6C002
:1014C80004F0000E056E000E066E200E076E410E2B
:1014D800086E86EC1EF0D8B074EF0AF076EF0AF0CA
:1014E800E1EF0AF0000E016E000E026E8C0E036E24
:1014F800420E046ED7C005F0D8C006F0D9C007F078
:10150800DAC008F086EC1EF0D8B08DEF0AF08FEF45
:101518000AF0E1EF0AF0D7C001F0D8C002F0D9C054
:1015280003F0DAC004F0000E056E000E066E960E8B
:10153800076E420E086E86EC1EF0D8B0A6EF0AF0D1
:10154800A8EF0AF0E1EF0AF0000E016E000E026E3D
:10155800780E036E420E046EDBC005F0DCC006F0A8
:10156800DDC007F0DEC008F086EC1EF0D8B0BFEF93
:101578000AF0C1EF0AF0E1EF0AF0DBC001F0DCC0CD
:1015880002F0DDC003F0DEC004F0000E056E000EB0
:10159800066E860E076E420E086E86EC1EF0D8B0F8
:1015A800D8EF0AF0DAEF0AF0E1EF0AF0000E0001D6
:1015B800D26F060ED16F1BEF0CF0000E016E000EFD
:1015C800026E940E036E420E046ED3C005F0D4C0B2
:1015D80006F0D5C007F0D6C008F086EC1EF0D8B0EB
:1015E800F8EF0AF0FAEF0AF07EEF0BF0D3C001F043
:1015F800D4C002F0D5C003F0D6C004F0000E056ECA
:10160800000E066EAA0E076E420E086E86EC1EF0DD
:10161800D8B011EF0BF013EF0BF07EEF0BF0000ECC
:10162800016E000E026EE00E036E410E046ED7C00E
:1016380005F0D8C006F0D9C007F0DAC008F086EC8B
:101648001EF0D8B02AEF0BF02CEF0BF07EEF0BF06A
:10165800D7C001F0D8C002F0D9C003F0DAC004F056
:10166800000E056E000E066E040E076E420E086E22
:1016780086EC1EF0D8B043EF0BF045EF0BF07EEF91
:101688000BF0000E016E000E026E140E036E420E79
:10169800046EDBC005F0DCC006F0DDC007F0DEC07C
:1016A80008F086EC1EF0D8B05CEF0BF05EEF0BF0A4
:1016B8007EEF0BF0DBC001F0DCC002F0DDC003F010
:1016C800DEC004F0000E056E000E066E280E076ED2
:1016D800420E086E86EC1EF0D8B075EF0BF077EF6F
:1016E8000BF07EEF0BF0000E0001D26F070ED16FEA
:1016F8001BEF0CF0000E016E000E026EB00E036EB2
:10170800410E046ED3C005F0D4C006F0D5C007F072
:10171800D6C008F086EC1EF0D8B095EF0BF097EF26
:101728000BF01BEF0CF0D3C001F0D4C002F0D5C011
:1017380003F0D6C004F0000E056E000E066ED80E3B
:10174800076E410E086E86EC1EF0D8B0AEEF0BF0B7
:10175800B0EF0BF01BEF0CF0000E016E000E026EE6
:10176800400E036E420E046ED7C005F0D8C006F0D6
:10177800D9C007F0DAC008F086EC1EF0D8B0C7EF81
:101788000BF0C9EF0BF01BEF0CF0D7C001F0D8C07D
:1017980002F0D9C003F0DAC004F0000E056E000EA6
:1017A800066E540E076E420E086E86EC1EF0D8B018
:1017B800E0EF0BF0E2EF0BF01BEF0CF0000E016E08
:1017C800000E026E340E036E420E046EDBC005F08E
:1017D800DCC006F0DDC007F0DEC008F086EC1EF0C5
:1017E800D8B0F9EF0BF0FBEF0BF01BEF0CF0DBC000
:1017F80001F0DCC002F0DDC003F0DEC004F0000E32
:10180800056E000E066E480E076E420E086E86ECD8
:101818001EF0D8B012EF0CF014EF0CF01BEF0CF028
:10182800000E0001D26F080ED16F1BEF0CF0D1C073
:101838005CF0D2C05DF012006AC022F06BC023F0E9
:101848006CC024F06DC025F0000E266EFF0E276ECA
:101858007F0E286E470E296E76EC14F022C0B5F084
:1018680023C0B6F024C0B7F025C0B8F06EC022F08F
:101878006FC023F070C024F071C025F0000E266EF2
:10188800FF0E276E7F0E286E470E296E76EC14F039
:1018980022C0B9F023C0BAF024C0BBF025C0BCF008
:1018A80072C022F073C023F074C024F075C025F014
:1018B800000E266EFF0E276E7F0E286E470E296ECD
:1018C80076EC14F022C0BDF023C0BEF024C0BFF0F7
:1018D80025C0C0F0000E266EFF0E276E7F0E286E04
:1018E800470E296E76C022F077C023F078C024F026
:1018F80079C025F076EC14F022C081F023C082F084
:1019080024C083F025C084F0000E226E000E236EE2
:10191800800E246E3F0E256E81C026F082C027F00F
:1019280083C028F084C029F076EC14F022C07DF042
:1019380023C07EF024C07FF025C080F0B9C001F03C
:10194800BAC002F0BBC003F0BCC004F0B5C005F0DB
:10195800B6C006F0B7C007F0B8C008F086EC1EF0B5
:10196800D8A0B9EF0CF0BBEF0CF0F0EF0CF0BDC055
:1019780001F0BEC002F0BFC003F0C0C004F0B9C09F
:1019880005F0BAC006F0BBC007F0BCC008F086EC92
:101998001EF0D8A0D2EF0CF0D4EF0CF0DEEF0CF074
:1019A800BDC091F0BEC092F0BFC093F0C0C094F02B
:1019B800E6EF0CF0B9C091F0BAC092F0BBC093F05A
:1019C800BCC094F091C0B1F092C0B2F093C0B3F033
:1019D80094C0B4F023EF0DF0BDC001F0BEC002F01A
:1019E800BFC003F0C0C004F0B5C005F0B6C006F033
:1019F800B7C007F0B8C008F086EC1EF0D8A007EF13
:101A08000DF009EF0DF013EF0DF0BDC095F0BEC05D
:101A180096F0BFC097F0C0C098F01BEF0DF0B5C0AE
:101A280095F0B6C096F0B7C097F0B8C098F095C0DA
:101A3800B1F096C0B2F097C0B3F098C0B4F0B5C09A
:101A480001F0B6C002F0B7C003F0B8C004F0B9C0E6
:101A580005F0BAC006F0BBC007F0BCC008F086ECC1
:101A68001EF0D8A03AEF0DF03CEF0DF071EF0DF03D
:101A7800B9C001F0BAC002F0BBC003F0BCC004F0AA
:101A8800BDC005F0BEC006F0BFC007F0C0C008F07A
:101A980086EC1EF0D8A053EF0DF055EF0DF05FEF78
:101AA8000DF0BDC09DF0BEC09EF0BFC09FF0C0C08D
:101AB800A0F067EF0DF0B9C09DF0BAC09EF0BBC0B2
:101AC8009FF0BCC0A0F09DC099F09EC09AF09FC046
:101AD8009BF0A0C09CF0A4EF0DF0B5C001F0B6C01B
:101AE80002F0B7C003F0B8C004F0BDC005F0BEC036
:101AF80006F0BFC007F0C0C008F086EC1EF0D8A002
:101B080088EF0DF08AEF0DF094EF0DF0BDC0A1F055
:101B1800BEC0A2F0BFC0A3F0C0C0A4F09CEF0DF0FF
:101B2800B5C0A1F0B6C0A2F0B7C0A3F0B8C0A4F089
:101B3800A1C099F0A2C09AF0A3C09BF0A4C09CF0E9
:101B4800B1C01AF0B2C01BF0B3C01CF0B4C01DF095
:101B580099C01EF09AC01FF09BC020F09CC021F0D5
:101B6800CBEC21F01AC0ADF01BC0AEF01CC0AFF03A
:101B78001DC0B0F0ADC001F0AEC002F0AFC003F0C0
:101B8800B0C004F0000E056E000E066E000E076E63
:101B9800000E086E20EC20F0D8A0D5EF0DF0D7EF9E
:101BA8000DF0E2EF0DF0000E0001A96F000EAA6F14
:101BB800000EAB6F000EAC6F43EF0FF0B1C001F039
:101BC800B2C002F0B3C003F0B4C004F0B5C005F071
:101BD800B6C006F0B7C007F0B8C008F020EC20F097
:101BE800D8A0F9EF0DF0FBEF0DF05DEF0EF0ADC0F2
:101BF80026F0AEC027F0AFC028F0B0C029F0BDC0B5
:101C08001EF0BEC01FF0BFC020F0C0C021F0B9C098
:101C18001AF0BAC01BF0BBC01CF0BCC01DF0CBEC66
:101C280021F01AC022F01BC023F01CC024F01DC0F4
:101C380025F076EC14F022C085F023C086F024C08D
:101C480087F025C088F0000E586E000E596EC00E41
:101C58005A6E400E5B6E85C054F086C055F087C042
:101C680056F088C057F077EC1DF054C089F055C085
:101C78008AF056C08BF057C08CF089C03BF08AC000
:101C88003CF08BC03DF08CC03EF0000E3F6E000E65
:101C9800406E700E416E420E426E61EC12F03BC017
:101CA800A9F03CC0AAF03DC0ABF03EC0ACF043EF99
:101CB8000FF0B1C001F0B2C002F0B3C003F0B4C07D
:101CC80004F0B9C005F0BAC006F0BBC007F0BCC04C
:101CD80008F020EC20F0D8A074EF0EF076EF0EF0AC
:101CE800D0EF0EF0ADC026F0AEC027F0AFC028F0A0
:101CF800B0C029F0B5C01EF0B6C01FF0B7C020F0C4
:101D0800B8C021F0BDC01AF0BEC01BF0BFC01CF0A7
:101D1800C0C01DF0CBEC21F01AC022F01BC023F08C
:101D28001CC024F01DC025F076EC14F022C0A5F0EC
:101D380023C0A6F024C0A7F025C0A8F0000E056EA9
:101D4800000E066E000E076E400E086EA5C001F06C
:101D5800A6C002F0A7C003F0A8C004F001EC10F080
:101D680001C03BF002C03CF003C03DF004C03EF0AF
:101D7800000E3F6E000E406E700E416E420E426EB7
:101D880061EC12F03BC0A9F03CC0AAF03DC0ABF03A
:101D98003EC0ACF043EF0FF0B1C001F0B2C002F0AA
:101DA800B3C003F0B4C004F0BDC005F0BEC006F077
:101DB800BFC007F0C0C008F020EC20F0D8A0E7EFC3
:101DC8000EF0E9EF0EF043EF0FF0ADC026F0AEC015
:101DD80027F0AFC028F0B0C029F0B9C01EF0BAC0D3
:101DE8001FF0BBC020F0BCC021F0B5C01AF0B6C0CF
:101DF8001BF0B7C01CF0B8C01DF0CBEC21F01AC026
:101E080022F01BC023F01CC024F01DC025F076EC86
:101E180014F022C0A5F023C0A6F024C0A7F025C066
:101E2800A8F0000E056E000E066E800E076E400EBE
:101E3800086EA5C001F0A6C002F0A7C003F0A8C0B4
:101E480004F001EC10F001C03BF002C03CF003C00C
:101E58003DF004C03EF0000E3F6E000E406E700E66
:101E6800416E420E426E61EC12F03BC0A9F03CC0DC
:101E7800AAF03DC0ABF03EC0ACF043EF0FF000015C
:101E8800ACBF4BEF0FF049EF0FF065EF0FF0A9C0B3
:101E980001F0AAC002F0ABC003F0ACC004F0000E21
:101EA800056E000E066EB40E076E430E086E01EC4A
:101EB80010F001C0A9F002C0AAF003C0ABF004C042
:101EC800ACF000017A51D96EDA6AA9C0DEFFAAC067
:101ED800DEFFABC0DEFFACC0DEFFB1C001F0B2C0B8
:101EE80002F0B3C003F0B4C004F0000E056E000E9B
:101EF800066E000E076E000E086E20EC20F0D8A0CB
:101F080088EF0FF08AEF0FF098EF0FF000017B5188
:101F1800D96EDA6A000EDE6E000EDE6E000EDE6E20
:101F2800000EDD6EC8EF0FF0B1C026F0B2C027F08A
:101F3800B3C028F0B4C029F0ADC022F0AEC023F081
:101F4800AFC024F0B0C025F076EC14F022C03BF00E
:101F580023C03CF024C03DF025C03EF0000E3F6E8B
:101F6800000E406EC80E416E420E426E61EC12F0D9
:101F780000017B51D96EDA6A3BC0DEFF3CC0DEFF50
:101F88003DC0DEFF3EC0DEFF000E3F6E000E406E1D
:101F9800C80E416E420E426EB1C03BF0B2C03CF07A
:101FA800B3C03DF0B4C03EF061EC12F03BC08DF020
:101FB8003CC08EF03DC08FF03EC090F08DC03BF02D
:101FC8008EC03CF08FC03DF090C03EF07DC03FF029
:101FD8007EC040F07FC041F080C042F061EC12F05A
:101FE80000017C51D96EDA6A3BC0DEFF3CC0DEFFDF
:101FF8003DC0DEFF3EC0DEFF12000450800B0D6EB8
:10200800045004240F6E03AE0CEF10F00EEF10F026
:102018000FEF10F00F800F50D8B415EF10F017EF36
:1020280010F02CEF10F00F28D8A41DEF10F01FEFC0
:1020380010F027EF10F0000E016E000E026E000E79
:10204800036E000E046E038E000E046E34EF10F063
:10205800000E016E000E026E000E036E000E046E7E
:102068000850800B0E6E0D500E18D8B43EEF10F0CD
:1020780040EF10F041EF10F00D8C085008240E6E60
:1020880007AE49EF10F04BEF10F04CEF10F00E8058
:102098000E50D8B452EF10F054EF10F069EF10F072
:1020A8000E28D8A45AEF10F05CEF10F064EF10F08F
:1020B800000E056E000E066E000E076E000E086E0E
:1020C800078E000E086E71EF10F0000E056E000E00
:1020D800066E000E076E000E086E0F500E5CD8B02C
:1020E80078EF10F07AEF10F0A1EF10F00DAC7FEF61
:1020F80010F081EF10F083EF10F0800E0D1A0FC072
:1021080010F00EC00FF010C00EF001C010F005C0A6
:1021180001F010C005F002C010F006C002F010C0B7
:1021280006F003C010F007C003F010C007F004C0A9
:1021380010F008C004F010C008F0000E106E0F5028
:102148000EC009F00A6A095E000E0A5A0ABEB6EF06
:1021580010F00A5009E11A0E095CD8A0B6EF10F089
:10216800B8EF10F0EFEF10F0015002100310041058
:10217800D8A4C1EF10F0C4EF10F0010EC5EF10F0B5
:10218800000E106E000E016E000E026E000E036E41
:10219800000E046E0EC00FF0F8EF10F010A0D7EF8D
:1021A80010F0D9EF10F0DFEF10F0D89010300109DF
:1021B800106EE1EF10F0D890103201A0E6EF10F0A9
:1021C800E8EF10F0E9EF10F0108E04340432033217
:1021D800023201320F2A0E500F5CD8A0F6EF10F031
:1021E800F8EF10F0D2EF10F00DBCFDEF10F0FFEF9C
:1021F80010F03FEF11F00F50D8A405EF11F007EFE2
:1022080011F011EF11F0000E016E000E026E000EBB
:10221800036E000E046E60EF12F0055001260650A2
:102228000222075003220850042204A01EEF11F0D6
:1022380020EF11F0CCEF11F010A025EF11F027EFEF
:1022480011F02DEF11F0D89010300109106E2FEF1A
:1022580011F0D890103201A034EF11F036EF11F0E0
:1022680037EF11F0108E0434043203320232013297
:102278000F2ACCEF11F00550015C065002580750A8
:1022880003580450800A096E0850800A0958D8B0CB
:1022980050EF11F052EF11F07DEF11F00150055C95
:1022A800096E025006580A6E035007580B6E045008
:1022B80008580C6EFF0E0924016EFF0E0A20026EEC
:1022C800FF0E0B20036EFF0E0C20046E800E0D1AFD
:1022D800106C1050D8A473EF11F075EF11F085EF62
:1022E80011F0010E0126000E02220322042285EFBE
:1022F80011F00550015E0650025A0750035A085063
:10230800045A0150021003100410D8A48EEF11F0E3
:1023180090EF11F0C5EF11F01050D8A496EF11F01E
:1023280098EF11F0C5EF11F0000E016E000E026E6D
:10233800000E036E000E046E60EF12F0D8900136A6
:1023480002360336043610AEACEF11F0AEEF11F0E2
:10235800AFEF11F0018010A0B4EF11F0B6EF11F05B
:10236800BAEF11F0D8801036BCEF11F0D8901036C3
:102378000F50D8B4C2EF11F0C4EF11F0C5EF11F04F
:102388000F0603AECAEF11F0CCEF11F0A2EF11F077
:10239800000E0E6E10AED3EF11F0D5EF11F0EDEF89
:1023A80011F010C009F07F0E0916D8B4DEEF11F055
:1023B800E0EF11F0E4EF11F0010E0E6EEDEF11F009
:1023C80001A0E9EF11F0EBEF11F0EDEF11F0E0EF04
:1023D80011F00E50D8B4F3EF11F0F5EF11F020EF33
:1023E80012F0010E0126000E02220322042204A08C
:1023F80000EF12F002EF12F020EF12F001C009F026
:1024080002C00AF003C00BF004C00CF00C340C320C
:102418000B320A32093209C001F00AC002F00BC0BF
:1024280003F00CC004F00F28D8B41DEF12F01FEF12
:1024380012F020EF12F00F2A0F28D8B426EF12F06E
:1024480028EF12F030EF12F00F50D8A42EEF12F050
:1024580030EF12F042EF12F0000E016E000E026E25
:10246800000E036E000E046E0F50D8A43EEF12F05B
:1024780040EF12F042EF12F0000E0D6E0FA047EF82
:1024880012F049EF12F04CEF12F0038E4DEF12F0FC
:10249800039ED8900F30046E0DAE55EF12F057EF33
:1024A80012F058EF12F0048E01C001F002C002F0E1
:1024B80003C003F004C004F012003E50800B476EC6
:1024C8003E503E244D6E3DAE6CEF12F06EEF12F0B2
:1024D8006FEF12F04D804D50D8B475EF12F077EFD2
:1024E80012F08AEF12F04D28D8A47DEF12F07FEF9A
:1024F80012F087EF12F0000E3B6E000E3C6E000EDD
:102508003D6E000E3E6E3D8E92EF12F0000E3B6E59
:10251800000E3C6E000E3D6E000E3E6E4250800B6B
:10252800471A425042244C6E41AE9DEF12F09FEF85
:1025380012F0A0EF12F04C804C50D8B4A6EF12F075
:10254800A8EF12F0BBEF12F04C28D8A4AEEF12F0AF
:10255800B0EF12F0B8EF12F0000E3F6E000E406EB2
:10256800000E416E000E426E418EC3EF12F0000E57
:102578003F6E000E406E000E416E000E426E4C50D3
:10258800D8B4C9EF12F0CBEF12F0D3EF12F04D50E0
:10259800D8A4D1EF12F0D3EF12F0DDEF12F0000E55
:1025A8003B6E000E3C6E000E3D6E000E3E6E75EFEB
:1025B80014F041503B02F3CF52F0F4CF53F0525095
:1025C800486E496A4A6A4B6A53504E6E4F6A506A5F
:1025D800516A40503C02F3CF52F0F4CF53F05250BE
:1025E8004826000E49224A224B2253504E26000EFE
:1025F8004F22502251223F503D02F3CF52F0F4CFE8
:1026080053F052504826000E49224A224B2253507A
:102618004E26000E4F22502251224AC04BF049C08C
:102628004AF048C049F0486A3F503C02F3CF52F0A4
:10263800F4CF53F05250482653504922000E4A22F4
:10264800000E4B2240503B02F3CF52F0F4CF53F030
:102658005250482653504922000E4A22000E4B225F
:102668004AC04BF049C04AF048C049F0486A3F5058
:102678003B02F3CF52F0F4CF53F052504826535058
:102688004922000E4A22000E4B2241503C02F3CF51
:1026980052F0F4CF53F052504E2653504F22000EB2
:1026A8005022000E512240503D02F3CF52F0F4CF99
:1026B80053F052504E2653504F22000E5022000E17
:1026C800512241503D02F3CF52F0F4CF53F0525013
:1026D800436E5350446E456A466A45C046F044C04E
:1026E80045F043C044F0436A43504E2644504F22BD
:1026F800455050224650512248C043F049C044F04A
:102708004AC045F04BC046F0190E90EF13F0D89030
:102718004632453244324332E82E8BEF13F04350B1
:102728004E2644504F2245505022465051224AC00E
:102738004BF049C04AF048C049F0486A4C504DC077
:1027480043F0446A4326000E4422820E4324526E0C
:10275800FF0E4420536EC6EF13F0D8904E364F3616
:10276800503651364BAEBBEF13F0BDEF13F0BEEF52
:1027780013F04E80D890483649364A364B365206C2
:10278800D8A0530650AECBEF13F0CDEF13F0B1EF56
:1027980013F0000E4C6E4BAED4EF13F0D6EF13F0DF
:1027A800FAEF13F0FF0E4814436EFF0E4914446EFF
:1027B800FF0E4A14456E7F0E4B14466E435044106C
:1027C80045104610D8B4EBEF13F0EDEF13F0F1EF2E
:1027D80013F0010E4C6EFAEF13F04EA0F6EF13F063
:1027E800F8EF13F0FAEF13F0EDEF13F04C50D8B404
:1027F80000EF14F002EF14F026EF14F0010E4E264D
:10280800000E4F225022512251A00DEF14F00FEF6D
:1028180014F026EF14F04EC043F04FC044F050C0FF
:1028280045F051C046F046344632453244324332D0
:1028380043C04EF044C04FF045C050F046C051F080
:10284800524A532A53BE31EF14F0535008E152282C
:10285800D8A031EF14F033EF14F03DEF14F0000E70
:102868004E6E000E4F6E800E506E7F0E516E6BEFE7
:1028780014F053BE4AEF14F0535006E15204D8B096
:1028880048EF14F04AEF14F056EF14F0000E4E6EB5
:10289800000E4F6E000E506E000E516E000E476E09
:1028A8006BEF14F052C04DF0FF0E4E16FF0E4F1690
:1028B8007F0E5016000E51164DA065EF14F067EF0D
:1028C80014F068EF14F0508ED8904D30516E475088
:1028D80051124EC03BF04FC03CF050C03DF051C0CB
:1028E8003EF012002550800B326E25502524396E9B
:1028F80024AE81EF14F083EF14F084EF14F03980E4
:102908003950D8B48AEF14F08CEF14F0A1EF14F01A
:102918003928D8A492EF14F094EF14F09CEF14F037
:10292800000E226E000E236E000E246E000E256E21
:10293800248E000E256EA9EF14F0000E226E000EF4
:10294800236E000E246E000E256E2950800B321A5D
:10295800295029243A6E28AEB4EF14F0B6EF14F0DB
:10296800B7EF14F03A803A50D8B4BDEF14F0BFEF87
:1029780014F0D4EF14F03A28D8A4C5EF14F0C7EF38
:1029880014F0CFEF14F0000E266E000E276E000E26
:10299800286E000E296E288E000E296EDCEF14F0CA
:1029A800000E266E000E276E000E286E000E296E91
:1029B8002650271028102910D8A4E5EF14F0E7EFC7
:1029C80014F0FFEF14F0000E226E000E236E000EBE
:1029D800246E000E256E800E24127F0E25123250B2
:1029E800251222C022F023C023F024C024F025C0E1
:1029F80025F042EF16F03950D8A405EF15F007EF8F
:102A080015F011EF15F0000E226E000E236E000E69
:102A1800246E000E256E42EF16F03A5039C02AF0A7
:102A28002B6A2A5E000E2B5A7F0E2A24336E000E64
:102A38002B20346E22C02EF023C02FF024C030F09B
:102A480025C031F0000E226E000E236E000E246E9B
:102A5800000E256E000E356E000E366E000E376EB7
:102A6800000E386E000E3A6E72EF15F03A50D8B478
:102A780040EF15F042EF15F059EF15F0D8902E36CB
:102A88002F3630363136D89022362336243625363E
:102A980038AE51EF15F053EF15F054EF15F02280D2
:102AA800D890353636363736383626502E5C27508D
:102AB8002F582850305829503158D8A066EF15F0B3
:102AC80068EF15F071EF15F0388C26502E5E275000
:102AD8002F5A2850305A2950315A3A2A190E3A6436
:102AE80078EF15F07AEF15F03AEF15F02E502F1019
:102AF80030103110D8B483EF15F085EF15F09DEF45
:102B080015F035809DEF15F0D890223623362436FF
:102B1800253638AE92EF15F094EF15F095EF15F0D5
:102B28002280D89035363636373638363306D8A030
:102B3800340624AEA2EF15F0A4EF15F088EF15F0D7
:102B4800000E3A6E38AEABEF15F0ADEF15F0D1EFE1
:102B580015F0FF0E35142A6EFF0E36142B6EFF0E7D
:102B680037142C6E7F0E38142D6E2A502B102C1013
:102B78002D10D8B4C2EF15F0C4EF15F0C8EF15F05A
:102B8800010E3A6ED1EF15F022A0CDEF15F0CFEF80
:102B980015F0D1EF15F0C4EF15F03A50D8B4D7EFCF
:102BA80015F0D9EF15F0FDEF15F0010E2226000EF5
:102BB80023222422252225A0E4EF15F0E6EF15F0C4
:102BC800FDEF15F022C02AF023C02BF024C02CF012
:102BD80025C02DF02D342D322C322B322A322AC02A
:102BE80022F02BC023F02CC024F02DC025F0334A4E
:102BF800342A34BE08EF16F0345008E13328D8A040
:102C080008EF16F00AEF16F015EF16F0000E346E06
:102C18003368000E226E000E236E000E246E000E26
:102C2800256E34BE22EF16F0345006E13304D8B0D6
:102C380020EF16F022EF16F030EF16F0000E346E8B
:102C4800000E336E000E226E000E236E000E246EF0
:102C5800000E256E000E326E33C039F039A037EF02
:102C680016F039EF16F03CEF16F0248E3DEF16F013
:102C7800249ED8903930256EF3EF14F01200000E20
:102C8800026E630E016E75EC20F0000E0101796F83
:102C9800010E7A6F010E7B6FAA0E7E6F0F0E7F6F8B
:102CA800A60E806F0F0E816F000E7D6F630E7C6F16
:102CB800000E706F010E716F010E726F250E756F29
:102CC8000F0E766F210E776F0F0E786F000E746FF0
:102CD800630E736F849E7C9E8896809686840E0110
:102CE800B4958686B497040E0101826F000E836F37
:102CF8003C0E846F3C0E856F3C0E866F0A0E876F04
:102D08000A0E886F140E896F140E8A6F8205D8A474
:102D180090EF16F092EF16F0AAEF16F0850E016EFE
:102D2800010E026ECCEC1CF0790E146E010E156EBD
:102D3800700E166E010E176E01018551A4EC19F084
:102D4800820E016E010E026EC7EC1FF0020E010129
:102D58008219D8A4B2EF16F0B4EF16F0CCEF16F043
:102D6800840E016E010E026ECCEC1CF0790E146E0E
:102D7800010E156E700E166E010E176E010184514C
:102D880077EC1AF0820E016E010E026EC7EC1FF08E
:102D9800030E01018219D8A4D4EF16F0D6EF16F06D
:102DA800EEEF16F0880E016E010E026ECCEC1CF0F0
:102DB800790E146E010E156E700E166E010E176EDA
:102DC80001018851D0EC18F0820E016E010E026EDE
:102DD800C7EC1FF0040E01018219D8A4F6EF16F013
:102DE800F8EF16F08AEF16F0000EB66F000EB36F0C
:102DF80021EE9FF0130EDE6AE806FDE230EC22F0C9
:102E080001EC23F0520E5F6E2B0E5E6E000EE82E64
:102E1800FED75E2EFCD75F2EFAD700D080867C8E38
:102E2800520E5F6E2B0E5E6E000EE82EFED75E2EE3
:102E3800FCD75F2EFAD700D00101B32B04EC07F0C2
:102E48005CC0B7F15DC0B8F180967C9E520E5F6E93
:102E58002B0E5E6E000EE82EFED75E2EFCD75F2E80
:102E6800FAD700D00101B751B811D8B43EEF17F026
:102E780040EF17F0B7EF17F09F0EB625D96EDA6A54
:102E8800010EDA22B3510A0FDF6E000EB36FB62BB4
:102E9800B705B811D8A453EF17F055EF17F06BEF3B
:102EA80017F09F0EB625D96EDA6A010EDA22B7C17D
:102EB800DFFFB62B790E146E010E156E700E166EAE
:102EC800010E176E8551A4EC19F0B7EF17F0020E3A
:102ED800B719B811D8A473EF17F075EF17F08BEF87
:102EE80017F09F0EB625D96EDA6A010EDA22B7C13D
:102EF800DFFFB62B790E146E010E156E700E166E6E
:102F0800010E176E845177EC1AF0B7EF17F0030E25
:102F1800B719B811D8A493EF17F095EF17F0B7EFDA
:102F280017F09F0EB625D96EDA6A010EDA22B7C1FC
:102F3800DFFFB62B790E146E010E156E700E166E2D
:102F4800010E176E845177EC1AF0790E146E010E8B
:102F5800156E700E166E010E176E0101845177EC16
:102F68001AF0B7EF17F0000E0101B56F000EB46F3D
:102F78008B0E1D6E010E1E6E010E1F6E9F0EB42568
:102F8800D96E010EB521DA6EDF505E6E5E50206E8E
:102F9800216A50EC22F08B0E026E010E036E86EC55
:102FA80022F0050E5F6E0F0E5E6EF10EE82EFED754
:102FB8005E2EFCD75F2EFAD700000101B44BB52B6B
:102FC800B5BFF0EF17F0B55109E10A0EB45DD8A00E
:102FD800F0EF17F0F2EF17F0BCEF17F012EF17F061
:102FE80000EF00F0146E1450D8B4FDEF17F0FFEFA7
:102FF80017F021EF18F00FBE06EF18F004EF18F0E5
:1030080021EF18F00CC010F00DC011F00EC012F036
:103018000FC013F0101E111E121E131E102A000ED0
:1030280011221222132210C016F011C017F012C07C
:1030380018F013C019F029EF18F00CC016F00DC0E5
:1030480017F00EC018F00FC019F00C500D100E102C
:103058000F10D8A432EF18F034EF18F03EEF18F044
:10306800000E0C6E000E0D6E000E0E6E000E0F6E32
:10307800CFEF18F0960E156E48EF18F0152AD89075
:103088001932183217321632000E1614106E000E4E
:103098001714116E000E1814126EFE0E1914136E0A
:1030A8001050111012101310D8A45DEF18F05FEF34
:1030B80018F042EF18F06DEF18F0152A010E1626D9
:1030C800000E172218221922D890193218321732F6
:1030D8001632000E1614106E000E1714116E000E24
:1030E8001814126EFF0E1914136E105011101210CE
:1030F8001310D8A482EF18F084EF18F061EF18F0DD
:103108008CEF18F01506D89016361736183619367B
:1031180018BE91EF18F093EF18F09BEF18F0020E1D
:10312800156099EF18F09BEF18F086EF18F015B0BE
:10313800A0EF18F0A2EF18F0A3EF18F0189ED8909F
:10314800153215C010F0116A126A136A10C013F014
:10315800126A116A106A1050161211501712125082
:103168001812135019121450D8B4BDEF18F0BFEF4D
:1031780018F0C7EF18F00FBEC6EF18F0C4EF18F03C
:10318800C7EF18F0198E16C00CF017C00DF018C054
:103198000EF019C00FF012001B6E20EE01F0145053
:1031A800D9261550DA22010EDF6E20EE01F01650F6
:1031B800D9261750DA22010EDF6E000E216E140E8A
:1031C800206E000E026E640E016E000E046E140E68
:1031D800036E08EC1FF001C022F002C023F0000EBD
:1031E8001D6E000E1C6E25EF19F014C0D9FF15C016
:1031F800DAFFDF50186E182814C0D9FF15C0DAFF9F
:10320800DF6E16C0D9FF17C0DAFFDF50186E182816
:1032180016C0D9FF17C0DAFFDF6E16C00EF017C050
:103228000FF016EC1CF014C00EF015C00FF016ECE1
:103238001CF022C001F023C002F09EEC22F01C4AD0
:103248001D2A20501C5C1D50800A186E2150800ACF
:103258001858D8A032EF19F034EF19F0F9EF18F038
:10326800000E1F6E000E1E6E43EF19F0D00E186E82
:10327800CA0EE82EFED7182EFCD71E4A1F2A1B504E
:10328800186E196A18501E5C1F50800A1A6E195061
:10329800800A1A58D8A053EF19F055EF19F03AEFF1
:1032A80019F08BEF19F016C0D9FF17C0DAFFDF50FD
:1032B800D8B461EF19F063EF19F068EF19F016C090
:1032C800D9FF17C0DAFFDF0614C0D9FF15C0DAFF2F
:1032D800DF50D8B472EF19F074EF19F079EF19F0E4
:1032E80014C0D9FF15C0DAFFDF0616C00EF017C0EC
:1032F8000FF016EC1CF014C00EF015C00FF016EC11
:103308001CF022C001F023C002F09EEC22F014C091
:10331800D9FF15C0DAFFDF50D8A495EF19F097EF61
:1033280019F057EF19F016C0D9FF17C0DAFFDF50B0
:10333800D8A4A1EF19F0A3EF19F057EF19F0120074
:103348001B6E20EE01F01450D9261550DA22010E1A
:10335800DF6E20EE01F01650D9261750DA22DF6A08
:10336800000E216E140E206E000E026E640E016EA9
:10337800000E046E140E036E08EC1FF001C022F05C
:1033880002C023F0000E1D6E000E1C6EF8EF19F03F
:1033980014C0D9FF15C0DAFFDF50186E182814C002
:1033A800D9FF15C0DAFFDF6E16C0D9FF17C0DAFFE4
:1033B800DF50186E182816C0D9FF17C0DAFFDF6E65
:1033C80016C00EF017C00FF016EC1CF014C00EF06B
:1033D80015C00FF016EC1CF022C001F023C002F05B
:1033E8009EEC22F01C4A1D2A20501C5C1D50800AAD
:1033F800186E2150800A1858D8A005EF1AF007EF68
:103408001AF0CCEF19F0000E1F6E000E1E6E16EFAC
:103418001AF0D00E186ECA0EE82EFED7182EFCD75A
:103428001E4A1F2A1B50186E196A18501E5C1F501E
:10343800800A1A6E1950800A1A58D8A026EF1AF076
:1034480028EF1AF00DEF1AF05EEF1AF016C0D9FF48
:1034580017C0DAFFDF50D8B434EF1AF036EF1AF09D
:103468003BEF1AF016C0D9FF17C0DAFFDF0614C009
:10347800D9FF15C0DAFFDF50D8B445EF1AF047EF8F
:103488001AF04CEF1AF014C0D9FF15C0DAFFDF06A6
:1034980016C00EF017C00FF016EC1CF014C00EF09A
:1034A80015C00FF016EC1CF022C001F023C002F08A
:1034B8009EEC22F014C0D9FF15C0DAFFDF50D8A463
:1034C80068EF1AF06AEF1AF02AEF1AF016C0D9FF5F
:1034D80017C0DAFFDF50D8A474EF1AF076EF1AF0AD
:1034E8002AEF1AF012001B6E20EE01F01450D926B4
:1034F8001550DA22DF6A20EE01F01650D92617504F
:10350800DA22010EDF6E000E216E140E206E000E00
:10351800026E640E016E000E046E140E036E08EC4B
:103528001FF001C022F002C023F0000E1D6E000E35
:103538001C6ECBEF1AF014C0D9FF15C0DAFFDF50AC
:10354800186E182814C0D9FF15C0DAFFDF6E16C030
:10355800D9FF17C0DAFFDF50186E182816C0D9FF38
:1035680017C0DAFFDF6E16C00EF017C00FF016ECAA
:103578001CF014C00EF015C00FF016EC1CF022C0A1
:1035880001F023C002F09EEC22F01C4A1D2A2050B4
:103598001C5C1D50800A186E2150800A1858D8A04B
:1035A800D8EF1AF0DAEF1AF09FEF1AF0000E1F6E3C
:1035B800000E1E6EE9EF1AF0D00E186ECA0EE82E35
:1035C800FED7182EFCD71E4A1F2A1B50186E196AE0
:1035D80018501E5C1F50800A1A6E1950800A1A581B
:1035E800D8A0F9EF1AF0FBEF1AF0E0EF1AF031EF7C
:1035F8001BF016C0D9FF17C0DAFFDF50D8B407EFA9
:103608001BF009EF1BF00EEF1BF016C0D9FF17C017
:10361800DAFFDF0614C0D9FF15C0DAFFDF50D8B4CF
:1036280018EF1BF01AEF1BF01FEF1BF014C0D9FFA7
:1036380015C0DAFFDF0616C00EF017C00FF016EC43
:103648001CF014C00EF015C00FF016EC1CF022C0D0
:1036580001F023C002F09EEC22F014C0D9FF15C07F
:10366800DAFFDF50D8A43BEF1BF03DEF1BF0FDEF76
:103678001AF016C0D9FF17C0DAFFDF50D8A447EFF9
:103688001BF049EF1BF0FDEF1AF012000F50D96E36
:10369800DA6ADFCFF6FF0E0EF76E000EF86E08003E
:1036A800F550250AD8A45BEF1BF05DEF1BF002EF85
:1036B8001CF00F50D96EDA6ADF2A000E0001F46F91
:1036C800000EF36FF3C0F7F0F569F6690F50D96E85
:1036D800DA6ADF50176E17C0F6FF0E0EF76E000E8F
:1036E800F86E0800F550750AD8A47DEF1BF07FEF3F
:1036F8001BF0FCEF1BF01050D96EDA6A020EDF26C1
:10370800DF5CD96EDA6ADECF13F0DECF14F00F502B
:10371800D96EDA6A1728DF6EE4EF1BF0200E186EF8
:1037280018063C0E1824D96EDA6A010EDA2213C084
:1037380001F014C002F0000E046E0A0E036EF9ECDC
:1037480020F00150300FDF6E13C007F014C008F0EE
:10375800000E0A6E0A0E096EBFEC20F007C013F0C7
:1037680008C014F013501410D8B4BDEF1BF0BFEF0D
:103778001BF0D9EF1BF01850D8A4C5EF1BF0C7EF0A
:103788001BF094EF1BF0D9EF1BF03C0E1824D96EF8
:10379800DA6A010EDA22DF50116E1150016E026AE8
:1037A8000EC003F06AEC1FF0182A200E1818D8A4CF
:1037B800E0EF1BF0E2EF1BF0C9EF1BF015EF1CF078
:1037C80017C0F6FF0E0EF76E000EF86E0800F550E3
:1037D800116E126A1250000AD8B4F5EF1BF0FCEF14
:1037E8001BF01150750AD8B492EF1BF0FCEF1BF0D8
:1037F8000F50D96EDA6ADF2A15EF1CF00F50D96E18
:10380800DA6ADFCFF6FF0E0EF76E000EF86E0800CC
:10381800F550016E026A0EC003F06AEC1FF0FCEF6F
:103828001BF0120020EE02F00E50D9260F50DA22BB
:10383800DF50D8B422EF1CF024EF1CF058EF1CF036
:103848000EC0D9FF0FC0DAFFDF50106E1050016EA6
:10385800026A20EE03F00E50D9260F50DA22DECF8E
:1038680003F0DDCF04F0DEEC22F001C007F002C067
:1038780008F0000E0A6E640E096EBFEC20F020EE10
:1038880003F00E50D9260F50DA22DF50116E075080
:10389800115C126E20EE03F00E50D9260F50DA227A
:1038A800DF50136E7BEF1CF0000E126E0EC0D9FFB6
:1038B8000FC0DAFFDF50106E1050016E026A20EE62
:1038C80003F00E50D9260F50DA22DECF03F0DDCFF9
:1038D80004F0DEEC22F001C007F002C008F0000E90
:1038E8000A6E640E096EBFEC20F00750136E20EECE
:1038F80001F00E50D9260F50DA22DF50D8B487EFE6
:103908001CF089EF1CF0ABEF1CF020EE05F00E5018
:10391800D9260F50DA22DECF10F0DDCF11F010C01B
:10392800D9FF11C0DAFF12C0DFFF20EE07F00E50FA
:10393800D9260F50DA22DECF10F0DDCF11F010C0FB
:10394800D9FF11C0DAFF13C0DFFFCBEF1CF020EE68
:1039580005F00E50D9260F50DA22DECF10F0DDCF59
:1039680011F010C0D9FF11C0DAFF13C0DFFF20EE3D
:1039780007F00E50D9260F50DA22DECF10F0DDCF37
:1039880011F010C0D9FF11C0DAFF12C0DFFF12001A
:103998008EA6D1EF1CF0D3EF1CF0DAEF1CF08EB43A
:1039A800D8EF1CF0DAEF1CF0CCEF1CF0090E046E17
:1039B8001E0E036EE40EE82EFED7032EFCD7042E4F
:1039C800FAD700D08EB6EBEF1CF0EDEF1CF006EF47
:1039D8001DF08EB4F2EF1CF0F4EF1CF006EF1DF0B2
:1039E80080867C8E520E046E2B0E036E000EE82E1F
:1039F800FED7032EFCD7042EFAD700D080967C9EE3
:103A080076EF1DF08EB40BEF1DF00DEF1DF03BEFC0
:103A18001DF0110E046E3C0E036ECB0EE82EFED781
:103A2800032EFCD7042EFAD7000001C0D9FF02C02C
:103A3800DAFFDECF03F0DDCF04F0050E0326000E1B
:103A4800042201C0D9FF02C0DAFF03C0DEFF04C0B0
:103A5800DDFF7C8E110E046E3C0E036ECB0EE82E3D
:103A6800FED7032EFCD7042EFAD700007C9E8EB614
:103A780040EF1DF042EF1DF074EF1DF0110E046EC3
:103A88003C0E036ECB0EE82EFED7032EFCD7042E79
:103A9800FAD7000001C0D9FF02C0DAFFDECF03F079
:103AA800DDCF04F0FB0E0324056EFF0E0420066E26
:103AB80001C0D9FF02C0DAFF05C0DEFF06C0DDFF86
:103AC8008086110E046E3C0E036ECB0EE82EFED7D8
:103AD800032EFCD7042EFAD700008096CCEF1CF0FA
:103AE800CCEF1CF0120058C001F059C002F05AC0C7
:103AF80003F05BC004F0000E056E000E066E000EAB
:103B0800076E000E086E20EC20F0D8A08EEF1DF096
:103B180090EF1DF09AEF1DF0000E546E000E556EDA
:103B2800000E566E000E576E02EF1EF054C022F0C3
:103B380055C023F056C024F057C025F058C026F0D1
:103B480059C027F05AC028F05BC029F076EC14F071
:103B580022C060F023C061F024C062F025C063F089
:103B680060C001F061C002F062C003F063C004F0FD
:103B780003EC1EF001C068F002C069F054C01AF0EE
:103B880055C01BF056C01CF057C01DF058C03FF080
:103B980059C040F05AC041F05BC042F068C00CF018
:103BA80069C00DF0000E0DBEFF0E0E6E0F6E010EF9
:103BB800F6EC17F00CC03BF00DC03CF00EC03DF029
:103BC8000FC03EF061EC12F03BC01EF03CC01FF08D
:103BD8003DC020F03EC021F0CBEC21F01AC064F0CB
:103BE8001BC065F01CC066F01DC067F064C054F0CF
:103BF80065C055F066C056F067C057F01200033430
:103C080004340A6E0A50D8A40CEF1EF00EEF1EF012
:103C180018EF1EF0000E016E000E026E000E036E0D
:103C2800000E046E85EF1EF001C005F002C006F01C
:103C380003C007F004C008F0200E28EF1EF0D8904B
:103C48000832073206320532E82E23EF1EF00550FF
:103C5800096E038EFF0E0116FF0E0216FF0E0316E5
:103C6800000E0416960E0A5E0ABE3FEF1EF03DEFE8
:103C78001EF055EF1EF00A50800A970FD8B047EF94
:103C88001EF049EF1EF04BEF1EF00EEF1EF0D8901D
:103C980004320332023201320A3E4BEF1EF06DEF5E
:103CA8001EF01F0E0A645BEF1EF05DEF1EF065EF5D
:103CB8001EF00EEF1EF0D890013602360336043699
:103CC8000A060A50D8A46BEF1EF06DEF1EF05FEFE6
:103CD8001EF00950D8B473EF1EF075EF1EF07DEF9B
:103CE8001EF0041E031E021E016C000E0222032297
:103CF800042201C001F002C002F003C003F004C0B6
:103D080004F01200000E0114096E000E02140A6E6F
:103D1800800E03140B6E7F0E04140C6E09500A10EB
:103D28000B100C10D8A49BEF1EF09DEF1EF0A5EF12
:103D38001EF0000E016E000E026E000E036E000EE5
:103D4800046E000E0514096E000E06140A6E800E2D
:103D580007140B6E7F0E08140C6E09500A100B1016
:103D68000C10D8A4BAEF1EF0BCEF1EF0C4EF1EF082
:103D7800000E056E000E066E000E076E000E086E31
:103D880004AEC9EF1EF0CBEF1EF0D4EF1EF0016CAD
:103D9800021ED8B0022A031ED8B0032A800E045689
:103DA80008AED9EF1EF0DBEF1EF0E4EF1EF0056C55
:103DB800061ED8B0062A071ED8B0072A800E085655
:103DC800000E011A000E021A000E031A800E041AC1
:103DD800000E051A000E061A000E071A800E081AA1
:103DE8000550015C06500258075003580850045803
:103DF800D8B001EF1FF003EF1FF006EF1FF0D890C7
:103E080007EF1FF0D8801200000E066E04BE11EFF7
:103E18001FF00FEF1FF017EF1FF0036C041ED8B050
:103E2800042A010E066E02BE1EEF1FF01CEF1FF0E3
:103E380024EF1FF0016C021ED8B0022A010E061AE8
:103E4800000E086E000E076E03500410D8B42FEF52
:103E58001FF031EF1FF059EF1FF0010E056E39EF1B
:103E68001FF0D89003360436052A04AE3EEF1FF043
:103E780040EF1FF035EF1FF0D89007360836035093
:103E8800015C04500258D8A04CEF1FF04EEF1FF011
:103E980053EF1FF00350015E0450025A0780D89078
:103EA80004320332052E40EF1FF00650D8B45FEFFE
:103EB8001FF061EF1FF065EF1FF0076C081ED8B008
:103EC800082A07C001F008C002F012000350D8B455
:103ED80070EF1FF072EF1FF07AEF1FF00350D8A4B5
:103EE80078EF1FF07AEF1FF07FEF1FF0015031ECF1
:103EF80023F0C6EF1FF00350D96EDA6A0A0ED926EE
:103F0800DE50DE10D8B48BEF1FF08DEF1FF0A6EF58
:103F18001FF00350D96EDA6A0A0ED9260350E16EF3
:103F2800E26A030EE126DE50E65CE650800A086E7F
:103F3800DE50800A0858D8B0A4EF1FF0A6EF1FF093
:103F4800C6EF1FF00350D96EDA6A030ED926DECF0A
:103F580004F0DDCF05F00350D96EDA6ADECF06F043
:103F6800DDCF07F004500624D96E05500720DA6E1D
:103F780001C0DFFF0350D96EDA6A030ED926DE2AA4
:103F8800000EDD2212008EB4CCEF1FF0CEEF1FF032
:103F9800FEEF1FF0110E046E3C0E036ECB0EE82EE2
:103FA800FED7032EFCD7042EFAD7000001C0D9FF94
:103FB80002C0DAFFDECF03F0DDCF04F0010E0326E6
:103FC800000E042201C0D9FF02C0DAFF03C0DEFFE1
:103FD80004C0DDFF7C8E110E046E3C0E036ECB0E0A
:103FE800E82EFED7032EFCD7042EFAD700007C9EBD
:103FF8001FEF20F08EB603EF20F005EF20F0C7EF9B
:104008001FF0110E046E3C0E036ECB0EE82EFED789
:10401800032EFCD7042EFAD700008086110E046EFA
:104028003C0E036ECB0EE82EFED7032EFCD7042ED3
:10403800FAD7000080961200000E0114096E000ED7
:1040480002140A6E800E03140B6E7F0E04140C6E9D
:1040580009500A100B100C10D8A435EF20F037EFD8
:1040680020F03FEF20F0000E016E000E026E000EF1
:10407800036E000E046E000E0514096E000E061481
:104088000A6E800E07140B6E7F0E08140C6E095012
:104098000A100B100C10D8A454EF20F056EF20F0A3
:1040A8005EEF20F0000E056E000E066E000E076E25
:1040B800000E086E055001180FE1065002180CE1B9
:1040C8000750031809E108500418D8B46EEF20F01F
:1040D80070EF20F073EF20F0D89074EF20F0D880C4
:1040E800120085948598839E879C7D947D987B9EFD
:1040F8007F9C050E0E01746F060E766F070E696FB2
:10410800080E886FBD508F0B4009BD6EE00EBE16BD
:10411800BF50F00B0109BF6E01C0BCFFBD8E000E81
:10412800AA6E000EA66E000E0F01256F000E216FFD
:10413800FC0EAD16F30EAD16CF0EAD163F0EAD1636
:10414800AB88AB50F00B0C09AB6EAB8EA788A750B1
:10415800F00B0C09A76EA78E26892651F00B0C09C7
:10416800266F268F22892251F00B0C09226F228F8D
:10417800889680961200000E0C6E000E0B6E095089
:104188000A10D8B4CAEF20F0CCEF20F0F4EF20F0FA
:10419800010E0D6ED4EF20F0D89009360A360D2A9C
:1041A8000AAED9EF20F0DBEF20F0D0EF20F0D89066
:1041B8000B360C360950075C0A500858D8A0E7EFB0
:1041C80020F0E9EF20F0EEEF20F00950075E0A50EA
:1041D800085A0B80D8900A3209320D2EDBEF20F0F6
:1041E8000BC007F00CC008F0120003500410D8B43C
:1041F80000EF21F002EF21F026EF21F0010E056E0D
:104208000AEF21F0D89003360436052A04AE0FEFE2
:1042180021F011EF21F006EF21F00350015C04506A
:104228000258D8A01AEF21F01CEF21F020EF21F05E
:104238000350015E0450025AD89004320332052E0E
:1042480011EF21F001C001F002C002F0120027ECCA
:1042580023F0520E1CEC23F0B60E1CEC23F02CECD1
:1042680023F0530E1CEC23F0010E0FEC22F0076E26
:1042780007500A6E0B6A000E0FEC22F0076E07500B
:10428800096E086A0A5008100A6E0B5009100B6E66
:1042980022EC23F00AC005F00BC006F0120027EC50
:1042A80023F0520E1CEC23F0B80E1CEC23F02CEC7F
:1042B80023F0530E1CEC23F0010E0FEC22F0076ED6
:1042C80007500A6E0B6A000E0FEC22F0076E0750BB
:1042D800096E086A0A5008100A6E0B5009100B6E16
:1042E80022EC23F00AC005F00BC006F0120027EC00
:1042F80023F0520E1CEC23F0B40E1CEC23F02CEC33
:1043080023F0530E1CEC23F0010E0FEC22F0076E85
:1043180007500A6E0B6A000E0FEC22F0076E07506A
:10432800096E086A0A5008100A6E0B5009100B6EC5
:1043380022EC23F00AC005F00BC006F0120027ECAF
:1043480023F0520E1CEC23F0BA0E1CEC23F02CECDC
:1043580023F0530E1CEC23F0010E0FEC22F0076E35
:1043680007500A6E0B6A000E0FEC22F0076E07501A
:10437800096E086A0A5008100A6E0B5009100B6E75
:1043880022EC23F00AC005F00BC006F01200000E64
:104398001E1A000E1F1A000E201A800E211A1AC0AB
:1043A80001F01BC002F01CC003F01DC004F01EC0C9
:1043B80005F01FC006F020C007F021C008F001EC8E
:1043C80010F001C01AF002C01BF003C01CF004C0BA
:1043D8001DF012001AC01CF0FAEF21F019C00EF0FF
:1043E8001C0E0F6E1BC010F04AEC1BF01CC0F6FF31
:1043F8000E0EF76E000EF86E0800F5500009D8A4EE
:1044080008EF22F00AEF22F0F2EF21F0000E1A6E08
:10441800000E196E1200036ECAEC22F00E01DA8744
:10442800CAEC22F0D5CE04F0CAEC22F00350D8B47E
:1044380020EF22F024EF22F0026A022A25EF22F070
:10444800026A023A02460E01DA510218DF0B02181C
:10445800DA6FDA8904501200B5EC22F0010E036E0F
:10446800000EF1EC22F03F0E056E550EE82EFED739
:10447800052EFCD70000030E036E000EF1EC22F0AF
:10448800D50E036E010EF1EC22F087928198869E7C
:104498007F8279887E8E1200200E226E1DC023F046
:1044A8001EC024F0000E276E000E266E000E2E6E23
:1044B800000E2D6E230E196E1FC01AF0220E1B6EF1
:1044C800EEEC21F026501D24D96E27501E20DA6EFE
:1044D800DF6A1200640EF66E460EF76E000EF86E76
:1044E8000900F5CFFCF001EE00F08B0EEE6AE8064D
:1044F800FDE100EEDFF01D0EEE6AE806FDE10001C9
:1045080043EF16F091EF22F002C0D9FF03C0DAFFA3
:10451800DF5010EC23F0024A032A02C0D9FF03C07F
:10452800DAFFDF50D8A49BEF22F09DEF22F088EF4E
:1045380022F01200ABEF22F0150E036EC60EE82E25
:10454800FED7032EFCD700D00106D8A002060150E2
:104558000210D8A4B2EF22F0B4EF22F0A0EF22F0BC
:1045680012000E01D951F00B0809D96FD98B9F0E93
:10457800D66F848A848CA79BA79D1D0E1D6F1E0E67
:104588001C6F1C0E6F6F1B0E706F12000E01D8B5DA
:10459800D0EF22F0D2EF22F0CAEF22F0DACE01F00B
:1045A8001F0E0116D8A4DBEF22F0DDEF22F0CAEFD0
:1045B80022F0120001500302F3CF05F0F4CF06F009
:1045C80001500402F350062602500302F350062657
:1045D80005C001F006C002F01200046E27EC23F0BB
:1045E800520E1CEC23F0045080091CEC23F00350FD
:1045F8001CEC23F022EC23F01200120E0E01626F65
:10460800110E156FE997E895330EE56F000EE66F0A
:10461800E789E88BE78F1200016E0E0137A517EFC7
:1046280023F019EF23F011EF23F001C0E4FE12008C
:10463800026ECAEC22F002C0D5FE1200CAEC22F0CB
:104648000E01DA851200CAEC22F00E01DA8112009E
:0D465800CAEC22F00E01DA831200120007F6
:020000040030CA
:02000000AAFF55
:020004009FFF5C
:00000001FF
