:0400000072EF0CF09F
:100E000000483A252E326620533A20252E3266209D
:100E1000563A20252E326620433A257500004B6E47
:100E20004650D96EDA6A010ED926010EDF6E4750A0
:100E3000D96EDA6A010ED926010EDF6E000E516EF0
:100E4000140E506E000E356E640E346E000E376E4A
:100E5000140E366E35EC0BF034C052F035C053F042
:100E6000000E4D6E000E4C6E5AEF07F04650D96ED4
:100E7000DA6A4650E16EE26AE750486E4828DF6E53
:100E80004750D96EDA6A4750E16EE26AE750486E21
:100E90004828DF6E47C041F04DEC09F046C041F0F4
:100EA0004DEC09F052C034F053C035F08EEC0CF02C
:100EB0004C4A4D2A50504C5C4D50800A486E51505F
:100EC000800A4858D8A067EF07F069EF07F036EFBF
:100ED00007F0000E4F6E000E4E6E78EF07F0D00E4A
:100EE000486ECA0EE82EFED7482EFCD74E4A4F2A2F
:100EF0004B50486E496A48504E5C4F50800A4A6ECB
:100F00004950800A4A58D8A088EF07F08AEF07F0C6
:100F10006FEF07F0B8EF07F04750D96EDA6ADF508D
:100F2000D8B495EF07F097EF07F09BEF07F0475025
:100F3000D96EDA6ADF064650D96EDA6ADF50D8B465
:100F4000A4EF07F0A6EF07F0AAEF07F04650D96E1E
:100F5000DA6ADF0647C041F04DEC09F046C041F0C7
:100F60004DEC09F052C034F053C035F08EEC0CF06B
:100F70004650D96EDA6ADF50D8A4C1EF07F0C3EF4C
:100F800007F08CEF07F04750D96EDA6ADF50D8A42B
:100F9000CCEF07F0CEEF07F08CEF07F012004B6EAE
:100FA0004650D96EDA6A010ED926010EDF6E47501F
:100FB000D96EDA6A010ED926DF6A000E516E140E60
:100FC000506E000E356E640E346E000E376E140EC9
:100FD000366E35EC0BF034C052F035C053F0000ED5
:100FE0004D6E000E4C6E19EF08F04650D96EDA6A5D
:100FF0004650E16EE26AE750486E4828DF6E47507F
:10100000D96EDA6A4750E16EE26AE750486E4828C6
:10101000DF6E47C041F04DEC09F046C041F04DECA9
:1010200009F052C034F053C035F08EEC0CF04C4A4D
:101030004D2A50504C5C4D50800A486E5150800AE9
:101040004858D8A026EF08F028EF08F0F5EF07F091
:10105000000E4F6E000E4E6E37EF08F0D00E486E49
:10106000CA0EE82EFED7482EFCD74E4A4F2A4B50C8
:10107000486E496A48504E5C4F50800A4A6E49504B
:10108000800A4A58D8A047EF08F049EF08F02EEF41
:1010900008F077EF08F04750D96EDA6ADF50D8B41D
:1010A00054EF08F056EF08F05AEF08F04750D96EA9
:1010B000DA6ADF064650D96EDA6ADF50D8B463EFD9
:1010C00008F065EF08F069EF08F04650D96EDA6A6B
:1010D000DF0647C041F04DEC09F046C041F04DEC51
:1010E00009F052C034F053C035F08EEC0CF046508D
:1010F000D96EDA6ADF50D8A480EF08F082EF08F0EA
:101100004BEF08F04750D96EDA6ADF50D8A48BEF66
:1011100008F08DEF08F04BEF08F012004B6E4650D0
:10112000D96EDA6A010ED926DF6A4750D96EDA6ABB
:10113000010ED926010EDF6E000E516E140E506E98
:10114000000E356E640E346E000E376E140E366E61
:1011500035EC0BF034C052F035C053F0000E4D6E3C
:10116000000E4C6ED8EF08F04650D96EDA6A465041
:10117000E16EE26AE750486E4828DF6E4750D96E4C
:10118000DA6A4750E16EE26AE750486E4828DF6E3F
:1011900047C041F04DEC09F046C041F04DEC09F07C
:1011A00052C034F053C035F08EEC0CF04C4A4D2A4E
:1011B00050504C5C4D50800A486E5150800A48583F
:1011C000D8A0E5EF08F0E7EF08F0B4EF08F0000E64
:1011D0004F6E000E4E6EF6EF08F0D00E486ECA0E3F
:1011E000E82EFED7482EFCD74E4A4F2A4B50486E69
:1011F000496A48504E5C4F50800A4A6E4950800AF6
:101200004A58D8A006EF09F008EF09F0EDEF08F012
:1012100036EF09F04750D96EDA6ADF50D8B413EFD1
:1012200009F015EF09F019EF09F04750D96EDA6AA5
:10123000DF064650D96EDA6ADF50D8B422EF09F0E3
:1012400024EF09F028EF09F04650D96EDA6ADF067C
:1012500047C041F04DEC09F046C041F04DEC09F0BB
:1012600052C034F053C035F08EEC0CF04650D96EBD
:10127000DA6ADF50D8A43FEF09F041EF09F00AEF36
:1012800009F04750D96EDA6ADF50D8A44AEF09F066
:101290004CEF09F00AEF09F012004150D96EDA6AFA
:1012A000020ED926DF50D8B458EF09F05AEF09F0F2
:1012B0008AEF09F04150D96EDA6ADF50426E42502F
:1012C000346E356A4150D96EDA6A030ED926DECF04
:1012D00036F0DDCF37F0A5EC0CF034C03AF035C075
:1012E0003BF0000E3D6E640E3C6E38EC0CF041504D
:1012F000D96EDA6A030ED926DF50436E3A50435C4A
:10130000446E4150D96EDA6A030ED926DF50456E1D
:10131000ABEF09F0000E446E4150D96EDA6ADF502F
:10132000426E4250346E356A4150D96EDA6A030E0D
:10133000D926DECF36F0DDCF37F0A5EC0CF034C087
:101340003AF035C03BF0000E3D6E640E3C6E38EC5A
:101350000CF03A50456E4150D96EDA6A010ED9262A
:10136000DF50D8B4B6EF09F0B8EF09F0D8EF09F0C4
:101370004150D96EDA6A050ED926DECF42F0DDCFB4
:1013800043F042C0D9FF43C0DAFF44C0DFFF415001
:10139000D96EDA6A070ED926DECF42F0DDCF43F0F0
:1013A00042C0D9FF43C0DAFF45C0DFFFF6EF09F0C6
:1013B0004150D96EDA6A050ED926DECF42F0DDCF74
:1013C00043F042C0D9FF43C0DAFF45C0DFFF4150C0
:1013D000D96EDA6A070ED926DECF42F0DDCF43F0B0
:1013E00042C0D9FF43C0DAFF44C0DFFF12008EA61F
:1013F000FCEF09F0FEEF09F005EF0AF08EB403EF01
:101400000AF005EF0AF0F7EF09F0090E366E1E0E2E
:10141000356EE40EE82EFED7352EFCD7362EFAD7E1
:1014200000D08EB616EF0AF018EF0AF031EF0AF08E
:101430008EB41DEF0AF01FEF0AF031EF0AF080863C
:101440007C8E520E366E2B0E356E000EE82EFED7B9
:10145000352EFCD7362EFAD700D080967C9E9DEF95
:101460000AF08EB436EF0AF038EF0AF064EF0AF0B3
:10147000110E366E3C0E356ECB0EE82EFED7352E95
:10148000FCD7362EFAD700003450D96EDA6ADECF98
:1014900035F0DDCF36F0050E3526000E36223450FD
:1014A000D96EDA6A35C0DEFF36C0DDFF7C8E110EE4
:1014B000366E3C0E356ECB0EE82EFED7352EFCD7A1
:1014C000362EFAD700007C9E8EB669EF0AF06BEFDD
:1014D0000AF09BEF0AF0110E366E3C0E356ECB0E05
:1014E000E82EFED7352EFCD7362EFAD70000345022
:1014F000D96EDA6ADECF35F0DDCF36F0FB0E35245B
:10150000376EFF0E3620386E3450D96EDA6A37C027
:10151000DEFF38C0DDFF8086110E366E3C0E356E64
:10152000CB0EE82EFED7352EFCD7362EFAD700008C
:101530008096F7EF09F0F7EF09F01200000E356E14
:10154000630E346EEEEC0BF0000E226E010E236E75
:10155000010E246EAA0E276E0F0E286EA60E296E9F
:101560000F0E2A6E000E266E630E256E000E196E8B
:10157000010E1A6E010E1B6E250E1E6E0F0E1F6ED3
:10158000210E206E0F0E216E000E1D6E630E1C6E5E
:10159000849E7C9E8896809686840E01B49586866D
:1015A000B497010E2B6E000E2C6E3C0E2D6E0A0EA3
:1015B0002E6E3C0E2F6E0A0E306E0A0E316E140E19
:1015C000326E140E336E2B04D8A4E9EF0AF0EBEF61
:1015D0000AF0FAEF0AF02E0E346EF7EC09F0220E44
:1015E000466E190E476E2E50CFEC07F02B0E346E60
:1015F00097EC0BF0020E2B18D8A401EF0BF003EFC1
:101600000BF012EF0BF02D0E346EF7EC09F0220EFA
:10161000466E190E476E2D508EEC08F02B0E346E70
:1016200097EC0BF0030E2B18D8A419EF0BF01BEF5F
:101630000BF02AEF0BF0310E346EF7EC09F0220EAE
:10164000466E190E476E31500FEC07F02B0E346EBC
:1016500097EC0BF0040E2B18D8A431EF0BF033EFFE
:101660000BF0E3EF0AF000EF00F0000E396E37BE2A
:101670003EEF0BF03CEF0BF044EF0BF0366C371EF7
:10168000D8B0372A010E396E35BE4BEF0BF049EF5B
:101690000BF051EF0BF0346C351ED8B0352A010E2B
:1016A000391A000E3B6E000E3A6E36503710D8B421
:1016B0005CEF0BF05EEF0BF086EF0BF0010E386E77
:1016C00066EF0BF0D89036363736382A37AE6BEFE8
:1016D0000BF06DEF0BF062EF0BF0D8903A363B3623
:1016E0003650345C37503558D8A079EF0BF07BEF8B
:1016F0000BF080EF0BF03650345E3750355A3A809D
:10170000D89037323632382E6DEF0BF03950D8B4CE
:101710008CEF0BF08EEF0BF092EF0BF03A6C3B1E60
:10172000D8B03B2A3AC034F03BC035F012008EB43A
:101730009CEF0BF09EEF0BF0CCEF0BF0110E366E22
:101740003C0E356ECB0EE82EFED7352EFCD7362E4E
:10175000FAD700003450D96EDA6ADECF35F0DDCF2B
:1017600036F0010E3526000E36223450D96EDA6A74
:1017700035C0DEFF36C0DDFF7C8E110E366E3C0EAE
:10178000356ECB0EE82EFED7352EFCD7362EFAD787
:1017900000007C9EEDEF0BF08EB6D1EF0BF0D3EF97
:1017A0000BF097EF0BF0110E366E3C0E356ECB0E34
:1017B000E82EFED7352EFCD7362EFAD700008086CD
:1017C000110E366E3C0E356ECB0EE82EFED7352E42
:1017D000FCD7362EFAD700008096120085948598A3
:1017E000839E879C7D947D987B9E7F9C050E0E0139
:1017F000746F060E766F070E696F080E886FBD5006
:101800008F0B4009BD6EE00EBE16BF50F00B0109F4
:10181000BF6E34C0BCFFBD8E000EAA6E000EA66E59
:10182000000E0F01256F000E216FFC0EAD16F30E9A
:10183000AD16CF0EAD163F0EAD16AB88AB50F00B0C
:101840000C09AB6EAB8EA788A750F00B0C09A76EE6
:10185000A78E26892651F00B0C09266F268F228928
:101860002251F00B0C09226F228F8896809612006D
:10187000000E3F6E000E3E6E3C503D10D8B443EF5C
:101880000CF045EF0CF06DEF0CF0010E406E4DEFDB
:101890000CF0D8903C363D36402A3DAE52EF0CF06D
:1018A00054EF0CF049EF0CF0D8903E363F363C50E8
:1018B0003A5C3D503B58D8A060EF0CF062EF0CF062
:1018C00067EF0CF03C503A5E3D503B5A3E80D8905A
:1018D0003D323C32402E54EF0CF03EC03AF03FC057
:1018E0003BF01200700EF66E190EF76E000EF86ED9
:1018F0000900F5CF54F000EE60F03C0EEE6AE80609
:10190000FDE100EE01F0330EEE6AE806FDE1000EA7
:10191000F86E0E0EF76E00019EEF0AF09BEF0CF0D2
:10192000150E366EC60EE82EFED7362EFCD700D02A
:101930003406D8A0350634503510D8A4A2EF0CF0E8
:10194000A4EF0CF090EF0CF0120034503602F3CFFD
:1019500038F0F4CF39F034503702F350392635508F
:101960003602F350392638C034F039C035F0120051
:01197000076F
:020000040030CA
:02000000AAFF55
:020004009FFF5C
:00000001FF
