:0400000082EF0CF08F
:100E00000000416E3C50D96EDA6A010ED926010EFF
:100E1000DF6E3D50D96EDA6A010ED926DF6A000E08
:100E2000476E140E466E000E2B6E640E2A6E000E78
:100E30002D6E140E2C6E1BEC0BF02AC048F02BC04C
:100E400049F0000E436E000E426E4BEF07F03C502F
:100E5000D96EDA6A3C50E16EE26AE7503E6E3E2897
:100E6000DF6E3D50D96EDA6A3D50E16EE26AE750BE
:100E70003E6E3E28DF6E3DC037F031EC09F03CC0DD
:100E800037F031EC09F048C02AF049C02BF058EC9B
:100E90000CF0424A432A4650425C4350800A3E6E60
:100EA0004750800A3E58D8A058EF07F05AEF07F095
:100EB00027EF07F0000E456E000E446E69EF07F055
:100EC000D00E3E6ECA0EE82EFED73E2EFCD7444A08
:100ED000452A41503E6E3F6A3E50445C4550800A70
:100EE000406E3F50800A4058D8A079EF07F07BEF62
:100EF00007F060EF07F0A9EF07F03D50D96EDA6A0E
:100F0000DF50D8B486EF07F088EF07F08CEF07F0DA
:100F10003D50D96EDA6ADF063C50D96EDA6ADF508E
:100F2000D8B495EF07F097EF07F09BEF07F03C5030
:100F3000D96EDA6ADF063DC037F031EC09F03CC00B
:100F400037F031EC09F048C02AF049C02BF058ECDA
:100F50000CF03C50D96EDA6ADF50D8A4B2EF07F03B
:100F6000B4EF07F07DEF07F03D50D96EDA6ADF503D
:100F7000D8A4BDEF07F0BFEF07F07DEF07F0120038
:100F8000416E3C50D96EDA6A010ED926DF6A3D50B7
:100F9000D96EDA6A010ED926010EDF6E000E476E99
:100FA000140E466E000E2B6E640E2A6E000E2D6E11
:100FB000140E2C6E1BEC0BF02AC048F02BC049F02D
:100FC000000E436E000E426E0AEF08F03C50D96EE0
:100FD000DA6A3C50E16EE26AE7503E6E3E28DF6E10
:100FE0003D50D96EDA6A3D50E16EE26AE7503E6EDE
:100FF0003E28DF6E3DC037F031EC09F03CC037F0E1
:1010000031EC09F048C02AF049C02BF058EC0CF044
:10101000424A432A4650425C4350800A3E6E475043
:10102000800A3E58D8A017EF08F019EF08F0E6EF55
:1010300007F0000E456E000E446E28EF08F0D00E4B
:101040003E6ECA0EE82EFED73E2EFCD7444A452AF5
:1010500041503E6E3F6A3E50445C4550800A406EAF
:101060003F50800A4058D8A038EF08F03AEF08F017
:101070001FEF08F068EF08F03D50D96EDA6ADF50D4
:10108000D8B445EF08F047EF08F04BEF08F03D50BB
:10109000D96EDA6ADF063C50D96EDA6ADF50D8B40E
:1010A00054EF08F056EF08F05AEF08F03C50D96EB4
:1010B000DA6ADF063DC037F031EC09F03CC037F0AA
:1010C00031EC09F048C02AF049C02BF058EC0CF084
:1010D0003C50D96EDA6ADF50D8A471EF08F073EF94
:1010E00008F03CEF08F03D50D96EDA6ADF50D8A422
:1010F0007CEF08F07EEF08F03CEF08F01200416E44
:10110000000E476E140E466E000E2B6E640E2A6E95
:10111000000E2D6E140E2C6E1BEC0BF02AC048F046
:101120002BC049F0000E436E000E426EBCEF08F07B
:101130003C50D96EDA6A3C50E16EE26AE7503E6E8E
:101140003E28DF6E3D50D96EDA6A3D50E16EE26AAC
:10115000E7503E6E3E28DF6E3DC037F031EC09F0BF
:101160003CC037F031EC09F048C02AF049C02BF000
:1011700058EC0CF0424A432A4650425C4350800AE5
:101180003E6E4750800A3E58D8A0C9EF08F0CBEF1A
:1011900008F098EF08F0000E456E000E446EDAEF8E
:1011A00008F0D00E3E6ECA0EE82EFED73E2EFCD7BB
:1011B000444A452A41503E6E3F6A3E50445C455089
:1011C000800A406E3F50800A4058D8A0EAEF08F0ED
:1011D000ECEF08F0D1EF08F01AEF09F03D50D96EAE
:1011E000DA6ADF50D8B4F7EF08F0F9EF08F0FDEF56
:1011F00008F03D50D96EDA6ADF063C50D96EDA6AE3
:10120000DF50D8B406EF09F008EF09F00CEF09F051
:101210003C50D96EDA6ADF063DC037F031EC09F098
:101220003CC037F031EC09F048C02AF049C02BF03F
:1012300058EC0CF03C50D96EDA6ADF50D8A423EF9A
:1012400009F025EF09F0EEEF08F03D50D96EDA6AAB
:10125000DF50D8A42EEF09F030EF09F0EEEF08F0E0
:1012600012003750D96EDA6A020ED926DF50D8B490
:101270003CEF09F03EEF09F06EEF09F03750D96E00
:10128000DA6ADF50386E38502A6E2B6A3750D96EC2
:10129000DA6A030ED926DECF2CF0DDCF2DF06FEC0D
:1012A0000CF02AC030F02BC031F0000E336E640E0B
:1012B000326E1EEC0CF03750D96EDA6A030ED92666
:1012C000DF50396E3050395C3A6E3750D96EDA6A79
:1012D000030ED926DF503B6E8FEF09F0000E3A6EF9
:1012E0003750D96EDA6ADF50386E38502A6E2B6A62
:1012F0003750D96EDA6A030ED926DECF2CF0DDCF57
:101300002DF06FEC0CF02AC030F02BC031F0000E45
:10131000336E640E326E1EEC0CF030503B6E375064
:10132000D96EDA6A010ED926DF50D8B49AEF09F0E7
:101330009CEF09F0BCEF09F03750D96EDA6A050E60
:10134000D926DECF38F0DDCF39F038C0D9FF39C02B
:10135000DAFF3AC0DFFF3750D96EDA6A070ED926B6
:10136000DECF38F0DDCF39F038C0D9FF39C0DAFF31
:101370003BC0DFFFDAEF09F03750D96EDA6A050EAD
:10138000D926DECF38F0DDCF39F038C0D9FF39C0EB
:10139000DAFF3BC0DFFF3750D96EDA6A070ED92675
:1013A000DECF38F0DDCF39F038C0D9FF39C0DAFFF1
:1013B0003AC0DFFF12008EA6E0EF09F0E2EF09F07D
:1013C000E9EF09F08EB4E7EF09F0E9EF09F0DBEFA0
:1013D00009F0090E2C6E1E0E2B6EE40EE82EFED7C1
:1013E0002B2EFCD72C2EFAD700D08EB6FAEF09F0B0
:1013F000FCEF09F015EF0AF08EB401EF0AF003EFED
:101400000AF015EF0AF080867C8E520E2C6E2B0EA1
:101410002B6E000EE82EFED72B2EFCD72C2EFAD7E3
:1014200000D080967C9E81EF0AF08EB41AEF0AF00D
:101430001CEF0AF048EF0AF0110E2C6E3C0E2B6EDA
:10144000CB0EE82EFED72B2EFCD72C2EFAD7000081
:101450002A50D96EDA6ADECF2BF0DDCF2CF0050EE4
:101460002B26000E2C222A50D96EDA6A2BC0DEFF02
:101470002CC0DDFF7C8E110E2C6E3C0E2B6ECB0E25
:10148000E82EFED72B2EFCD72C2EFAD700007C9E00
:101490008EB64DEF0AF04FEF0AF07FEF0AF0110E13
:1014A0002C6E3C0E2B6ECB0EE82EFED72B2EFCD7CF
:1014B0002C2EFAD700002A50D96EDA6ADECF2BF034
:1014C000DDCF2CF0FB0E2B242D6EFF0E2C202E6E6C
:1014D0002A50D96EDA6A2DC0DEFF2EC0DDFF80866D
:1014E000110E2C6E3C0E2B6ECB0EE82EFED72B2E43
:1014F000FCD72C2EFAD700008096DBEF09F0DBEF4B
:1015000009F01200000E2B6E630E2A6ED4EC0BF065
:10151000000E216E010E226E010E236EAA0E266EA3
:101520000F0E276EA60E286E0F0E296E000E256E6A
:10153000630E246E000E186E010E196E010E1A6EE7
:10154000250E1D6E0F0E1E6E210E1F6E0F0E206ECD
:10155000000E1C6E630E1B6E849E7C9E8896809689
:1015600086840E01B4958686B497010E0F6E000E28
:10157000106E3C0E116E0A0E126E3C0E136E0A0EA9
:10158000146E0A0E156E140E166E140E176E0F04DE
:10159000D8A4CDEF0AF0CFEF0AF0DEEF0AF0120E7A
:1015A0002A6EDBEC09F0210E3C6E180E3D6E1250D7
:1015B00001EC07F00F0E2A6E7DEC0BF0020E0F18F7
:1015C000D8A4E5EF0AF0E7EF0AF0F6EF0AF0110E03
:1015D0002A6EDBEC09F0210E3C6E180E3D6E1150A8
:1015E000C0EC07F00F0E2A6E7DEC0BF0030E0F1807
:1015F000D8A4FDEF0AF0FFEF0AF00EEF0BF0150E86
:101600002A6EDBEC09F0210E3C6E180E3D6E155073
:101610007FEC08F00F0E2A6E7DEC0BF0050E0F1814
:10162000D8A415EF0BF017EF0BF0C7EF0AF0010E7F
:101630000F6E00EF00F0000E2F6E2DBE24EF0BF0AA
:1016400022EF0BF02AEF0BF02C6C2D1ED8B02D2AB8
:10165000010E2F6E2BBE31EF0BF02FEF0BF037EF9B
:101660000BF02A6C2B1ED8B02B2A010E2F1A000E5D
:10167000316E000E306E2C502D10D8B442EF0BF0AE
:1016800044EF0BF06CEF0BF0010E2E6E4CEF0BF0F5
:10169000D8902C362D362E2A2DAE51EF0BF053EF6D
:1016A0000BF048EF0BF0D890303631362C502A5CD6
:1016B0002D502B58D8A05FEF0BF061EF0BF066EFC9
:1016C0000BF02C502A5E2D502B5A3080D8902D32A2
:1016D0002C322E2E53EF0BF02F50D8B472EF0BF0AC
:1016E00074EF0BF078EF0BF0306C311ED8B0312A6C
:1016F00030C02AF031C02BF012008EB482EF0BF014
:1017000084EF0BF0B2EF0BF0110E2C6E3C0E2B6E33
:10171000CB0EE82EFED72B2EFCD72C2EFAD70000AE
:101720002A50D96EDA6ADECF2BF0DDCF2CF0010E15
:101730002B26000E2C222A50D96EDA6A2BC0DEFF2F
:101740002CC0DDFF7C8E110E2C6E3C0E2B6ECB0E52
:10175000E82EFED72B2EFCD72C2EFAD700007C9E2D
:10176000D3EF0BF08EB6B7EF0BF0B9EF0BF07DEFC8
:101770000BF0110E2C6E3C0E2B6ECB0EE82EFED70E
:101780002B2EFCD72C2EFAD700008086110E2C6E43
:101790003C0E2B6ECB0EE82EFED72B2EFCD72C2E1C
:1017A000FAD700008096120085948598839E879CC6
:1017B0007D947D987B9E7F9C050E0E01746F060EB6
:1017C000766F070E696F080E886FBD508F0B40094A
:1017D000BD6EE00EBE16BF50F00B0109BF6E2AC0F1
:1017E000BCFFBD8E000EAA6E000EA66E000E0F018D
:1017F000256F000E216FFC0EAD16F30EAD16CF0E49
:10180000AD163F0EAD16AB88AB50F00B0C09AB6EAE
:10181000AB8EA788A750F00B0C09A76EA78E268960
:101820002651F00B0C09266F268F22892251F00BCE
:101830000C09226F228F889680961200000E356E5A
:10184000000E346E32503310D8B429EF0CF02BEF69
:101850000CF053EF0CF0010E366E33EF0CF0D89015
:1018600032363336362A33AE38EF0CF03AEF0CF01E
:101870002FEF0CF0D890343635363250305C335080
:101880003158D8A046EF0CF048EF0CF04DEF0CF0BB
:101890003250305E3350315A3480D8903332323245
:1018A000362E3AEF0CF034C030F035C031F0120073
:1018B00065EF0CF0150E2C6EC60EE82EFED72C2E02
:1018C000FCD700D02A06D8A02B062A502B10D8A46B
:1018D0006CEF0CF06EEF0CF05AEF0CF012002A5087
:1018E0002C02F3CF2EF0F4CF2FF02A502D02F3501C
:1018F0002F262B502C02F3502F262EC02AF02FC05B
:101900002BF01200280EF66E190EF76E000EF86E10
:101910000900F5CF4AF000EE01F0290EEE6AE80664
:09192000FDE1000182EF0AF0076D
:020000040030CA
:02000000AAFF55
:020004009FFF5C
:00000001FF
