:0400000039EF0BF0D9
:100E000000003E6E3950D96EDA6A010ED926010E05
:100E1000DF6E3A50D96EDA6A010ED926DF6A000E0B
:100E2000446E140E436E000E286E640E276E000E84
:100E30002A6E140E296ED0EC09F027C045F028C0A8
:100E400046F0000E406E000E3F6E4BEF07F039503B
:100E5000D96EDA6A3950E16EE26AE7503B6E3B28A0
:100E6000DF6E3A50D96EDA6A3A50E16EE26AE750C4
:100E70003B6E3B28DF6E3AC034F07FEC08F039C09F
:100E800034F07FEC08F045C027F046C028F00FECA6
:100E90000BF03F4A402A43503F5C4050800A3B6E73
:100EA0004450800A3B58D8A058EF07F05AEF07F09B
:100EB00027EF07F0000E426E000E416E69EF07F05B
:100EC000D00E3B6ECA0EE82EFED73B2EFCD7414A11
:100ED000422A3E503B6E3C6A3B50415C4250800A85
:100EE0003D6E3C50800A3D58D8A079EF07F07BEF6B
:100EF00007F060EF07F0A9EF07F03A50D96EDA6A11
:100F0000DF50D8B486EF07F088EF07F08CEF07F0DA
:100F10003A50D96EDA6ADF063950D96EDA6ADF5094
:100F2000D8B495EF07F097EF07F09BEF07F0395033
:100F3000D96EDA6ADF063AC034F07FEC08F039C0C7
:100F400034F07FEC08F045C027F046C028F00FECE5
:100F50000BF03950D96EDA6ADF50D8A4B2EF07F03F
:100F6000B4EF07F07DEF07F03A50D96EDA6ADF5040
:100F7000D8A4BDEF07F0BFEF07F07DEF07F0120038
:100F80003E6E3950D96EDA6A010ED926DF6A3A50C0
:100F9000D96EDA6A010ED926010EDF6E000E446E9C
:100FA000140E436E000E286E640E276E000E2A6E1D
:100FB000140E296ED0EC09F027C045F028C046F089
:100FC000000E406E000E3F6E0AEF08F03950D96EE9
:100FD000DA6A3950E16EE26AE7503B6E3B28DF6E19
:100FE0003A50D96EDA6A3A50E16EE26AE7503B6EE7
:100FF0003B28DF6E3AC034F07FEC08F039C034F0A3
:101000007FEC08F045C027F046C028F00FEC0BF04D
:101010003F4A402A43503F5C4050800A3B6E445058
:10102000800A3B58D8A017EF08F019EF08F0E6EF58
:1010300007F0000E426E000E416E28EF08F0D00E51
:101040003B6ECA0EE82EFED73B2EFCD7414A422A01
:101050003E503B6E3C6A3B50415C4250800A3D6EC4
:101060003C50800A3D58D8A038EF08F03AEF08F01D
:101070001FEF08F068EF08F03A50D96EDA6ADF50D7
:10108000D8B445EF08F047EF08F04BEF08F03A50BE
:10109000D96EDA6ADF063950D96EDA6ADF50D8B411
:1010A00054EF08F056EF08F05AEF08F03950D96EB7
:1010B000DA6ADF063AC034F07FEC08F039C034F069
:1010C0007FEC08F045C027F046C028F00FEC0BF08D
:1010D0003950D96EDA6ADF50D8A471EF08F073EF97
:1010E00008F03CEF08F03A50D96EDA6ADF50D8A425
:1010F0007CEF08F07EEF08F03CEF08F0120034506F
:10110000D96EDA6A020ED926DF50D8B48AEF08F019
:101110008CEF08F0BCEF08F03450D96EDA6ADF507B
:10112000356E3550276E286A3450D96EDA6A030E50
:10113000D926DECF29F0DDCF2AF026EC0BF027C030
:101140002DF028C02EF0000E306E640E2F6ED5EC00
:101150000AF03450D96EDA6A030ED926DF50366EA3
:101160002D50365C376E3450D96EDA6A030ED926AC
:10117000DF50386EDDEF08F0000E376E3450D96E58
:10118000DA6ADF50356E3550276E286A3450D96ED2
:10119000DA6A030ED926DECF29F0DDCF2AF026EC5D
:1011A0000BF027C02DF028C02EF0000E306E640E1C
:1011B0002F6ED5EC0AF02D50386E3450D96EDA6AA5
:1011C000010ED926DF50D8B4E8EF08F0EAEF08F0B6
:1011D0000AEF09F03450D96EDA6A050ED926DECF4F
:1011E00035F0DDCF36F035C0D9FF36C0DAFF37C075
:1011F000DFFF3450D96EDA6A070ED926DECF35F01C
:10120000DDCF36F035C0D9FF36C0DAFF38C0DFFF9A
:1012100028EF09F03450D96EDA6A050ED926DECFF0
:1012200035F0DDCF36F035C0D9FF36C0DAFF38C033
:10123000DFFF3450D96EDA6A070ED926DECF35F0DB
:10124000DDCF36F035C0D9FF36C0DAFF37C0DFFF5B
:1012500012008EA62EEF09F030EF09F037EF09F0FB
:101260008EB435EF09F037EF09F029EF09F0090ED8
:10127000296E1E0E286EE40EE82EFED7282EFCD70F
:10128000292EFAD700D08EB648EF09F04AEF09F0C0
:1012900063EF09F08EB44FEF09F051EF09F063EFFF
:1012A00009F080867C8E520E296E2B0E286E000E61
:1012B000E82EFED7282EFCD7292EFAD700D080960C
:1012C0007C9ECFEF09F08EB468EF09F06AEF09F069
:1012D00096EF09F0110E296E3C0E286ECB0EE82E0B
:1012E000FED7282EFCD7292EFAD700002750D96E1A
:1012F000DA6ADECF28F0DDCF29F0050E2826000EB1
:1013000029222750D96EDA6A28C0DEFF29C0DDFF06
:101310007C8E110E296E3C0E286ECB0EE82EFED769
:10132000282EFCD7292EFAD700007C9E8EB69BEF84
:1013300009F09DEF09F0CDEF09F0110E296E3C0E7A
:10134000286ECB0EE82EFED7282EFCD7292EFAD7F2
:1013500000002750D96EDA6ADECF28F0DDCF29F001
:10136000FB0E28242A6EFF0E29202B6E2750D96EE3
:10137000DA6A2AC0DEFF2BC0DDFF8086110E296EDF
:101380003C0E286ECB0EE82EFED7282EFCD7292E39
:10139000FAD70000809629EF09F029EF09F0120032
:1013A000000E2C6E2ABED9EF09F0D7EF09F0DFEF5F
:1013B00009F0296C2A1ED8B02A2A010E2C6E28BEEC
:1013C000E6EF09F0E4EF09F0ECEF09F0276C281ED6
:1013D000D8B0282A010E2C1A000E2E6E000E2D6E8B
:1013E00029502A10D8B4F7EF09F0F9EF09F021EFEE
:1013F0000AF0010E2B6E01EF0AF0D89029362A363A
:101400002B2A2AAE06EF0AF008EF0AF0FDEF09F0EA
:10141000D8902D362E362950275C2A502858D8A02F
:1014200014EF0AF016EF0AF01BEF0AF02950275EBE
:101430002A50285A2D80D8902A3229322B2E08EF94
:101440000AF02C50D8B427EF0AF029EF0AF02DEF5C
:101450000AF02D6C2E1ED8B02E2A2DC027F02EC0DB
:1014600028F01200000E286E630E276E8BEC0AF037
:10147000000E186E010E196E010E1A6EAA0E1D6E68
:101480000F0E1E6EA60E1F6E0F0E206E000E1C6E2F
:10149000630E1B6E000E0F6E010E106E010E116EAC
:1014A000250E146E0F0E156E210E166E0F0E176E92
:1014B000000E136E630E126E849E7C9E889680963C
:1014C00086840E01B4958686B497000E216E000EB8
:1014D000226E3C0E236E0A0E246E140E256E140E20
:1014E000266E240E276E29EC09F0180E396E0F0EA9
:1014F0003A6E245001EC07F0230E276E29EC09F018
:10150000180E396E0F0E3A6E2350C0EC07F071EFD3
:101510000AF000EF00F085948598839E879C7D9467
:101520007D987B9E7F9C050E0E01746F060E766F74
:10153000070E696F080E886FBD508F0B4009BD6E96
:10154000E00EBE16BF50F00B0109BF6E27C0BCFFF6
:10155000BD8E000EAA6E000EA66E000E0F01256F46
:10156000000E216FFC0EAD16F30EAD16CF0EAD16AC
:101570003F0EAD16AB88AB50F00B0C09AB6EAB8ECB
:10158000A788A750F00B0C09A76EA78E26892651B5
:10159000F00B0C09266F268F22892251F00B0C09C3
:1015A000226F228F889680961200000E326E000EF7
:1015B000316E2F503010D8B4E0EF0AF0E2EF0AF0AD
:1015C0000AEF0BF0010E336EEAEF0AF0D8902F36D7
:1015D0003036332A30AEEFEF0AF0F1EF0AF0E6EFE3
:1015E0000AF0D890313632362F502D5C30502E58BC
:1015F000D8A0FDEF0AF0FFEF0AF004EF0BF02F5038
:101600002D5E30502E5A3180D89030322F32332E0A
:10161000F1EF0AF031C02DF032C02EF012001CEFB5
:101620000BF0150E296EC60EE82EFED7292EFCD71C
:1016300000D02706D8A0280627502810D8A423EFCA
:101640000BF025EF0BF011EF0BF0120027502902E1
:10165000F3CF2BF0F4CF2CF027502A02F3502C2696
:1016600028502902F3502C262BC027F02CC028F03C
:101670001200960EF66E160EF76E000EF86E09004A
:10168000F5CF47F000EE01F0260EEE6AE806FDE128
:07169000000132EF0AF00730
:020000040030CA
:02000000AAFF55
:020004009FFF5C
:00000001FF
