:0400000028EF27F0CE
:100E0000000024EC26F005C00CF006C00DF00E6AC0
:100E10000F6A000EF6EC1CF00CC0C1F00DC0C2F061
:100E20000EC0C3F00FC0C4F04CEC26F005C00CF0AF
:100E300006C00DF00E6A0F6A000EF6EC1CF00CC036
:100E4000C5F00DC0C6F00EC0C7F00FC0C8F09CECD6
:100E500026F005C00CF006C00DF00E6A0F6A000EF9
:100E6000F6EC1CF00CC0C9F00DC0CAF00EC0CBF0FF
:100E70000FC0CCF074EC26F005C00CF006C00DF0ED
:100E80000E6A0F6A000EF6EC1CF00CC0CDF00DC01F
:100E9000CEF00EC0CFF00FC0D0F0C1C06AF0C2C01B
:100EA0006BF0C3C06CF0C4C06DF0C5C06EF0C6C0BE
:100EB0006FF0C7C070F0C8C071F0C9C072F0CAC08E
:100EC00073F0CBC074F0CCC075F0CDC076F0CEC05E
:100ED00077F0CFC078F0D0C079F0D30E00017A6FF0
:100EE000D70E7B6FDB0E7C6F1DEC0CF0000E00014B
:100EF000D26F000ED16F000E016E800E026EB10E29
:100F0000036E430E046ED3C005F0D4C006F0D5C006
:100F100007F0D6C008F06CEC23F0D8B092EF07F0E1
:100F200094EF07F018EF08F0D3C001F0D4C002F03E
:100F3000D5C003F0D6C004F0000E056E000E066E9C
:100F4000B40E076E430E086E6CEC23F0D8B0ABEF16
:100F500007F0ADEF07F018EF08F0000E016E000E7D
:100F6000026EAA0E036E420E046ED7C005F0D8C002
:100F700006F0D9C007F0DAC008F06CEC23F0D8B066
:100F8000C4EF07F0C6EF07F018EF08F0D7C001F084
:100F9000D8C002F0D9C003F0DAC004F0000E056E2C
:100FA000000E066EB40E076E420E086E6CEC23F057
:100FB000D8B0DDEF07F0DFEF07F018EF08F0000E14
:100FC000016E000E026EA00E036E420E046EDBC0B8
:100FD00005F0DCC006F0DDC007F0DEC008F06CEC08
:100FE00023F0D8B0F6EF07F0F8EF07F018EF08F0AD
:100FF000DBC001F0DCC002F0DDC003F0DEC004F0B5
:10100000000E056E000E066EAA0E076E420E086EEA
:101010006CEC23F0D8B00FEF08F011EF08F018EFE8
:1010200008F0000E0001D26F010ED16F18EF0CF026
:10103000000E016E000E026E860E036E420E046EEE
:10104000D3C005F0D4C006F0D5C007F0D6C008F074
:101050006CEC23F0D8B02FEF08F031EF08F0B5EFCB
:1010600008F0D3C001F0D4C002F0D5C003F0D6C060
:1010700004F0000E056E000E066E9E0E076E420E08
:10108000086E6CEC23F0D8B048EF08F04AEF08F097
:10109000B5EF08F0000E016E000E026E480E036EF2
:1010A000420E046ED7C005F0D8C006F0D9C007F0D4
:1010B000DAC008F06CEC23F0D8B061EF08F063EF11
:1010C00008F0B5EF08F0D7C001F0D8C002F0D9C0E1
:1010D00003F0DAC004F0000E056E000E066E640E1A
:1010E000076E420E086E6CEC23F0D8B07AEF08F071
:1010F0007CEF08F0B5EF08F0000E016E000E026EF6
:10110000200E036E420E046EDBC005F0DCC006F05C
:10111000DDC007F0DEC008F06CEC23F0D8B093EF30
:1011200008F095EF08F0B5EF08F0DBC001F0DCC087
:1011300002F0DDC003F0DEC004F0000E056E000E0C
:10114000066E380E076E420E086E6CEC23F0D8B0B7
:10115000ACEF08F0AEEF08F0B5EF08F0000E0001BC
:10116000D26F020ED16F18EF0CF0D7C001F0D8C0CB
:1011700002F0D9C003F0DAC004F0000E056E000ED4
:10118000066E200E076E410E086E6CEC23F0D8B090
:10119000CCEF08F0CEEF08F007EF09F0000E016E7B
:1011A000000E026EF00E036E410E046EDBC005F001
:1011B000DCC006F0DDC007F0DEC008F06CEC23F008
:1011C000D8B0E5EF08F0E7EF08F007EF09F0DBC073
:1011D00001F0DCC002F0DDC003F0DEC004F0000E60
:1011E000056E000E066E0C0E076E420E086E6CEC5D
:1011F00023F0D8B0FEEF08F000EF09F007EF09F098
:10120000000E0001D26F030ED16F18EF0CF0000E2C
:10121000016E000E026EA00E036E410E046ED3C06E
:1012200005F0D4C006F0D5C007F0D6C008F06CECCD
:1012300023F0D8B01EEF09F020EF09F0A4EF09F079
:10124000D3C001F0D4C002F0D5C003F0D6C004F082
:10125000000E056E000E066EC80E076E410E086E7B
:101260006CEC23F0D8B037EF09F039EF09F0A4EFB8
:1012700009F0000E016E000E026E820E036E420E29
:10128000046ED7C005F0D8C006F0D9C007F0DAC0A8
:1012900008F06CEC23F0D8B050EF09F052EF09F0F1
:1012A000A4EF09F0D7C001F0D8C002F0D9C003F014
:1012B000DAC004F0000E056E000E066E8C0E076E8E
:1012C000420E086E6CEC23F0D8B069EF09F06BEFBA
:1012D00009F0A4EF09F0000E016E000E026E580E28
:1012E000036E420E046EDBC005F0DCC006F0DDC00C
:1012F00007F0DEC008F06CEC23F0D8B082EF09F004
:1013000084EF09F0A4EF09F0DBC001F0DCC002F0CB
:10131000DDC003F0DEC004F0000E056E000E066EA8
:10132000640E076E420E086E6CEC23F0D8B09BEF93
:1013300009F09DEF09F0A4EF09F0000E0001D26F53
:10134000040ED16F18EF0CF0000E016E000E026E4D
:10135000500E036E410E046ED3C005F0D4C006F0EB
:10136000D5C007F0D6C008F06CEC23F0D8B0BBEFC6
:1013700009F0BDEF09F041EF0AF0D3C001F0D4C08D
:1013800002F0D5C003F0D6C004F0000E056E000ECA
:10139000066E900E076E410E086E6CEC23F0D8B00E
:1013A000D4EF09F0D6EF09F041EF0AF0000E016E1C
:1013B000000E026E5C0E036E420E046ED7C005F086
:1013C000D8C006F0D9C007F0DAC008F06CEC23F002
:1013D000D8B0EDEF09F0EFEF09F041EF0AF0D7C018
:1013E00001F0D8C002F0D9C003F0DAC004F0000E5A
:1013F000056E000E066E700E076E420E086E6CECE7
:1014000023F0D8B006EF0AF008EF0AF041EF0AF037
:10141000000E016E000E026E480E036E420E046E48
:10142000DBC005F0DCC006F0DDC007F0DEC008F070
:101430006CEC23F0D8B01FEF0AF021EF0AF041EF77
:101440000AF0DBC001F0DCC002F0DDC003F0DEC05A
:1014500004F0000E056E000E066E580E076E420E6A
:10146000086E6CEC23F0D8B038EF0AF03AEF0AF0CF
:1014700041EF0AF0000E0001D26F050ED16F18EF98
:101480000CF0000E016E000E026EA00E036E400EF8
:10149000046ED3C005F0D4C006F0D5C007F0D6C0A6
:1014A00008F06CEC23F0D8B058EF0AF05AEF0AF0CD
:1014B000DEEF0AF0D3C001F0D4C002F0D5C003F0D3
:1014C000D6C004F0000E056E000E066E200E076EEC
:1014D000410E086E6CEC23F0D8B071EF0AF073EF98
:1014E0000AF0DEEF0AF0000E016E000E026E8C0EA6
:1014F000036E420E046ED7C005F0D8C006F0D9C006
:1015000007F0DAC008F06CEC23F0D8B08AEF0AF0EC
:101510008CEF0AF0DEEF0AF0D7C001F0D8C002F07D
:10152000D9C003F0DAC004F0000E056E000E066E9E
:10153000960E076E420E086E6CEC23F0D8B0A3EF47
:101540000AF0A5EF0AF0DEEF0AF0000E016E000EC1
:10155000026E780E036E420E046EDBC005F0DCC036
:1015600006F0DDC007F0DEC008F06CEC23F0D8B068
:10157000BCEF0AF0BEEF0AF0DEEF0AF0DBC001F0CC
:10158000DCC002F0DDC003F0DEC004F0000E056E2A
:10159000000E066E860E076E420E086E6CEC23F08F
:1015A000D8B0D5EF0AF0D7EF0AF0DEEF0AF0000E60
:1015B0000001D26F060ED16F18EF0CF0000E016E15
:1015C000000E026E940E036E420E046ED3C005F040
:1015D000D4C006F0D5C007F0D6C008F06CEC23F0FC
:1015E000D8B0F5EF0AF0F7EF0AF07BEF0BF0D3C0BD
:1015F00001F0D4C002F0D5C003F0D6C004F0000E54
:10160000056E000E066EAA0E076E420E086E6CEC9A
:1016100023F0D8B00EEF0BF010EF0BF07BEF0BF0D8
:10162000000E016E000E026EE00E036E410E046E9F
:10163000D7C005F0D8C006F0D9C007F0DAC008F06E
:101640006CEC23F0D8B027EF0BF029EF0BF07BEF19
:101650000BF0D7C001F0D8C002F0D9C003F0DAC057
:1016600004F0000E056E000E066E040E076E420EAC
:10167000086E6CEC23F0D8B040EF0BF042EF0BF0AB
:101680007BEF0BF0000E016E000E026E140E036E67
:10169000420E046EDBC005F0DCC006F0DDC007F0D2
:1016A000DEC008F06CEC23F0D8B059EF0BF05BEF24
:1016B0000BF07BEF0BF0DBC001F0DCC002F0DDC013
:1016C00003F0DEC004F0000E056E000E066E280E5C
:1016D000076E420E086E6CEC23F0D8B072EF0BF080
:1016E00074EF0BF07BEF0BF0000E0001D26F070ED2
:1016F000D16F18EF0CF0000E016E000E026EB00EEE
:10170000036E410E046ED3C005F0D4C006F0D5C000
:1017100007F0D6C008F06CEC23F0D8B092EF0BF0D5
:1017200094EF0BF018EF0CF0D3C001F0D4C002F02E
:10173000D5C003F0D6C004F0000E056E000E066E94
:10174000D80E076E410E086E6CEC23F0D8B0ABEFEC
:101750000BF0ADEF0BF018EF0CF0000E016E000E69
:10176000026E400E036E420E046ED7C005F0D8C064
:1017700006F0D9C007F0DAC008F06CEC23F0D8B05E
:10178000C4EF0BF0C6EF0BF018EF0CF0D7C001F070
:10179000D8C002F0D9C003F0DAC004F0000E056E24
:1017A000000E066E540E076E420E086E6CEC23F0AF
:1017B000D8B0DDEF0BF0DFEF0BF018EF0CF0000E00
:1017C000016E000E026E340E036E420E046EDBC01C
:1017D00005F0DCC006F0DDC007F0DEC008F06CEC00
:1017E00023F0D8B0F6EF0BF0F8EF0BF018EF0CF099
:1017F000DBC001F0DCC002F0DDC003F0DEC004F0AD
:10180000000E056E000E066E480E076E420E086E44
:101810006CEC23F0D8B00FEF0CF011EF0CF018EFD8
:101820000CF0000E0001D26F080ED16F18EF0CF013
:10183000D1C05CF0D2C05DF012006AC022F06BC073
:1018400023F06CC024F06DC025F0000E266EFF0E54
:10185000276E7F0E286E470E296EC6EC19F022C047
:10186000B5F023C0B6F024C0B7F025C0B8F06EC004
:1018700022F06FC023F070C024F071C025F0000E7C
:10188000266EFF0E276E7F0E286E470E296EC6EC61
:1018900019F022C0B9F023C0BAF024C0BBF025C0B3
:1018A000BCF072C022F073C023F074C024F075C085
:1018B00025F0000E266EFF0E276E7F0E286E470E57
:1018C000296EC6EC19F022C0BDF023C0BEF024C0C2
:1018D000BFF025C0C0F0000E266EFF0E276E7F0EF3
:1018E000286E470E296E76C022F077C023F078C0AC
:1018F00024F079C025F0C6EC19F022C081F023C095
:1019000082F024C083F025C084F0000E226E000E09
:10191000236E800E246E3F0E256E81C026F082C09D
:1019200027F083C028F084C029F0C6EC19F022C04B
:101930007DF023C07EF024C07FF025C080F0B9C0C8
:1019400001F0BAC002F0BBC003F0BCC004F0B5C0E7
:1019500005F0B6C006F0B7C007F0B8C008F06CECF0
:1019600023F0D8A0B6EF0CF0B8EF0CF0EDEF0CF0D0
:10197000BDC001F0BEC002F0BFC003F0C0C004F0A3
:10198000B9C005F0BAC006F0BBC007F0BCC008F093
:101990006CEC23F0D8A0CFEF0CF0D1EF0CF0DBEF24
:1019A0000CF0BDC091F0BEC092F0BFC093F0C0C0BB
:1019B00094F0E3EF0CF0B9C091F0BAC092F0BBC064
:1019C00093F0BCC094F091C0B1F092C0B2F093C05B
:1019D000B3F094C0B4F020EF0DF0BDC001F0BEC074
:1019E00002F0BFC003F0C0C004F0B5C005F0B6C03F
:1019F00006F0B7C007F0B8C008F06CEC23F0D8A030
:101A000004EF0DF006EF0DF010EF0DF0BDC095F0F6
:101A1000BEC096F0BFC097F0C0C098F018EF0DF0B0
:101A2000B5C095F0B6C096F0B7C097F0B8C098F0C2
:101A300095C0B1F096C0B2F097C0B3F098C0B4F0C2
:101A4000B5C001F0B6C002F0B7C003F0B8C004F0F2
:101A5000B9C005F0BAC006F0BBC007F0BCC008F0C2
:101A60006CEC23F0D8A037EF0DF039EF0DF06EEFEE
:101A70000DF0B9C001F0BAC002F0BBC003F0BCC0A9
:101A800004F0BDC005F0BEC006F0BFC007F0C0C086
:101A900008F06CEC23F0D8A050EF0DF052EF0DF0F1
:101AA0005CEF0DF0BDC09DF0BEC09EF0BFC09FF0CA
:101AB000C0C0A0F064EF0DF0B9C09DF0BAC09EF0B8
:101AC000BBC09FF0BCC0A0F09DC099F09EC09AF032
:101AD0009FC09BF0A0C09CF0A1EF0DF0B5C001F03D
:101AE000B6C002F0B7C003F0B8C004F0BDC005F046
:101AF000BEC006F0BFC007F0C0C008F06CEC23F019
:101B0000D8A085EF0DF087EF0DF091EF0DF0BDC07F
:101B1000A1F0BEC0A2F0BFC0A3F0C0C0A4F099EF76
:101B20000DF0B5C0A1F0B6C0A2F0B7C0A3F0B8C028
:101B3000A4F0A1C099F0A2C09AF0A3C09BF0A4C0E9
:101B40009CF0B1C01AF0B2C01BF0B3C01CF0B4C01E
:101B50001DF099C01EF09AC01FF09BC020F09CC0E1
:101B600021F0C4EC26F01AC0ADF01BC0AEF01CC0D2
:101B7000AFF01DC0B0F0ADC001F0AEC002F0AFC01C
:101B800003F0B0C004F0000E056E000E066E000EED
:101B9000076E000E086E1CEC25F0D8A0D2EF0DF0F9
:101BA000D4EF0DF0DFEF0DF0000E0001A96F000E75
:101BB000AA6F000EAB6F000EAC6F40EF0FF0B1C01C
:101BC00001F0B2C002F0B3C003F0B4C004F0B5C07D
:101BD00005F0B6C006F0B7C007F0B8C008F01CECBE
:101BE00025F0D8A0F6EF0DF0F8EF0DF05AEF0EF05B
:101BF000ADC026F0AEC027F0AFC028F0B0C029F0CD
:101C0000BDC01EF0BEC01FF0BFC020F0C0C021F09C
:101C1000B9C01AF0BAC01BF0BBC01CF0BCC01DF0AC
:101C2000C4EC26F01AC022F01BC023F01CC024F024
:101C30001DC025F0C6EC19F022C085F023C086F047
:101C400024C087F025C088F0000E586E000E596E33
:101C5000C00E5A6E400E5B6E85C054F086C055F0C3
:101C600087C056F088C057F05DEC22F054C089F070
:101C700055C08AF056C08BF057C08CF089C03BF03D
:101C80008AC03CF08BC03DF08CC03EF0000E3F6E31
:101C9000000E406E700E416E420E426EB1EC17F0B7
:101CA0003BC0A9F03CC0AAF03DC0ABF03EC0ACF0D8
:101CB00040EF0FF0B1C001F0B2C002F0B3C003F0CA
:101CC000B4C004F0B9C005F0BAC006F0BBC007F05C
:101CD000BCC008F01CEC25F0D8A071EF0EF073EF3B
:101CE0000EF0CDEF0EF0ADC026F0AEC027F0AFC0C5
:101CF00028F0B0C029F0B5C01EF0B6C01FF0B7C0C4
:101D000020F0B8C021F0BDC01AF0BEC01BF0BFC0AB
:101D10001CF0C0C01DF0C4EC26F01AC022F01BC09D
:101D200023F01CC024F01DC025F0C6EC19F022C021
:101D3000A5F023C0A6F024C0A7F025C0A8F0000E8F
:101D4000056E000E066E000E076E400E086EA5C0F2
:101D500001F0A6C002F0A7C003F0A8C004F051EC47
:101D600015F001C03BF002C03CF003C03DF004C0E0
:101D70003EF0000E3F6E000E406E700E416E420E41
:101D8000426EB1EC17F03BC0A9F03CC0AAF03DC0D8
:101D9000ABF03EC0ACF040EF0FF0B1C001F0B2C00C
:101DA00002F0B3C003F0B4C004F0BDC005F0BEC083
:101DB00006F0BFC007F0C0C008F01CEC25F0D8A0AA
:101DC000E4EF0EF0E6EF0EF040EF0FF0ADC026F0BE
:101DD000AEC027F0AFC028F0B0C029F0B9C01EF0E7
:101DE000BAC01FF0BBC020F0BCC021F0B5C01AF0D3
:101DF000B6C01BF0B7C01CF0B8C01DF0C4EC26F094
:101E00001AC022F01BC023F01CC024F01DC025F016
:101E1000C6EC19F022C0A5F023C0A6F024C0A7F09C
:101E200025C0A8F0000E056E000E066E800E076E2F
:101E3000400E086EA5C001F0A6C002F0A7C003F0D6
:101E4000A8C004F051EC15F001C03BF002C03CF01A
:101E500003C03DF004C03EF0000E3F6E000E406E29
:101E6000700E416E420E426EB1EC17F03BC0A9F00D
:101E70003CC0AAF03DC0ABF03EC0ACF040EF0FF06C
:101E80000001ACBF48EF0FF046EF0FF062EF0FF02C
:101E9000A9C001F0AAC002F0ABC003F0ACC004F0CE
:101EA000000E056E000E066EB40E076E430E086E31
:101EB00051EC15F001C0A9F002C0AAF003C0ABF0CC
:101EC00004C0ACF000017A51D96EDA6AA9C0DEFF15
:101ED000AAC0DEFFABC0DEFFACC0DEFFB1C001F0C8
:101EE000B2C002F0B3C003F0B4C004F0000E056E3F
:101EF000000E066E000E076E000E086E1CEC25F03C
:101F0000D8A085EF0FF087EF0FF095EF0FF00001ED
:101F10007B51D96EDA6A000EDE6E000EDE6E000EA8
:101F2000DE6E000EDD6EC5EF0FF0B1C026F0B2C060
:101F300027F0B3C028F0B4C029F0ADC022F0AEC085
:101F400023F0AFC024F0B0C025F0C6EC19F022C0D9
:101F50003BF023C03CF024C03DF025C03EF0000E15
:101F60003F6E000E406EC80E416E420E426EB1ECE6
:101F700017F000017B51D96EDA6A3BC0DEFF3CC02E
:101F8000DEFF3DC0DEFF3EC0DEFF000E3F6E000EF6
:101F9000406EC80E416E420E426EB1C03BF0B2C000
:101FA0003CF0B3C03DF0B4C03EF0B1EC17F03BC024
:101FB0008DF03CC08EF03DC08FF03EC090F08DC0E3
:101FC0003BF08EC03CF08FC03DF090C03EF07DC035
:101FD0003FF07EC040F07FC041F080C042F0B1ECE5
:101FE00017F000017C51D96EDA6A3BC0DEFF3CC0BD
:101FF000DEFF3DC0DEFF3EC0DEFF120008EC27F032
:10200000290E5F6E960E5E6E7F0EE82EFED75E2E58
:10201000FCD75F2EFAD7000080867C8EE1C014F0DA
:10202000E2C015F0E3C016F0000120EE05F0DF512C
:10203000D926E051DA22DF50D0EC1DF00001E82B68
:1020400001EC07F05CC0E6F05DC0E7F080967C9E96
:10205000050E0001E8652FEF10F031EF10F0A8EF4A
:1020600010F0E1C014F0E2C015F0E3C016F020EE6D
:1020700008F0DF51D926E051DA22DF5032EC20F0AF
:10208000E1C014F0E2C015F0E3C016F0000120EE4C
:1020900001F0DF51D926E051DA22DF509CEC1EF02E
:1020A000E1C014F0E2C015F0E3C016F0000120EE2C
:1020B00001F0DF51D926E051DA22DF509CEC1EF00E
:1020C000E1C014F0E2C015F0E3C016F0000120EE0C
:1020D00006F0DF51D926E051DA22DF5032EC20F051
:1020E000000E0001E56F000EE46F89EF10F0E1C013
:1020F00014F0E2C015F0E3C016F020EE05F0DF5159
:10210000D926E051DA22DF50D0EC1DF00001E44B7B
:10211000E52BE5BF95EF10F0E55109E1050EE45D13
:10212000D8A095EF10F097EF10F077EF10F0E1C026
:1021300014F0E2C015F0E3C016F020EE08F0DF5115
:10214000D926E051DA22DF5032EC20F0B5EF12F060
:10215000E651E711D8B4AFEF10F0B1EF10F000EF97
:1021600010F03C0EE925D96EDA6A010EDA22E85148
:102170000A0FDF6E000EE86FE92BE605E711D8A421
:10218000C4EF10F0C6EF10F0F0EF10F03C0EE925B0
:10219000D96EDA6A010EDA22E6C0DFFFE92BE1C070
:1021A00014F0E2C015F0E3C016F020EE08F0DF51A5
:1021B000D926E051DA22DF5032EC20F0E1C014F0F1
:1021C000E2C015F0E3C016F0000120EE01F0DF518F
:1021D000D926E051DA22DF509CEC1EF000EF10F01F
:1021E000020EE619E711D8A4F8EF10F0FAEF10F09C
:1021F00024EF11F03C0EE925D96EDA6A010EDA22DD
:10220000E6C0DFFFE92BE1C014F0E2C015F0E3C047
:1022100016F020EE08F0DF51D926E051DA22DF5027
:1022200032EC20F0E1C014F0E2C015F0E3C016F08B
:10223000000120EE02F0DF51D926E051DA22DF5012
:1022400067EC1FF000EF10F0030EE619E711D8A4B9
:102250002CEF11F02EEF11F068EF11F03C0EE92594
:10226000D96EDA6A010EDA22E6C0DFFFE92BE1C09F
:1022700014F0E2C015F0E3C016F020EE08F0DF51D4
:10228000D926E051DA22DF5032EC20F0E1C014F020
:10229000E2C015F0E3C016F0000120EE01F0DF51BE
:1022A000D926E051DA22DF509CEC1EF0E1C014F098
:1022B000E2C015F0E3C016F0000120EE01F0DF519E
:1022C000D926E051DA22DF509CEC1EF000EF10F02E
:1022D000040EE619E711D8A470EF11F072EF11F0B7
:1022E000ACEF11F03C0EE925D96EDA6A010EDA2264
:1022F000E6C0DFFFE92BE1C014F0E2C015F0E3C057
:1023000016F020EE08F0DF51D926E051DA22DF5036
:1023100032EC20F0E1C014F0E2C015F0E3C016F09A
:10232000000120EE06F0DF51D926E051DA22DF501D
:1023300032EC20F0E1C014F0E2C015F0E3C016F07A
:10234000000120EE01F0DF51D926E051DA22DF5002
:102350009CEC1EF000EF10F0050EE619E711D8A472
:10236000B4EF11F0B6EF11F0F0EF11F03C0EE925EB
:10237000D96EDA6A010EDA22E6C0DFFFE92BE1C08E
:1023800014F0E2C015F0E3C016F020EE08F0DF51C3
:10239000D926E051DA22DF5032EC20F0E1C014F00F
:1023A000E2C015F0E3C016F0000120EE06F0DF51A8
:1023B000D926E051DA22DF5032EC20F0E1C014F0EF
:1023C000E2C015F0E3C016F0000120EE02F0DF518C
:1023D000D926E051DA22DF5067EC1FF000EF10F051
:1023E000060EE619E711D8A4F8EF11F0FAEF11F094
:1023F00024EF12F03C0EE925D96EDA6A010EDA22DA
:10240000E6C0DFFFE92BE1C014F0E2C015F0E3C045
:1024100016F020EE08F0DF51D926E051DA22DF5025
:1024200032EC20F0E1C014F0E2C015F0E3C016F089
:10243000000120EE03F0DF51D926E051DA22DF500F
:102440009CEC1EF000EF10F0070EE619E711D8A47F
:102450002CEF12F02EEF12F058EF12F03C0EE9259F
:10246000D96EDA6A010EDA22E6C0DFFFE92BE1C09D
:1024700014F0E2C015F0E3C016F020EE08F0DF51D2
:10248000D926E051DA22DF5032EC20F0E1C014F01E
:10249000E2C015F0E3C016F0000120EE04F0DF51B9
:1024A000D926E051DA22DF5067EC1FF000EF10F080
:1024B000080EE619E711D8A460EF12F062EF12F0EF
:1024C000B3EF12F0E1C014F0E2C015F0E3C016F073
:1024D00020EE08F0DF51D926E051DA22DF5032EC4D
:1024E00020F0E1C014F0E2C015F0E3C016F00001E6
:1024F00020EE01F0DF51D926E051DA22DF509CECCA
:102500001EF0E1C014F0E2C015F0E3C016F00001C7
:1025100020EE01F0DF51D926E051DA22DF509CECA9
:102520001EF0E1C014F0E2C015F0E3C016F00001A7
:1025300020EE06F0DF51D926E051DA22DF5032ECEE
:1025400020F0E1C014F0E2C015F0E3C016F0000185
:1025500020EE07F0DF51D926E051DA22DF50D0EC2F
:102560001DF0B5EF12F000EF10F01200000E316E0A
:10257000320E306E3C0E3024D96E010E3120DA6EF0
:102580000A0EDF64C6EF12F0C8EF12F00EEF13F080
:102590003C0E3024D96E010E3120DA6EDF50F60F7A
:1025A0002B6E000E2D6E000E2C6EE8EF12F025C083
:1025B00014F026C015F027C016F020EE05F02350C9
:1025C000D9262450DA22DF50D0EC1DF02C4A2D2AD7
:1025D000FF0E2B24286E296AFF0E292228502C5C1E
:1025E0002D50800A2A6E2950800A2A58D8A0FBEF65
:1025F00012F0FDEF12F0D7EF12F025C014F026C054
:1026000015F027C016F020EE07F02350D9262450ED
:10261000DA22DF50D0EC1DF028EF15F03C0E30240C
:10262000D96E010E3120DA6EDE04D8A41AEF13F051
:102630001CEF13F03CEF13F025C014F026C015F08A
:1026400027C016F020EE02F02350D9262450DA22BB
:10265000DF5067EC1FF025C014F026C015F027C02E
:1026600016F020EE06F02350D9262450DA22DF504F
:1026700032EC20F028EF15F03C0E3024D96E010E1C
:102680003120DA6E020EDE18D8A449EF13F04BEFBA
:1026900013F06BEF13F025C014F026C015F027C01F
:1026A00016F020EE01F02350D9262450DA22DF5014
:1026B0009CEC1EF025C014F026C015F027C016F0C3
:1026C00020EE06F02350D9262450DA22DF5032ECD7
:1026D00020F028EF15F03C0E3024D96E010E312089
:1026E000DA6E030EDE18D8A478EF13F07AEF13F049
:1026F0009AEF13F025C014F026C015F027C016F08D
:1027000020EE01F02350D9262450DA22DF509CEC31
:102710001EF025C014F026C015F027C016F020EEDC
:1027200001F02350D9262450DA22DF509CEC1EF011
:1027300028EF15F03C0E3024D96E010E3120DA6EF0
:10274000040EDE18D8A4A7EF13F0A9EF13F023EFBF
:1027500014F025C014F026C015F027C016F020EEA6
:1027600001F02350D9262450DA22DF509CEC1EF0D1
:1027700025C014F026C015F027C016F020EE05F095
:102780002350D9262450DA22DF50D0EC1DF025C08A
:1027900014F026C015F027C016F020EE05F02350E7
:1027A000D9262450DA22DF50D0EC1DF025C014F0D9
:1027B00026C015F027C016F020EE08F02350D926C9
:1027C0002450DA22DF5032EC20F025C014F026C06D
:1027D00015F027C016F020EE01F02350D926245022
:1027E000DA22DF509CEC1EF025C014F026C015F054
:1027F00027C016F020EE01F02350D9262450DA220B
:10280000DF509CEC1EF025C014F026C015F027C048
:1028100016F020EE06F02350D9262450DA22DF509D
:1028200032EC20F025C014F026C015F027C016F0B9
:1028300020EE07F02350D9262450DA22DF50D0ECC6
:102840001DF028EF15F03C0E3024D96E010E31201A
:10285000DA6E050EDE18D8A430EF14F032EF14F063
:10286000ACEF14F025C014F026C015F027C016F008
:1028700020EE01F02350D9262450DA22DF5067ECF5
:102880001FF025C014F026C015F027C016F020EE6A
:1028900005F02350D9262450DA22DF50D0EC1DF069
:1028A00025C014F026C015F027C016F020EE05F064
:1028B0002350D9262450DA22DF50D0EC1DF025C059
:1028C00014F026C015F027C016F020EE08F02350B3
:1028D000D9262450DA22DF5032EC20F025C014F043
:1028E00026C015F027C016F020EE01F02350D9269F
:1028F0002450DA22DF509CEC1EF025C014F026C0D4
:1029000015F027C016F020EE01F02350D9262450F0
:10291000DA22DF509CEC1EF025C014F026C015F022
:1029200027C016F020EE06F02350D9262450DA22D4
:10293000DF5032EC20F025C014F026C015F027C07F
:1029400016F020EE07F02350D9262450DA22DF506B
:10295000D0EC1DF028EF15F03C0E3024D96E010E9E
:102960003120DA6E060EDE18D8A4B9EF14F0BBEFF2
:1029700014F0EAEF14F025C014F026C015F027C0BB
:1029800016F020EE04F02350D9262450DA22DF502E
:1029900067EC1FF025C014F026C015F027C016F014
:1029A00020EE06F02350D9262450DA22DF5032ECF4
:1029B00020F025C014F026C015F027C016F020EE38
:1029C00007F02350D9262450DA22DF50D0EC1DF036
:1029D00028EF15F03C0E3024D96E010E3120DA6E4E
:1029E000070EDE18D8A4F7EF14F0F9EF14F028EF73
:1029F00015F025C014F026C015F027C016F020EE03
:102A000003F02350D9262450DA22DF509CEC1EF02C
:102A100025C014F026C015F027C016F020EE06F0F1
:102A20002350D9262450DA22DF5032EC20F025C082
:102A300014F026C015F027C016F020EE07F0235042
:102A4000D9262450DA22DF50D0EC1DF028EF15F003
:102A50003006D8A0310631BE32EF15F030EF15F058
:102A6000BAEF12F0000E0001E96F000E2F6E000E9B
:102A70002E6E3C0E2E24D96E010E2F20DA6EDF6AE8
:102A80002E4A2F2A2FBE4EEF15F02F5009E1320E9D
:102A90002E5CD8A04EEF15F050EF15F039EF15F081
:102AA00012000450800B0D6E045004240F6E03AE10
:102AB0005CEF15F05EEF15F05FEF15F00F800F5033
:102AC000D8B465EF15F067EF15F07CEF15F00F281F
:102AD000D8A46DEF15F06FEF15F077EF15F0000E3D
:102AE000016E000E026E000E036E000E046E038E69
:102AF000000E046E84EF15F0000E016E000E026EE3
:102B0000000E036E000E046E0850800B0E6E0D500A
:102B10000E18D8B48EEF15F090EF15F091EF15F078
:102B20000D8C085008240E6E07AE99EF15F09BEF40
:102B300015F09CEF15F00E800E50D8B4A2EF15F0F2
:102B4000A4EF15F0B9EF15F00E28D8A4AAEF15F0F0
:102B5000ACEF15F0B4EF15F0000E056E000E066E2A
:102B6000000E076E000E086E078E000E086EC1EF95
:102B700015F0000E056E000E066E000E076E000EBC
:102B8000086E0F500E5CD8B0C8EF15F0CAEF15F004
:102B9000F1EF15F00DACCFEF15F0D1EF15F0D3EF4D
:102BA00015F0800E0D1A0FC010F00EC00FF010C0FF
:102BB0000EF001C010F005C001F010C005F002C019
:102BC00010F006C002F010C006F003C010F007C0FD
:102BD00003F010C007F004C010F008C004F010C0EB
:102BE00008F0000E106E0F500EC009F00A6A095E60
:102BF000000E0A5A0ABE06EF16F00A5009E11A0E34
:102C0000095CD8A006EF16F008EF16F03FEF16F0BB
:102C10000150021003100410D8A411EF16F014EFA5
:102C200016F0010E15EF16F0000E106E000E016E7C
:102C3000000E026E000E036E000E046E0EC00FF04A
:102C400048EF16F010A027EF16F029EF16F02FEF3F
:102C500016F0D89010300109106E31EF16F0D890B0
:102C6000103201A036EF16F038EF16F039EF16F0FB
:102C7000108E043404320332023201320F2A0E5015
:102C80000F5CD8A046EF16F048EF16F022EF16F0D2
:102C90000DBC4DEF16F04FEF16F08FEF16F00F5002
:102CA000D8A455EF16F057EF16F061EF16F0000EAE
:102CB000016E000E026E000E036E000E046EB0EF89
:102CC00017F0055001260650022207500322085033
:102CD000042204A06EEF16F070EF16F01CEF17F050
:102CE00010A075EF16F077EF16F07DEF16F0D89084
:102CF00010300109106E7FEF16F0D890103201A04D
:102D000084EF16F086EF16F087EF16F0108E04347D
:102D100004320332023201320F2A1CEF17F0055041
:102D2000015C06500258075003580450800A096E8F
:102D30000850800A0958D8B0A0EF16F0A2EF16F09C
:102D4000CDEF16F00150055C096E025006580A6E70
:102D5000035007580B6E045008580C6EFF0E0924E0
:102D6000016EFF0E0A20026EFF0E0B20036EFF0E97
:102D70000C20046E800E0D1A106C1050D8A4C3EFF6
:102D800016F0C5EF16F0D5EF16F0010E0126000E75
:102D9000022203220422D5EF16F00550015E0650F0
:102DA000025A0750035A0850045A015002100310E7
:102DB0000410D8A4DEEF16F0E0EF16F015EF17F0D0
:102DC0001050D8A4E6EF16F0E8EF16F015EF17F064
:102DD000000E016E000E026E000E036E000E046EF9
:102DE000B0EF17F0D890013602360336043610AE35
:102DF000FCEF16F0FEEF16F0FFEF16F0018010A0CA
:102E000004EF17F006EF17F00AEF17F0D88010362E
:102E10000CEF17F0D89010360F50D8B412EF17F00F
:102E200014EF17F015EF17F00F0603AE1AEF17F0B7
:102E30001CEF17F0F2EF16F0000E0E6E10AE23EF3F
:102E400017F025EF17F03DEF17F010C009F07F0ED7
:102E50000916D8B42EEF17F030EF17F034EF17F053
:102E6000010E0E6E3DEF17F001A039EF17F03BEFAA
:102E700017F03DEF17F030EF17F00E50D8B443EFD6
:102E800017F045EF17F070EF17F0010E0126000E56
:102E900002220322042204A050EF17F052EF17F091
:102EA00070EF17F001C009F002C00AF003C00BF088
:102EB00004C00CF00C340C320B320A32093209C057
:102EC00001F00AC002F00BC003F00CC004F00F28A0
:102ED000D8B46DEF17F06FEF17F070EF17F00F2AFF
:102EE0000F28D8B476EF17F078EF17F080EF17F0CF
:102EF0000F50D8A47EEF17F080EF17F092EF17F085
:102F0000000E016E000E026E000E036E000E046EC7
:102F10000F50D8A48EEF17F090EF17F092EF17F044
:102F2000000E0D6E0FA097EF17F099EF17F09CEFC2
:102F300017F0038E9DEF17F0039ED8900F30046EAC
:102F40000DAEA5EF17F0A7EF17F0A8EF17F0048E5E
:102F500001C001F002C002F003C003F004C004F09D
:102F600012003E50800B476E3E503E244D6E3DAEEB
:102F7000BCEF17F0BEEF17F0BFEF17F04D804D50CC
:102F8000D8B4C5EF17F0C7EF17F0DAEF17F04D28F8
:102F9000D8A4CDEF17F0CFEF17F0D7EF17F0000E52
:102FA0003B6E000E3C6E000E3D6E000E3E6E3D8E82
:102FB000E2EF17F0000E3B6E000E3C6E000E3D6E11
:102FC000000E3E6E4250800B471A425042244C6E17
:102FD00041AEEDEF17F0EFEF17F0F0EF17F04C8088
:102FE0004C50D8B4F6EF17F0F8EF17F00BEF18F0DD
:102FF0004C28D8A4FEEF17F000EF18F008EF18F0F7
:10300000000E3F6E000E406E000E416E000E426ECE
:10301000418E13EF18F0000E3F6E000E406E000E52
:10302000416E000E426E4C50D8B419EF18F01BEFF1
:1030300018F023EF18F04D50D8A421EF18F023EF2B
:1030400018F02DEF18F0000E3B6E000E3C6E000ED7
:103050003D6E000E3E6EC5EF19F041503B02F3CFBE
:1030600052F0F4CF53F05250486E496A4A6A4B6AA4
:1030700053504E6E4F6A506A516A40503C02F3CF33
:1030800052F0F4CF53F052504826000E49224A2203
:103090004B2253504E26000E4F22502251223F50B9
:1030A0003D02F3CF52F0F4CF53F052504826000EB9
:1030B00049224A224B2253504E26000E4F225022C4
:1030C00051224AC04BF049C04AF048C049F0486A12
:1030D0003F503C02F3CF52F0F4CF53F05250482609
:1030E00053504922000E4A22000E4B2240503B0210
:1030F000F3CF52F0F4CF53F05250482653504922A8
:10310000000E4A22000E4B224AC04BF049C04AF042
:1031100048C049F0486A3F503B02F3CF52F0F4CF29
:1031200053F05250482653504922000E4A22000EB6
:103130004B2241503C02F3CF52F0F4CF53F05250A7
:103140004E2653504F22000E5022000E5122405066
:103150003D02F3CF52F0F4CF53F052504E2653506D
:103160004F22000E5022000E512241503D02F3CF5B
:1031700052F0F4CF53F05250436E5350446E456AB0
:10318000466A45C046F044C045F043C044F0436A37
:1031900043504E2644504F22455050224650512213
:1031A00048C043F049C044F04AC045F04BC046F027
:1031B000190EE0EF18F0D8904632453244324332CF
:1031C000E82EDBEF18F043504E2644504F22455076
:1031D0005022465051224AC04BF049C04AF048C0E4
:1031E00049F0486A4C504DC043F0446A4326000EF3
:1031F0004422820E4324526EFF0E4420536E16EF7B
:1032000019F0D8904E364F36503651364BAE0BEF44
:1032100019F00DEF19F00EEF19F04E80D8904836E6
:1032200049364A364B365206D8A0530650AE1BEFED
:1032300019F01DEF19F001EF19F0000E4C6E4BAEB6
:1032400024EF19F026EF19F04AEF19F0FF0E481499
:10325000436EFF0E4914446EFF0E4A14456E7F0EF6
:103260004B14466E4350441045104610D8B43BEF03
:1032700019F03DEF19F041EF19F0010E4C6E4AEFD5
:1032800019F04EA046EF19F048EF19F04AEF19F087
:103290003DEF19F04C50D8B450EF19F052EF19F03F
:1032A00076EF19F0010E4E26000E4F2250225122C9
:1032B00051A05DEF19F05FEF19F076EF19F04EC0F5
:1032C00043F04FC044F050C045F051C046F0463482
:1032D000463245324432433243C04EF044C04FF090
:1032E00045C050F046C051F0524A532A53BE81EFB8
:1032F00019F0535008E15228D8A081EF19F083EF5C
:1033000019F08DEF19F0000E4E6E000E4F6E800E0C
:10331000506E7F0E516EBBEF19F053BE9AEF19F04D
:10332000535006E15204D8B098EF19F09AEF19F013
:10333000A6EF19F0000E4E6E000E4F6E000E506E8E
:10334000000E516E000E476EBBEF19F052C04DF0EB
:10335000FF0E4E16FF0E4F167F0E5016000E511622
:103360004DA0B5EF19F0B7EF19F0B8EF19F0508E86
:10337000D8904D30516E475051124EC03BF04FC067
:103380003CF050C03DF051C03EF012002550800B83
:10339000326E25502524396E24AED1EF19F0D3EFCB
:1033A00019F0D4EF19F039803950D8B4DAEF19F0A8
:1033B000DCEF19F0F1EF19F03928D8A4E2EF19F099
:1033C000E4EF19F0ECEF19F0000E226E000E236E00
:1033D000000E246E000E256E248E000E256EF9EF71
:1033E00019F0000E226E000E236E000E246E000EE9
:1033F000256E2950800B321A295029243A6E28AEA6
:1034000004EF1AF006EF1AF007EF1AF03A803A507C
:10341000D8B40DEF1AF00FEF1AF024EF1AF03A2893
:10342000D8A415EF1AF017EF1AF01FEF1AF0000EDC
:10343000266E000E276E000E286E000E296E288E56
:10344000000E296E2CEF1AF0000E266E000E276E6D
:10345000000E286E000E296E265027102810291005
:10346000D8A435EF1AF037EF1AF04FEF1AF0000E2C
:10347000226E000E236E000E246E000E256E800E4E
:1034800024127F0E25123250251222C022F023C0B2
:1034900023F024C024F025C025F092EF1BF0395012
:1034A000D8A455EF1AF057EF1AF061EF1AF0000E9A
:1034B000226E000E236E000E246E000E256E92EF1B
:1034C0001BF03A5039C02AF02B6A2A5E000E2B5AA4
:1034D0007F0E2A24336E000E2B20346E22C02EF075
:1034E00023C02FF024C030F025C031F0000E226E32
:1034F000000E236E000E246E000E256E000E356E3B
:10350000000E366E000E376E000E386E000E3A6EEC
:10351000C2EF1AF03A50D8B490EF1AF092EF1AF0C6
:10352000A9EF1AF0D8902E362F3630363136D89093
:10353000223623362436253638AEA1EF1AF0A3EF13
:103540001AF0A4EF1AF02280D89035363636373686
:10355000383626502E5C27502F5828503058295086
:103560003158D8A0B6EF1AF0B8EF1AF0C1EF1AF040
:10357000388C26502E5E27502F5A2850305A29500A
:10358000315A3A2A190E3A64C8EF1AF0CAEF1AF003
:103590008AEF1AF02E502F1030103110D8B4D3EF1C
:1035A0001AF0D5EF1AF0EDEF1AF03580EDEF1AF0C2
:1035B000D890223623362436253638AEE2EF1AF07C
:1035C000E4EF1AF0E5EF1AF02280D890353636365F
:1035D000373638363306D8A0340624AEF2EF1AF068
:1035E000F4EF1AF0D8EF1AF0000E3A6E38AEFBEF97
:1035F0001AF0FDEF1AF021EF1BF0FF0E35142A6EC2
:10360000FF0E36142B6EFF0E37142C6E7F0E3814FF
:103610002D6E2A502B102C102D10D8B412EF1BF049
:1036200014EF1BF018EF1BF0010E3A6E21EF1BF0A8
:1036300022A01DEF1BF01FEF1BF021EF1BF014EF7A
:103640001BF03A50D8B427EF1BF029EF1BF04DEFD9
:103650001BF0010E2226000E23222422252225A063
:1036600034EF1BF036EF1BF04DEF1BF022C02AF0B9
:1036700023C02BF024C02CF025C02DF02D342D328A
:103680002C322B322A322AC022F02BC023F02CC03D
:1036900024F02DC025F0334A342A34BE58EF1BF0F5
:1036A000345008E13328D8A058EF1BF05AEF1BF034
:1036B00065EF1BF0000E346E3368000E226E000EB4
:1036C000236E000E246E000E256E34BE72EF1BF0CA
:1036D000345006E13304D8B070EF1BF072EF1BF0EA
:1036E00080EF1BF0000E346E000E336E000E226E63
:1036F000000E236E000E246E000E256E000E326E3C
:1037000033C039F039A087EF1BF089EF1BF08CEF45
:103710001BF0248E8DEF1BF0249ED8903930256E3F
:1037200043EF1AF0120023C0D9FF24C0DAFFDE04F1
:10373000D8A49DEF1BF09FEF1BF0BCEF1BF0010E18
:103740002324016E000E2420026EB2EC21F025C06D
:1037500014F026C015F027C016F020EE01F023501B
:10376000D9262450DA22DF509CEC1EF023C001F051
:1037700024C002F0C3EC24F023C0D9FF24C0DAFF38
:10378000020EDE18D8A4C7EF1BF0C9EF1BF0E6EF5E
:103790001BF0020E2324016E000E2420026EB2ECF8
:1037A00021F025C014F026C015F027C016F020EE39
:1037B00002F02350D9262450DA22DF5067EC1FF0A4
:1037C00023C001F024C002F0C3EC24F023C0D9FFD1
:1037D00024C0DAFF030EDE18D8A4F1EF1BF0F3EFDC
:1037E0001BF010EF1CF0030E2324016E000E2420AA
:1037F000026EB2EC21F025C014F026C015F027C0EF
:1038000016F020EE03F02350D9262450DA22DF50A0
:103810009CEC1EF023C001F024C002F0C3EC24F0A5
:1038200023C0D9FF24C0DAFF040EDE18D8A41BEF92
:103830001CF01DEF1CF03AEF1CF0040E2324016E67
:10384000000E2420026EB2EC21F025C014F026C038
:1038500015F027C016F020EE04F02350D92624508E
:10386000DA22DF5067EC1FF023C001F024C002F021
:10387000C3EC24F023C0D9FF24C0DAFF050EDE1804
:10388000D8A445EF1CF047EF1CF064EF1CF0050EC8
:103890002324016E000E2420026EB2EC21F025C01C
:1038A00014F026C015F027C016F020EE05F02350C6
:1038B000D9262450DA22DF50D0EC1DF023C001F0CD
:1038C00024C002F0C3EC24F023C0D9FF24C0DAFFE7
:1038D000060EDE18D8A46FEF1CF071EF1CF08EEF0F
:1038E0001CF0060E2324016E000E2420026EB2ECA2
:1038F00021F025C014F026C015F027C016F020EEE8
:1039000006F02350D9262450DA22DF5032EC20F082
:1039100023C001F024C002F0C3EC24F023C0D9FF7F
:1039200024C0DAFF070EDE18D8A499EF1CF09BEF35
:103930001CF0B8EF1CF0070E2324016E000E2420AB
:10394000026EB2EC21F025C014F026C015F027C09D
:1039500016F020EE07F02350D9262450DA22DF504B
:10396000D0EC1DF023C001F024C002F0C3EC24F021
:1039700023C0D9FF24C0DAFF080EDE18D8A4C3EF95
:103980001CF0C5EF1CF0E2EF1CF0080E2324016EC2
:10399000000E2420026EB2EC21F025C014F026C0E7
:1039A00015F027C016F020EE08F02350D926245039
:1039B000DA22DF5032EC20F023C001F024C002F004
:1039C000C3EC24F023C0D9FF24C0DAFF090EDE18AF
:1039D000D8A4EDEF1CF0EFEF1CF093EF1BF023C029
:1039E000D9FF24C0DAFF010EDF6E1200146E1450EE
:1039F000D8B4FDEF1CF0FFEF1CF021EF1DF00FBE5F
:103A000006EF1DF004EF1DF021EF1DF00CC010F0CB
:103A10000DC011F00EC012F00FC013F0101E111ED9
:103A2000121E131E102A000E11221222132210C081
:103A300016F011C017F012C018F013C019F029EFDA
:103A40001DF00CC016F00DC017F00EC018F00FC01E
:103A500019F00C500D100E100F10D8A432EF1DF0FD
:103A600034EF1DF03EEF1DF0000E0C6E000E0D6EDB
:103A7000000E0E6E000E0F6ECFEF1DF0960E156E3F
:103A800048EF1DF0152AD890193218321732163225
:103A9000000E1614106E000E1714116E000E18147E
:103AA000126EFE0E1914136E105011101210131016
:103AB000D8A45DEF1DF05FEF1DF042EF1DF06DEF3C
:103AC0001DF0152A010E1626000E172218221922A3
:103AD000D8901932183217321632000E1614106EA2
:103AE000000E1714116E000E1814126EFF0E19142A
:103AF000136E1050111012101310D8A482EF1DF085
:103B000084EF1DF061EF1DF08CEF1DF01506D890CD
:103B1000163617361836193618BE91EF1DF093EF8A
:103B20001DF09BEF1DF0020E156099EF1DF09BEF4D
:103B30001DF086EF1DF015B0A0EF1DF0A2EF1DF0F7
:103B4000A3EF1DF0189ED890153215C010F0116A21
:103B5000126A136A10C013F0126A116A106A1050C8
:103B60001612115017121250181213501912145025
:103B7000D8B4BDEF1DF0BFEF1DF0C7EF1DF00FBEB5
:103B8000C6EF1DF0C4EF1DF0C7EF1DF0198E16C073
:103B90000CF017C00DF018C00EF019C00FF0120095
:103BA0001A6E1450D96EDA6A010ED926010EDF6E34
:103BB00020EE01F01550D9261650DA22010EDF6EE4
:103BC000000E206E280E1F6E000E026E640E016E37
:103BD000000E046E280E036E61EC24F001C021F08B
:103BE00002C022F0000E1C6E000E1B6E21EF1EF0B4
:103BF0001450D96EDA6A1450E16EE26AE750176E1B
:103C00001728DF6E15C0D9FF16C0DAFFDF50176E18
:103C1000172815C0D9FF16C0DAFFDF6E15C00EF0E9
:103C200016C00FF0FCEC20F014C00EF00F6AFCEC94
:103C300020F021C001F022C002F046EC27F01B4A20
:103C40001C2A1F501B5C1C50800A176E2050800AD3
:103C50001758D8A02EEF1EF030EF1EF0F8EF1DF031
:103C6000000E1E6E000E1D6E3FEF1EF0D00E176E82
:103C7000CA0EE82EFED7172EFCD71D4A1E2A1A5050
:103C8000176E186A17501D5C1E50800A196E185066
:103C9000800A1958D8A04FEF1EF051EF1EF036EFF2
:103CA0001EF084EF1EF015C0D9FF16C0DAFFDF50FA
:103CB000D8B45DEF1EF05FEF1EF064EF1EF015C08C
:103CC000D9FF16C0DAFFDF061450D96EDA6ADF506A
:103CD000D8B46DEF1EF06FEF1EF073EF1EF01450AE
:103CE000D96EDA6ADF0615C00EF016C00FF0FCECD4
:103CF00020F014C00EF00F6AFCEC20F021C001F09F
:103D000022C002F046EC27F01450D96EDA6ADF5078
:103D1000D8A48DEF1EF08FEF1EF053EF1EF015C0EC
:103D2000D9FF16C0DAFFDF50D8A499EF1EF09BEF41
:103D30001EF053EF1EF012001A6E1450D96EDA6A9C
:103D4000010ED926010EDF6E20EE01F01550D926A6
:103D50001650DA22DF6A000E206E280E1F6E000E4B
:103D6000026E640E016E000E046E280E036E61EC8E
:103D700024F001C021F002C022F0000E1C6E000EE3
:103D80001B6EECEF1EF01450D96EDA6A1450E16E1F
:103D9000E26AE750176E1728DF6E15C0D9FF16C00C
:103DA000DAFFDF50176E172815C0D9FF16C0DAFFEB
:103DB000DF6E15C00EF016C00FF0FCEC20F014C042
:103DC0000EF00F6AFCEC20F021C001F022C002F0DE
:103DD00046EC27F01B4A1C2A1F501B5C1C50800A13
:103DE000176E2050800A1758D8A0F9EF1EF0FBEF8D
:103DF0001EF0C3EF1EF0000E1E6E000E1D6E0AEFC9
:103E00001FF0D00E176ECA0EE82EFED7172EFCD765
:103E10001D4A1E2A1A50176E186A17501D5C1E5034
:103E2000800A196E1850800A1958D8A01AEF1FF08E
:103E30001CEF1FF001EF1FF04FEF1FF015C0D9FF6F
:103E400016C0DAFFDF50D8B428EF1FF02AEF1FF0BA
:103E50002FEF1FF015C0D9FF16C0DAFFDF06145090
:103E6000D96EDA6ADF50D8B438EF1FF03AEF1FF09E
:103E70003EEF1FF01450D96EDA6ADF0615C00EF05F
:103E800016C00FF0FCEC20F014C00EF00F6AFCEC32
:103E900020F021C001F022C002F046EC27F01450BF
:103EA000D96EDA6ADF50D8A458EF1FF05AEF1FF02E
:103EB0001EEF1FF015C0D9FF16C0DAFFDF50D8A4DF
:103EC00064EF1FF066EF1FF01EEF1FF012001A6E76
:103ED0001450D96EDA6A010ED926DF6A20EE01F09D
:103EE0001550D9261650DA22010EDF6E000E206E14
:103EF000280E1F6E000E026E640E016E000E046E20
:103F0000280E036E61EC24F001C021F002C022F003
:103F1000000E1C6E000E1B6EB7EF1FF01450D96E12
:103F2000DA6A1450E16EE26AE750176E1728DF6E06
:103F300015C0D9FF16C0DAFFDF50176E172815C05D
:103F4000D9FF16C0DAFFDF6E15C00EF016C00FF0F5
:103F5000FCEC20F014C00EF00F6AFCEC20F021C045
:103F600001F022C002F046EC27F01B4A1C2A1F5029
:103F70001B5C1C50800A176E2050800A1758D8A06E
:103F8000C4EF1FF0C6EF1FF08EEF1FF0000E1E6E85
:103F9000000E1D6ED5EF1FF0D00E176ECA0EE82E64
:103FA000FED7172EFCD71D4A1E2A1A50176E186A04
:103FB00017501D5C1E50800A196E1850800A19583F
:103FC000D8A0E5EF1FF0E7EF1FF0CCEF1FF01AEFDE
:103FD00020F015C0D9FF16C0DAFFDF50D8B4F3EFD8
:103FE0001FF0F5EF1FF0FAEF1FF015C0D9FF16C054
:103FF000DAFFDF061450D96EDA6ADF50D8B403EF67
:1040000020F005EF20F009EF20F01450D96EDA6AA5
:10401000DF0615C00EF016C00FF0FCEC20F014C047
:104020000EF00F6AFCEC20F021C001F022C002F07B
:1040300046EC27F01450D96EDA6ADF50D8A423EF8B
:1040400020F025EF20F0E9EF1FF015C0D9FF16C0D2
:10405000DAFFDF50D8A42FEF20F031EF20F0E9EFA6
:104060001FF012001A6E1450D96EDA6A010ED926AA
:10407000DF6A20EE01F01550D9261650DA22DF6AE9
:10408000000E206E280E1F6E000E026E640E016E72
:10409000000E046E280E036E61EC24F001C021F0C6
:1040A00002C022F0000E1C6E000E1B6E81EF20F08D
:1040B0001450D96EDA6A1450E16EE26AE750176E56
:1040C0001728DF6E15C0D9FF16C0DAFFDF50176E54
:1040D000172815C0D9FF16C0DAFFDF6E15C00EF025
:1040E00016C00FF0FCEC20F014C00EF00F6AFCECD0
:1040F00020F021C001F022C002F046EC27F01B4A5C
:104100001C2A1F501B5C1C50800A176E2050800A0E
:104110001758D8A08EEF20F090EF20F058EF20F045
:10412000000E1E6E000E1D6E9FEF20F0D00E176E5B
:10413000CA0EE82EFED7172EFCD71D4A1E2A1A508B
:10414000176E186A17501D5C1E50800A196E1850A1
:10415000800A1958D8A0AFEF20F0B1EF20F096EF09
:1041600020F0E4EF20F015C0D9FF16C0DAFFDF50D1
:10417000D8B4BDEF20F0BFEF20F0C4EF20F015C0A1
:10418000D9FF16C0DAFFDF061450D96EDA6ADF50A5
:10419000D8B4CDEF20F0CFEF20F0D3EF20F01450C3
:1041A000D96EDA6ADF0615C00EF016C00FF0FCEC0F
:1041B00020F014C00EF00F6AFCEC20F021C001F0DA
:1041C00022C002F046EC27F01450D96EDA6ADF50B4
:1041D000D8A4EDEF20F0EFEF20F0B3EF20F015C002
:1041E000D9FF16C0DAFFDF50D8A4F9EF20F0FBEFBB
:1041F00020F0B3EF20F0120020EE02F00E50D9268E
:104200000F50DA22DF50D8B408EF21F00AEF21F086
:104210003EEF21F00EC0D9FF0FC0DAFFDF50106E65
:104220001050016E026A20EE03F00E50D9260F5096
:10423000DA22DECF03F0DDCF04F086EC27F001C0F8
:1042400007F002C008F0000E0A6E640E096EBBECA7
:1042500025F020EE03F00E50D9260F50DA22DF5061
:10426000116E0750115C126E20EE03F00E50D9262D
:104270000F50DA22DF50136E61EF21F0000E126E44
:104280000EC0D9FF0FC0DAFFDF50106E1050016E64
:10429000026A20EE03F00E50D9260F50DA22DECF4C
:1042A00003F0DDCF04F086EC27F001C007F002C078
:1042B00008F0000E0A6E640E096EBBEC25F0075084
:1042C000136E20EE01F00E50D9260F50DA22DF5087
:1042D000D8B46DEF21F06FEF21F091EF21F020EED7
:1042E00005F00E50D9260F50DA22DECF10F0DDCFC8
:1042F00011F010C0D9FF11C0DAFF12C0DFFF20EEAD
:1043000007F00E50D9260F50DA22DECF10F0DDCFA5
:1043100011F010C0D9FF11C0DAFF13C0DFFFB1EFF9
:1043200021F020EE05F00E50D9260F50DA22DECF14
:1043300010F0DDCF11F010C0D9FF11C0DAFF13C0AB
:10434000DFFF20EE07F00E50D9260F50DA22DECF25
:1043500010F0DDCF11F010C0D9FF11C0DAFF12C08C
:10436000DFFF12008EA6B7EF21F0B9EF21F0C0EF0A
:1043700021F08EB4BEEF21F0C0EF21F0B2EF21F0BA
:10438000090E046E1E0E036EE40EE82EFED7032EF9
:10439000FCD7042EFAD700D08EB6D1EF21F0D3EFA0
:1043A00021F0ECEF21F08EB4D8EF21F0DAEF21F01C
:1043B000ECEF21F080867C8E520E046E2B0E036E85
:1043C000000EE82EFED7032EFCD7042EFAD700D01D
:1043D00080967C9E5CEF22F08EB4F1EF21F0F3EF3B
:1043E00021F021EF22F0110E046E3C0E036ECB0E75
:1043F000E82EFED7032EFCD7042EFAD7000001C00A
:10440000D9FF02C0DAFFDECF03F0DDCF04F0020EE9
:104410000326000E042201C0D9FF02C0DAFF03C048
:10442000DEFF04C0DDFF7C8E110E046E3C0E036EB9
:10443000CB0EE82EFED7032EFCD7042EFAD70000B1
:104440007C9E8EB626EF22F028EF22F05AEF22F063
:10445000110E046E3C0E036ECB0EE82EFED7032E1B
:10446000FCD7042EFAD7000001C0D9FF02C0DAFF42
:10447000DECF03F0DDCF04F0FE0E0324056EFF0E49
:104480000420066E01C0D9FF02C0DAFF05C0DEFFBE
:1044900006C0DDFF8086110E046E3C0E036ECB0E4F
:1044A000E82EFED7032EFCD7042EFAD70000809604
:1044B000B2EF21F0B2EF21F0120058C001F059C064
:1044C00002F05AC003F05BC004F0000E056E000E4F
:1044D000066E000E076E000E086E1CEC25F0D8A0CC
:1044E00074EF22F076EF22F080EF22F0000E546E8F
:1044F000000E556E000E566E000E576EE8EF22F05D
:1045000054C022F055C023F056C024F057C025F007
:1045100058C026F059C027F05AC028F05BC029F0D7
:10452000C6EC19F022C060F023C061F024C062F034
:1045300025C063F060C001F061C002F062C003F00A
:1045400063C004F0E9EC22F001C068F002C069F039
:1045500054C01AF055C01BF056C01CF057C01DF0D7
:1045600058C03FF059C040F05AC041F05BC042F023
:1045700068C00CF069C00DF0000E0DBEFF0E0E6E8F
:104580000F6E010EF6EC1CF00CC03BF00DC03CF0C1
:104590000EC03DF00FC03EF0B1EC17F03BC01EF076
:1045A0003CC01FF03DC020F03EC021F0C4EC26F01E
:1045B0001AC064F01BC065F01CC066F01DC067F037
:1045C00064C054F065C055F066C056F067C057F03F
:1045D0001200033404340A6E0A50D8A4F2EF22F019
:1045E000F4EF22F0FEEF22F0000E016E000E026EDC
:1045F000000E036E000E046E6BEF23F001C005F099
:1046000002C006F003C007F004C008F0200E0EEF51
:1046100023F0D8900832073206320532E82E09EF2F
:1046200023F00550096E038EFF0E0116FF0E0216D1
:10463000FF0E0316000E0416960E0A5E0ABE25EF44
:1046400023F023EF23F03BEF23F00A50800A970F6B
:10465000D8B02DEF23F02FEF23F031EF23F0F4EF5C
:1046600022F0D89004320332023201320A3E31EF96
:1046700023F053EF23F01F0E0A6441EF23F043EFC2
:1046800023F04BEF23F0F4EF22F0D89001360236FE
:10469000033604360A060A50D8A451EF23F053EF2C
:1046A00023F045EF23F00950D8B459EF23F05BEF26
:1046B00023F063EF23F0041E031E021E016C000EA4
:1046C00002220322042201C001F002C002F003C052
:1046D00003F004C004F01200000E0114096E000E75
:1046E00002140A6E800E03140B6E7F0E04140C6EFF
:1046F00009500A100B100C10D8A481EF23F083EF9F
:1047000023F08BEF23F0000E016E000E026E000E00
:10471000036E000E046E000E0514096E000E0614E2
:104720000A6E800E07140B6E7F0E08140C6E095073
:104730000A100B100C10D8A4A0EF23F0A2EF23F066
:10474000AAEF23F0000E056E000E066E000E076E37
:10475000000E086E04AEAFEF23F0B1EF23F0BAEF16
:1047600023F0016C021ED8B0022A031ED8B0032A1F
:10477000800E045608AEBFEF23F0C1EF23F0CAEF5E
:1047800023F0056C061ED8B0062A071ED8B0072AEB
:10479000800E0856000E011A000E021A000E031AAF
:1047A000800E041A000E051A000E061A000E071AD3
:1047B000800E081A0550015C065002580750035835
:1047C00008500458D8B0E7EF23F0E9EF23F0ECEFFE
:1047D00023F0D890EDEF23F0D8801200000E026E87
:1047E000630E016E71EC25F0000E0001EE6F010EFC
:1047F000EF6F010EF06FAA0EF36F0F0EF46FA60E9F
:10480000F56F0F0EF66F000EF26F630EF16F000E74
:1048100001018B6F010E8C6F010E8D6F250E906F55
:104820000F0E916F210E926F0F0E936F000E8F6F10
:10483000630E8E6F849E7C9E8896809686840E0181
:10484000B4958686B497010E0101826F190E836FAD
:10485000190E846F280E856F280E866F640E876F81
:10486000640E886F210E896F210E8A6FF5EC25F09A
:10487000820E236E010E246EEE0E256E8B0E266EBA
:10488000010E276E93EC1BF0820E0001DF6F010E0C
:10489000E06FEE0EE16F8B0EE26F010EE36FFEEC48
:1048A0000FF0820E236E010E246EEE0E256E8B0E1F
:1048B000266E010E276EB6EC12F036EF24F000EFF4
:1048C00000F0000E066E04BE6AEF24F068EF24F0DC
:1048D00070EF24F0036C041ED8B0042A010E066E9B
:1048E00002BE77EF24F075EF24F07DEF24F0016C29
:1048F000021ED8B0022A010E061A000E086E000E23
:10490000076E03500410D8B488EF24F08AEF24F027
:10491000B2EF24F0010E056E92EF24F0D89003362A
:104920000436052A04AE97EF24F099EF24F08EEFB9
:1049300024F0D890073608360350015C0450025822
:10494000D8A0A5EF24F0A7EF24F0ACEF24F003509B
:10495000015E0450025A0780D89004320332052EBB
:1049600099EF24F00650D8B4B8EF24F0BAEF24F051
:10497000BEEF24F0076C081ED8B0082A07C001F06B
:1049800008C002F012008EB4C8EF24F0CAEF24F081
:10499000FAEF24F0110E046E3C0E036ECB0EE82EDF
:1049A000FED7032EFCD7042EFAD7000001C0D9FF92
:1049B00002C0DAFFDECF03F0DDCF04F0010E0326E4
:1049C000000E042201C0D9FF02C0DAFF03C0DEFFDF
:1049D00004C0DDFF7C8E110E046E3C0E036ECB0E08
:1049E000E82EFED7032EFCD7042EFAD700007C9EBB
:1049F0001BEF25F08EB6FFEF24F001EF25F0C3EF9B
:104A000024F0110E046E3C0E036ECB0EE82EFED782
:104A1000032EFCD7042EFAD700008086110E046EF8
:104A20003C0E036ECB0EE82EFED7032EFCD7042ED1
:104A3000FAD7000080961200000E0114096E000ED5
:104A400002140A6E800E03140B6E7F0E04140C6E9B
:104A500009500A100B100C10D8A431EF25F033EFD9
:104A600025F03BEF25F0000E016E000E026E000EE9
:104A7000036E000E046E000E0514096E000E06147F
:104A80000A6E800E07140B6E7F0E08140C6E095010
:104A90000A100B100C10D8A450EF25F052EF25F09F
:104AA0005AEF25F0000E056E000E066E000E076E22
:104AB000000E086E055001180FE1065002180CE1B7
:104AC0000750031809E108500418D8B46AEF25F01C
:104AD0006CEF25F06FEF25F0D89070EF25F0D880BF
:104AE000120085948598839E879C7D947D987B9EFB
:104AF0007F9C050E0E01746F060E766F070E696FB0
:104B0000080E886FBD508F0B4009BD6EE00EBE16BB
:104B1000BF50F00B0109BF6E01C0BCFFBD8E000E7F
:104B2000AA6E000EA66E000E0F01256F000E216FFB
:104B3000FC0EAD16F30EAD16CF0EAD163F0EAD1634
:104B4000AB88AB50F00B0C09AB6EAB8EA788A750AF
:104B5000F00B0C09A76EA78E26892651F00B0C09C5
:104B6000266F268F22892251F00B0C09226F228F8B
:104B7000889680961200000E0C6E000E0B6E095087
:104B80000A10D8B4C6EF25F0C8EF25F0F0EF25F0F5
:104B9000010E0D6ED0EF25F0D89009360A360D2A99
:104BA0000AAED5EF25F0D7EF25F0CCEF25F0D89061
:104BB0000B360C360950075C0A500858D8A0E3EFB2
:104BC00025F0E5EF25F0EAEF25F00950075E0A50E1
:104BD000085A0B80D8900A3209320D2ED7EF25F0F3
:104BE0000BC007F00CC008F012007C8E090E026E9C
:104BF0001E0E016EE40EE82EFED7012EFCD7022E0B
:104C0000FAD700D07C9E090E026E1E0E016EE40ED5
:104C1000E82EFED7012EFCD7022EFAD700D08EB494
:104C200014EF26F016EF26F0F5EF25F0110E026EC8
:104C30003C0E016ECB0EE82EFED7012EFCD7022EC5
:104C4000FAD700007C9E1200B4EC27F0520EA9ECBB
:104C500027F0B60EA9EC27F0B9EC27F0530EA9EC1B
:104C600027F0010EE7EC26F0076E07500A6E0B6A7C
:104C7000000EE7EC26F0076E0750096E086A0A502E
:104C800008100A6E0B5009100B6EAFEC27F00AC02B
:104C900005F00BC006F01200B4EC27F0520EA9ECA0
:104CA00027F0B80EA9EC27F0B9EC27F0530EA9ECC9
:104CB00027F0010EE7EC26F0076E07500A6E0B6A2C
:104CC000000EE7EC26F0076E0750096E086A0A50DE
:104CD00008100A6E0B5009100B6EAFEC27F00AC0DB
:104CE00005F00BC006F01200B4EC27F0520EA9EC50
:104CF00027F0B40EA9EC27F0B9EC27F0530EA9EC7D
:104D000027F0010EE7EC26F0076E07500A6E0B6ADB
:104D1000000EE7EC26F0076E0750096E086A0A508D
:104D200008100A6E0B5009100B6EAFEC27F00AC08A
:104D300005F00BC006F01200B4EC27F0520EA9ECFF
:104D400027F0BA0EA9EC27F0B9EC27F0530EA9EC26
:104D500027F0010EE7EC26F0076E07500A6E0B6A8B
:104D6000000EE7EC26F0076E0750096E086A0A503D
:104D700008100A6E0B5009100B6EAFEC27F00AC03A
:104D800005F00BC006F01200000E1E1A000E1F1ACE
:104D9000000E201A800E211A1AC001F01BC002F06A
:104DA0001CC003F01DC004F01EC005F01FC006F0BB
:104DB00020C007F021C008F051EC15F001C01AF036
:104DC00002C01BF003C01CF004C01DF01200036EF3
:104DD00072EC27F00E01DA8772EC27F0D5CE04F0E2
:104DE00072EC27F00350D8B4F8EF26F0FCEF26F071
:104DF000026A022AFDEF26F0026A023A02460E011A
:104E0000DA510218DF0B0218DA6FDA890450120047
:104E10005DEC27F0010E036E000E99EC27F03F0EBB
:104E2000056E550EE82EFED7052EFCD70000030EAA
:104E3000036E000E99EC27F0D50E036E010E99EC6F
:104E400027F087928198869E7F8279887E8E1200D5
:104E50007C0EF66E4F0EF76E000EF86E0900F5CF61
:104E6000F7F00900F5CFF8F00900F5CFF9F001EE01
:104E700000F0940EEE6AE806FDE100EEE6F0110E99
:104E8000EE6AE806FDE10001EEEF23F053EF27F0B4
:104E9000150E036EC60EE82EFED7032EFCD700D0EB
:104EA0000106D8A0020601500210D8A45AEF27F03C
:104EB0005CEF27F048EF27F012000E01D951F00BFC
:104EC0000809D96FD98B9F0ED66F848A848CA79BD3
:104ED000A79D1D0E1D6F1E0E1C6F1C0E6F6F1B0EEF
:104EE000706F12000E01D8B578EF27F07AEF27F037
:104EF00072EF27F0DACE01F01F0E0116D8A483EF6F
:104F000027F085EF27F072EF27F01200015003021F
:104F1000F3CF05F0F4CF06F001500402F35006265B
:104F200002500302F350062605C001F006C002F04D
:104F30001200046EB4EC27F0520EA9EC27F00450D6
:104F40008009A9EC27F00350A9EC27F0AFEC27F07B
:104F50001200026E72EC27F002C0D5FE120072EC55
:104F600027F00E01DA85120072EC27F00E01DA81CB
:0F4F7000120072EC27F00E01DA831200053207EF
:020000040030CA
:02000000AAFF55
:020004009FFF5C
:00000001FF
