:0400000007EF26F0F0
:100E0000000003EC25F005C00CF006C00DF00E6AE2
:100E10000F6A000E18EC1CF00CC0C1F00DC0C2F03F
:100E20000EC0C3F00FC0C4F02BEC25F005C00CF0D1
:100E300006C00DF00E6A0F6A000E18EC1CF00CC014
:100E4000C5F00DC0C6F00EC0C7F00FC0C8F07BECF7
:100E500025F005C00CF006C00DF00E6A0F6A000EFA
:100E600018EC1CF00CC0C9F00DC0CAF00EC0CBF0DD
:100E70000FC0CCF053EC25F005C00CF006C00DF00F
:100E80000E6A0F6A000E18EC1CF00CC0CDF00DC0FD
:100E9000CEF00EC0CFF00FC0D0F0C1C06AF0C2C01B
:100EA0006BF0C3C06CF0C4C06DF0C5C06EF0C6C0BE
:100EB0006FF0C7C070F0C8C071F0C9C072F0CAC08E
:100EC00073F0CBC074F0CCC075F0CDC076F0CEC05E
:100ED00077F0CFC078F0D0C079F0D30E00017A6FF0
:100EE000D70E7B6FDB0E7C6F1DEC0CF0000E00014B
:100EF000D26F000ED16F000E016E800E026EB10E29
:100F0000036E430E046ED3C005F0D4C006F0D5C006
:100F100007F0D6C008F052EC22F0D8B092EF07F0FC
:100F200094EF07F018EF08F0D3C001F0D4C002F03E
:100F3000D5C003F0D6C004F0000E056E000E066E9C
:100F4000B40E076E430E086E52EC22F0D8B0ABEF31
:100F500007F0ADEF07F018EF08F0000E016E000E7D
:100F6000026EAA0E036E420E046ED7C005F0D8C002
:100F700006F0D9C007F0DAC008F052EC22F0D8B081
:100F8000C4EF07F0C6EF07F018EF08F0D7C001F084
:100F9000D8C002F0D9C003F0DAC004F0000E056E2C
:100FA000000E066EB40E076E420E086E52EC22F072
:100FB000D8B0DDEF07F0DFEF07F018EF08F0000E14
:100FC000016E000E026EA00E036E420E046EDBC0B8
:100FD00005F0DCC006F0DDC007F0DEC008F052EC22
:100FE00022F0D8B0F6EF07F0F8EF07F018EF08F0AE
:100FF000DBC001F0DCC002F0DDC003F0DEC004F0B5
:10100000000E056E000E066EAA0E076E420E086EEA
:1010100052EC22F0D8B00FEF08F011EF08F018EF03
:1010200008F0000E0001D26F010ED16F18EF0CF026
:10103000000E016E000E026E860E036E420E046EEE
:10104000D3C005F0D4C006F0D5C007F0D6C008F074
:1010500052EC22F0D8B02FEF08F031EF08F0B5EFE6
:1010600008F0D3C001F0D4C002F0D5C003F0D6C060
:1010700004F0000E056E000E066E9E0E076E420E08
:10108000086E52EC22F0D8B048EF08F04AEF08F0B2
:10109000B5EF08F0000E016E000E026E480E036EF2
:1010A000420E046ED7C005F0D8C006F0D9C007F0D4
:1010B000DAC008F052EC22F0D8B061EF08F063EF2C
:1010C00008F0B5EF08F0D7C001F0D8C002F0D9C0E1
:1010D00003F0DAC004F0000E056E000E066E640E1A
:1010E000076E420E086E52EC22F0D8B07AEF08F08C
:1010F0007CEF08F0B5EF08F0000E016E000E026EF6
:10110000200E036E420E046EDBC005F0DCC006F05C
:10111000DDC007F0DEC008F052EC22F0D8B093EF4B
:1011200008F095EF08F0B5EF08F0DBC001F0DCC087
:1011300002F0DDC003F0DEC004F0000E056E000E0C
:10114000066E380E076E420E086E52EC22F0D8B0D2
:10115000ACEF08F0AEEF08F0B5EF08F0000E0001BC
:10116000D26F020ED16F18EF0CF0D7C001F0D8C0CB
:1011700002F0D9C003F0DAC004F0000E056E000ED4
:10118000066E200E076E410E086E52EC22F0D8B0AB
:10119000CCEF08F0CEEF08F007EF09F0000E016E7B
:1011A000000E026EF00E036E410E046EDBC005F001
:1011B000DCC006F0DDC007F0DEC008F052EC22F023
:1011C000D8B0E5EF08F0E7EF08F007EF09F0DBC073
:1011D00001F0DCC002F0DDC003F0DEC004F0000E60
:1011E000056E000E066E0C0E076E420E086E52EC77
:1011F00022F0D8B0FEEF08F000EF09F007EF09F099
:10120000000E0001D26F030ED16F18EF0CF0000E2C
:10121000016E000E026EA00E036E410E046ED3C06E
:1012200005F0D4C006F0D5C007F0D6C008F052ECE7
:1012300022F0D8B01EEF09F020EF09F0A4EF09F07A
:10124000D3C001F0D4C002F0D5C003F0D6C004F082
:10125000000E056E000E066EC80E076E410E086E7B
:1012600052EC22F0D8B037EF09F039EF09F0A4EFD3
:1012700009F0000E016E000E026E820E036E420E29
:10128000046ED7C005F0D8C006F0D9C007F0DAC0A8
:1012900008F052EC22F0D8B050EF09F052EF09F00C
:1012A000A4EF09F0D7C001F0D8C002F0D9C003F014
:1012B000DAC004F0000E056E000E066E8C0E076E8E
:1012C000420E086E52EC22F0D8B069EF09F06BEFD5
:1012D00009F0A4EF09F0000E016E000E026E580E28
:1012E000036E420E046EDBC005F0DCC006F0DDC00C
:1012F00007F0DEC008F052EC22F0D8B082EF09F01F
:1013000084EF09F0A4EF09F0DBC001F0DCC002F0CB
:10131000DDC003F0DEC004F0000E056E000E066EA8
:10132000640E076E420E086E52EC22F0D8B09BEFAE
:1013300009F09DEF09F0A4EF09F0000E0001D26F53
:10134000040ED16F18EF0CF0000E016E000E026E4D
:10135000500E036E410E046ED3C005F0D4C006F0EB
:10136000D5C007F0D6C008F052EC22F0D8B0BBEFE1
:1013700009F0BDEF09F041EF0AF0D3C001F0D4C08D
:1013800002F0D5C003F0D6C004F0000E056E000ECA
:10139000066E900E076E410E086E52EC22F0D8B029
:1013A000D4EF09F0D6EF09F041EF0AF0000E016E1C
:1013B000000E026E5C0E036E420E046ED7C005F086
:1013C000D8C006F0D9C007F0DAC008F052EC22F01D
:1013D000D8B0EDEF09F0EFEF09F041EF0AF0D7C018
:1013E00001F0D8C002F0D9C003F0DAC004F0000E5A
:1013F000056E000E066E700E076E420E086E52EC01
:1014000022F0D8B006EF0AF008EF0AF041EF0AF038
:10141000000E016E000E026E480E036E420E046E48
:10142000DBC005F0DCC006F0DDC007F0DEC008F070
:1014300052EC22F0D8B01FEF0AF021EF0AF041EF92
:101440000AF0DBC001F0DCC002F0DDC003F0DEC05A
:1014500004F0000E056E000E066E580E076E420E6A
:10146000086E52EC22F0D8B038EF0AF03AEF0AF0EA
:1014700041EF0AF0000E0001D26F050ED16F18EF98
:101480000CF0000E016E000E026EA00E036E400EF8
:10149000046ED3C005F0D4C006F0D5C007F0D6C0A6
:1014A00008F052EC22F0D8B058EF0AF05AEF0AF0E8
:1014B000DEEF0AF0D3C001F0D4C002F0D5C003F0D3
:1014C000D6C004F0000E056E000E066E200E076EEC
:1014D000410E086E52EC22F0D8B071EF0AF073EFB3
:1014E0000AF0DEEF0AF0000E016E000E026E8C0EA6
:1014F000036E420E046ED7C005F0D8C006F0D9C006
:1015000007F0DAC008F052EC22F0D8B08AEF0AF007
:101510008CEF0AF0DEEF0AF0D7C001F0D8C002F07D
:10152000D9C003F0DAC004F0000E056E000E066E9E
:10153000960E076E420E086E52EC22F0D8B0A3EF62
:101540000AF0A5EF0AF0DEEF0AF0000E016E000EC1
:10155000026E780E036E420E046EDBC005F0DCC036
:1015600006F0DDC007F0DEC008F052EC22F0D8B083
:10157000BCEF0AF0BEEF0AF0DEEF0AF0DBC001F0CC
:10158000DCC002F0DDC003F0DEC004F0000E056E2A
:10159000000E066E860E076E420E086E52EC22F0AA
:1015A000D8B0D5EF0AF0D7EF0AF0DEEF0AF0000E60
:1015B0000001D26F060ED16F18EF0CF0000E016E15
:1015C000000E026E940E036E420E046ED3C005F040
:1015D000D4C006F0D5C007F0D6C008F052EC22F017
:1015E000D8B0F5EF0AF0F7EF0AF07BEF0BF0D3C0BD
:1015F00001F0D4C002F0D5C003F0D6C004F0000E54
:10160000056E000E066EAA0E076E420E086E52ECB4
:1016100022F0D8B00EEF0BF010EF0BF07BEF0BF0D9
:10162000000E016E000E026EE00E036E410E046E9F
:10163000D7C005F0D8C006F0D9C007F0DAC008F06E
:1016400052EC22F0D8B027EF0BF029EF0BF07BEF34
:101650000BF0D7C001F0D8C002F0D9C003F0DAC057
:1016600004F0000E056E000E066E040E076E420EAC
:10167000086E52EC22F0D8B040EF0BF042EF0BF0C6
:101680007BEF0BF0000E016E000E026E140E036E67
:10169000420E046EDBC005F0DCC006F0DDC007F0D2
:1016A000DEC008F052EC22F0D8B059EF0BF05BEF3F
:1016B0000BF07BEF0BF0DBC001F0DCC002F0DDC013
:1016C00003F0DEC004F0000E056E000E066E280E5C
:1016D000076E420E086E52EC22F0D8B072EF0BF09B
:1016E00074EF0BF07BEF0BF0000E0001D26F070ED2
:1016F000D16F18EF0CF0000E016E000E026EB00EEE
:10170000036E410E046ED3C005F0D4C006F0D5C000
:1017100007F0D6C008F052EC22F0D8B092EF0BF0F0
:1017200094EF0BF018EF0CF0D3C001F0D4C002F02E
:10173000D5C003F0D6C004F0000E056E000E066E94
:10174000D80E076E410E086E52EC22F0D8B0ABEF07
:101750000BF0ADEF0BF018EF0CF0000E016E000E69
:10176000026E400E036E420E046ED7C005F0D8C064
:1017700006F0D9C007F0DAC008F052EC22F0D8B079
:10178000C4EF0BF0C6EF0BF018EF0CF0D7C001F070
:10179000D8C002F0D9C003F0DAC004F0000E056E24
:1017A000000E066E540E076E420E086E52EC22F0CA
:1017B000D8B0DDEF0BF0DFEF0BF018EF0CF0000E00
:1017C000016E000E026E340E036E420E046EDBC01C
:1017D00005F0DCC006F0DDC007F0DEC008F052EC1A
:1017E00022F0D8B0F6EF0BF0F8EF0BF018EF0CF09A
:1017F000DBC001F0DCC002F0DDC003F0DEC004F0AD
:10180000000E056E000E066E480E076E420E086E44
:1018100052EC22F0D8B00FEF0CF011EF0CF018EFF3
:101820000CF0000E0001D26F080ED16F18EF0CF013
:10183000D1C05CF0D2C05DF012006AC022F06BC073
:1018400023F06CC024F06DC025F0000E266EFF0E54
:10185000276E7F0E286E470E296EF8EC18F022C016
:10186000B5F023C0B6F024C0B7F025C0B8F06EC004
:1018700022F06FC023F070C024F071C025F0000E7C
:10188000266EFF0E276E7F0E286E470E296EF8EC2F
:1018900018F022C0B9F023C0BAF024C0BBF025C0B4
:1018A000BCF072C022F073C023F074C024F075C085
:1018B00025F0000E266EFF0E276E7F0E286E470E57
:1018C000296EF8EC18F022C0BDF023C0BEF024C091
:1018D000BFF025C0C0F0000E266EFF0E276E7F0EF3
:1018E000286E470E296E76C022F077C023F078C0AC
:1018F00024F079C025F0F8EC18F022C081F023C064
:1019000082F024C083F025C084F0000E226E000E09
:10191000236E800E246E3F0E256E81C026F082C09D
:1019200027F083C028F084C029F0F8EC18F022C01A
:101930007DF023C07EF024C07FF025C080F0B9C0C8
:1019400001F0BAC002F0BBC003F0BCC004F0B5C0E7
:1019500005F0B6C006F0B7C007F0B8C008F052EC0A
:1019600022F0D8A0B6EF0CF0B8EF0CF0EDEF0CF0D1
:10197000BDC001F0BEC002F0BFC003F0C0C004F0A3
:10198000B9C005F0BAC006F0BBC007F0BCC008F093
:1019900052EC22F0D8A0CFEF0CF0D1EF0CF0DBEF3F
:1019A0000CF0BDC091F0BEC092F0BFC093F0C0C0BB
:1019B00094F0E3EF0CF0B9C091F0BAC092F0BBC064
:1019C00093F0BCC094F091C0B1F092C0B2F093C05B
:1019D000B3F094C0B4F020EF0DF0BDC001F0BEC074
:1019E00002F0BFC003F0C0C004F0B5C005F0B6C03F
:1019F00006F0B7C007F0B8C008F052EC22F0D8A04B
:101A000004EF0DF006EF0DF010EF0DF0BDC095F0F6
:101A1000BEC096F0BFC097F0C0C098F018EF0DF0B0
:101A2000B5C095F0B6C096F0B7C097F0B8C098F0C2
:101A300095C0B1F096C0B2F097C0B3F098C0B4F0C2
:101A4000B5C001F0B6C002F0B7C003F0B8C004F0F2
:101A5000B9C005F0BAC006F0BBC007F0BCC008F0C2
:101A600052EC22F0D8A037EF0DF039EF0DF06EEF09
:101A70000DF0B9C001F0BAC002F0BBC003F0BCC0A9
:101A800004F0BDC005F0BEC006F0BFC007F0C0C086
:101A900008F052EC22F0D8A050EF0DF052EF0DF00C
:101AA0005CEF0DF0BDC09DF0BEC09EF0BFC09FF0CA
:101AB000C0C0A0F064EF0DF0B9C09DF0BAC09EF0B8
:101AC000BBC09FF0BCC0A0F09DC099F09EC09AF032
:101AD0009FC09BF0A0C09CF0A1EF0DF0B5C001F03D
:101AE000B6C002F0B7C003F0B8C004F0BDC005F046
:101AF000BEC006F0BFC007F0C0C008F052EC22F034
:101B0000D8A085EF0DF087EF0DF091EF0DF0BDC07F
:101B1000A1F0BEC0A2F0BFC0A3F0C0C0A4F099EF76
:101B20000DF0B5C0A1F0B6C0A2F0B7C0A3F0B8C028
:101B3000A4F0A1C099F0A2C09AF0A3C09BF0A4C0E9
:101B40009CF0B1C01AF0B2C01BF0B3C01CF0B4C01E
:101B50001DF099C01EF09AC01FF09BC020F09CC0E1
:101B600021F0A3EC25F01AC0ADF01BC0AEF01CC0F4
:101B7000AFF01DC0B0F0ADC001F0AEC002F0AFC01C
:101B800003F0B0C004F0000E056E000E066E000EED
:101B9000076E000E086EFBEC23F0D8A0D2EF0DF01C
:101BA000D4EF0DF0DFEF0DF0000E0001A96F000E75
:101BB000AA6F000EAB6F000EAC6F40EF0FF0B1C01C
:101BC00001F0B2C002F0B3C003F0B4C004F0B5C07D
:101BD00005F0B6C006F0B7C007F0B8C008F0FBECDF
:101BE00023F0D8A0F6EF0DF0F8EF0DF05AEF0EF05D
:101BF000ADC026F0AEC027F0AFC028F0B0C029F0CD
:101C0000BDC01EF0BEC01FF0BFC020F0C0C021F09C
:101C1000B9C01AF0BAC01BF0BBC01CF0BCC01DF0AC
:101C2000A3EC25F01AC022F01BC023F01CC024F046
:101C30001DC025F0F8EC18F022C085F023C086F016
:101C400024C087F025C088F0000E586E000E596E33
:101C5000C00E5A6E400E5B6E85C054F086C055F0C3
:101C600087C056F088C057F043EC21F054C089F08B
:101C700055C08AF056C08BF057C08CF089C03BF03D
:101C80008AC03CF08BC03DF08CC03EF0000E3F6E31
:101C9000000E406E700E416E420E426ED8EC14F093
:101CA0003BC0A9F03CC0AAF03DC0ABF03EC0ACF0D8
:101CB00040EF0FF0B1C001F0B2C002F0B3C003F0CA
:101CC000B4C004F0B9C005F0BAC006F0BBC007F05C
:101CD000BCC008F0FBEC23F0D8A071EF0EF073EF5E
:101CE0000EF0CDEF0EF0ADC026F0AEC027F0AFC0C5
:101CF00028F0B0C029F0B5C01EF0B6C01FF0B7C0C4
:101D000020F0B8C021F0BDC01AF0BEC01BF0BFC0AB
:101D10001CF0C0C01DF0A3EC25F01AC022F01BC0BF
:101D200023F01CC024F01DC025F0F8EC18F022C0F0
:101D3000A5F023C0A6F024C0A7F025C0A8F0000E8F
:101D4000056E000E066E000E076E400E086EA5C0F2
:101D500001F0A6C002F0A7C003F0A8C004F078EC20
:101D600012F001C03BF002C03CF003C03DF004C0E3
:101D70003EF0000E3F6E000E406E700E416E420E41
:101D8000426ED8EC14F03BC0A9F03CC0AAF03DC0B4
:101D9000ABF03EC0ACF040EF0FF0B1C001F0B2C00C
:101DA00002F0B3C003F0B4C004F0BDC005F0BEC083
:101DB00006F0BFC007F0C0C008F0FBEC23F0D8A0CD
:101DC000E4EF0EF0E6EF0EF040EF0FF0ADC026F0BE
:101DD000AEC027F0AFC028F0B0C029F0B9C01EF0E7
:101DE000BAC01FF0BBC020F0BCC021F0B5C01AF0D3
:101DF000B6C01BF0B7C01CF0B8C01DF0A3EC25F0B6
:101E00001AC022F01BC023F01CC024F01DC025F016
:101E1000F8EC18F022C0A5F023C0A6F024C0A7F06B
:101E200025C0A8F0000E056E000E066E800E076E2F
:101E3000400E086EA5C001F0A6C002F0A7C003F0D6
:101E4000A8C004F078EC12F001C03BF002C03CF0F6
:101E500003C03DF004C03EF0000E3F6E000E406E29
:101E6000700E416E420E426ED8EC14F03BC0A9F0E9
:101E70003CC0AAF03DC0ABF03EC0ACF040EF0FF06C
:101E80000001ACBF48EF0FF046EF0FF062EF0FF02C
:101E9000A9C001F0AAC002F0ABC003F0ACC004F0CE
:101EA000000E056E000E066EB40E076E430E086E31
:101EB00078EC12F001C0A9F002C0AAF003C0ABF0A8
:101EC00004C0ACF000017A51D96EDA6AA9C0DEFF15
:101ED000AAC0DEFFABC0DEFFACC0DEFFB1C001F0C8
:101EE000B2C002F0B3C003F0B4C004F0000E056E3F
:101EF000000E066E000E076E000E086EFBEC23F05F
:101F0000D8A085EF0FF087EF0FF095EF0FF00001ED
:101F10007B51D96EDA6A000EDE6E000EDE6E000EA8
:101F2000DE6E000EDD6EC5EF0FF0B1C026F0B2C060
:101F300027F0B3C028F0B4C029F0ADC022F0AEC085
:101F400023F0AFC024F0B0C025F0F8EC18F022C0A8
:101F50003BF023C03CF024C03DF025C03EF0000E15
:101F60003F6E000E406EC80E416E420E426ED8ECBF
:101F700014F000017B51D96EDA6A3BC0DEFF3CC031
:101F8000DEFF3DC0DEFF3EC0DEFF000E3F6E000EF6
:101F9000406EC80E416E420E426EB1C03BF0B2C000
:101FA0003CF0B3C03DF0B4C03EF0D8EC14F03BC000
:101FB0008DF03CC08EF03DC08FF03EC090F08DC0E3
:101FC0003BF08EC03CF08FC03DF090C03EF07DC035
:101FD0003FF07EC040F07FC041F080C042F0D8ECBE
:101FE00014F000017C51D96EDA6A3BC0DEFF3CC0C0
:101FF000DEFF3DC0DEFF3EC0DEFF1200000E2E6E93
:10200000320E2D6E3C0E2D24D96E010E2E20DA6E6E
:102010000A0EDF640EEF10F010EF10F052EF10F028
:102020003C0E2D24D96E010E2E20DA6EDF50F60FF5
:10203000286E000E2A6E000E296E2EEF10F023C0BF
:1020400013F024C014F020EE05F02150D9262250C0
:10205000DA22DF50F2EC1CF0294A2A2AFF0E28244B
:10206000256E266AFF0E26222550295C2A50800AFA
:10207000276E2650800A2758D8A041EF10F043EF72
:1020800010F01FEF10F023C013F024C014F020EE66
:1020900007F02150D9262250DA22DF50F2EC1CF052
:1020A0004FEF12F03C0E2D24D96E010E2E20DA6E69
:1020B000DE04D8A45EEF10F060EF10F07CEF10F0BB
:1020C00023C013F024C014F020EE02F02150D926D2
:1020D0002250DA22DF5071EC1EF023C013F024C02E
:1020E00014F020EE06F02150D9262250DA22DF50DB
:1020F00030EC1FF04FEF12F03C0E2D24D96E010E84
:102100002E20DA6E020EDE18D8A489EF10F08BEFC5
:1021100010F0A7EF10F023C013F024C014F020EE4D
:1021200001F02150D9262250DA22DF50B2EC1DF006
:1021300023C013F024C014F020EE06F02150D9265D
:102140002250DA22DF5030EC1FF04FEF12F03C0E3D
:102150002D24D96E010E2E20DA6E030EDE18D8A4BF
:10216000B4EF10F0B6EF10F0D2EF10F023C013F080
:1021700024C014F020EE01F02150D9262250DA229A
:10218000DF50B2EC1DF023C013F024C014F020EE99
:1021900001F02150D9262250DA22DF50B2EC1DF096
:1021A0004FEF12F03C0E2D24D96E010E2E20DA6E68
:1021B000040EDE18D8A4DFEF10F0E1EF10F055EFB9
:1021C00011F03C0E0001E625D96EDA6A010EDA2222
:1021D000E3C0DFFFE62B23C013F024C014F020EE91
:1021E00001F02150D9262250DA22DF50B2EC1DF046
:1021F00023C013F024C014F020EE05F02150D9269E
:102200002250DA22DF50F2EC1CF023C013F024C07D
:1022100014F020EE05F02150D9262250DA22DF50AA
:10222000F2EC1CF023C013F024C014F020EE08F0F0
:102230002150D9262250DA22DF5030EC1FF023C083
:1022400013F024C014F020EE01F02150D9262250C2
:10225000DA22DF50B2EC1DF023C013F024C014F0DA
:1022600020EE01F02150D9262250DA22DF50B2ECC4
:102270001DF023C013F024C014F020EE06F021500E
:10228000D9262250DA22DF5030EC1FF023C013F0A1
:1022900024C014F020EE07F02150D9262250DA2273
:1022A000DF50F2EC1CF04FEF12F03C0E2D24D96EF3
:1022B000010E2E20DA6E050EDE18D8A462EF11F0A2
:1022C00064EF11F0CEEF11F023C013F024C014F02E
:1022D00020EE01F02150D9262250DA22DF5071EC95
:1022E0001EF023C013F024C014F020EE05F021509E
:1022F000D9262250DA22DF50F2EC1CF023C013F072
:1023000024C014F020EE05F02150D9262250DA2204
:10231000DF50F2EC1CF023C013F024C014F020EEC8
:1023200008F02150D9262250DA22DF5030EC1FF07D
:1023300023C013F024C014F020EE01F02150D92660
:102340002250DA22DF50B2EC1DF023C013F024C07B
:1023500014F020EE01F02150D9262250DA22DF506D
:10236000B2EC1DF023C013F024C014F020EE06F0F0
:102370002150D9262250DA22DF5030EC1FF023C042
:1023800013F024C014F020EE07F02150D92622507B
:10239000DA22DF50F2EC1CF04FEF12F03C0E2D244D
:1023A000D96E010E2E20DA6E060EDE18D8A4DBEFF1
:1023B00011F0DDEF11F006EF12F023C013F024C08E
:1023C00014F020EE04F02150D9262250DA22DF50FA
:1023D00071EC1EF023C013F024C014F020EE06F0C0
:1023E0002150D9262250DA22DF5030EC1FF023C0D2
:1023F00013F024C014F020EE07F02150D92622500B
:10240000DA22DF50F2EC1CF04FEF12F03C0E2D24DC
:10241000D96E010E2E20DA6E070EDE18D8A413EF47
:1024200012F015EF12F03EEF12F023C013F024C0AB
:1024300014F020EE03F02150D9262250DA22DF508A
:10244000B2EC1DF023C013F024C014F020EE06F00F
:102450002150D9262250DA22DF5030EC1FF023C061
:1024600013F024C014F020EE07F02150D92622509A
:10247000DA22DF50F2EC1CF04FEF12F03C0E2D246C
:10248000D96E010E2E20DA6E080EDE18D8A44BEF9E
:1024900012F04DEF12F04FEF12F04FEF12F02D0649
:1024A000D8A02E062EBE59EF12F057EF12F002EF11
:1024B00010F0000E0001E66F000E2C6E000E2B6E69
:1024C0003C0E2B24D96E010E2C20DA6EDF6A2B4ACB
:1024D0002C2A2CBE75EF12F02C5009E1320E2B5C29
:1024E000D8A075EF12F077EF12F060EF12F0120043
:1024F0000450800B0D6E045004240F6E03AE83EF66
:1025000012F085EF12F086EF12F00F800F50D8B462
:102510008CEF12F08EEF12F0A3EF12F00F28D8A478
:1025200094EF12F096EF12F09EEF12F0000E016E93
:10253000000E026E000E036E000E046E038E000E7F
:10254000046EABEF12F0000E016E000E026E000E74
:10255000036E000E046E0850800B0E6E0D500E18A8
:10256000D8B4B5EF12F0B7EF12F0B8EF12F00D8C4F
:10257000085008240E6E07AEC0EF12F0C2EF12F042
:10258000C3EF12F00E800E50D8B4C9EF12F0CBEFAB
:1025900012F0E0EF12F00E28D8A4D1EF12F0D3EF32
:1025A00012F0DBEF12F0000E056E000E066E000E4C
:1025B000076E000E086E078E000E086EE8EF12F030
:1025C000000E056E000E066E000E076E000E086E01
:1025D0000F500E5CD8B0EFEF12F0F1EF12F018EFE1
:1025E00013F00DACF6EF12F0F8EF12F0FAEF12F074
:1025F000800E0D1A0FC010F00EC00FF010C00EF0BC
:1026000001C010F005C001F010C005F002C010F0CC
:1026100006C002F010C006F003C010F007C003F0BF
:1026200010C007F004C010F008C004F010C008F09B
:10263000000E106E0F500EC009F00A6A095E000EFF
:102640000A5A0ABE2DEF13F00A5009E11A0E095C6E
:10265000D8A02DEF13F02FEF13F066EF13F0015019
:10266000021003100410D8A438EF13F03BEF13F05E
:10267000010E3CEF13F0000E106E000E016E000E06
:10268000026E000E036E000E046E0EC00FF06FEFB0
:1026900013F010A04EEF13F050EF13F056EF13F0BD
:1026A000D89010300109106E58EF13F0D890103206
:1026B00001A05DEF13F05FEF13F060EF13F0108EE9
:1026C000043404320332023201320F2A0E500F5CFE
:1026D000D8A06DEF13F06FEF13F049EF13F00DBCBE
:1026E00074EF13F076EF13F0B6EF13F00F50D8A499
:1026F0007CEF13F07EEF13F088EF13F0000E016E05
:10270000000E026E000E036E000E046ED7EF14F082
:1027100005500126065002220750032208500422C9
:1027200004A095EF13F097EF13F043EF14F010A00F
:102730009CEF13F09EEF13F0A4EF13F0D89010303D
:102740000109106EA6EF13F0D890103201A0ABEF84
:1027500013F0ADEF13F0AEEF13F0108E043404322B
:102760000332023201320F2A43EF14F00550015CAC
:1027700006500258075003580450800A096E08504A
:10278000800A0958D8B0C7EF13F0C9EF13F0F4EF7F
:1027900013F00150055C096E025006580A6E035092
:1027A00007580B6E045008580C6EFF0E0924016E7A
:1027B000FF0E0A20026EFF0E0B20036EFF0E0C2090
:1027C000046E800E0D1A106C1050D8A4EAEF13F0AE
:1027D000ECEF13F0FCEF13F0010E0126000E0222C5
:1027E00003220422FCEF13F00550015E0650025A4A
:1027F0000750035A0850045A0150021003100410E5
:10280000D8A405EF14F007EF14F03CEF14F01050CB
:10281000D8A40DEF14F00FEF14F03CEF14F0000EFD
:10282000016E000E026E000E036E000E046ED7EFF6
:1028300014F0D890013602360336043610AE23EF7A
:1028400014F025EF14F026EF14F0018010A02BEF08
:1028500014F02DEF14F031EF14F0D880103633EF70
:1028600014F0D89010360F50D8B439EF14F03BEF75
:1028700014F03CEF14F00F0603AE41EF14F043EFF9
:1028800014F019EF14F0000E0E6E10AE4AEF14F0B3
:102890004CEF14F064EF14F010C009F07F0E09162D
:1028A000D8B455EF14F057EF14F05BEF14F0010EAD
:1028B0000E6E64EF14F001A060EF14F062EF14F0FC
:1028C00064EF14F057EF14F00E50D8B46AEF14F020
:1028D0006CEF14F097EF14F0010E0126000E0222A7
:1028E0000322042204A077EF14F079EF14F097EF9D
:1028F00014F001C009F002C00AF003C00BF004C0DC
:102900000CF00C340C320B320A32093209C001F0DF
:102910000AC002F00BC003F00CC004F00F28D8B4BA
:1029200094EF14F096EF14F097EF14F00F2A0F289D
:10293000D8B49DEF14F09FEF14F0A7EF14F00F50F0
:10294000D8A4A5EF14F0A7EF14F0B9EF14F0000E1F
:10295000016E000E026E000E036E000E046E0F502C
:10296000D8A4B5EF14F0B7EF14F0B9EF14F0000EDF
:102970000D6E0FA0BEEF14F0C0EF14F0C3EF14F013
:10298000038EC4EF14F0039ED8900F30046E0DAE8A
:10299000CCEF14F0CEEF14F0CFEF14F0048E01C0A2
:1029A00001F002C002F003C003F004C004F0120002
:1029B0003E50800B476E3E503E244D6E3DAEE3EFE1
:1029C00014F0E5EF14F0E6EF14F04D804D50D8B45C
:1029D000ECEF14F0EEEF14F001EF15F04D28D8A451
:1029E000F4EF14F0F6EF14F0FEEF14F0000E3B6E6F
:1029F000000E3C6E000E3D6E000E3E6E3D8E09EFE9
:102A000015F0000E3B6E000E3C6E000E3D6E000E8B
:102A10003E6E4250800B471A425042244C6E41AEEB
:102A200014EF15F016EF15F017EF15F04C804C5021
:102A3000D8B41DEF15F01FEF15F032EF15F04C284C
:102A4000D8A425EF15F027EF15F02FEF15F0000EA5
:102A50003F6E000E406E000E416E000E426E418EC3
:102A60003AEF15F0000E3F6E000E406E000E416E04
:102A7000000E426E4C50D8B440EF15F042EF15F006
:102A80004AEF15F04D50D8A448EF15F04AEF15F075
:102A900054EF15F0000E3B6E000E3C6E000E3D6EC6
:102AA000000E3E6EECEF16F041503B02F3CF52F0B9
:102AB000F4CF53F05250486E496A4A6A4B6A5350F9
:102AC0004E6E4F6A506A516A40503C02F3CF52F04A
:102AD000F4CF53F052504826000E49224A224B228E
:102AE00053504E26000E4F22502251223F503D029D
:102AF000F3CF52F0F4CF53F052504826000E492243
:102B00004A224B2253504E26000E4F225022512271
:102B10004AC04BF049C04AF048C049F0486A3F50AB
:102B20003C02F3CF52F0F4CF53F0525048265350AA
:102B30004922000E4A22000E4B2240503B02F3CFA6
:102B400052F0F4CF53F05250482653504922000E11
:102B50004A22000E4B224AC04BF049C04AF048C0FE
:102B600049F0486A3F503B02F3CF52F0F4CF53F0A4
:102B70005250482653504922000E4A22000E4B2242
:102B800041503C02F3CF52F0F4CF53F052504E2656
:102B900053504F22000E5022000E512240503D0251
:102BA000F3CF52F0F4CF53F052504E2653504F22F1
:102BB000000E5022000E512241503D02F3CF52F040
:102BC000F4CF53F05250436E5350446E456A466AF8
:102BD00045C046F044C045F043C044F0436A43500A
:102BE0004E2644504F22455050224650512248C054
:102BF00043F049C044F04AC045F04BC046F0190EBE
:102C000007EF16F0D8904632453244324332E82E70
:102C100002EF16F043504E2644504F2245505022AA
:102C2000465051224AC04BF049C04AF048C049F0D2
:102C3000486A4C504DC043F0446A4326000E44227B
:102C4000820E4324526EFF0E4420536E3DEF16F069
:102C5000D8904E364F36503651364BAE32EF16F0D6
:102C600034EF16F035EF16F04E80D89048364936DE
:102C70004A364B365206D8A0530650AE42EF16F0F5
:102C800044EF16F028EF16F0000E4C6E4BAE4BEFF3
:102C900016F04DEF16F071EF16F0FF0E4814436E6C
:102CA000FF0E4914446EFF0E4A14456E7F0E4B14FE
:102CB000466E4350441045104610D8B462EF16F0EB
:102CC00064EF16F068EF16F0010E4C6E71EF16F01F
:102CD0004EA06DEF16F06FEF16F071EF16F064EF87
:102CE00016F04C50D8B477EF16F079EF16F09DEF50
:102CF00016F0010E4E26000E4F225022512251A0F6
:102D000084EF16F086EF16F09DEF16F04EC043F0FC
:102D10004FC044F050C045F051C046F046344632F2
:102D200045324432433243C04EF044C04FF045C0B8
:102D300050F046C051F0524A532A53BEA8EF16F045
:102D4000535008E15228D8A0A8EF16F0AAEF16F0C9
:102D5000B4EF16F0000E4E6E000E4F6E800E506EE9
:102D60007F0E516EE2EF16F053BEC1EF16F05350D6
:102D700006E15204D8B0BFEF16F0C1EF16F0CDEF68
:102D800016F0000E4E6E000E4F6E000E506E000ECE
:102D9000516E000E476EE2EF16F052C04DF0FF0E7E
:102DA0004E16FF0E4F167F0E5016000E51164DA0F8
:102DB000DCEF16F0DEEF16F0DFEF16F0508ED89055
:102DC0004D30516E475051124EC03BF04FC03CF059
:102DD00050C03DF051C03EF01200E7EC25F0290E46
:102DE0005F6E960E5E6E7F0EE82EFED75E2EFCD7CF
:102DF0005F2EFAD7000080867C8EE1C013F0E2C01F
:102E000014F0000120EE05F0DF51D926E051DA225E
:102E1000DF50F2EC1CF00001E52B01EC07F05CC088
:102E2000E3F05DC0E4F080967C9E0001E351E41184
:102E3000D8B41DEF17F01FEF17F0EFEF16F03C0EB0
:102E4000E625D96EDA6A010EDA22E5510A0FDF6E45
:102E5000000EE56FE62BE305E411D8A432EF17F07E
:102E600034EF17F05AEF17F03C0EE625D96EDA6A08
:102E7000010EDA22E3C0DFFFE62BE1C013F0E2C06F
:102E800014F020EE08F0DF51D926E051DA22DF50AD
:102E900030EC1FF0E1C013F0E2C014F0000120EEAE
:102EA00001F0DF51D926E051DA22DF50B2EC1DF0FB
:102EB000EFEF16F0020EE319E411D8A462EF17F059
:102EC00064EF17F08AEF17F03C0EE625D96EDA6A48
:102ED000010EDA22E3C0DFFFE62BE1C013F0E2C00F
:102EE00014F020EE08F0DF51D926E051DA22DF504D
:102EF00030EC1FF0E1C013F0E2C014F0000120EE4E
:102F000002F0DF51D926E051DA22DF5071EC1EF0D9
:102F1000EFEF16F0030EE319E411D8A492EF17F0C7
:102F200094EF17F0C8EF17F03C0EE625D96EDA6A79
:102F3000010EDA22E3C0DFFFE62BE1C013F0E2C0AE
:102F400014F020EE08F0DF51D926E051DA22DF50EC
:102F500030EC1FF0E1C013F0E2C014F0000120EEED
:102F600001F0DF51D926E051DA22DF50B2EC1DF03A
:102F7000E1C013F0E2C014F0000120EE01F0DF51D7
:102F8000D926E051DA22DF50B2EC1DF0EFEF16F057
:102F9000040EE319E411D8A4D0EF17F0D2EF17F024
:102FA00006EF18F03C0EE625D96EDA6A010EDA2239
:102FB000E3C0DFFFE62BE1C013F0E2C014F020EE27
:102FC00008F0DF51D926E051DA22DF5030EC1FF053
:102FD000E1C013F0E2C014F0000120EE06F0DF5172
:102FE000D926E051DA22DF5030EC1FF0E1C013F0B7
:102FF000E2C014F0000120EE01F0DF51D926E051CB
:10300000DA22DF50B2EC1DF0EFEF16F0050EE319F7
:10301000E411D8A40EEF18F010EF18F044EF18F0F8
:103020003C0EE625D96EDA6A010EDA22E3C0DFFF34
:10303000E62BE1C013F0E2C014F020EE08F0DF51FF
:10304000D926E051DA22DF5030EC1FF0E1C013F056
:10305000E2C014F0000120EE06F0DF51D926E05165
:10306000DA22DF5030EC1FF0E1C013F0E2C014F0C0
:10307000000120EE02F0DF51D926E051DA22DF50C4
:1030800071EC1EF0EFEF16F0060EE319E411D8A470
:103090004CEF18F04EEF18F074EF18F03C0EE625E8
:1030A000D96EDA6A010EDA22E3C0DFFFE62BE1C057
:1030B00013F0E2C014F020EE08F0DF51D926E05101
:1030C000DA22DF5030EC1FF0E1C013F0E2C014F060
:1030D000000120EE03F0DF51D926E051DA22DF5063
:1030E000B2EC1DF0EFEF16F0070EE319E411D8A4CF
:1030F0007CEF18F07EEF18F0A4EF18F03C0EE625F8
:10310000D96EDA6A010EDA22E3C0DFFFE62BE1C0F6
:1031100013F0E2C014F020EE08F0DF51D926E051A0
:10312000DA22DF5030EC1FF0E1C013F0E2C014F0FF
:10313000000120EE04F0DF51D926E051DA22DF5001
:1031400071EC1EF0EFEF16F0080EE319E411D8A4AD
:10315000ACEF18F0AEEF18F0F5EF18F0E1C013F097
:10316000E2C014F020EE08F0DF51D926E051DA2257
:10317000DF5030EC1FF0E1C013F0E2C014F00001AA
:1031800020EE01F0DF51D926E051DA22DF50B2EC17
:103190001DF0E1C013F0E2C014F0000120EE01F0D8
:1031A000DF51D926E051DA22DF50B2EC1DF0E1C048
:1031B00013F0E2C014F0000120EE06F0DF51D92632
:1031C000E051DA22DF5030EC1FF0E1C013F0E2C032
:1031D00014F0000120EE07F0DF51D926E051DA2289
:1031E000DF50F2EC1CF0F7EF18F0EFEF16F01200E2
:1031F0002550800B326E25502524396E24AE03EF06
:1032000019F005EF19F006EF19F039803950D8B4EC
:103210000CEF19F00EEF19F023EF19F03928D8A4AC
:1032200014EF19F016EF19F01EEF19F0000E226ED0
:10323000000E236E000E246E000E256E248E000EEE
:10324000256E2BEF19F0000E226E000E236E000E7D
:10325000246E000E256E2950800B321A2950292425
:103260003A6E28AE36EF19F038EF19F039EF19F051
:103270003A803A50D8B43FEF19F041EF19F056EFC9
:1032800019F03A28D8A447EF19F049EF19F051EF97
:1032900019F0000E266E000E276E000E286E000E2E
:1032A000296E288E000E296E5EEF19F0000E266E34
:1032B000000E276E000E286E000E296E2650271075
:1032C00028102910D8A467EF19F069EF19F081EFE1
:1032D00019F0000E226E000E236E000E246E000EFA
:1032E000256E800E24127F0E25123250251222C028
:1032F00022F023C023F024C024F025C025F0C4EF21
:103300001AF03950D8A487EF19F089EF19F093EF2C
:1033100019F0000E226E000E236E000E246E000EB9
:10332000256EC4EF1AF03A5039C02AF02B6A2A5E93
:10333000000E2B5A7F0E2A24336E000E2B20346E83
:1033400022C02EF023C02FF024C030F025C031F071
:10335000000E226E000E236E000E246E000E256EEF
:10336000000E356E000E366E000E376E000E386E93
:10337000000E3A6EF4EF19F03A50D8B4C2EF19F0DB
:10338000C4EF19F0DBEF19F0D8902E362F36303617
:103390003136D890223623362436253638AED3EF50
:1033A00019F0D5EF19F0D6EF19F02280D890353604
:1033B00036363736383626502E5C27502F58285050
:1033C000305829503158D8A0E8EF19F0EAEF19F039
:1033D000F3EF19F0388C26502E5E27502F5A2850C4
:1033E000305A2950315A3A2A190E3A64FAEF19F034
:1033F000FCEF19F0BCEF19F02E502F1030103110E7
:10340000D8B405EF1AF007EF1AF01FEF1AF0358065
:103410001FEF1AF0D890223623362436253638AEE0
:1034200014EF1AF016EF1AF017EF1AF02280D89066
:1034300035363636373638363306D8A0340624AE1D
:1034400024EF1AF026EF1AF00AEF1AF0000E3A6E87
:1034500038AE2DEF1AF02FEF1AF053EF1AF0FF0EDF
:1034600035142A6EFF0E36142B6EFF0E37142C6E99
:103470007F0E38142D6E2A502B102C102D10D8B41E
:1034800044EF1AF046EF1AF04AEF1AF0010E3A6EC6
:1034900053EF1AF022A04FEF1AF051EF1AF053EF4A
:1034A0001AF046EF1AF03A50D8B459EF1AF05BEF21
:1034B0001AF07FEF1AF0010E2226000E232224229A
:1034C000252225A066EF1AF068EF1AF07FEF1AF0B8
:1034D00022C02AF023C02BF024C02CF025C02DF0F0
:1034E0002D342D322C322B322A322AC022F02BC01E
:1034F00023F02CC024F02DC025F0334A342A34BEEA
:103500008AEF1AF0345008E13328D8A08AEF1AF075
:103510008CEF1AF097EF1AF0000E346E3368000E3D
:10352000226E000E236E000E246E000E256E34BE39
:10353000A4EF1AF0345006E13304D8B0A2EF1AF029
:10354000A4EF1AF0B2EF1AF0000E346E000E336ED4
:10355000000E226E000E236E000E246E000E256EED
:10356000000E326E33C039F039A0B9EF1AF0BBEF5C
:103570001AF0BEEF1AF0248EBFEF1AF0249ED890F6
:103580003930256E75EF19F0120021C0D9FF22C025
:10359000DAFFDE04D8A4CFEF1AF0D1EF1AF0ECEF87
:1035A0001AF0010E2124016E000E2220026EEEECB4
:1035B0001FF023C013F024C014F020EE01F02150BE
:1035C000D9262250DA22DF50B2EC1DF021C001F0E2
:1035D00022C002F0A2EC23F021C0D9FF22C0DAFF02
:1035E000020EDE18D8A4F7EF1AF0F9EF1AF014EF74
:1035F0001BF0020E2124016E000E2220026EEEEC62
:103600001FF023C013F024C014F020EE02F021506C
:10361000D9262250DA22DF5071EC1EF021C001F0D1
:1036200022C002F0A2EC23F021C0D9FF22C0DAFFB1
:10363000030EDE18D8A41FEF1BF021EF1BF03CEFA8
:103640001BF0030E2124016E000E2220026EEEEC10
:103650001FF023C013F024C014F020EE03F021501B
:10366000D9262250DA22DF50B2EC1DF021C001F041
:1036700022C002F0A2EC23F021C0D9FF22C0DAFF61
:10368000040EDE18D8A447EF1BF049EF1BF064EFDF
:103690001BF0040E2124016E000E2220026EEEECBF
:1036A0001FF023C013F024C014F020EE04F02150CA
:1036B000D9262250DA22DF5071EC1EF021C001F031
:1036C00022C002F0A2EC23F021C0D9FF22C0DAFF11
:1036D000050EDE18D8A46FEF1BF071EF1BF08CEF16
:1036E0001BF0050E2124016E000E2220026EEEEC6E
:1036F0001FF023C013F024C014F020EE05F0215079
:10370000D9262250DA22DF50F2EC1CF021C001F061
:1037100022C002F0A2EC23F021C0D9FF22C0DAFFC0
:10372000060EDE18D8A497EF1BF099EF1BF0B4EF4C
:103730001BF0060E2124016E000E2220026EEEEC1C
:103740001FF023C013F024C014F020EE06F0215027
:10375000D9262250DA22DF5030EC1FF021C001F0D0
:1037600022C002F0A2EC23F021C0D9FF22C0DAFF70
:10377000070EDE18D8A4BFEF1BF0C1EF1BF0DCEF83
:103780001BF0070E2124016E000E2220026EEEECCB
:103790001FF023C013F024C014F020EE07F02150D6
:1037A000D9262250DA22DF50F2EC1CF021C001F0C1
:1037B00022C002F0A2EC23F021C0D9FF22C0DAFF20
:1037C000080EDE18D8A4E7EF1BF0E9EF1BF004EFBA
:1037D0001CF0080E2124016E000E2220026EEEEC79
:1037E0001FF023C013F024C014F020EE08F0215085
:1037F000D9262250DA22DF5030EC1FF021C001F030
:1038000022C002F0A2EC23F021C0D9FF22C0DAFFCF
:10381000090EDE18D8A40FEF1CF011EF1CF0C5EF55
:103820001AF021C0D9FF22C0DAFF010EDF6E1200AC
:10383000146E1450D8B41FEF1CF021EF1CF043EFAE
:103840001CF00FBE28EF1CF026EF1CF043EF1CF01D
:103850000CC010F00DC011F00EC012F00FC013F02C
:10386000101E111E121E131E102A000E11221222EB
:10387000132210C016F011C017F012C018F013C0B8
:1038800019F04BEF1CF00CC016F00DC017F00EC075
:1038900018F00FC019F00C500D100E100F10D8A416
:1038A00054EF1CF056EF1CF060EF1CF0000E0C6E95
:1038B000000E0D6E000E0E6E000E0F6EF1EF1CF07E
:1038C000960E156E6AEF1CF0152AD8901932183230
:1038D00017321632000E1614106E000E1714116EE9
:1038E000000E1814126EFE0E1914136E10501110E3
:1038F00012101310D8A47FEF1CF081EF1CF064EFBE
:103900001CF08FEF1CF0152A010E1626000E172250
:1039100018221922D8901932183217321632000E96
:103920001614106E000E1714116E000E1814126E7D
:10393000FF0E1914136E1050111012101310D8A48A
:10394000A4EF1CF0A6EF1CF083EF1CF0AEEF1CF010
:103950001506D890163617361836193618BEB3EF36
:103960001CF0B5EF1CF0BDEF1CF0020E1560BBEFB4
:103970001CF0BDEF1CF0A8EF1CF015B0C2EF1CF05E
:10398000C4EF1CF0C5EF1CF0189ED890153215C07E
:1039900010F0116A126A136A10C013F0126A116AE9
:1039A000106A10501612115017121250181213509C
:1039B00019121450D8B4DFEF1CF0E1EF1CF0E9EF5E
:1039C0001CF00FBEE8EF1CF0E6EF1CF0E9EF1CF076
:1039D000198E16C00CF017C00DF018C00EF019C0EB
:1039E0000FF01200186E1350D96EDA6A010ED92644
:1039F000010EDF6E1450D96EDA6A010ED926010E5F
:103A0000DF6E000E1E6E280E1D6E000E026E640E1E
:103A1000016E000E046E280E036E40EC23F001C010
:103A20001FF002C020F0000E1A6E000E196E3DEF5E
:103A30001DF01350D96EDA6A1350E16EE26AE75056
:103A4000156E1528DF6E1450D96EDA6A1450E16EC7
:103A5000E26AE750156E1528DF6E14C00EF099EC7F
:103A600020F013C00EF099EC20F01FC001F020C030
:103A700002F022EC26F0194A1A2A1D50195C1A503D
:103A8000800A156E1E50800A1558D8A04AEF1DF006
:103A90004CEF1DF019EF1DF0000E1C6E000E1B6E9A
:103AA0005BEF1DF0D00E156ECA0EE82EFED7152E58
:103AB000FCD71B4A1C2A1850156E166A15501B5C41
:103AC0001C50800A176E1650800A1758D8A06BEF4A
:103AD0001DF06DEF1DF052EF1DF09BEF1DF0145027
:103AE000D96EDA6ADF50D8B478EF1DF07AEF1DF0A6
:103AF0007EEF1DF01450D96EDA6ADF061350D96ECE
:103B0000DA6ADF50D8B487EF1DF089EF1DF08DEF32
:103B10001DF01350D96EDA6ADF0614C00EF099EC6E
:103B200020F013C00EF099EC20F01FC001F020C06F
:103B300002F022EC26F01350D96EDA6ADF50D8A4D6
:103B4000A4EF1DF0A6EF1DF06FEF1DF01450D96E1D
:103B5000DA6ADF50D8A4AFEF1DF0B1EF1DF06FEFC0
:103B60001DF01200186E1350D96EDA6A010ED926B4
:103B7000010EDF6E1450D96EDA6A010ED926DF6AA3
:103B8000000E1E6E280E1D6E000E026E640E016E7B
:103B9000000E046E280E036E40EC23F001C01FF0EF
:103BA00002C020F0000E1A6E000E196EFCEF1DF020
:103BB0001350D96EDA6A1350E16EE26AE750156E5F
:103BC0001528DF6E1450D96EDA6A1450E16EE26A7D
:103BD000E750156E1528DF6E14C00EF099EC20F03A
:103BE00013C00EF099EC20F01FC001F020C002F0CD
:103BF00022EC26F0194A1A2A1D50195C1A50800A24
:103C0000156E1E50800A1558D8A009EF1EF00BEF54
:103C10001EF0D8EF1DF0000E1C6E000E1B6E1AEF8A
:103C20001EF0D00E156ECA0EE82EFED7152EFCD74C
:103C30001B4A1C2A1850156E166A15501B5C1C5026
:103C4000800A176E1650800A1758D8A02AEF1EF067
:103C50002CEF1EF011EF1EF05AEF1EF01450D96E2B
:103C6000DA6ADF50D8B437EF1EF039EF1EF03DEFBF
:103C70001EF01450D96EDA6ADF061350D96EDA6A74
:103C8000DF50D8B446EF1EF048EF1EF04CEF1EF0A8
:103C90001350D96EDA6ADF0614C00EF099EC20F0EA
:103CA00013C00EF099EC20F01FC001F020C002F00C
:103CB00022EC26F01350D96EDA6ADF50D8A463EFF5
:103CC0001EF065EF1EF02EEF1EF01450D96EDA6A6A
:103CD000DF50D8A46EEF1EF070EF1EF02EEF1EF036
:103CE0001200186E1350D96EDA6A010ED926DF6AF7
:103CF0001450D96EDA6A010ED926010EDF6E000E5D
:103D00001E6E280E1D6E000E026E640E016E000EF9
:103D1000046E280E036E40EC23F001C01FF002C0B9
:103D200020F0000E1A6E000E196EBBEF1EF013503D
:103D3000D96EDA6A1350E16EE26AE750156E152803
:103D4000DF6E1450D96EDA6A1450E16EE26AE75001
:103D5000156E1528DF6E14C00EF099EC20F013C01C
:103D60000EF099EC20F01FC001F020C002F022EC10
:103D700026F0194A1A2A1D50195C1A50800A156E2D
:103D80001E50800A1558D8A0C8EF1EF0CAEF1EF0CA
:103D900097EF1EF0000E1C6E000E1B6ED9EF1EF08A
:103DA000D00E156ECA0EE82EFED7152EFCD71B4A74
:103DB0001C2A1850156E166A15501B5C1C50800A80
:103DC000176E1650800A1758D8A0E9EF1EF0EBEFD7
:103DD0001EF0D0EF1EF019EF1FF01450D96EDA6A02
:103DE000DF50D8B4F6EF1EF0F8EF1EF0FCEF1EF037
:103DF0001450D96EDA6ADF061350D96EDA6ADF50D2
:103E0000D8B405EF1FF007EF1FF00BEF1FF01350B2
:103E1000D96EDA6ADF0614C00EF099EC20F013C0F8
:103E20000EF099EC20F01FC001F020C002F022EC4F
:103E300026F01350D96EDA6ADF50D8A422EF1FF0B3
:103E400024EF1FF0EDEF1EF01450D96EDA6ADF5048
:103E5000D8A42DEF1FF02FEF1FF0EDEF1EF0120092
:103E6000186E1350D96EDA6A010ED926DF6A145023
:103E7000D96EDA6A010ED926DF6A000E1E6E280E90
:103E80001D6E000E026E640E016E000E046E280E92
:103E9000036E40EC23F001C01FF002C020F0000EC2
:103EA0001A6E000E196E79EF1FF01350D96EDA6A90
:103EB0001350E16EE26AE750156E1528DF6E14505C
:103EC000D96EDA6A1450E16EE26AE750156E152871
:103ED000DF6E14C00EF099EC20F013C00EF099ECD8
:103EE00020F01FC001F020C002F022EC26F0194A99
:103EF0001A2A1D50195C1A50800A156E1E50800A2D
:103F00001558D8A086EF1FF088EF1FF055EF1FF06F
:103F1000000E1C6E000E1B6E97EF1FF0D00E156E7C
:103F2000CA0EE82EFED7152EFCD71B4A1C2A1850A5
:103F3000156E166A15501B5C1C50800A176E1650C1
:103F4000800A1758D8A0A7EF1FF0A9EF1FF08EEF37
:103F50001FF0D7EF1FF01450D96EDA6ADF50D8B4D3
:103F6000B4EF1FF0B6EF1FF0BAEF1FF01450D96E88
:103F7000DA6ADF061350D96EDA6ADF50D8B4C3EFBD
:103F80001FF0C5EF1FF0C9EF1FF01350D96EDA6AAA
:103F9000DF0614C00EF099EC20F013C00EF099EC7F
:103FA00020F01FC001F020C002F022EC26F01350D8
:103FB000D96EDA6ADF50D8A4E0EF1FF0E2EF1FF00D
:103FC000ABEF1FF01450D96EDA6ADF50D8A4EBEFD4
:103FD0001FF0EDEF1FF0ABEF1FF012008EA6F3EF16
:103FE0001FF0F5EF1FF0FCEF1FF08EB4FAEF1FF09B
:103FF000FCEF1FF0EEEF1FF0090E046E1E0E036EB5
:10400000E40EE82EFED7032EFCD7042EFAD700D0FC
:104010008EB60DEF20F00FEF20F028EF20F08EB4D9
:1040200014EF20F016EF20F028EF20F080867C8E31
:10403000520E046E2B0E036E000EE82EFED7032EDA
:10404000FCD7042EFAD700D080967C9E98EF20F003
:104050008EB42DEF20F02FEF20F05DEF20F0110E49
:10406000046E3C0E036ECB0EE82EFED7032EFCD75B
:10407000042EFAD7000001C0D9FF02C0DAFFDECF5C
:1040800003F0DDCF04F0020E0326000E042201C06F
:10409000D9FF02C0DAFF03C0DEFF04C0DDFF7C8E63
:1040A000110E046E3C0E036ECB0EE82EFED7032ECF
:1040B000FCD7042EFAD700007C9E8EB662EF20F06B
:1040C00064EF20F096EF20F0110E046E3C0E036EAC
:1040D000CB0EE82EFED7032EFCD7042EFAD7000015
:1040E00001C0D9FF02C0DAFFDECF03F0DDCF04F05C
:1040F000FE0E0324056EFF0E0420066E01C0D9FFDC
:1041000002C0DAFF05C0DEFF06C0DDFF8086110EAB
:10411000046E3C0E036ECB0EE82EFED7032EFCD7AA
:10412000042EFAD700008096EEEF1FF0EEEF1FF09E
:1041300012000E50D96EDA6A020ED926DF50D8B4BA
:10414000A4EF20F0A6EF20F0D6EF20F00E50D96EAD
:10415000DA6ADF500F6E0F50016E026A0E50D96E90
:10416000DA6A030ED926DECF03F0DDCF04F062EC6D
:1041700026F001C007F002C008F0000E0A6E640EBF
:10418000096E9AEC24F00E50D96EDA6A030ED92625
:10419000DF50106E0750105C116E0E50D96EDA6A47
:1041A000030ED926DF50126EF7EF20F0000E116ECD
:1041B0000E50D96EDA6ADF500F6E0F50016E026A30
:1041C0000E50D96EDA6A030ED926DECF03F0DDCFAA
:1041D00004F062EC26F001C007F002C008F0000E07
:1041E0000A6E640E096E9AEC24F00750126E0E509F
:1041F000D96EDA6A010ED926DF50D8B402EF21F069
:1042000004EF21F024EF21F00E50D96EDA6A050E8A
:10421000D926DECF0FF0DDCF10F00FC0D9FF10C0D0
:10422000DAFF11C0DFFF0E50D96EDA6A070ED92609
:10423000DECF0FF0DDCF10F00FC0D9FF10C0DAFFD6
:1042400012C0DFFF42EF21F00E50D96EDA6A050E80
:10425000D926DECF0FF0DDCF10F00FC0D9FF10C090
:10426000DAFF12C0DFFF0E50D96EDA6A070ED926C8
:10427000DECF0FF0DDCF10F00FC0D9FF10C0DAFF96
:1042800011C0DFFF120058C001F059C002F05AC03F
:1042900003F05BC004F0000E056E000E066E000E0B
:1042A000076E000E086EFBEC23F0D8A05AEF21F049
:1042B0005CEF21F066EF21F0000E546E000E556E9B
:1042C000000E566E000E576ECEEF21F054C022F055
:1042D00055C023F056C024F057C025F058C026F032
:1042E00059C027F05AC028F05BC029F0F8EC18F04C
:1042F00022C060F023C061F024C062F025C063F0EA
:1043000060C001F061C002F062C003F063C004F05D
:10431000CFEC21F001C068F002C069F054C01AF07F
:1043200055C01BF056C01CF057C01DF058C03FF0E0
:1043300059C040F05AC041F05BC042F068C00CF078
:1043400069C00DF0000E0DBEFF0E0E6E0F6E010E59
:1043500018EC1CF00CC03BF00DC03CF00EC03DF062
:104360000FC03EF0D8EC14F03BC01EF03CC01FF074
:104370003DC020F03EC021F0A3EC25F01AC064F04F
:104380001BC065F01CC066F01DC067F064C054F02F
:1043900065C055F066C056F067C057F01200033490
:1043A00004340A6E0A50D8A4D8EF21F0DAEF21F0D5
:1043B000E4EF21F0000E016E000E026E000E036E9F
:1043C000000E046E51EF22F001C005F002C006F0AD
:1043D00003C007F004C008F0200EF4EF21F0D890DD
:1043E0000832073206320532E82EEFEF21F0055091
:1043F000096E038EFF0E0116FF0E0216FF0E031646
:10440000000E0416960E0A5E0ABE0BEF22F009EFAC
:1044100022F021EF22F00A50800A970FD8B013EF54
:1044200022F015EF22F017EF22F0DAEF21F0D8900A
:1044300004320332023201320A3E17EF22F039EF22
:1044400022F01F0E0A6427EF22F029EF22F031EF4D
:1044500022F0DAEF21F0D890013602360336043626
:104460000A060A50D8A437EF22F039EF22F02BEFDA
:1044700022F00950D8B43FEF22F041EF22F049EF8B
:1044800022F0041E031E021E016C000E02220322F3
:10449000042201C001F002C002F003C003F004C016
:1044A00004F01200000E0114096E000E02140A6ED0
:1044B000800E03140B6E7F0E04140C6E09500A104C
:1044C0000B100C10D8A467EF22F069EF22F071EF07
:1044D00022F0000E016E000E026E000E036E000E42
:1044E000046E000E0514096E000E06140A6E800E8E
:1044F00007140B6E7F0E08140C6E09500A100B1077
:104500000C10D8A486EF22F088EF22F090EF22F072
:10451000000E056E000E066E000E076E000E086E91
:1045200004AE95EF22F097EF22F0A0EF22F0016C9D
:10453000021ED8B0022A031ED8B0032A800E0456E9
:1045400008AEA5EF22F0A7EF22F0B0EF22F0056C45
:10455000061ED8B0062A071ED8B0072A800E0856B5
:10456000000E011A000E021A000E031A800E041A21
:10457000000E051A000E061A000E071A800E081A01
:104580000550015C06500258075003580850045863
:10459000D8B0CDEF22F0CFEF22F0D2EF22F0D890BA
:1045A000D3EF22F0D8801200000E026E630E016E6F
:1045B00050EC24F0000E0001F46F010EF56F010EB7
:1045C000F66FAA0EF96F0F0EFA6FA60EFB6F0F0EA5
:1045D000FC6F000EF86F630EF76F000EEB6F010EAD
:1045E000EC6F010EED6F250EF06F0F0EF16F210EC7
:1045F000F26F0F0EF36F000EEF6F630EEE6F849E7F
:104600007C9E8896809686840E01B4958686B497A3
:10461000010E0101826F190E836F190E846F280E2F
:10462000856F280E866F640E876F640E886F140E78
:10463000896F140E8A6FD4EC24F0820E216E010E65
:10464000226EF40E236EEB0E246EC5EC1AF0820E71
:104650000001DF6F010EE06FF40EE16FEB0EE26F11
:10466000EDEC16F0820E216E010E226EF40E236E1A
:10467000EB0E246EFEEC0FF01BEF23F000EF00F0CA
:10468000000E066E04BE49EF23F047EF23F04FEF14
:1046900023F0036C041ED8B0042A010E066E02BE7D
:1046A00056EF23F054EF23F05CEF23F0016C021E71
:1046B000D8B0022A010E061A000E086E000E076E10
:1046C00003500410D8B467EF23F069EF23F091EFA3
:1046D00023F0010E056E71EF23F0D89003360436F7
:1046E000052A04AE76EF23F078EF23F06DEF23F088
:1046F000D890073608360350015C04500258D8A001
:1047000084EF23F086EF23F08BEF23F00350015E5C
:104710000450025A0780D89004320332052E78EFF5
:1047200023F00650D8B497EF23F099EF23F09DEFD4
:1047300023F0076C081ED8B0082A07C001F008C093
:1047400002F012008EB4A7EF23F0A9EF23F0D9EF07
:1047500023F0110E046E3C0E036ECB0EE82EFED736
:10476000032EFCD7042EFAD7000001C0D9FF02C0E7
:10477000DAFFDECF03F0DDCF04F0010E0326000EDA
:10478000042201C0D9FF02C0DAFF03C0DEFF04C06B
:10479000DDFF7C8E110E046E3C0E036ECB0EE82EF8
:1047A000FED7032EFCD7042EFAD700007C9EFAEF2A
:1047B00023F08EB6DEEF23F0E0EF23F0A2EF23F03C
:1047C000110E046E3C0E036ECB0EE82EFED7032EA8
:1047D000FCD7042EFAD700008086110E046E3C0E22
:1047E000036ECB0EE82EFED7032EFCD7042EFAD78D
:1047F000000080961200000E0114096E000E0214D3
:104800000A6E800E03140B6E7F0E04140C6E09509A
:104810000A100B100C10D8A410EF24F012EF24F0A3
:104820001AEF24F0000E016E000E026E000E036EF1
:10483000000E046E000E0514096E000E06140A6EBA
:10484000800E07140B6E7F0E08140C6E09500A10B0
:104850000B100C10D8A42FEF24F031EF24F039EF17
:1048600024F0000E056E000E066E000E076E000EA0
:10487000086E055001180FE1065002180CE10750B0
:10488000031809E108500418D8B449EF24F04BEF9D
:1048900024F04EEF24F0D8904FEF24F0D88012008F
:1048A00085948598839E879C7D947D987B9E7F9C34
:1048B000050E0E01746F060E766F070E696F080EF7
:1048C000886FBD508F0B4009BD6EE00EBE16BF5005
:1048D000F00B0109BF6E01C0BCFFBD8E000EAA6EB9
:1048E000000EA66E000E0F01256F000E216FFC0E4C
:1048F000AD16F30EAD16CF0EAD163F0EAD16AB884E
:10490000AB50F00B0C09AB6EAB8EA788A750F00B29
:104910000C09A76EA78E26892651F00B0C09266F6D
:10492000268F22892251F00B0C09226F228F889644
:1049300080961200000E0C6E000E0B6E09500A10CD
:10494000D8B4A5EF24F0A7EF24F0CFEF24F0010EA8
:104950000D6EAFEF24F0D89009360A360D2A0AAE54
:10496000B4EF24F0B6EF24F0ABEF24F0D8900B3680
:104970000C360950075C0A500858D8A0C2EF24F042
:10498000C4EF24F0C9EF24F00950075E0A50085A1A
:104990000B80D8900A3209320D2EB6EF24F00BC0EE
:1049A00007F00CC008F012007C8E090E026E1E0E7D
:1049B000016EE40EE82EFED7012EFCD7022EFAD7A8
:1049C00000D07C9E090E026E1E0E016EE40EE82ED3
:1049D000FED7012EFCD7022EFAD700D08EB4F3EF0B
:1049E00024F0F5EF24F0D4EF24F0110E026E3C0E0B
:1049F000016ECB0EE82EFED7012EFCD7022EFAD781
:104A000000007C9E120090EC26F0520E85EC26F001
:104A1000B60E85EC26F095EC26F0530E85EC26F0CC
:104A2000010EC6EC25F0076E07500A6E0B6A000EE9
:104A3000C6EC25F0076E0750096E086A0A50081088
:104A40000A6E0B5009100B6E8BEC26F00AC005F0B5
:104A50000BC006F0120090EC26F0520E85EC26F00A
:104A6000B80E85EC26F095EC26F0530E85EC26F07A
:104A7000010EC6EC25F0076E07500A6E0B6A000E99
:104A8000C6EC25F0076E0750096E086A0A50081038
:104A90000A6E0B5009100B6E8BEC26F00AC005F065
:104AA0000BC006F0120090EC26F0520E85EC26F0BA
:104AB000B40E85EC26F095EC26F0530E85EC26F02E
:104AC000010EC6EC25F0076E07500A6E0B6A000E49
:104AD000C6EC25F0076E0750096E086A0A500810E8
:104AE0000A6E0B5009100B6E8BEC26F00AC005F015
:104AF0000BC006F0120090EC26F0520E85EC26F06A
:104B0000BA0E85EC26F095EC26F0530E85EC26F0D7
:104B1000010EC6EC25F0076E07500A6E0B6A000EF8
:104B2000C6EC25F0076E0750096E086A0A50081097
:104B30000A6E0B5009100B6E8BEC26F00AC005F0C4
:104B40000BC006F01200000E1E1A000E1F1A000EF7
:104B5000201A800E211A1AC001F01BC002F01CC0DE
:104B600003F01DC004F01EC005F01FC006F020C0F9
:104B700007F021C008F078EC12F001C01AF002C072
:104B80001BF003C01CF004C01DF01200036E4EECBD
:104B900026F00E01DA874EEC26F0D5CE04F04EEC6E
:104BA00026F00350D8B4D7EF25F0DBEF25F0026AEA
:104BB000022ADCEF25F0026A023A02460E01DA51BF
:104BC0000218DF0B0218DA6FDA890450120039EC90
:104BD00026F0010E036E000E75EC26F03F0E056EFA
:104BE000550EE82EFED7052EFCD70000030E036EEF
:104BF000000E75EC26F0D50E036E010E75EC26F056
:104C000087928198869E7F8279887E8E1200340EEC
:104C1000F66E4D0EF76E000EF86E0900F5CFFDF042
:104C20000900F5CFFEF001EE00F08B0EEE6AE8060B
:104C3000FDE100EEE3F01A0EEE6AE806FDE1000188
:104C4000D4EF22F02FEF26F0150E036EC60EE82EDD
:104C5000FED7032EFCD700D00106D8A002060150D3
:104C60000210D8A436EF26F038EF26F024EF26F015
:104C700012000E01D951F00B0809D96FD98B9F0E84
:104C8000D66F848A848CA79BA79D1D0E1D6F1E0E58
:104C90001C6F1C0E6F6F1B0E706F12000E01D8B5CB
:104CA00054EF26F056EF26F04EEF26F0DACE01F064
:104CB0001F0E0116D8A45FEF26F061EF26F04EEF2D
:104CC00026F0120001500302F3CF05F0F4CF06F0F6
:104CD00001500402F350062602500302F350062648
:104CE00005C001F006C002F01200046E90EC26F040
:104CF000520E85EC26F00450800985EC26F0035016
:104D000085EC26F08BEC26F01200026E4EEC26F0BD
:104D100002C0D5FE12004EEC26F00E01DA8512001C
:104D20004EEC26F00E01DA8112004EEC26F00E0158
:064D3000DA8312003207D5
:020000040030CA
:02000000AAFF55
:020004009FFF5C
:00000001FF
