:040000002EEF22F0CD
:100E000000483A252E326620533A20252E3266209D
:100E1000563A20252E32662000696E66006E616E9D
:100E20000000000E0001916F6BC092F06CC093F057
:100E30006DC094F06EC095F095BF23EF07F021EFE1
:100E400007F037EF07F0010E916F92C001F093C0E9
:100E500002F094C003F095C004F09CEC21F001C0B6
:100E600092F002C093F003C094F004C095F0000E1D
:100E70000001976F000E966F58C181F059C182F042
:100E80009151D8B446EF07F048EF07F05CEF07F058
:100E90009151D8A44EEF07F050EF07F056EF07F04E
:100EA000000E776F2B0E766F5AEF07F0000E776FFC
:100EB0002D0E766F76C091F092C001F093C002F0D3
:100EC00094C003F095C004F012EC1EF0010402106F
:100ED000D8A46DEF07F06FEF07F09EEF07F0000169
:100EE0009151D8B476EF07F078EF07F081EF07F073
:100EF00091C05FF18107D8A08207000E976F010EA5
:100F0000966F5F0E9625016E010E9721026E190EE7
:100F1000036E61EC21F00001FD0E8127FF0E82239C
:100F20006AC00FF05F0E106E010E116E81C012F0DC
:100F300082C013F092EC1FF006EF0CF092C001F0AB
:100F400093C002F094C003F095C004F012EC1EF0C0
:100F500001500210D8A4AFEF07F0B1EF07F0CFEFC8
:100F600007F000019151D8B4B8EF07F0BAEF07F0DD
:100F7000C3EF07F091C05FF18107D8A08207000E90
:100F8000976F010E966F5F0E9625016E010E9721E9
:100F9000026E1D0E036E61EC21F08BEF07F0000E68
:100FA0000001986F000E996F800E9A6F3F0E9B6F35
:100FB000000E806F000E7F6F92C001F093C002F0B0
:100FC00094C003F095C004F0000E056E000E066E8E
:100FD000000E076E000E086E3DEC1FF0D8B0F3EF68
:100FE00007F0F5EF07F0D4EF08F002EF08F083C048
:100FF00098F084C099F085C09AF086C09BF00001FB
:101000007F4B802B98C01AF099C01BF09AC01CF03F
:101010009BC01DF0000E1E6E000E1F6E200E206E77
:10102000410E216EA2EC15F01AC083F01BC084F0B3
:101030001CC085F01DC086F000018351925D016ED9
:1010400084519359026E85519459036E8651955976
:10105000046EC5EC1FF004BE39EF08F00450031015
:10106000021009E1020E015CD8A039EF08F03BEF55
:1010700008F0F7EF07F083C033F084C034F085C088
:1010800035F086C036F092C037F093C038F094C087
:1010900039F095C03AF090EC1DF0D8A052EF08F06E
:1010A00054EF08F0F7EF07F000019851925D016EE0
:1010B00099519359026E9A519459036E9B519559C7
:1010C000046EC5EC1FF004BE73EF08F0045003106B
:1010D000021007E1020E015CD8B071EF08F073EF67
:1010E00008F0BBEF08F098C092F099C093F09AC056
:1010F00094F09BC095F0D4EF08F098C03BF099C0F5
:101100003CF09AC03DF09BC03EF0000E3F6E000EDA
:10111000406E200E416E410E426EB7EC17F03BC0A0
:1011200098F03CC099F03DC09AF03EC09BF00001A1
:101130007F07D8A080079851925D016E995193590D
:10114000026E9A519459036E9B519559046EC5ECE9
:101150001FF004BEB9EF08F004500310021007E1BD
:10116000020E015CD8B0B7EF08F0B9EF08F0BBEFA2
:1011700008F073EF08F092C033F093C034F094C0DD
:1011800035F095C036F098C037F099C038F09AC065
:1011900039F09BC03AF090EC1DF0D8A0D2EF08F0E7
:1011A000D4EF08F07DEF08F06FC079F079C07AF0E5
:1011B00001015BBFDEEF08F0E0EF08F0E6EF08F0BA
:1011C0005AC172F05BC173F0EBEF08F0000E000142
:1011D000736F060E726F72C07DF073C07EF00001F7
:1011E0007D4B7E2B660E7A19D8A4F9EF08F0FBEF41
:1011F00008F01BEF09F080BF02EF09F000EF09F0E3
:101200000EEF09F0000E986F000E996F800E9A6F26
:101210003F0E9B6F000E806F000E7F6F670E791977
:10122000D8B415EF09F017EF09F01BEF09F07F5163
:101230007D2780517E23000E886F000E876F92C03D
:1012400089F093C08AF094C08BF095C08CF098C060
:1012500083F099C084F09AC085F09BC086F0ACEF13
:1012600009F089C03BF08AC03CF08BC03DF08CC0D7
:101270003EF098C03FF099C040F09AC041F09BC04A
:1012800042F0B7EC17F03BC054F03CC055F03DC005
:1012900056F03EC057F09CEC1AF054C08DF055C08B
:1012A0008EF056C08FF057C090F08DC001F08EC008
:1012B00002F08FC003F090C004F00DEC1DF001C0EF
:1012C0007BF002C07CF089C033F08AC034F08BC060
:1012D00035F08CC036F08DC01EF08EC01FF08FC070
:1012E00020F090C021F098C01AF099C01BF09AC06D
:1012F0001CF09BC01DF0A2EC15F01AC037F01BC00B
:1013000038F01CC039F01DC03AF0DBEC20F033C0DF
:1013100089F034C08AF035C08BF036C08CF098C0AC
:101320003BF099C03CF09AC03DF09BC03EF0000EEF
:101330003F6E000E406E200E416E410E426EB7ECC5
:1013400017F03BC098F03CC099F03DC09AF03EC009
:101350009BF00001874B882B7D51875D8851800A67
:101360005E6E7E51800A5E58D8A0B9EF09F0BBEFDF
:1013700009F031EF09F098C01AF099C01BF09AC03B
:101380001CF09BC01DF0000E1E6E000E1F6EA00E06
:10139000206E400E216EA2EC15F01AC08DF01BC01D
:1013A0008EF01CC08FF01DC090F089C033F08AC051
:1013B00034F08BC035F08CC036F08DC037F08EC065
:1013C00038F08FC039F090C03AF090EC1DF0D8B0F2
:1013D000ECEF09F0EEEF09F0F9EF09F0000E000173
:1013E0008D6F000E8E6F000E8F6F000E906F22EFCC
:1013F0000AF089C001F08AC002F08BC003F08CC0F3
:1014000004F08DC005F08EC006F08FC007F090C0CC
:1014100008F03DEC1FF0D8A010EF0AF012EF0AF030
:1014200022EF0AF000017BB118EF0AF01AEF0AF080
:1014300022EF0AF0000E8D6F000E8E6F000E8F6F80
:10144000000E906F92C001F093C002F094C003F0C0
:1014500095C004F08DC005F08EC006F08FC007F077
:1014600090C008F042EC13F001C089F002C08AF08D
:1014700003C08BF004C08CF089C033F08AC034F014
:101480008BC035F08CC036F0000E1E6E000E1F6E45
:10149000200E206E410E216E83C01AF084C01BF016
:1014A00085C01CF086C01DF0A2EC15F01AC037F004
:1014B0001BC038F01CC039F01DC03AF090EC1DF094
:1014C000D8A065EF0AF067EF0AF090EF0AF000018C
:1014D0007F4B802B83C01AF084C01BF085C01CF0AA
:1014E00086C01DF0000E1E6E000E1F6E200E206EB8
:1014F000410E216EA2EC15F01AC083F01BC084F0DF
:101500001CC085F01DC086F0660E00017A19D8A4B3
:101510008CEF0AF08EEF0AF090EF0AF07D4B7E2BF5
:1015200083C098F084C099F085C09AF086C09BF083
:101530007FC070F080C071F0000E0001786F000E67
:10154000756F000E746F000E886F000E876F8EEF40
:101550000BF089C03BF08AC03CF08BC03DF08CC0E2
:101560003EF098C03FF099C040F09AC041F09BC057
:1015700042F0B7EC17F03BC054F03CC055F03DC012
:1015800056F03EC057F09CEC1AF054C08DF055C098
:101590008EF056C08FF057C090F08DC001F08EC015
:1015A00002F08FC003F090C004F00DEC1DF002BEFD
:1015B000E5EF0AF0025007E10A0E015CD8B0E3EF54
:1015C0000AF0E5EF0AF0F5EF0AF08DC001F08EC0E9
:1015D00002F08FC003F090C004F00DEC1DF001C0CC
:1015E0007BF002C07CF0FAEF0AF0000E00017C6F85
:1015F000090E7B6F00017851D8A401EF0BF003EFC7
:101600000BF02BEF0BF071BF0AEF0BF008EF0BF0B4
:101610002BEF0BF05F0E9625D96E010E9721DA6E37
:101620002E0EDF6E964B972B8107D8A08207010EF6
:10163000786F2BEF0BF05F0E9625D96E010E972178
:10164000DA6E300EDF6E964B972B8107D8A082079B
:101650007407D8A0750774517511D8A432EF0BF038
:1016600034EF0BF01BEF0BF05F0E9625D96E010ED9
:101670009721DA6E7B51300FDF6E964B972B8107E7
:10168000D8A0820789C033F08AC034F08BC035F00F
:101690008CC036F08DC01EF08EC01FF08FC020F0C1
:1016A00090C021F098C01AF099C01BF09AC01CF0AD
:1016B0009BC01DF0A2EC15F01AC037F01BC038F02B
:1016C0001CC039F01DC03AF0DBEC20F033C089F0CB
:1016D00034C08AF035C08BF036C08CF098C03BF037
:1016E00099C03CF09AC03DF09BC03EF0000E3F6EAA
:1016F000000E406E200E416E410E426EB7EC17F0A8
:101700003BC098F03CC099F03DC09AF03EC09BF0C1
:1017100000017007D8A07107874B882B7D51875D2A
:101720008851800A5E6E7E51800A5E58D8B09BEF69
:101730000BF09DEF0BF0ABEF0BF097BFA9EF0BF0A9
:10174000975109E14B0E965DD8A0A9EF0BF0ABEFD6
:101750000BF0A9EF0AF0000E886F4F0E876F5F0E37
:101760008725D96E010E8821DA6EDF6A5F0E5E6E04
:10177000010E5F6E96515E5E97515F5A87515E24EF
:10178000016E88515F20026E5F0E036E010E046EC3
:1017900096C005F097C006F0F0EC1FF000019651DE
:1017A000875D966F97518859976F9151D8A4DBEF59
:1017B0000BF0DEEF0BF0010EDFEF0BF0000E876F8A
:1017C000886B9151D8B4E7EF0BF0E9EF0BF0F4EF31
:1017D0000BF09607D8A097075F0E9625D96E010EDD
:1017E0009721DA6E91C0DFFF8751815F8851825B5C
:1017F0006AC00FF05F0E9625106E010E9721116ED4
:1018000081C012F082C013F092EC1FF012006AC087
:101810003BF06BC03CF06CC03DF06DC03EF0000E84
:101820003F6EFF0E406E7F0E416E470E426EB7EC6C
:1018300017F03BC0B5F03CC0B6F03DC0B7F03EC0BD
:10184000B8F06EC03BF06FC03CF070C03DF071C0AE
:101850003EF0000E3F6EFF0E406E7F0E416E470E53
:10186000426EB7EC17F03BC0B9F03CC0BAF03DC0D7
:10187000BBF03EC0BCF072C03BF073C03CF074C023
:101880003DF075C03EF0000E3F6EFF0E406E7F0EC5
:10189000416E470E426EB7EC17F03BC0BDF03CC046
:1018A000BEF03DC0BFF03EC0C0F0000E3F6EFF0E68
:1018B000406E7F0E416E470E426E76C03BF077C0A1
:1018C0003CF078C03DF079C03EF0B7EC17F03BC07B
:1018D00081F03CC082F03DC083F03EC084F0000E39
:1018E0003B6E000E3C6E800E3D6E3F0E3E6E81C024
:1018F0003FF082C040F083C041F084C042F0B7ECBA
:1019000017F03BC07DF03CC07EF03DC07FF03EC094
:1019100080F0B9C033F0BAC034F0BBC035F0BCC001
:1019200036F0B5C037F0B6C038F0B7C039F0B8C03F
:101930003AF090EC1DF0D8A0A0EF0CF0A2EF0CF064
:10194000D7EF0CF0BDC033F0BEC034F0BFC035F0EF
:10195000C0C036F0B9C037F0BAC038F0BBC039F0FB
:10196000BCC03AF090EC1DF0D8A0B9EF0CF0BBEF82
:101970000CF0C5EF0CF0BDC091F0BEC092F0BFC03E
:1019800093F0C0C094F0CDEF0CF0B9C091F0BAC0A4
:1019900092F0BBC093F0BCC094F091C0B1F092C083
:1019A000B2F093C0B3F094C0B4F00AEF0DF0BDC034
:1019B00033F0BEC034F0BFC035F0C0C036F0B5C0A3
:1019C00037F0B6C038F0B7C039F0B8C03AF090EC94
:1019D0001DF0D8A0EEEF0CF0F0EF0CF0FAEF0CF0E9
:1019E000BDC095F0BEC096F0BFC097F0C0C098F0E3
:1019F00002EF0DF0B5C095F0B6C096F0B7C097F005
:101A0000B8C098F095C0B1F096C0B2F097C0B3F0EE
:101A100098C0B4F0B5C033F0B6C034F0B7C035F0FC
:101A2000B8C036F0B9C037F0BAC038F0BBC039F032
:101A3000BCC03AF090EC1DF0D8A021EF0DF023EFE0
:101A40000DF058EF0DF0B9C033F0BAC034F0BBC0A0
:101A500035F0BCC036F0BDC037F0BEC038F0BFC0F6
:101A600039F0C0C03AF090EC1DF0D8A03AEF0DF07C
:101A70003CEF0DF046EF0DF0BDC09DF0BEC09EF0F6
:101A8000BFC09FF0C0C0A0F04EEF0DF0B9C09DF0F8
:101A9000BAC09EF0BBC09FF0BCC0A0F09DC099F042
:101AA0009EC09AF09FC09BF0A0C09CF08BEF0DF001
:101AB000B5C033F0B6C034F0B7C035F0B8C036F0BA
:101AC000BDC037F0BEC038F0BFC039F0C0C03AF07A
:101AD00090EC1DF0D8A06FEF0DF071EF0DF07BEFE3
:101AE0000DF0BDC0A1F0BEC0A2F0BFC0A3F0C0C049
:101AF000A4F083EF0DF0B5C0A1F0B6C0A2F0B7C05E
:101B0000A3F0B8C0A4F0A1C099F0A2C09AF0A3C0FD
:101B10009BF0A4C09CF0B1C033F0B2C034F0B3C0AD
:101B200035F0B4C036F099C037F09AC038F09BC099
:101B300039F09CC03AF0DBEC20F033C0ADF034C09B
:101B4000AEF035C0AFF036C0B0F0ADC001F0AEC001
:101B500002F0AFC003F0B0C004F0000E056E000E3E
:101B6000066E000E076E000E086E3DEC1FF0D8A04A
:101B7000BCEF0DF0BEEF0DF0C9EF0DF0000E00014F
:101B8000A96F000EAA6F000EAB6F000EAC6F2AEFAC
:101B90000FF0B1C001F0B2C002F0B3C003F0B4C0A6
:101BA00004F0B5C005F0B6C006F0B7C007F0B8C085
:101BB00008F03DEC1FF0D8A0E0EF0DF0E2EF0DF0E3
:101BC00044EF0EF0ADC03FF0AEC040F0AFC041F00A
:101BD000B0C042F0BDC037F0BEC038F0BFC039F071
:101BE000C0C03AF0B9C033F0BAC034F0BBC035F071
:101BF000BCC036F0DBEC20F033C03BF034C03CF02E
:101C000035C03DF036C03EF0B7EC17F03BC085F074
:101C10003CC086F03DC087F03EC088F0000E586E94
:101C2000000E596EC00E5A6E400E5B6E85C054F0A9
:101C300086C055F087C056F088C057F081EC1CF084
:101C400054C089F055C08AF056C08BF057C08CF054
:101C500089C01AF08AC01BF08BC01CF08CC01DF02C
:101C6000000E1E6E000E1F6E700E206E420E216E54
:101C7000A2EC15F01AC0A9F01BC0AAF01CC0ABF072
:101C80001DC0ACF02AEF0FF0B1C001F0B2C002F0FD
:101C9000B3C003F0B4C004F0B9C005F0BAC006F098
:101CA000BBC007F0BCC008F03DEC1FF0D8A05BEF54
:101CB0000EF05DEF0EF0B7EF0EF0ADC03FF0AEC02E
:101CC00040F0AFC041F0B0C042F0B5C037F0B6C090
:101CD00038F0B7C039F0B8C03AF0BDC033F0BEC07C
:101CE00034F0BFC035F0C0C036F0DBEC20F033C0BC
:101CF0003BF034C03CF035C03DF036C03EF0B7ECB0
:101D000017F03BC0A5F03CC0A6F03DC0A7F03EC018
:101D1000A8F0000E056E000E066E000E076E400E57
:101D2000086EA5C001F0A6C002F0A7C003F0A8C0CD
:101D300004F042EC13F001C01AF002C01BF003C023
:101D40001CF004C01DF0000E1E6E000E1F6E700E03
:101D5000206E420E216EA2EC15F01AC0A9F01BC035
:101D6000AAF01CC0ABF01DC0ACF02AEF0FF0B1C060
:101D700001F0B2C002F0B3C003F0B4C004F0BDC0C3
:101D800005F0BEC006F0BFC007F0C0C008F03DECD3
:101D90001FF0D8A0CEEF0EF0D0EF0EF02AEF0FF02C
:101DA000ADC03FF0AEC040F0AFC041F0B0C042F0B7
:101DB000B9C037F0BAC038F0BBC039F0BCC03AF097
:101DC000B5C033F0B6C034F0B7C035F0B8C036F0A7
:101DD000DBEC20F033C03BF034C03CF035C03DF0CC
:101DE00036C03EF0B7EC17F03BC0A5F03CC0A6F003
:101DF0003DC0A7F03EC0A8F0000E056E000E066EB6
:101E0000800E076E400E086EA5C001F0A6C002F05D
:101E1000A7C003F0A8C004F042EC13F001C01AF010
:101E200002C01BF003C01CF004C01DF0000E1E6EAB
:101E3000000E1F6E700E206E420E216EA2EC15F089
:101E40001AC0A9F01BC0AAF01CC0ABF01DC0ACF0BA
:101E50002AEF0FF00001ACBF32EF0FF030EF0FF0C0
:101E60004CEF0FF0A9C001F0AAC002F0ABC003F024
:101E7000ACC004F0000E056E000E066EB40E076EC8
:101E8000430E086E42EC13F001C0A9F002C0AAF0A4
:101E900003C0ABF004C0ACF000017A51D96EDA6A2D
:101EA000A9C0DEFFAAC0DEFFABC0DEFFACC0DEFF14
:101EB000B1C001F0B2C002F0B3C003F0B4C004F08E
:101EC000000E056E000E066E000E076E000E086E08
:101ED0003DEC1FF0D8A06FEF0FF071EF0FF07FEF28
:101EE0000FF000017B51D96EDA6A000EDE6E000E33
:101EF000DE6E000EDE6E000EDD6EAFEF0FF0B1C0D5
:101F00003FF0B2C040F0B3C041F0B4C042F0ADC049
:101F10003BF0AEC03CF0AFC03DF0B0C03EF0B7EC1F
:101F200017F03BC01AF03CC01BF03DC01CF03EC097
:101F30001DF0000E1E6E000E1F6EC80E206E420EAB
:101F4000216EA2EC15F000017B51D96EDA6A1AC03D
:101F5000DEFF1BC0DEFF1CC0DEFF1DC0DEFF000E6B
:101F60001E6E000E1F6EC80E206E420E216EB1C096
:101F70001AF0B2C01BF0B3C01CF0B4C01DF0A2EC4C
:101F800015F01AC08DF01BC08EF01CC08FF01DC064
:101F900090F08DC01AF08EC01BF08FC01CF090C066
:101FA0001DF07DC01EF07EC01FF07FC020F080C0FD
:101FB00021F0A2EC15F000017C51D96EDA6A1AC04A
:101FC000DEFF1BC0DEFF1CC0DEFF1DC0DEFF1200F7
:101FD00018EC20F005C00CF006C00DF00E6A0F6A78
:101FE000000EA7EC1BF00CC0E1F00DC0E2F00EC03B
:101FF000E3F00FC0E4F040EC20F005C00CF006C0A8
:102000000DF00E6A0F6A000EA7EC1BF00CC0E5F095
:102010000DC0E6F00EC0E7F00FC0E8F090EC20F045
:1020200005C00CF006C00DF00E6A0F6A000EA7EC9A
:102030001BF00CC0E9F00DC0EAF00EC0EBF00FC0D1
:10204000ECF068EC20F005C00CF006C00DF00E6A54
:102050000F6A000EA7EC1BF00CC0EDF00DC0EEF007
:102060000EC0EFF00FC0F0F0E1C06AF0E2C06BF01C
:10207000E3C06CF0E4C06DF0E5C06EF0E6C06FF058
:10208000E7C070F0E8C071F0E9C072F0EAC073F028
:10209000EBC074F0ECC075F0EDC076F0EEC077F0F8
:1020A000EFC078F0F0C079F0F10E00017A6FF90E10
:1020B0007B6FF50E7C6F07EC0CF0C80E0001AB6F68
:1020C000010EAC6FF1C0ADF0F2C0AEF0F3C0AFF0F6
:1020D000F4C0B0F0F9C0B1F0FAC0B2F0FBC0B3F098
:1020E000FCC0B4F0F5C0B5F0F6C0B6F0F7C0B7F07C
:1020F000F8C0B8F080EC21F0C80E026EE2EC21F0DE
:10210000050E0001C76F0F0EC66FF10EE82EFED749
:10211000C62FFCD7C72FFAD7F1C001F0F2C002F0EA
:10212000F3C003F0F4C004F0000E056E000E066E5E
:10213000000E076E000E086E3DEC1FF0D8B0A3EF46
:1021400010F0A5EF10F0D9EF10F0F9C001F0FAC0CF
:1021500002F0FBC003F0FCC004F0000E056E000EA0
:10216000066E000E076E000E086E3DEC1FF0D8B034
:10217000BCEF10F0BEEF10F0D9EF10F0F5C001F099
:10218000F6C002F0F7C003F0F8C004F0000E056ED0
:10219000000E066E000E076E000E086E3DEC1FF07E
:1021A000D8B0D5EF10F0D7EF10F0D9EF10F041EF25
:1021B00013F0F1C001F0F2C002F0F3C003F0F4C07C
:1021C00004F0000E056E000E066E000E076E000E87
:1021D000086E3DEC1FF0D8B0F0EF10F0F2EF10F009
:1021E00026EF11F0F9C001F0FAC002F0FBC003F0D5
:1021F000FCC004F0000E056E000E066E000E076EA9
:10220000000E086E3DEC1FF0D8B009EF11F00BEF97
:1022100011F026EF11F0F5C001F0F6C002F0F7C0A2
:1022200003F0F8C004F0000E056E000E066E000EFE
:10223000076E000E086E3DEC1FF0D8B022EF11F0D3
:1022400024EF11F026EF11F041EF13F0F1C001F08F
:10225000F2C002F0F3C003F0F4C004F0000E056E0B
:10226000000E066E000E076E000E086E3DEC1FF0AD
:10227000D8B03DEF11F03FEF11F073EF11F0F9C05E
:1022800001F0FAC002F0FBC003F0FCC004F0000E45
:10229000056E000E066E000E076E000E086E3DEC19
:1022A0001FF0D8B056EF11F058EF11F073EF11F0A6
:1022B000F5C001F0F6C002F0F7C003F0F8C004F07A
:1022C000000E056E000E066E000E076E000E086E04
:1022D0003DEC1FF0D8B06FEF11F071EF11F073EF1C
:1022E00011F041EF13F0F1C001F0F2C002F0F3C0C1
:1022F00003F0F4C004F0000E056E000E066E000E32
:10230000076E000E086E3DEC1FF0D8B08AEF11F09A
:102310008CEF11F0C0EF11F0F9C001F0FAC002F03B
:10232000FBC003F0FCC004F0000E056E000E066E4C
:10233000000E076E000E086E3DEC1FF0D8B0A3EF44
:1023400011F0A5EF11F0C0EF11F0F5C001F0F6C0EB
:1023500002F0F7C003F0F8C004F0000E056E000EA6
:10236000066E000E076E000E086E3DEC1FF0D8B032
:10237000BCEF11F0BEEF11F0C0EF11F041EF13F020
:10238000F1C001F0F2C002F0F3C003F0F4C004F0B9
:10239000000E056E000E066E000E076E000E086E33
:1023A0003DEC1FF0D8B0D7EF11F0D9EF11F00DEFE1
:1023B00012F0F9C001F0FAC002F0FBC003F0FCC05B
:1023C00004F0000E056E000E066E000E076E000E85
:1023D000086E3DEC1FF0D8B0F0EF11F0F2EF11F005
:1023E0000DEF12F0F5C001F0F6C002F0F7C003F0F7
:1023F000F8C004F0000E056E000E066E000E076EAB
:10240000000E086E3DEC1FF0D8B009EF12F00BEF94
:1024100012F00DEF12F041EF13F0F1C001F0F2C035
:1024200002F0F3C003F0F4C004F0000E056E000EDD
:10243000066E000E076E000E086E3DEC1FF0D8B061
:1024400024EF12F026EF12F05AEF12F0F9C001F06B
:10245000FAC002F0FBC003F0FCC004F0000E056EF1
:10246000000E066E000E076E000E086E3DEC1FF0AB
:10247000D8B03DEF12F03FEF12F05AEF12F0F5C076
:1024800001F0F6C002F0F7C003F0F8C004F0000E4F
:10249000056E000E066E000E076E000E086E3DEC17
:1024A0001FF0D8B056EF12F058EF12F05AEF12F0BA
:1024B00041EF13F0F1C001F0F2C002F0F3C003F0FD
:1024C000F4C004F0000E056E000E066E000E076EDE
:1024D000000E086E3DEC1FF0D8B071EF12F073EFF4
:1024E00012F0A7EF12F0F9C001F0FAC002F0FBC041
:1024F00003F0FCC004F0000E056E000E066E000E28
:10250000076E000E086E3DEC1FF0D8B08AEF12F097
:102510008CEF12F0A7EF12F0F5C001F0F6C002F058
:10252000F7C003F0F8C004F0000E056E000E066E52
:10253000000E076E000E086E3DEC1FF0D8B0A3EF42
:1025400012F0A5EF12F0A7EF12F041EF13F0F1C077
:1025500001F0F2C002F0F3C003F0F4C004F0000E8A
:10256000056E000E066E000E076E000E086E3DEC46
:102570001FF0D8B0BEEF12F0C0EF12F0F4EF12F07F
:10258000F9C001F0FAC002F0FBC003F0FCC004F097
:10259000000E056E000E066E000E076E000E086E31
:1025A0003DEC1FF0D8B0D7EF12F0D9EF12F0F4EFF6
:1025B00012F0F5C001F0F6C002F0F7C003F0F8C069
:1025C00004F0000E056E000E066E000E076E000E83
:1025D000086E3DEC1FF0D8B0F0EF12F0F2EF12F001
:1025E000F4EF12F041EF13F0F1C001F0F2C002F08D
:1025F000F3C003F0F4C004F0000E056E000E066E8A
:10260000000E076E000E086E3DEC1FF0D8B00BEF09
:1026100013F00DEF13F041EF13F0F9C001F0FAC021
:1026200002F0FBC003F0FCC004F0000E056E000ECB
:10263000066E000E076E000E086E3DEC1FF0D8B05F
:1026400024EF13F026EF13F041EF13F0F5C001F083
:10265000F6C002F0F7C003F0F8C004F0000E056EFB
:10266000000E066E000E076E000E086E3DEC1FF0A9
:10267000D8B03DEF13F03FEF13F041EF13F041EF0F
:1026800013F012000450800B0D6E045004240F6EE2
:1026900003AE4DEF13F04FEF13F050EF13F00F8038
:1026A0000F50D8B456EF13F058EF13F06DEF13F04E
:1026B0000F28D8A45EEF13F060EF13F068EF13F06B
:1026C000000E016E000E026E000E036E000E046E10
:1026D000038E000E046E75EF13F0000E016E000EF7
:1026E000026E000E036E000E046E0850800B0E6E1C
:1026F0000D500E18D8B47FEF13F081EF13F082EF76
:1027000013F00D8C085008240E6E07AE8AEF13F0FC
:102710008CEF13F08DEF13F00E800E50D8B493EFC2
:1027200013F095EF13F0AAEF13F00E28D8A49BEF47
:1027300013F09DEF13F0A5EF13F0000E056E000EE1
:10274000066E000E076E000E086E078E000E086EF5
:10275000B2EF13F0000E056E000E066E000E076E4F
:10276000000E086E0F500E5CD8B0B9EF13F0BBEF3F
:1027700013F0E2EF13F00DACC0EF13F0C2EF13F063
:10278000C4EF13F0800E0D1A0FC010F00EC00FF042
:1027900010C00EF001C010F005C001F010C005F02F
:1027A00002C010F006C002F010C006F003C010F026
:1027B00007C003F010C007F004C010F008C004F018
:1027C00010C008F0000E106E0F500EC009F00A6A1B
:1027D000095E000E0A5A0ABEF7EF13F00A5009E12B
:1027E0001A0E095CD8A0F7EF13F0F9EF13F030EFF1
:1027F00014F00150021003100410D8A402EF14F0DA
:1028000005EF14F0010E06EF14F0000E106E000E2E
:10281000016E000E026E000E036E000E046E0EC0FE
:102820000FF039EF14F010A018EF14F01AEF14F0B5
:1028300020EF14F0D89010300109106E22EF14F040
:10284000D890103201A027EF14F029EF14F02AEFEE
:1028500014F0108E043404320332023201320F2A93
:102860000E500F5CD8A037EF14F039EF14F013EFCF
:1028700014F00DBC3EEF14F040EF14F080EF14F0B4
:102880000F50D8A446EF14F048EF14F052EF14F0B4
:10289000000E016E000E026E000E036E000E046E3E
:1028A000A1EF15F005500126065002220750032221
:1028B0000850042204A05FEF14F061EF14F00DEF54
:1028C00015F010A066EF14F068EF14F06EEF14F03E
:1028D000D89010300109106E70EF14F0D8901032BB
:1028E00001A075EF14F077EF14F078EF14F0108E6C
:1028F000043404320332023201320F2A0DEF15F094
:102900000550015C06500258075003580450800AD5
:10291000096E0850800A0958D8B091EF14F093EF6F
:1029200014F0BEEF14F00150055C096E0250065819
:102930000A6E035007580B6E045008580C6EFF0EB9
:102940000924016EFF0E0A20026EFF0E0B20036E9B
:10295000FF0E0C20046E800E0D1A106C1050D8A4BF
:10296000B4EF14F0B6EF14F0C6EF14F0010E012628
:10297000000E022203220422C6EF14F00550015E6D
:102980000650025A0750035A0850045A01500210C8
:1029900003100410D8A4CFEF14F0D1EF14F006EF19
:1029A00015F01050D8A4D7EF14F0D9EF14F006EFBB
:1029B00015F0000E016E000E026E000E036E000E8A
:1029C000046EA1EF15F0D8900136023603360436B6
:1029D00010AEEDEF14F0EFEF14F0F0EF14F0018013
:1029E00010A0F5EF14F0F7EF14F0FBEF14F0D8801F
:1029F0001036FDEF14F0D89010360F50D8B403EF16
:102A000015F005EF15F006EF15F00F0603AE0BEF0E
:102A100015F00DEF15F0E3EF14F0000E0E6E10AE92
:102A200014EF15F016EF15F02EEF15F010C009F0A9
:102A30007F0E0916D8B41FEF15F021EF15F025EF22
:102A400015F0010E0E6E2EEF15F001A02AEF15F015
:102A50002CEF15F02EEF15F021EF15F00E50D8B435
:102A600034EF15F036EF15F061EF15F0010E012689
:102A7000000E02220322042204A041EF15F043EFCE
:102A800015F061EF15F001C009F002C00AF003C0B3
:102A90000BF004C00CF00C340C320B320A32093249
:102AA00009C001F00AC002F00BC003F00CC004F032
:102AB0000F28D8B45EEF15F060EF15F061EF15F058
:102AC0000F2A0F28D8B467EF15F069EF15F071EFF2
:102AD00015F00F50D8A46FEF15F071EF15F083EFDC
:102AE00015F0000E016E000E026E000E036E000E59
:102AF000046E0F50D8A47FEF15F081EF15F083EF2F
:102B000015F0000E0D6E0FA088EF15F08AEF15F08E
:102B10008DEF15F0038E8EEF15F0039ED8900F30D9
:102B2000046E0DAE96EF15F098EF15F099EF15F0D5
:102B3000048E01C001F002C002F003C003F004C023
:102B400004F012001D50800B266E1D501D242C6EAB
:102B50001CAEADEF15F0AFEF15F0B0EF15F02C8017
:102B60002C50D8B4B6EF15F0B8EF15F0CBEF15F048
:102B70002C28D8A4BEEF15F0C0EF15F0C8EF15F063
:102B8000000E1A6E000E1B6E000E1C6E000E1D6EE7
:102B90001C8ED3EF15F0000E1A6E000E1B6E000E89
:102BA0001C6E000E1D6E2150800B261A2150212410
:102BB000276E20AEDEEF15F0E0EF15F0E1EF15F037
:102BC00027802750D8B4E7EF15F0E9EF15F0FCEFB8
:102BD00015F02728D8A4EFEF15F0F1EF15F0F9EF75
:102BE00015F0000E1E6E000E1F6E000E206E000E01
:102BF000216E208E04EF16F0000E1E6E000E1F6E6A
:102C0000000E206E000E216E2750D8B40AEF16F089
:102C10000CEF16F014EF16F02C50D8A412EF16F0AB
:102C200014EF16F01EEF16F0000E1A6E000E1B6E5B
:102C3000000E1C6E000E1D6EB6EF17F020501A022B
:102C4000F3CF31F0F4CF32F03150286E296A2A6A7E
:102C50002B6A32502D6E2E6A2F6A306A1F501B026B
:102C6000F3CF31F0F4CF32F031502826000E292274
:102C70002A222B2232502D26000E2E222F223022E5
:102C80001E501C02F3CF31F0F4CF32F03150282621
:102C9000000E29222A222B2232502D26000E2E220F
:102CA0002F2230222AC02BF029C02AF028C029F078
:102CB000286A1E501B02F3CF31F0F4CF32F03150AE
:102CC000282632502922000E2A22000E2B221F50C5
:102CD0001A02F3CF31F0F4CF32F0315028263250BF
:102CE0002922000E2A22000E2B222AC02BF029C0F6
:102CF0002AF028C029F0286A1E501A02F3CF31F0BA
:102D0000F4CF32F03150282632502922000E2A22E8
:102D1000000E2B2220501B02F3CF31F0F4CF32F003
:102D200031502D2632502E22000E2F22000E30223E
:102D30001F501C02F3CF31F0F4CF32F031502D266A
:102D400032502E22000E2F22000E302220501C0264
:102D5000F3CF31F0F4CF32F03150226E3250236E87
:102D6000246A256A24C025F023C024F022C023F061
:102D7000226A22502D2623502E2224502F22255005
:102D8000302228C022F029C023F02AC024F02BC012
:102D900025F0190ED1EF16F0D890253224322332C7
:102DA0002232E82ECCEF16F022502D2623502E2270
:102DB00024502F22255030222AC02BF029C02AF07F
:102DC00028C029F0286A27502CC022F0236A222626
:102DD000000E2322820E2224316EFF0E2320326E3B
:102DE00007EF17F0D8902D362E362F3630362BAE13
:102DF000FCEF16F0FEEF16F0FFEF16F02D80D890E6
:102E0000283629362A362B363106D8A032062FAE80
:102E10000CEF17F00EEF17F0F2EF16F0000E276E22
:102E20002BAE15EF17F017EF17F03BEF17F0FF0E73
:102E30002814226EFF0E2914236EFF0E2A14246E0E
:102E40007F0E2B14256E2250231024102510D8B489
:102E50002CEF17F02EEF17F032EF17F0010E276E60
:102E60003BEF17F02DA037EF17F039EF17F03BEFDE
:102E700017F02EEF17F02750D8B441EF17F043EFBB
:102E800017F067EF17F0010E2D26000E2E222F22CD
:102E9000302230A04EEF17F050EF17F067EF17F029
:102EA0002DC022F02EC023F02FC024F030C025F01A
:102EB0002534253224322332223222C02DF023C081
:102EC0002EF024C02FF025C030F0314A322A32BE15
:102ED00072EF17F0325008E13128D8A072EF17F0E6
:102EE00074EF17F07EEF17F0000E2D6E000E2E6EB1
:102EF000800E2F6E7F0E306EACEF17F032BE8BEF70
:102F000017F0325006E13104D8B089EF17F08BEF9B
:102F100017F097EF17F0000E2D6E000E2E6E000EBC
:102F20002F6E000E306E000E266EACEF17F031C023
:102F30002CF0FF0E2D16FF0E2E167F0E2F16000EF4
:102F400030162CA0A6EF17F0A8EF17F0A9EF17F096
:102F50002F8ED8902C30306E265030122DC01AF0A3
:102F60002EC01BF02FC01CF030C01DF012003E50D0
:102F7000800B4B6E3E503E24526E3DAEC2EF17F0BA
:102F8000C4EF17F0C5EF17F052805250D8B4CBEF12
:102F900017F0CDEF17F0E2EF17F05228D8A4D3EFD7
:102FA00017F0D5EF17F0DDEF17F0000E3B6E000EB7
:102FB0003C6E000E3D6E000E3E6E3D8E000E3E6E6F
:102FC000EAEF17F0000E3B6E000E3C6E000E3D6EF9
:102FD000000E3E6E4250800B4B1A42504224536EFC
:102FE00041AEF5EF17F0F7EF17F0F8EF17F0538059
:102FF0005350D8B4FEEF17F000EF18F015EF18F0AB
:103000005328D8A406EF18F008EF18F010EF18F0C6
:10301000000E3F6E000E406E000E416E000E426EBE
:10302000418E000E426E1DEF18F0000E3F6E000E36
:10303000406E000E416E000E426E3F504010411037
:103040004210D8A426EF18F028EF18F040EF18F03F
:10305000000E3B6E000E3C6E000E3D6E000E3E6E8E
:10306000800E3D127F0E3E124B503E123BC03BF095
:103070003CC03CF03DC03DF03EC03EF083EF19F057
:103080005250D8A446EF18F048EF18F052EF18F05D
:10309000000E3B6E000E3C6E000E3D6E000E3E6E4E
:1030A00083EF19F0535052C043F0446A435E000E60
:1030B000445A7F0E43244C6E000E44204D6E3BC09C
:1030C00047F03CC048F03DC049F03EC04AF0000E19
:1030D0003B6E000E3C6E000E3D6E000E3E6E000E0E
:1030E0004E6E000E4F6E000E506E000E516E000EB2
:1030F000536EB3EF18F05350D8B481EF18F083EF4C
:1031000018F09AEF18F0D8904736483649364A36C4
:10311000D8903B363C363D363E3651AE92EF18F0F5
:1031200094EF18F095EF18F03B80D8904E364F365C
:10313000503651363F50475C4050485841504958EE
:1031400042504A58D8A0A7EF18F0A9EF18F0B2EFF4
:1031500018F0518C3F50475E4050485A4150495AF0
:1031600042504A5A532A190E5364B9EF18F0BBEF74
:1031700018F07BEF18F04750481049104A10D8B4A7
:10318000C4EF18F0C6EF18F0DEEF18F04E80DEEF57
:1031900018F0D8903B363C363D363E3651AED3EF34
:1031A00018F0D5EF18F0D6EF18F03B80D8904E36D7
:1031B0004F36503651364C06D8A04D063DAEE3EFA3
:1031C00018F0E5EF18F0C9EF18F0000E536E51AE8D
:1031D000ECEF18F0EEEF18F012EF19F0FF0E4E14AE
:1031E000436EFF0E4F14446EFF0E5014456E7F0E5B
:1031F0005114466E4350441045104610D8B403EFA6
:1032000019F005EF19F009EF19F0010E536E12EFE6
:1032100019F03BA00EEF19F010EF19F012EF19F0B2
:1032200005EF19F05350D8B418EF19F01AEF19F050
:103230003EEF19F0010E3B26000E3C223D223E22BD
:103240003EA025EF19F027EF19F03EEF19F03BC033
:1032500043F03CC044F03DC045F03EC046F046342B
:10326000463245324432433243C03BF044C03CF026
:1032700045C03DF046C03EF04C4A4D2A4DBE49EF98
:1032800019F04D5008E14C28D8A049EF19F04BEF48
:1032900019F056EF19F0000E4D6E4C68000E3B6EA3
:1032A000000E3C6E000E3D6E000E3E6E4DBE63EF96
:1032B00019F04D5006E14C04D8B061EF19F063EFFE
:1032C00019F071EF19F0000E4D6E000E4C6E000EED
:1032D0003B6E000E3C6E000E3D6E000E3E6E000E0C
:1032E0004B6E4CC052F052A078EF19F07AEF19F003
:1032F0007DEF19F03D8E7EEF19F03D9ED890523053
:103300003E6E34EF18F0120000019D51D96EDA6A5A
:10331000DFCFF6FF0E0EF76E000EF86E0800F550C8
:10332000250AD8A496EF19F098EF19F088EF1AF053
:103330009D51D96EDA6ADF2A000E0101596F000E25
:10334000586F58C15CF15A695B6900019D51D96E93
:10335000DA6ADFCFF6FF0E0EF76E000EF86E080089
:10336000F5502E0AD8A4B7EF19F0B9EF19F0C7EF4E
:1033700019F09D51D96EDA6ADF2A9DC007F09EC010
:1033800008F091EC1EF007C05AF108C05BF1000193
:103390009D51D96EDA6ADF50A66FA6C0F6FF0E0EF9
:1033A000F76E000EF86E0800F5CFA5F0E3EF19F008
:1033B000A62BFCEF19F06C0EA56FFCEF19F0000EB8
:1033C000A56FFCEF19F0A5519F6FA06BA051000AEB
:1033D000D8B4EDEF19F0DFEF19F09F514C0AD8B4D3
:1033E000D8EF19F02A0AD8B4DBEF19F00A0AD8B4DA
:1033F000D8EF19F0DFEF19F0A6C0F6FF0E0EF76E4A
:10340000000EF86E0800F550660AD8A40AEF1AF00C
:103410000CEF1AF081EF1AF036EF1AF09E51D96EC8
:10342000DA6ADFCF9FF0040EDF269F51D96EDA6A89
:10343000DECFA1F0DECFA2F0DECFA3F0DECFA4F08E
:103440004BEF1AF09E51D96EDA6ADFCF9FF0040E6F
:10345000DF269F51D96EDA6ADECFA1F0DECFA2F06F
:10346000DECFA3F0DECFA4F04BEF1AF0A5519F6F93
:10347000A06BA051000AD8B440EF1AF04BEF1AF03D
:103480009F514C0AD8B422EF1AF0200AD8B40EEF9C
:103490001AF04BEF1AF09D51D96EDA6AA629DF6E49
:1034A00069EF1AF09CC06AF0A1C06BF0A2C06CF08A
:1034B000A3C06DF0A4C06EF0A6C0F6FF0E0EF76EAE
:1034C000000EF86E0800F5CF6FF011EC07F09BEFDF
:1034D0001AF0A6C0F6FF0E0EF76E000EF86E08008A
:1034E000F5509F6FA06BA051000AD8B47AEF1AF084
:1034F00081EF1AF09F51660AD8B452EF1AF081EFAB
:103500001AF000019D51D96EDA6ADF2A9BEF1AF09A
:103510009D51D96EDA6ADFCFF6FF0E0EF76E000E00
:10352000F86E0800F550016E026A9CC003F0E8ECEA
:103530001EF081EF1AF0120050C166F051C167F021
:1035400052C168F053C169F054C066F055C067F0CD
:1035500056C068F057C069F0810E586EFF0E596E64
:1035600066C05AF067C05BF068C05CF069C05DF08F
:10357000180EC0EF1AF0D8905D325C325B325A32CE
:10358000E82EBBEF1AF05A5058240001646F000E69
:103590005920656F65BFD6EF1AF0655109E1170E26
:1035A000645DD8A0D6EF1AF0D8EF1AF0E2EF1AF067
:1035B00054C054F055C055F056C056F057C057F09F
:1035C000A6EF1BF065BFE7EF1AF0E9EF1AF05AEF2C
:1035D0001BF064C058F0FF0E596EFF0E5A6E7F0E3E
:1035E0005B6E000E5C6E5866F8EF1AF000EF1BF091
:1035F0005C345C325B325A325932582EF3EF1AF097
:1036000059C060F05AC061F05BC062F05CC063F00A
:10361000000160516615586E61516715596E62510F
:1036200068155A6E635169155B6E585059105A10DF
:103630005B10D8A41EEF1BF020EF1BF022EF1BF055
:10364000D8EF1AF066C058F067C059F068C05AF059
:1036500069C05BF0200E32EF1BF0D8905B325A321B
:1036600059325832E82E2DEF1BF0585059105A108D
:103670005B10D8B43EEF1BF040EF1BF048EF1BF09F
:103680006051662761516723625168236351692342
:10369000601D586E611D596E621D5A6E631D5B6E12
:1036A00058506617595067175A5068175B5069177A
:1036B0009EEF1BF066C058F067C059F068C05AF022
:1036C00069C05BF0200E6AEF1BF0D8905B325A3273
:1036D00059325832E82E65EF1BF0585059105A10E5
:1036E0005B10D8A476EF1BF078EF1BF082EF1BF095
:1036F000000E666F000E676F000E686F000E696F38
:103700009EEF1BF0D8906635586E6735596E683558
:103710005A6E69355B6E585059105A105B10D8B408
:1037200094EF1BF096EF1BF09EEF1BF0000E666F00
:10373000000E676F800E686FBF0E696F66C054F031
:1037400067C055F068C056F069C057F01200146E9B
:103750001450D8B4AEEF1BF0B0EF1BF0D2EF1BF05B
:103760000FBEB7EF1BF0B5EF1BF0D2EF1BF00CC094
:1037700010F00DC011F00EC012F00FC013F0101EAB
:10378000111E121E131E102A000E112212221322C5
:1037900010C016F011C017F012C018F013C019F0C5
:1037A000DAEF1BF00CC016F00DC017F00EC018F0C9
:1037B0000FC019F00C500D100E100F10D8A4E3EF2D
:1037C0001BF0E5EF1BF0EFEF1BF0000E0C6E000E90
:1037D0000D6E000E0E6E000E0F6E80EF1CF0960E3A
:1037E000156EF9EF1BF0152AD890193218321732DE
:1037F0001632000E1614106E000E1714116E000E05
:103800001814126EFE0E1914136E105011101210AF
:103810001310D8A40EEF1CF010EF1CF0F3EF1BF008
:103820001EEF1CF0152A010E1626000E1722182274
:103830001922D8901932183217321632000E161487
:10384000106E000E1714116E000E1814126EFF0E7B
:103850001914136E1050111012101310D8A433EF56
:103860001CF035EF1CF012EF1CF03DEF1CF01506BC
:10387000D890163617361836193618BE42EF1CF097
:1038800044EF1CF04CEF1CF0020E15604AEF1CF0E8
:103890004CEF1CF037EF1CF015B051EF1CF053EF5C
:1038A0001CF054EF1CF0189ED890153215C010F083
:1038B000116A126A136A10C013F0126A116A106A50
:1038C00010501612115017121250181213501912CC
:1038D0001450D8B46EEF1CF070EF1CF078EF1CF0B1
:1038E0000FBE77EF1CF075EF1CF078EF1CF0198E0F
:1038F00016C00CF017C00DF018C00EF019C00FF074
:10390000120058C001F059C002F05AC003F05BC069
:1039100004F0000E056E000E066E000E076E000E1F
:10392000086E3DEC1FF0D8A098EF1CF09AEF1CF049
:10393000A4EF1CF0000E546E000E556E000E566E75
:10394000000E576E0CEF1DF054C03BF055C03CF01C
:1039500056C03DF057C03EF058C03FF059C040F04F
:103960005AC041F05BC042F0B7EC17F03BC060F0CA
:103970003CC061F03DC062F03EC063F060C001F049
:1039800061C002F062C003F063C004F00DEC1DF0F2
:1039900001C068F002C069F054C033F055C034F083
:1039A00056C035F057C036F058C01EF059C01FF051
:1039B0005AC020F05BC021F068C00CF069C00DF067
:1039C000000E0DBEFF0E0E6E0F6E010EA7EC1BF06B
:1039D0000CC01AF00DC01BF00EC01CF00FC01DF083
:1039E000A2EC15F01AC037F01BC038F01CC039F03B
:1039F0001DC03AF0DBEC20F033C064F034C065F059
:103A000035C066F036C067F064C054F065C055F04C
:103A100066C056F067C057F01200033404340A6ED3
:103A20000A50D8A416EF1DF018EF1DF022EF1DF07C
:103A3000000E016E000E026E000E036E000E046E8C
:103A40008FEF1DF001C005F002C006F003C007F0C3
:103A500004C008F0200E32EF1DF0D8900832073273
:103A600006320532E82E2DEF1DF00550096E038E4B
:103A7000FF0E0116FF0E0216FF0E0316000E0416AF
:103A8000960E0A5E0ABE49EF1DF047EF1DF05FEF8C
:103A90001DF00A50800A970FD8B051EF1DF053EF78
:103AA0001DF055EF1DF018EF1DF0D89004320332D1
:103AB000023201320A3E55EF1DF077EF1DF01F0E66
:103AC0000A6465EF1DF067EF1DF06FEF1DF018EF52
:103AD0001DF0D89001360236033604360A060A5025
:103AE000D8A475EF1DF077EF1DF069EF1DF00950B8
:103AF000D8B47DEF1DF07FEF1DF087EF1DF0041EA1
:103B0000031E021E016C000E02220322042201C0C9
:103B100001F002C002F003C003F004C004F0120080
:103B2000000E33143B6E000E34143C6E800E3514C0
:103B30003D6E7F0E36143E6E3B503C103D103E10E5
:103B4000D8A4A5EF1DF0A7EF1DF0AFEF1DF0000EFC
:103B5000336E000E346E000E356E000E366E000EA3
:103B600037143B6E000E38143C6E800E39143D6ED7
:103B70007F0E3A143E6E3B503C103D103E10D8A4D0
:103B8000C4EF1DF0C6EF1DF0CEEF1DF0000E376E36
:103B9000000E386E000E396E000E3A6E36AED3EF60
:103BA0001DF0D5EF1DF0DEEF1DF0336C341ED8B0E4
:103BB000342A351ED8B0352A800E36563AAEE3EF99
:103BC0001DF0E5EF1DF0EEEF1DF0376C381ED8B09C
:103BD000382A391ED8B0392A800E3A56000E331AC8
:103BE000000E341A000E351A800E361A000E371ADF
:103BF000000E381A000E391A800E3A1A3750335C0C
:103C000038503458395035583A503658D8B00BEFF0
:103C10001EF00DEF1EF010EF1EF0D89011EF1EF009
:103C2000D880120054C10BF055C10CF056C10DF0F4
:103C300057C10EF001C00BF002C00CF003C00DF034
:103C400004C00EF00BC005F00CC006F00DC007F06C
:103C50000EC008F0180E32EF1EF0D890083207326E
:103C600006320532E82E2DEF1EF00550096E0A6A65
:103C700009500A10D8A43FEF1EF041EF1EF061EF8B
:103C80001EF0D8900B34056E0C34066E0D34076EA2
:103C90000E34086E0550061007100810D8A453EF14
:103CA0001EF055EF1EF05BEF1EF0000E026E020ECE
:103CB000016E90EF1EF0000E026E030E016E90EF8B
:103CC0001EF009280A10D8A468EF1EF06AEF1EF053
:103CD0008CEF1EF00BC005F00CC006F00DC007F015
:103CE0000EC008F0090ED89005360636073608369D
:103CF000E82E73EF1EF00550061007100810D8B418
:103D000084EF1EF087EF1EF0010E88EF1EF0000E0C
:103D1000016E026A90EF1EF0000E026E040E016E3C
:103D20001200000E0B6E000E0A6E0750D96EDA6A92
:103D3000DFCFF6FF0E0EF76E000EF86E0800F5509E
:103D40002A0AD8A4A6EF1EF0A8EF1EF0CEEF1EF0B0
:103D50000750D96EDA6ADF2A0850D96EDA6A020E85
:103D6000DF26DF5CD96EDA6ADECF0AF0DECF0BF039
:103D7000E3EF1EF00AC001F00BC002F0000E046E6B
:103D80000A0E036E0BEC22F0095001240A6E000E9D
:103D900002200B6E0750D96EDA6ADF2A0750D96EFF
:103DA000DA6ADFCFF6FF0E0EF76E000EF86E08002F
:103DB000F550D00F096E090E0964E1EF1EF0E3EF34
:103DC0001EF0BAEF1EF00AC007F00BC008F0120098
:103DD0000350D8B4EEEF1EF0F0EF1EF0F8EF1EF037
:103DE0000350D8A4F6EF1EF0F8EF1EF0FDEF1EF022
:103DF00001505BEC22F03CEF1FF00350D96EDA6A01
:103E00000A0ED926DE50DE10D8B409EF1FF00BEFF2
:103E10001FF024EF1FF00350D96EDA6A0A0ED9267C
:103E20000350E16EE26A030EE126DE50E65CE650E6
:103E3000800A086EDE50800A0858D8B022EF1FF0C2
:103E400024EF1FF03CEF1FF00350D96EDA6A030E27
:103E5000D926DF50046E0350D96EDA6ADF5004248D
:103E6000D96EDA6A01C0DFFF0350D96EDA6A030E39
:103E7000D926DE2A000EDD221200000E0114096E82
:103E8000000E02140A6E800E03140B6E7F0E0414D3
:103E90000C6E09500A100B100C10D8A452EF1FF032
:103EA00054EF1FF05CEF1FF0000E016E000E026E6B
:103EB000000E036E000E046E000E0514096E000E57
:103EC00006140A6E800E07140B6E7F0E08140C6E1B
:103ED00009500A100B100C10D8A471EF1FF073EFEB
:103EE0001FF07BEF1FF0000E056E000E066E000E39
:103EF000076E000E086E055001180FE106500218FB
:103F00000CE10750031809E108500418D8B48BEFEE
:103F10001FF08DEF1FF090EF1FF0D89091EF1FF082
:103F2000D880120013BE99EF1FF097EF1FF09DEF9E
:103F30001FF0000E136E000E126E000E166E000EB5
:103F4000156EADEF1FF0000E026E200E016E0FC059
:103F500003F0E8EC1EF0154A162A1250155C1650B4
:103F6000800A146E1350800A1458D8A0BAEF1FF0BC
:103F7000BCEF1FF0A3EF1FF010C009F011C00AF052
:103F80000FC00BF041EC21F0120004BECAEF1FF08D
:103F9000CCEF1FF0D6EF1FF001C001F002C002F01D
:103FA00003C003F004C004F0EFEF1FF001C005F000
:103FB00002C006F003C007F004C008F0051E061E8C
:103FC000071E081E052A000E06220722082205C029
:103FD00001F006C002F007C003F008C004F01200B0
:103FE00003C00AF004C00BF001C008F002C009F0E1
:103FF0000AEF20F00AC0D9FF0BC0DAFFDF50076ECE
:104000000A4A0B2A08C0D9FF09C0DAFF07C0DFFF40
:10401000084A092A0506D8A00606052806E106284A
:10402000D8A415EF20F017EF20F0FAEF1FF01200E0
:1040300051EC22F0520E46EC22F0B60E46EC22F085
:1040400056EC22F0530E46EC22F0010E20EC21F04B
:10405000076E07500A6E0B6A000E20EC21F0076E07
:104060000750096E086A0A5008100A6E0B500910B2
:104070000B6E4CEC22F00AC005F00BC006F01200EB
:1040800051EC22F0520E46EC22F0B80E46EC22F033
:1040900056EC22F0530E46EC22F0010E20EC21F0FB
:1040A000076E07500A6E0B6A000E20EC21F0076EB7
:1040B0000750096E086A0A5008100A6E0B50091062
:1040C0000B6E4CEC22F00AC005F00BC006F012009B
:1040D00051EC22F0520E46EC22F0B40E46EC22F0E7
:1040E00056EC22F0530E46EC22F0010E20EC21F0AB
:1040F000076E07500A6E0B6A000E20EC21F0076E67
:104100000750096E086A0A5008100A6E0B50091011
:104110000B6E4CEC22F00AC005F00BC006F012004A
:1041200051EC22F0520E46EC22F0BA0E46EC22F090
:1041300056EC22F0530E46EC22F0010E20EC21F05A
:10414000076E07500A6E0B6A000E20EC21F0076E16
:104150000750096E086A0A5008100A6E0B500910C1
:104160000B6E4CEC22F00AC005F00BC006F01200FA
:10417000A8C0AAF0C5EF20F0A7C09CF0AA0E0001CD
:104180009D6FA9C09EF084EC19F0AAC0F6FF0E0E38
:10419000F76E000EF86E0800F5500009D8A4D3EFB2
:1041A00020F0D5EF20F0BCEF20F0000E0001A86F4A
:1041B000000EA76F1200000E371A000E381A000EFC
:1041C000391A800E3A1A33C001F034C002F035C0FB
:1041D00003F036C004F037C005F038C006F039C02F
:1041E00007F03AC008F042EC13F001C033F002C00F
:1041F00034F003C035F004C036F01200CDEC21F0ED
:10420000010E036E000E1EEC22F03F0E056E550EE1
:10421000E82EFED7052EFCD70000030E036E000E1D
:104220001EEC22F0D50E036E010E1EEC22F08792DA
:104230008198869E889680867F8279887E8E1200FD
:10424000036EF7EC21F00E01DA87F7EC21F0D5CE02
:1042500004F0F7EC21F00350D8B431EF21F035EF42
:1042600021F0026A022A36EF21F0026A023A02467F
:104270000E01DA510218DF0B0218DA6FDA890450E6
:104280001200000E0E6E000E0D6E50EF21F00CC0ED
:1042900001F0026A0BC003F0E8EC1EF00D4A0E2A92
:1042A0000D500924D96E0E500A20DA6EDF500C6EC4
:1042B0000C50D8A45EEF21F060EF21F047EF21F021
:1042C000120001C005F002C006F0032A0304046EC8
:1042D00004C0F6FF0E0EF76E000EF86E05C0D9FF93
:1042E00006C0DAFF054A062A0800F5CFDFFFDF50D7
:1042F000D8A47DEF21F07FEF21F065EF21F01200CF
:10430000AD0E0001B96FABC0BAF0000EBE6F000E6B
:10431000BD6F000EC56F000EC46FBA0EA76FACC0A4
:10432000A8F0B90EA96FB8EC20F00001AB51BD2583
:10433000D96EDA6ADF6A120001500210031004100D
:10434000D8B4A5EF21F0A7EF21F0AFEF21F0000ED8
:10435000011A000E021A000E031A800E041A01C080
:1043600001F002C002F003C003F004C004F0120028
:10437000FEEC20F0520E0101B06F2B0EAF6F000E5D
:10438000E82EFED7AF2FFCD7B02FFAD70000E8EC0D
:104390000FF0BAEF21F000EF00F00E01D951F00B51
:1043A0000809D96FD98B9F0ED66F848A848CA79BFE
:1043B000A79D1D0E1D6F1E0E1C6F1C0E6F6F1B0E1A
:1043C000706F1200EBEF21F00250D96EDA6ADF5005
:1043D0003AEC22F0022A0250D96EDA6ADF50D8A4F1
:1043E000F4EF21F0F6EF21F0E4EF21F012000E01DE
:1043F000D8B5FDEF21F0FFEF21F0F7EF21F0DACE95
:1044000001F01F0E0116D8A408EF22F00AEF22F0E7
:10441000F7EF21F0120001500302F3CF05F0F4CFC3
:1044200006F001500402F350062602500302F35036
:10443000062605C001F006C002F01200046E51EC21
:1044400022F0520E46EC22F00450800946EC22F095
:10445000035046EC22F04CEC22F0120001EE00F08A
:10446000AF0EEE6AE806FDE10001FE6BFD6B000198
:10447000B8EF21F0016E0E0137A541EF22F043EFB6
:1044800022F03BEF22F001C0E4FE1200026EF7ECD6
:1044900021F002C0D5FE1200F7EC21F00E01DA8502
:1044A0001200F7EC21F00E01DA811200F7EC21F096
:0844B0000E01DA831200120074
:020000040030CA
:02000000AAFF55
:020004009FFF5C
:00000001FF
