:0400000060EF26F097
:100E000000005CEC25F005C00CF006C00DF00E6A89
:100E10000F6A000E71EC1CF00CC0C1F00DC0C2F0E6
:100E20000EC0C3F00FC0C4F084EC25F005C00CF078
:100E300006C00DF00E6A0F6A000E71EC1CF00CC0BB
:100E4000C5F00DC0C6F00EC0C7F00FC0C8F0D4EC9E
:100E500025F005C00CF006C00DF00E6A0F6A000EFA
:100E600071EC1CF00CC0C9F00DC0CAF00EC0CBF084
:100E70000FC0CCF0ACEC25F005C00CF006C00DF0B6
:100E80000E6A0F6A000E71EC1CF00CC0CDF00DC0A4
:100E9000CEF00EC0CFF00FC0D0F0C1C06AF0C2C01B
:100EA0006BF0C3C06CF0C4C06DF0C5C06EF0C6C0BE
:100EB0006FF0C7C070F0C8C071F0C9C072F0CAC08E
:100EC00073F0CBC074F0CCC075F0CDC076F0CEC05E
:100ED00077F0CFC078F0D0C079F0D30E00017A6FF0
:100EE000D70E7B6FDB0E7C6F1DEC0CF0000E00014B
:100EF000D26F000ED16F000E016E800E026EB10E29
:100F0000036E430E046ED3C005F0D4C006F0D5C006
:100F100007F0D6C008F0ABEC22F0D8B092EF07F0A3
:100F200094EF07F018EF08F0D3C001F0D4C002F03E
:100F3000D5C003F0D6C004F0000E056E000E066E9C
:100F4000B40E076E430E086EABEC22F0D8B0ABEFD8
:100F500007F0ADEF07F018EF08F0000E016E000E7D
:100F6000026EAA0E036E420E046ED7C005F0D8C002
:100F700006F0D9C007F0DAC008F0ABEC22F0D8B028
:100F8000C4EF07F0C6EF07F018EF08F0D7C001F084
:100F9000D8C002F0D9C003F0DAC004F0000E056E2C
:100FA000000E066EB40E076E420E086EABEC22F019
:100FB000D8B0DDEF07F0DFEF07F018EF08F0000E14
:100FC000016E000E026EA00E036E420E046EDBC0B8
:100FD00005F0DCC006F0DDC007F0DEC008F0ABECC9
:100FE00022F0D8B0F6EF07F0F8EF07F018EF08F0AE
:100FF000DBC001F0DCC002F0DDC003F0DEC004F0B5
:10100000000E056E000E066EAA0E076E420E086EEA
:10101000ABEC22F0D8B00FEF08F011EF08F018EFAA
:1010200008F0000E0001D26F010ED16F18EF0CF026
:10103000000E016E000E026E860E036E420E046EEE
:10104000D3C005F0D4C006F0D5C007F0D6C008F074
:10105000ABEC22F0D8B02FEF08F031EF08F0B5EF8D
:1010600008F0D3C001F0D4C002F0D5C003F0D6C060
:1010700004F0000E056E000E066E9E0E076E420E08
:10108000086EABEC22F0D8B048EF08F04AEF08F059
:10109000B5EF08F0000E016E000E026E480E036EF2
:1010A000420E046ED7C005F0D8C006F0D9C007F0D4
:1010B000DAC008F0ABEC22F0D8B061EF08F063EFD3
:1010C00008F0B5EF08F0D7C001F0D8C002F0D9C0E1
:1010D00003F0DAC004F0000E056E000E066E640E1A
:1010E000076E420E086EABEC22F0D8B07AEF08F033
:1010F0007CEF08F0B5EF08F0000E016E000E026EF6
:10110000200E036E420E046EDBC005F0DCC006F05C
:10111000DDC007F0DEC008F0ABEC22F0D8B093EFF2
:1011200008F095EF08F0B5EF08F0DBC001F0DCC087
:1011300002F0DDC003F0DEC004F0000E056E000E0C
:10114000066E380E076E420E086EABEC22F0D8B079
:10115000ACEF08F0AEEF08F0B5EF08F0000E0001BC
:10116000D26F020ED16F18EF0CF0D7C001F0D8C0CB
:1011700002F0D9C003F0DAC004F0000E056E000ED4
:10118000066E200E076E410E086EABEC22F0D8B052
:10119000CCEF08F0CEEF08F007EF09F0000E016E7B
:1011A000000E026EF00E036E410E046EDBC005F001
:1011B000DCC006F0DDC007F0DEC008F0ABEC22F0CA
:1011C000D8B0E5EF08F0E7EF08F007EF09F0DBC073
:1011D00001F0DCC002F0DDC003F0DEC004F0000E60
:1011E000056E000E066E0C0E076E420E086EABEC1E
:1011F00022F0D8B0FEEF08F000EF09F007EF09F099
:10120000000E0001D26F030ED16F18EF0CF0000E2C
:10121000016E000E026EA00E036E410E046ED3C06E
:1012200005F0D4C006F0D5C007F0D6C008F0ABEC8E
:1012300022F0D8B01EEF09F020EF09F0A4EF09F07A
:10124000D3C001F0D4C002F0D5C003F0D6C004F082
:10125000000E056E000E066EC80E076E410E086E7B
:10126000ABEC22F0D8B037EF09F039EF09F0A4EF7A
:1012700009F0000E016E000E026E820E036E420E29
:10128000046ED7C005F0D8C006F0D9C007F0DAC0A8
:1012900008F0ABEC22F0D8B050EF09F052EF09F0B3
:1012A000A4EF09F0D7C001F0D8C002F0D9C003F014
:1012B000DAC004F0000E056E000E066E8C0E076E8E
:1012C000420E086EABEC22F0D8B069EF09F06BEF7C
:1012D00009F0A4EF09F0000E016E000E026E580E28
:1012E000036E420E046EDBC005F0DCC006F0DDC00C
:1012F00007F0DEC008F0ABEC22F0D8B082EF09F0C6
:1013000084EF09F0A4EF09F0DBC001F0DCC002F0CB
:10131000DDC003F0DEC004F0000E056E000E066EA8
:10132000640E076E420E086EABEC22F0D8B09BEF55
:1013300009F09DEF09F0A4EF09F0000E0001D26F53
:10134000040ED16F18EF0CF0000E016E000E026E4D
:10135000500E036E410E046ED3C005F0D4C006F0EB
:10136000D5C007F0D6C008F0ABEC22F0D8B0BBEF88
:1013700009F0BDEF09F041EF0AF0D3C001F0D4C08D
:1013800002F0D5C003F0D6C004F0000E056E000ECA
:10139000066E900E076E410E086EABEC22F0D8B0D0
:1013A000D4EF09F0D6EF09F041EF0AF0000E016E1C
:1013B000000E026E5C0E036E420E046ED7C005F086
:1013C000D8C006F0D9C007F0DAC008F0ABEC22F0C4
:1013D000D8B0EDEF09F0EFEF09F041EF0AF0D7C018
:1013E00001F0D8C002F0D9C003F0DAC004F0000E5A
:1013F000056E000E066E700E076E420E086EABECA8
:1014000022F0D8B006EF0AF008EF0AF041EF0AF038
:10141000000E016E000E026E480E036E420E046E48
:10142000DBC005F0DCC006F0DDC007F0DEC008F070
:10143000ABEC22F0D8B01FEF0AF021EF0AF041EF39
:101440000AF0DBC001F0DCC002F0DDC003F0DEC05A
:1014500004F0000E056E000E066E580E076E420E6A
:10146000086EABEC22F0D8B038EF0AF03AEF0AF091
:1014700041EF0AF0000E0001D26F050ED16F18EF98
:101480000CF0000E016E000E026EA00E036E400EF8
:10149000046ED3C005F0D4C006F0D5C007F0D6C0A6
:1014A00008F0ABEC22F0D8B058EF0AF05AEF0AF08F
:1014B000DEEF0AF0D3C001F0D4C002F0D5C003F0D3
:1014C000D6C004F0000E056E000E066E200E076EEC
:1014D000410E086EABEC22F0D8B071EF0AF073EF5A
:1014E0000AF0DEEF0AF0000E016E000E026E8C0EA6
:1014F000036E420E046ED7C005F0D8C006F0D9C006
:1015000007F0DAC008F0ABEC22F0D8B08AEF0AF0AE
:101510008CEF0AF0DEEF0AF0D7C001F0D8C002F07D
:10152000D9C003F0DAC004F0000E056E000E066E9E
:10153000960E076E420E086EABEC22F0D8B0A3EF09
:101540000AF0A5EF0AF0DEEF0AF0000E016E000EC1
:10155000026E780E036E420E046EDBC005F0DCC036
:1015600006F0DDC007F0DEC008F0ABEC22F0D8B02A
:10157000BCEF0AF0BEEF0AF0DEEF0AF0DBC001F0CC
:10158000DCC002F0DDC003F0DEC004F0000E056E2A
:10159000000E066E860E076E420E086EABEC22F051
:1015A000D8B0D5EF0AF0D7EF0AF0DEEF0AF0000E60
:1015B0000001D26F060ED16F18EF0CF0000E016E15
:1015C000000E026E940E036E420E046ED3C005F040
:1015D000D4C006F0D5C007F0D6C008F0ABEC22F0BE
:1015E000D8B0F5EF0AF0F7EF0AF07BEF0BF0D3C0BD
:1015F00001F0D4C002F0D5C003F0D6C004F0000E54
:10160000056E000E066EAA0E076E420E086EABEC5B
:1016100022F0D8B00EEF0BF010EF0BF07BEF0BF0D9
:10162000000E016E000E026EE00E036E410E046E9F
:10163000D7C005F0D8C006F0D9C007F0DAC008F06E
:10164000ABEC22F0D8B027EF0BF029EF0BF07BEFDB
:101650000BF0D7C001F0D8C002F0D9C003F0DAC057
:1016600004F0000E056E000E066E040E076E420EAC
:10167000086EABEC22F0D8B040EF0BF042EF0BF06D
:101680007BEF0BF0000E016E000E026E140E036E67
:10169000420E046EDBC005F0DCC006F0DDC007F0D2
:1016A000DEC008F0ABEC22F0D8B059EF0BF05BEFE6
:1016B0000BF07BEF0BF0DBC001F0DCC002F0DDC013
:1016C00003F0DEC004F0000E056E000E066E280E5C
:1016D000076E420E086EABEC22F0D8B072EF0BF042
:1016E00074EF0BF07BEF0BF0000E0001D26F070ED2
:1016F000D16F18EF0CF0000E016E000E026EB00EEE
:10170000036E410E046ED3C005F0D4C006F0D5C000
:1017100007F0D6C008F0ABEC22F0D8B092EF0BF097
:1017200094EF0BF018EF0CF0D3C001F0D4C002F02E
:10173000D5C003F0D6C004F0000E056E000E066E94
:10174000D80E076E410E086EABEC22F0D8B0ABEFAE
:101750000BF0ADEF0BF018EF0CF0000E016E000E69
:10176000026E400E036E420E046ED7C005F0D8C064
:1017700006F0D9C007F0DAC008F0ABEC22F0D8B020
:10178000C4EF0BF0C6EF0BF018EF0CF0D7C001F070
:10179000D8C002F0D9C003F0DAC004F0000E056E24
:1017A000000E066E540E076E420E086EABEC22F071
:1017B000D8B0DDEF0BF0DFEF0BF018EF0CF0000E00
:1017C000016E000E026E340E036E420E046EDBC01C
:1017D00005F0DCC006F0DDC007F0DEC008F0ABECC1
:1017E00022F0D8B0F6EF0BF0F8EF0BF018EF0CF09A
:1017F000DBC001F0DCC002F0DDC003F0DEC004F0AD
:10180000000E056E000E066E480E076E420E086E44
:10181000ABEC22F0D8B00FEF0CF011EF0CF018EF9A
:101820000CF0000E0001D26F080ED16F18EF0CF013
:10183000D1C05CF0D2C05DF012006AC022F06BC073
:1018400023F06CC024F06DC025F0000E266EFF0E54
:10185000276E7F0E286E470E296E52EC19F022C0BB
:10186000B5F023C0B6F024C0B7F025C0B8F06EC004
:1018700022F06FC023F070C024F071C025F0000E7C
:10188000266EFF0E276E7F0E286E470E296E52ECD5
:1018900019F022C0B9F023C0BAF024C0BBF025C0B3
:1018A000BCF072C022F073C023F074C024F075C085
:1018B00025F0000E266EFF0E276E7F0E286E470E57
:1018C000296E52EC19F022C0BDF023C0BEF024C036
:1018D000BFF025C0C0F0000E266EFF0E276E7F0EF3
:1018E000286E470E296E76C022F077C023F078C0AC
:1018F00024F079C025F052EC19F022C081F023C009
:1019000082F024C083F025C084F0000E226E000E09
:10191000236E800E246E3F0E256E81C026F082C09D
:1019200027F083C028F084C029F052EC19F022C0BF
:101930007DF023C07EF024C07FF025C080F0B9C0C8
:1019400001F0BAC002F0BBC003F0BCC004F0B5C0E7
:1019500005F0B6C006F0B7C007F0B8C008F0ABECB1
:1019600022F0D8A0B6EF0CF0B8EF0CF0EDEF0CF0D1
:10197000BDC001F0BEC002F0BFC003F0C0C004F0A3
:10198000B9C005F0BAC006F0BBC007F0BCC008F093
:10199000ABEC22F0D8A0CFEF0CF0D1EF0CF0DBEFE6
:1019A0000CF0BDC091F0BEC092F0BFC093F0C0C0BB
:1019B00094F0E3EF0CF0B9C091F0BAC092F0BBC064
:1019C00093F0BCC094F091C0B1F092C0B2F093C05B
:1019D000B3F094C0B4F020EF0DF0BDC001F0BEC074
:1019E00002F0BFC003F0C0C004F0B5C005F0B6C03F
:1019F00006F0B7C007F0B8C008F0ABEC22F0D8A0F2
:101A000004EF0DF006EF0DF010EF0DF0BDC095F0F6
:101A1000BEC096F0BFC097F0C0C098F018EF0DF0B0
:101A2000B5C095F0B6C096F0B7C097F0B8C098F0C2
:101A300095C0B1F096C0B2F097C0B3F098C0B4F0C2
:101A4000B5C001F0B6C002F0B7C003F0B8C004F0F2
:101A5000B9C005F0BAC006F0BBC007F0BCC008F0C2
:101A6000ABEC22F0D8A037EF0DF039EF0DF06EEFB0
:101A70000DF0B9C001F0BAC002F0BBC003F0BCC0A9
:101A800004F0BDC005F0BEC006F0BFC007F0C0C086
:101A900008F0ABEC22F0D8A050EF0DF052EF0DF0B3
:101AA0005CEF0DF0BDC09DF0BEC09EF0BFC09FF0CA
:101AB000C0C0A0F064EF0DF0B9C09DF0BAC09EF0B8
:101AC000BBC09FF0BCC0A0F09DC099F09EC09AF032
:101AD0009FC09BF0A0C09CF0A1EF0DF0B5C001F03D
:101AE000B6C002F0B7C003F0B8C004F0BDC005F046
:101AF000BEC006F0BFC007F0C0C008F0ABEC22F0DB
:101B0000D8A085EF0DF087EF0DF091EF0DF0BDC07F
:101B1000A1F0BEC0A2F0BFC0A3F0C0C0A4F099EF76
:101B20000DF0B5C0A1F0B6C0A2F0B7C0A3F0B8C028
:101B3000A4F0A1C099F0A2C09AF0A3C09BF0A4C0E9
:101B40009CF0B1C01AF0B2C01BF0B3C01CF0B4C01E
:101B50001DF099C01EF09AC01FF09BC020F09CC0E1
:101B600021F0FCEC25F01AC0ADF01BC0AEF01CC09B
:101B7000AFF01DC0B0F0ADC001F0AEC002F0AFC01C
:101B800003F0B0C004F0000E056E000E066E000EED
:101B9000076E000E086E54EC24F0D8A0D2EF0DF0C2
:101BA000D4EF0DF0DFEF0DF0000E0001A96F000E75
:101BB000AA6F000EAB6F000EAC6F40EF0FF0B1C01C
:101BC00001F0B2C002F0B3C003F0B4C004F0B5C07D
:101BD00005F0B6C006F0B7C007F0B8C008F054EC86
:101BE00024F0D8A0F6EF0DF0F8EF0DF05AEF0EF05C
:101BF000ADC026F0AEC027F0AFC028F0B0C029F0CD
:101C0000BDC01EF0BEC01FF0BFC020F0C0C021F09C
:101C1000B9C01AF0BAC01BF0BBC01CF0BCC01DF0AC
:101C2000FCEC25F01AC022F01BC023F01CC024F0ED
:101C30001DC025F052EC19F022C085F023C086F0BB
:101C400024C087F025C088F0000E586E000E596E33
:101C5000C00E5A6E400E5B6E85C054F086C055F0C3
:101C600087C056F088C057F09CEC21F054C089F032
:101C700055C08AF056C08BF057C08CF089C03BF03D
:101C80008AC03CF08BC03DF08CC03EF0000E3F6E31
:101C9000000E406E700E416E420E426E3DEC17F02B
:101CA0003BC0A9F03CC0AAF03DC0ABF03EC0ACF0D8
:101CB00040EF0FF0B1C001F0B2C002F0B3C003F0CA
:101CC000B4C004F0B9C005F0BAC006F0BBC007F05C
:101CD000BCC008F054EC24F0D8A071EF0EF073EF04
:101CE0000EF0CDEF0EF0ADC026F0AEC027F0AFC0C5
:101CF00028F0B0C029F0B5C01EF0B6C01FF0B7C0C4
:101D000020F0B8C021F0BDC01AF0BEC01BF0BFC0AB
:101D10001CF0C0C01DF0FCEC25F01AC022F01BC066
:101D200023F01CC024F01DC025F052EC19F022C095
:101D3000A5F023C0A6F024C0A7F025C0A8F0000E8F
:101D4000056E000E066E000E076E400E086EA5C0F2
:101D500001F0A6C002F0A7C003F0A8C004F07EEC1A
:101D600012F001C03BF002C03CF003C03DF004C0E3
:101D70003EF0000E3F6E000E406E700E416E420E41
:101D8000426E3DEC17F03BC0A9F03CC0AAF03DC04C
:101D9000ABF03EC0ACF040EF0FF0B1C001F0B2C00C
:101DA00002F0B3C003F0B4C004F0BDC005F0BEC083
:101DB00006F0BFC007F0C0C008F054EC24F0D8A073
:101DC000E4EF0EF0E6EF0EF040EF0FF0ADC026F0BE
:101DD000AEC027F0AFC028F0B0C029F0B9C01EF0E7
:101DE000BAC01FF0BBC020F0BCC021F0B5C01AF0D3
:101DF000B6C01BF0B7C01CF0B8C01DF0FCEC25F05D
:101E00001AC022F01BC023F01CC024F01DC025F016
:101E100052EC19F022C0A5F023C0A6F024C0A7F010
:101E200025C0A8F0000E056E000E066E800E076E2F
:101E3000400E086EA5C001F0A6C002F0A7C003F0D6
:101E4000A8C004F07EEC12F001C03BF002C03CF0F0
:101E500003C03DF004C03EF0000E3F6E000E406E29
:101E6000700E416E420E426E3DEC17F03BC0A9F081
:101E70003CC0AAF03DC0ABF03EC0ACF040EF0FF06C
:101E80000001ACBF48EF0FF046EF0FF062EF0FF02C
:101E9000A9C001F0AAC002F0ABC003F0ACC004F0CE
:101EA000000E056E000E066EB40E076E430E086E31
:101EB0007EEC12F001C0A9F002C0AAF003C0ABF0A2
:101EC00004C0ACF000017A51D96EDA6AA9C0DEFF15
:101ED000AAC0DEFFABC0DEFFACC0DEFFB1C001F0C8
:101EE000B2C002F0B3C003F0B4C004F0000E056E3F
:101EF000000E066E000E076E000E086E54EC24F005
:101F0000D8A085EF0FF087EF0FF095EF0FF00001ED
:101F10007B51D96EDA6A000EDE6E000EDE6E000EA8
:101F2000DE6E000EDD6EC5EF0FF0B1C026F0B2C060
:101F300027F0B3C028F0B4C029F0ADC022F0AEC085
:101F400023F0AFC024F0B0C025F052EC19F022C04D
:101F50003BF023C03CF024C03DF025C03EF0000E15
:101F60003F6E000E406EC80E416E420E426E3DEC5A
:101F700017F000017B51D96EDA6A3BC0DEFF3CC02E
:101F8000DEFF3DC0DEFF3EC0DEFF000E3F6E000EF6
:101F9000406EC80E416E420E426EB1C03BF0B2C000
:101FA0003CF0B3C03DF0B4C03EF03DEC17F03BC098
:101FB0008DF03CC08EF03DC08FF03EC090F08DC0E3
:101FC0003BF08EC03CF08FC03DF090C03EF07DC035
:101FD0003FF07EC040F07FC041F080C042F03DEC59
:101FE00017F000017C51D96EDA6A3BC0DEFF3CC0BD
:101FF000DEFF3DC0DEFF3EC0DEFF120040EC26F0FB
:10200000290E5F6E960E5E6E7F0EE82EFED75E2E58
:10201000FCD75F2EFAD7000080867C8EE1C013F0DB
:10202000E2C014F0000120EE05F0DF51D926E051A6
:10203000DA22DF504BEC1DF00001E52B01EC07F03C
:102040005CC0E3F05DC0E4F080967C9E0F0E000162
:10205000E5652DEF10F02FEF10F09CEF10F0E1C0D0
:1020600013F0E2C014F020EE08F0DF51D926E05161
:10207000DA22DF5089EC1FF0E1C013F0E2C014F067
:10208000000120EE01F0DF51D926E051DA22DF50C5
:102090000BEC1EF0E1C013F0E2C014F0000120EEE2
:1020A00001F0DF51D926E051DA22DF500BEC1EF0AF
:1020B000E1C013F0E2C014F0000120EE06F0DF51A1
:1020C000D926E051DA22DF5089EC1FF0000E010121
:1020D0008C6F000E8B6F7EEF10F0E1C013F0E2C04A
:1020E00014F0000120EE05F0DF51D926E051DA228C
:1020F000DF504BEC1DF001018B4B8C2B8CBF8AEF1A
:1021000010F08C5109E10F0E8B5DD8A08AEF10F012
:102110008CEF10F06DEF10F0E1C013F0E2C014F09E
:10212000000120EE08F0DF51D926E051DA22DF501D
:1021300089EC1FF07DEF12F0E351E411D8B4A3EF66
:1021400010F0A5EF10F000EF10F03C0EE625D96E70
:10215000DA6A010EDA22E5510A0FDF6E000EE56F32
:10216000E62BE305E411D8A4B8EF10F0BAEF10F0B5
:10217000E0EF10F03C0EE625D96EDA6A010EDA22A5
:10218000E3C0DFFFE62BE1C013F0E2C014F020EE65
:1021900008F0DF51D926E051DA22DF5089EC1FF038
:1021A000E1C013F0E2C014F0000120EE01F0DF51B5
:1021B000D926E051DA22DF500BEC1EF000EF10F0D0
:1021C000020EE319E411D8A4E8EF10F0EAEF10F0E2
:1021D00010EF11F03C0EE625D96EDA6A010EDA2214
:1021E000E3C0DFFFE62BE1C013F0E2C014F020EE05
:1021F00008F0DF51D926E051DA22DF5089EC1FF0D8
:10220000E1C013F0E2C014F0000120EE02F0DF5153
:10221000D926E051DA22DF50CAEC1EF000EF10F0B0
:10222000030EE319E411D8A418EF11F01AEF11F01E
:102230004EEF11F03C0EE625D96EDA6A010EDA2275
:10224000E3C0DFFFE62BE1C013F0E2C014F020EEA4
:1022500008F0DF51D926E051DA22DF5089EC1FF077
:10226000E1C013F0E2C014F0000120EE01F0DF51F4
:10227000D926E051DA22DF500BEC1EF0E1C013F05A
:10228000E2C014F0000120EE01F0DF51D926E05148
:10229000DA22DF500BEC1EF000EF10F0040EE31911
:1022A000E411D8A456EF11F058EF11F08CEF11F0B3
:1022B0003C0EE625D96EDA6A010EDA22E3C0DFFFB2
:1022C000E62BE1C013F0E2C014F020EE08F0DF517D
:1022D000D926E051DA22DF5089EC1FF0E1C013F07B
:1022E000E2C014F0000120EE06F0DF51D926E051E3
:1022F000DA22DF5089EC1FF0E1C013F0E2C014F0E5
:10230000000120EE01F0DF51D926E051DA22DF5042
:102310000BEC1EF000EF10F0050EE319E411D8A449
:1023200094EF11F096EF11F0CAEF11F03C0EE62594
:10233000D96EDA6A010EDA22E3C0DFFFE62BE1C0D4
:1023400013F0E2C014F020EE08F0DF51D926E0517E
:10235000DA22DF5089EC1FF0E1C013F0E2C014F084
:10236000000120EE06F0DF51D926E051DA22DF50DD
:1023700089EC1FF0E1C013F0E2C014F0000120EE80
:1023800002F0DF51D926E051DA22DF50CAEC1EF00C
:1023900000EF10F0060EE319E411D8A4D2EF11F00B
:1023A000D4EF11F0FAEF11F03C0EE625D96EDA6A9F
:1023B000010EDA22E3C0DFFFE62BE1C013F0E2C03A
:1023C00014F020EE08F0DF51D926E051DA22DF5078
:1023D00089EC1FF0E1C013F0E2C014F0000120EE20
:1023E00003F0DF51D926E051DA22DF500BEC1EF06A
:1023F00000EF10F0070EE319E411D8A402EF12F079
:1024000004EF12F02AEF12F03C0EE625D96EDA6ADC
:10241000010EDA22E3C0DFFFE62BE1C013F0E2C0D9
:1024200014F020EE08F0DF51D926E051DA22DF5017
:1024300089EC1FF0E1C013F0E2C014F0000120EEBF
:1024400004F0DF51D926E051DA22DF50CAEC1EF049
:1024500000EF10F0080EE319E411D8A432EF12F0E7
:1024600034EF12F07BEF12F0E1C013F0E2C014F091
:1024700020EE08F0DF51D926E051DA22DF5089EC56
:102480001FF0E1C013F0E2C014F0000120EE01F0F3
:10249000DF51D926E051DA22DF500BEC1EF0E1C00B
:1024A00013F0E2C014F0000120EE01F0DF51D92654
:1024B000E051DA22DF500BEC1EF0E1C013F0E2C075
:1024C00014F0000120EE06F0DF51D926E051DA22A7
:1024D000DF5089EC1FF0E1C013F0E2C014F00001FE
:1024E00020EE07F0DF51D926E051DA22DF504BEC25
:1024F0001DF07DEF12F000EF10F012000450800B81
:102500000D6E045004240F6E03AE89EF12F08BEFB2
:1025100012F08CEF12F00F800F50D8B492EF12F03F
:1025200094EF12F0A9EF12F00F28D8A49AEF12F04E
:102530009CEF12F0A4EF12F0000E016E000E026E7E
:10254000000E036E000E046E038E000E046EB1EFDB
:1025500012F0000E016E000E026E000E036E000EF1
:10256000046E0850800B0E6E0D500E18D8B4BBEFE1
:1025700012F0BDEF12F0BEEF12F00D8C08500824DF
:102580000E6E07AEC6EF12F0C8EF12F0C9EF12F0F0
:102590000E800E50D8B4CFEF12F0D1EF12F0E6EF6C
:1025A00012F00E28D8A4D7EF12F0D9EF12F0E1EF15
:1025B00012F0000E056E000E066E000E076E000E85
:1025C000086E078E000E086EEEEF12F0000E056E1C
:1025D000000E066E000E076E000E086E0F500E5CA9
:1025E000D8B0F5EF12F0F7EF12F01EEF13F00DACCC
:1025F000FCEF12F0FEEF12F000EF13F0800E0D1A58
:102600000FC010F00EC00FF010C00EF001C010F09F
:1026100005C001F010C005F002C010F006C002F0C5
:1026200010C006F003C010F007C003F010C007F0A0
:1026300004C010F008C004F010C008F0000E106EC6
:102640000F500EC009F00A6A095E000E0A5A0ABE4F
:1026500033EF13F00A5009E11A0E095CD8A033EFEA
:1026600013F035EF13F06CEF13F00150021003106C
:102670000410D8A43EEF13F041EF13F0010E42EF27
:1026800013F0000E106E000E016E000E026E000EB2
:10269000036E000E046E0EC00FF075EF13F010A065
:1026A00054EF13F056EF13F05CEF13F0D8901030A6
:1026B0000109106E5EEF13F0D890103201A063EFA5
:1026C00013F065EF13F066EF13F0108E043404324C
:1026D0000332023201320F2A0E500F5CD8A073EF82
:1026E00013F075EF13F04FEF13F00DBC7AEF13F00A
:1026F0007CEF13F0BCEF13F00F50D8A482EF13F06F
:1027000084EF13F08EEF13F0000E016E000E026ED8
:10271000000E036E000E046EDDEF14F0055001266E
:1027200006500222075003220850042204A09BEF07
:1027300013F09DEF13F049EF14F010A0A2EF13F087
:10274000A4EF13F0AAEF13F0D89010300109106E27
:10275000ACEF13F0D890103201A0B1EF13F0B3EF4B
:1027600013F0B4EF13F0108E04340432033202324B
:1027700001320F2A49EF14F00550015C065002584F
:10278000075003580450800A096E0850800A0958FF
:10279000D8B0CDEF13F0CFEF13F0FAEF13F00150F4
:1027A000055C096E025006580A6E035007580B6EFE
:1027B000045008580C6EFF0E0924016EFF0E0A200B
:1027C000026EFF0E0B20036EFF0E0C20046E800EB7
:1027D0000D1A106C1050D8A4F0EF13F0F2EF13F0B4
:1027E00002EF14F0010E0126000E02220322042241
:1027F00002EF14F00550015E0650025A0750035ACA
:102800000850045A0150021003100410D8A40BEF12
:1028100014F00DEF14F042EF14F01050D8A413EFA1
:1028200014F015EF14F042EF14F0000E016E000EDC
:10283000026E000E036E000E046EDDEF14F0D890F1
:10284000013602360336043610AE29EF14F02BEFB2
:1028500014F02CEF14F0018010A031EF14F033EFDE
:1028600014F037EF14F0D880103639EF14F0D89008
:1028700010360F50D8B43FEF14F041EF14F042EF90
:1028800014F00F0603AE47EF14F049EF14F01FEFFA
:1028900014F0000E0E6E10AE50EF14F052EF14F064
:1028A0006AEF14F010C009F07F0E0916D8B45BEF80
:1028B00014F05DEF14F061EF14F0010E0E6E6AEF8C
:1028C00014F001A066EF14F068EF14F06AEF14F052
:1028D0005DEF14F00E50D8B470EF14F072EF14F0F6
:1028E0009DEF14F0010E0126000E022203220422A5
:1028F00004A07DEF14F07FEF14F09DEF14F001C001
:1029000009F002C00AF003C00BF004C00CF00C3454
:102910000C320B320A32093209C001F00AC002F04F
:102920000BC003F00CC004F00F28D8B49AEF14F0D9
:102930009CEF14F09DEF14F00F2A0F28D8B4A3EFEA
:1029400014F0A5EF14F0ADEF14F00F50D8A4ABEFD6
:1029500014F0ADEF14F0BFEF14F0000E016E000E96
:10296000026E000E036E000E046E0F50D8A4BBEF73
:1029700014F0BDEF14F0BFEF14F0000E0D6E0FA0B9
:10298000C4EF14F0C6EF14F0C9EF14F0038ECAEFD1
:1029900014F0039ED8900F30046E0DAED2EF14F0F9
:1029A000D4EF14F0D5EF14F0048E01C001F002C092
:1029B00002F003C003F004C004F01200000E2E6EFB
:1029C000320E2D6E3C0E2D24D96E010E2E20DA6EA5
:1029D0000A0EDF64EEEF14F0F0EF14F032EF15F0B2
:1029E0003C0E2D24D96E010E2E20DA6EDF50F60F2C
:1029F000286E000E2A6E000E296E0EEF15F023C011
:102A000013F024C014F020EE05F02150D9262250F6
:102A1000DA22DF504BEC1DF0294A2A2AFF0E282427
:102A2000256E266AFF0E26222550295C2A50800A30
:102A3000276E2650800A2758D8A021EF15F023EFE3
:102A400015F0FFEF14F023C013F024C014F020EEB3
:102A500007F02150D9262250DA22DF504BEC1DF02E
:102A600014EF17F03C0E2D24D96E010E2E20DA6ED5
:102A7000DE04D8A43EEF15F040EF15F05CEF15F042
:102A800023C013F024C014F020EE02F02150D92608
:102A90002250DA22DF50CAEC1EF023C013F024C00B
:102AA00014F020EE06F02150D9262250DA22DF5011
:102AB00089EC1FF014EF17F03C0E2D24D96E010E97
:102AC0002E20DA6E020EDE18D8A469EF15F06BEF37
:102AD00015F087EF15F023C013F024C014F020EE9A
:102AE00001F02150D9262250DA22DF500BEC1EF0E3
:102AF00023C013F024C014F020EE06F02150D92694
:102B00002250DA22DF5089EC1FF014EF17F03C0E50
:102B10002D24D96E010E2E20DA6E030EDE18D8A4F5
:102B200094EF15F096EF15F0B2EF15F023C013F007
:102B300024C014F020EE01F02150D9262250DA22D0
:102B4000DF500BEC1EF023C013F024C014F020EE75
:102B500001F02150D9262250DA22DF500BEC1EF072
:102B600014EF17F03C0E2D24D96E010E2E20DA6ED4
:102B7000040EDE18D8A4BFEF15F0C1EF15F02BEF4F
:102B800016F023C013F024C014F020EE01F0215001
:102B9000D9262250DA22DF500BEC1EF023C013F0AE
:102BA00024C014F020EE05F02150D9262250DA225C
:102BB000DF504BEC1DF023C013F024C014F020EEC6
:102BC00005F02150D9262250DA22DF504BEC1DF0BF
:102BD00023C013F024C014F020EE08F02150D926B1
:102BE0002250DA22DF5089EC1FF023C013F024C0FA
:102BF00014F020EE01F02150D9262250DA22DF50C5
:102C00000BEC1EF023C013F024C014F020EE01F0F2
:102C10002150D9262250DA22DF500BEC1EF023C0BF
:102C200013F024C014F020EE06F02150D9262250D3
:102C3000DA22DF5089EC1FF023C013F024C014F017
:102C400020EE07F02150D9262250DA22DF504BEC3B
:102C50001DF014EF17F03C0E2D24D96E010E2E201E
:102C6000DA6E050EDE18D8A438EF16F03AEF16F03B
:102C7000A4EF16F023C013F024C014F020EE01F0EE
:102C80002150D9262250DA22DF50CAEC1EF023C090
:102C900013F024C014F020EE05F02150D926225064
:102CA000DA22DF504BEC1DF023C013F024C014F0E7
:102CB00020EE05F02150D9262250DA22DF504BECCD
:102CC0001DF023C013F024C014F020EE08F02150B2
:102CD000D9262250DA22DF5089EC1FF023C013F0EE
:102CE00024C014F020EE01F02150D9262250DA221F
:102CF000DF500BEC1EF023C013F024C014F020EEC4
:102D000001F02150D9262250DA22DF500BEC1EF0C0
:102D100023C013F024C014F020EE06F02150D92671
:102D20002250DA22DF5089EC1FF023C013F024C0B8
:102D300014F020EE07F02150D9262250DA22DF507D
:102D40004BEC1DF014EF17F03C0E2D24D96E010E44
:102D50002E20DA6E060EDE18D8A4B1EF16F0B3EF0F
:102D600016F0DCEF16F023C013F024C014F020EEB0
:102D700004F02150D9262250DA22DF50CAEC1EF08E
:102D800023C013F024C014F020EE06F02150D92601
:102D90002250DA22DF5089EC1FF023C013F024C048
:102DA00014F020EE07F02150D9262250DA22DF500D
:102DB0004BEC1DF014EF17F03C0E2D24D96E010ED4
:102DC0002E20DA6E070EDE18D8A4E9EF16F0EBEF2E
:102DD00016F014EF17F023C013F024C014F020EE07
:102DE00003F02150D9262250DA22DF500BEC1EF0DE
:102DF00023C013F024C014F020EE06F02150D92691
:102E00002250DA22DF5089EC1FF023C013F024C0D7
:102E100014F020EE07F02150D9262250DA22DF509C
:102E20004BEC1DF014EF17F02D06D8A02E062EBE89
:102E30001EEF17F01CEF17F0E2EF14F0000E000188
:102E4000E66F000E2C6E000E2B6E3C0E2B24D96EFE
:102E5000010E2C20DA6EDF6A2B4A2C2A2CBE3AEFA8
:102E600017F02C5009E1320E2B5CD8A03AEF17F086
:102E70003CEF17F025EF17F012003E50800B476E25
:102E80003E503E244D6E3DAE48EF17F04AEF17F02E
:102E90004BEF17F04D804D50D8B451EF17F053EF72
:102EA00017F066EF17F04D28D8A459EF17F05BEF35
:102EB00017F063EF17F0000E3B6E000E3C6E000E35
:102EC0003D6E000E3E6E3D8E6EEF17F0000E3B6EB7
:102ED000000E3C6E000E3D6E000E3E6E4250800BAA
:102EE000471A42504224486E41AE79EF17F07BEF0B
:102EF00017F07CEF17F048804850D8B482EF17F0F5
:102F000084EF17F097EF17F04828D8A48AEF17F04E
:102F10008CEF17F094EF17F0000E3F6E000E406E2E
:102F2000000E416E000E426E418E9FEF17F0000EB4
:102F30003F6E000E406E000E416E000E426E485015
:102F4000D8B4A5EF17F0A7EF17F0AFEF17F04D507B
:102F5000D8A4ADEF17F0AFEF17F0B9EF17F0000EF0
:102F60003B6E000E3C6E000E3D6E000E3E6E51EF4D
:102F700019F041503B02F3CF52F0F4CF53F05250CE
:102F8000496E4A6A4B6A4C6A53504E6E4F6A506A99
:102F9000516A40503C02F3CF52F0F4CF53F05250FC
:102FA0004926000E4A224B224C2253504E26000E38
:102FB0004F22502251223F503D02F3CF52F0F4CF26
:102FC00053F052504926000E4A224B224C225350B5
:102FD0004E26000E4F22502251224BC04CF04AC0C8
:102FE0004BF049C04AF0496A3F503C02F3CF52F0DF
:102FF000F4CF53F05250492653504A22000E4B2230
:10300000000E4C2240503B02F3CF52F0F4CF53F06D
:103010005250492653504A22000E4B22000E4C2299
:103020004BC04CF04AC04BF049C04AF0496A3F508F
:103030003B02F3CF52F0F4CF53F052504926535095
:103040004A22000E4B22000E4C2241503C02F3CF8C
:1030500052F0F4CF53F052504E2653504F22000EF0
:103060005022000E512240503D02F3CF52F0F4CFD7
:1030700053F052504E2653504F22000E5022000E55
:10308000512241503D02F3CF52F0F4CF53F0525051
:10309000436E5350446E456A466A45C046F044C08C
:1030A00045F043C044F0436A43504E2644504F22FB
:1030B000455050224650512249C043F04AC044F086
:1030C0004BC045F04CC046F0190E6CEF18F0D8908C
:1030D0004632453244324332E82E67EF18F043500F
:1030E0004E2644504F2245505022465051224BC04C
:1030F0004CF04AC04BF049C04AF0496A48504DC0B4
:1031000043F0446A4326000E4422820E4324526E4A
:10311000FF0E4420536EA2EF18F0D8904E364F3673
:10312000503651364CAE97EF18F099EF18F09AEFF1
:1031300018F04E80D89049364A364B364C365206F7
:10314000D8A0530650AEA7EF18F0A9EF18F08DEFF6
:1031500018F0000E486E4CAEB0EF18F0B2EF18F059
:10316000D6EF18F0FF0E4914436EFF0E4A14446E5A
:10317000FF0E4B14456E7F0E4C14466E43504410A8
:1031800045104610D8B4C7EF18F0C9EF18F0CDEFCE
:1031900018F0010E486ED6EF18F04EA0D2EF18F0DE
:1031A000D4EF18F0D6EF18F0C9EF18F04850D8B4A3
:1031B000DCEF18F0DEEF18F002EF19F0010E4E26EA
:1031C000000E4F225022512251A0E9EF18F0EBEFF0
:1031D00018F002EF19F04EC043F04FC044F050C059
:1031E00045F051C046F0463446324532443243320F
:1031F00043C04EF044C04FF045C050F046C051F0BF
:10320000524A532A53BE0DEF19F0535008E1522889
:10321000D8A00DEF19F00FEF19F019EF19F0000E0B
:103220004E6E000E4F6E800E506E7F0E516E47EF49
:1032300019F053BE26EF19F0535006E15204D8B0EE
:1032400024EF19F026EF19F032EF19F0000E4E6E50
:10325000000E4F6E000E506E000E516E000E476E47
:1032600047EF19F052C04DF0FF0E4E16FF0E4F16ED
:103270007F0E5016000E51164DA041EF19F043EF8E
:1032800019F044EF19F0508ED8904D30516E4750E0
:1032900051124EC03BF04FC03CF050C03DF051C009
:1032A0003EF012002550800B326E25502524396ED9
:1032B00024AE5DEF19F05FEF19F060EF19F039807F
:1032C0003950D8B466EF19F068EF19F07DEF19F0B6
:1032D0003928D8A46EEF19F070EF19F078EF19F0D3
:1032E000000E226E000E236E000E246E000E256E60
:1032F000248E000E256E85EF19F0000E226E000E52
:10330000236E000E246E000E256E2950800B321A9B
:10331000295029243A6E28AE90EF19F092EF19F057
:1033200093EF19F03A803A50D8B499EF19F09BEF27
:1033300019F0B0EF19F03A28D8A4A1EF19F0A3EFD3
:1033400019F0ABEF19F0000E266E000E276E000E7E
:10335000286E000E296E288E000E296EB8EF19F027
:10336000000E266E000E276E000E286E000E296ECF
:103370002650271028102910D8A4C1EF19F0C3EF48
:1033800019F0DBEF19F0000E226E000E236E000E16
:10339000246E000E256E800E24127F0E25123250F0
:1033A000251222C022F023C023F024C024F025C01F
:1033B00025F01EEF1BF03950D8A4E1EF19F0E3EF30
:1033C00019F0EDEF19F0000E226E000E236E000EC4
:1033D000246E000E256E1EEF1BF03A5039C02AF005
:1033E0002B6A2A5E000E2B5A7F0E2A24336E000EA3
:1033F0002B20346E22C02EF023C02FF024C030F0DA
:1034000025C031F0000E226E000E236E000E246ED9
:10341000000E256E000E356E000E366E000E376EF5
:10342000000E386E000E3A6E4EEF1AF03A50D8B4D5
:103430001CEF1AF01EEF1AF035EF1AF0D8902E3666
:103440002F3630363136D89022362336243625367C
:1034500038AE2DEF1AF02FEF1AF030EF1AF022806D
:10346000D890353636363736383626502E5C2750CB
:103470002F582850305829503158D8A042EF1AF010
:1034800044EF1AF04DEF1AF0388C26502E5E27507C
:103490002F5A2850305A2950315A3A2A190E3A6474
:1034A00054EF1AF056EF1AF016EF1AF02E502F10B4
:1034B00030103110D8B45FEF1AF061EF1AF079EFE5
:1034C0001AF0358079EF1AF0D89022362336243658
:1034D000253638AE6EEF1AF070EF1AF071EF1AF071
:1034E0002280D89035363636373638363306D8A06F
:1034F000340624AE7EEF1AF080EF1AF064EF1AF073
:10350000000E3A6E38AE87EF1AF089EF1AF0ADEF81
:103510001AF0FF0E35142A6EFF0E36142B6EFF0EB6
:1035200037142C6E7F0E38142D6E2A502B102C1051
:103530002D10D8B49EEF1AF0A0EF1AF0A4EF1AF0F5
:10354000010E3A6EADEF1AF022A0A9EF1AF0ABEF20
:103550001AF0ADEF1AF0A0EF1AF03A50D8B4B3EF6A
:103560001AF0B5EF1AF0D9EF1AF0010E2226000E6C
:1035700023222422252225A0C0EF1AF0C2EF1AF040
:10358000D9EF1AF022C02AF023C02BF024C02CF06F
:1035900025C02DF02D342D322C322B322A322AC068
:1035A00022F02BC023F02CC024F02DC025F0334A8C
:1035B000342A34BEE4EF1AF0345008E13328D8A09E
:1035C000E4EF1AF0E6EF1AF0F1EF1AF0000E346EA5
:1035D0003368000E226E000E236E000E246E000E65
:1035E000256E34BEFEEF1AF0345006E13304D8B035
:1035F000FCEF1AF0FEEF1AF00CEF1BF0000E346E29
:10360000000E336E000E226E000E236E000E246E2E
:10361000000E256E000E326E33C039F039A013EF64
:103620001BF015EF1BF018EF1BF0248E19EF1BF0A9
:10363000249ED8903930256ECFEF19F0120021C0AA
:10364000D9FF22C0DAFFDE04D8A429EF1BF02BEF4C
:103650001BF046EF1BF0010E2124016E000E22200C
:10366000026E47EC20F023C013F024C014F020EECB
:1036700001F02150D9262250DA22DF500BEC1EF047
:1036800021C001F022C002F0FBEC23F021C0D9FFE1
:1036900022C0DAFF020EDE18D8A451EF1BF053EF60
:1036A0001BF06EEF1BF0020E2124016E000E222093
:1036B000026E47EC20F023C013F024C014F020EE7B
:1036C00002F02150D9262250DA22DF50CAEC1EF037
:1036D00021C001F022C002F0FBEC23F021C0D9FF91
:1036E00022C0DAFF030EDE18D8A479EF1BF07BEFBF
:1036F0001BF096EF1BF0030E2124016E000E22201A
:10370000026E47EC20F023C013F024C014F020EE2A
:1037100003F02150D9262250DA22DF500BEC1EF0A4
:1037200021C001F022C002F0FBEC23F021C0D9FF40
:1037300022C0DAFF040EDE18D8A4A1EF1BF0A3EF1D
:103740001BF0BEEF1BF0040E2124016E000E2220A0
:10375000026E47EC20F023C013F024C014F020EEDA
:1037600004F02150D9262250DA22DF50CAEC1EF094
:1037700021C001F022C002F0FBEC23F021C0D9FFF0
:1037800022C0DAFF050EDE18D8A4C9EF1BF0CBEF7C
:103790001BF0E6EF1BF0050E2124016E000E222027
:1037A000026E47EC20F023C013F024C014F020EE8A
:1037B00005F02150D9262250DA22DF504BEC1DF0C3
:1037C00021C001F022C002F0FBEC23F021C0D9FFA0
:1037D00022C0DAFF060EDE18D8A4F1EF1BF0F3EFDB
:1037E0001BF00EEF1CF0060E2124016E000E2220AD
:1037F000026E47EC20F023C013F024C014F020EE3A
:1038000006F02150D9262250DA22DF5089EC1FF031
:1038100021C001F022C002F0FBEC23F021C0D9FF4F
:1038200022C0DAFF070EDE18D8A419EF1CF01BEF38
:103830001CF036EF1CF0070E2124016E000E222032
:10384000026E47EC20F023C013F024C014F020EEE9
:1038500007F02150D9262250DA22DF504BEC1DF020
:1038600021C001F022C002F0FBEC23F021C0D9FFFF
:1038700022C0DAFF080EDE18D8A441EF1CF043EF97
:103880001CF05EEF1CF0080E2124016E000E2220B9
:10389000026E47EC20F023C013F024C014F020EE99
:1038A00008F02150D9262250DA22DF5089EC1FF08F
:1038B00021C001F022C002F0FBEC23F021C0D9FFAF
:1038C00022C0DAFF080EDF6468EF1CF06AEF1CF01C
:1038D0001FEF1BF021C0D9FF22C0DAFF010EDF6EFF
:1038E0001200146E1450D8B478EF1CF07AEF1CF06C
:1038F0009CEF1CF00FBE81EF1CF07FEF1CF09CEFE3
:103900001CF00CC010F00DC011F00EC012F00FC072
:1039100013F0101E111E121E131E102A000E11226B
:103920001222132210C016F011C017F012C018F0A6
:1039300013C019F0A4EF1CF00CC016F00DC017F066
:103940000EC018F00FC019F00C500D100E100F1013
:10395000D8A4ADEF1CF0AFEF1CF0B9EF1CF0000ED7
:103960000C6E000E0D6E000E0E6E000E0F6E4AEF06
:103970001DF0960E156EC3EF1CF0152AD890193263
:10398000183217321632000E1614106E000E17146D
:10399000116E000E1814126EFE0E1914136E1050D4
:1039A000111012101310D8A4D8EF1CF0DAEF1CF08D
:1039B000BDEF1CF0E8EF1CF0152A010E1626000ED4
:1039C000172218221922D8901932183217321632BB
:1039D000000E1614106E000E1714116E000E18143F
:1039E000126EFF0E1914136E1050111012101310D6
:1039F000D8A4FDEF1CF0FFEF1CF0DCEF1CF007EF8C
:103A00001DF01506D890163617361836193618BE1A
:103A10000CEF1DF00EEF1DF016EF1DF0020E1560FD
:103A200014EF1DF016EF1DF001EF1DF015B01BEFA8
:103A30001DF01DEF1DF01EEF1DF0189ED8901532E1
:103A400015C010F0116A126A136A10C013F0126ADE
:103A5000116A106A105016121150171212501812D3
:103A6000135019121450D8B438EF1DF03AEF1DF06E
:103A700042EF1DF00FBE41EF1DF03FEF1DF042EF92
:103A80001DF0198E16C00CF017C00DF018C00EF006
:103A900019C00FF01200186E1350D96EDA6A010EB9
:103AA000D926010EDF6E1450D96EDA6A010ED926BE
:103AB000010EDF6E000E1E6E280E1D6E000E026ED1
:103AC000640E016E000E046E280E036E99EC23F056
:103AD00001C01FF002C020F0000E1A6E000E196E19
:103AE00096EF1DF01350D96EDA6A1350E16EE26A58
:103AF000E750156E1528DF6E1450D96EDA6A14502F
:103B0000E16EE26AE750156E1528DF6E14C00EF004
:103B1000F2EC20F013C00EF0F2EC20F01FC001F028
:103B200020C002F07BEC26F0194A1A2A1D50195CBD
:103B30001A50800A156E1E50800A1558D8A0A3EF9F
:103B40001DF0A5EF1DF072EF1DF0000E1C6E000EB3
:103B50001B6EB4EF1DF0D00E156ECA0EE82EFED708
:103B6000152EFCD71B4A1C2A1850156E166A1550C4
:103B70001B5C1C50800A176E1650800A1758D8A07C
:103B8000C4EF1DF0C6EF1DF0ABEF1DF0F4EF1DF01C
:103B90001450D96EDA6ADF50D8B4D1EF1DF0D3EFEC
:103BA0001DF0D7EF1DF01450D96EDA6ADF061350FE
:103BB000D96EDA6ADF50D8B4E0EF1DF0E2EF1DF005
:103BC000E6EF1DF01350D96EDA6ADF0614C00EF06E
:103BD000F2EC20F013C00EF0F2EC20F01FC001F068
:103BE00020C002F07BEC26F01350D96EDA6ADF5069
:103BF000D8A4FDEF1DF0FFEF1DF0C8EF1DF014502D
:103C0000D96EDA6ADF50D8A408EF1EF00AEF1EF072
:103C1000C8EF1DF01200186E1350D96EDA6A010E4B
:103C2000D926010EDF6E1450D96EDA6A010ED9263C
:103C3000DF6A000E1E6E280E1D6E000E026E640EF0
:103C4000016E000E046E280E036E99EC23F001C085
:103C50001FF002C020F0000E1A6E000E196E55EF14
:103C60001EF01350D96EDA6A1350E16EE26AE75023
:103C7000156E1528DF6E1450D96EDA6A1450E16E95
:103C8000E26AE750156E1528DF6E14C00EF0F2ECF4
:103C900020F013C00EF0F2EC20F01FC001F020C0A5
:103CA00002F07BEC26F0194A1A2A1D50195C1A50B2
:103CB000800A156E1E50800A1558D8A062EF1EF0BB
:103CC00064EF1EF031EF1EF0000E1C6E000E1B6E36
:103CD00073EF1EF0D00E156ECA0EE82EFED7152E0D
:103CE000FCD71B4A1C2A1850156E166A15501B5C0F
:103CF0001C50800A176E1650800A1758D8A083EF00
:103D00001EF085EF1EF06AEF1EF0B3EF1EF01450A8
:103D1000D96EDA6ADF50D8B490EF1EF092EF1EF041
:103D200096EF1EF01450D96EDA6ADF061350D96E82
:103D3000DA6ADF50D8B49FEF1EF0A1EF1EF0A5EFB6
:103D40001EF01350D96EDA6ADF0614C00EF0F2ECE2
:103D500020F013C00EF0F2EC20F01FC001F020C0E4
:103D600002F07BEC26F01350D96EDA6ADF50D8A44B
:103D7000BCEF1EF0BEEF1EF087EF1EF01450D96EA0
:103D8000DA6ADF50D8A4C7EF1EF0C9EF1EF087EF44
:103D90001EF01200186E1350D96EDA6A010ED92681
:103DA000DF6A1450D96EDA6A010ED926010EDF6E71
:103DB000000E1E6E280E1D6E000E026E640E016E49
:103DC000000E046E280E036E99EC23F001C01FF064
:103DD00002C020F0000E1A6E000E196E14EF1FF0D4
:103DE0001350D96EDA6A1350E16EE26AE750156E2D
:103DF0001528DF6E1450D96EDA6A1450E16EE26A4B
:103E0000E750156E1528DF6E14C00EF0F2EC20F0AE
:103E100013C00EF0F2EC20F01FC001F020C002F041
:103E20007BEC26F0194A1A2A1D50195C1A50800A98
:103E3000156E1E50800A1558D8A021EF1FF023EFF1
:103E40001FF0F0EF1EF0000E1C6E000E1B6E32EF26
:103E50001FF0D00E156ECA0EE82EFED7152EFCD719
:103E60001B4A1C2A1850156E166A15501B5C1C50F4
:103E7000800A176E1650800A1758D8A042EF1FF01C
:103E800044EF1FF029EF1FF072EF1FF01450D96EAE
:103E9000DA6ADF50D8B44FEF1FF051EF1FF055EF43
:103EA0001FF01450D96EDA6ADF061350D96EDA6A41
:103EB000DF50D8B45EEF1FF060EF1FF064EF1FF02B
:103EC0001350D96EDA6ADF0614C00EF0F2EC20F05F
:103ED00013C00EF0F2EC20F01FC001F020C002F081
:103EE0007BEC26F01350D96EDA6ADF50D8A47BEF52
:103EF0001FF07DEF1FF046EF1FF01450D96EDA6A05
:103F0000DF50D8A486EF1FF088EF1FF046EF1FF0B8
:103F10001200186E1350D96EDA6A010ED926DF6AC4
:103F20001450D96EDA6A010ED926DF6A000E1E6EB1
:103F3000280E1D6E000E026E640E016E000E046EE1
:103F4000280E036E99EC23F001C01FF002C020F090
:103F5000000E1A6E000E196ED2EF1FF01350D96EBC
:103F6000DA6A1350E16EE26AE750156E1528DF6ECB
:103F70001450D96EDA6A1450E16EE26AE750156E99
:103F80001528DF6E14C00EF0F2EC20F013C00EF016
:103F9000F2EC20F01FC001F020C002F07BEC26F014
:103FA000194A1A2A1D50195C1A50800A156E1E50A3
:103FB000800A1558D8A0DFEF1FF0E1EF1FF0AEEF39
:103FC0001FF0000E1C6E000E1B6EF0EF1FF0D00EE7
:103FD000156ECA0EE82EFED7152EFCD71B4A1C2ADA
:103FE0001850156E166A15501B5C1C50800A176E0F
:103FF0001650800A1758D8A000EF20F002EF20F0EA
:10400000E7EF1FF030EF20F01450D96EDA6ADF507E
:10401000D8B40DEF20F00FEF20F013EF20F0145084
:10402000D96EDA6ADF061350D96EDA6ADF50D8B477
:104030001CEF20F01EEF20F022EF20F01350D96E7D
:10404000DA6ADF0614C00EF0F2EC20F013C00EF0B6
:10405000F2EC20F01FC001F020C002F07BEC26F053
:104060001350D96EDA6ADF50D8A439EF20F03BEF55
:1040700020F004EF20F01450D96EDA6ADF50D8A493
:1040800044EF20F046EF20F004EF20F012008EA65F
:104090004CEF20F04EEF20F055EF20F08EB453EFB0
:1040A00020F055EF20F047EF20F0090E046E1E0EB1
:1040B000036EE40EE82EFED7032EFCD7042EFAD7AB
:1040C00000D08EB666EF20F068EF20F081EF20F090
:1040D0008EB46DEF20F06FEF20F081EF20F080863E
:1040E0007C8E520E046E2B0E036E000EE82EFED751
:1040F000032EFCD7042EFAD700D080967C9EF1EFD9
:1041000020F08EB486EF20F088EF20F0B6EF20F09C
:10411000110E046E3C0E036ECB0EE82EFED7032E5E
:10412000FCD7042EFAD7000001C0D9FF02C0DAFF85
:10413000DECF03F0DDCF04F0010E0326000E0422D3
:1041400001C0D9FF02C0DAFF03C0DEFF04C0DDFFFB
:104150007C8E110E046E3C0E036ECB0EE82EFED745
:10416000032EFCD7042EFAD700007C9E8EB6BBEF40
:1041700020F0BDEF20F0EFEF20F0110E046E3C0EAA
:10418000036ECB0EE82EFED7032EFCD7042EFAD7F3
:10419000000001C0D9FF02C0DAFFDECF03F0DDCF9F
:1041A00004F0FF0E0324056EFF0E0420066E01C00E
:1041B000D9FF02C0DAFF05C0DEFF06C0DDFF808642
:1041C000110E046E3C0E036ECB0EE82EFED7032EAE
:1041D000FCD7042EFAD70000809647EF20F047EF77
:1041E00020F012000E50D96EDA6A020ED926DF5086
:1041F000D8B4FDEF20F0FFEF20F02FEF21F00E50AC
:10420000D96EDA6ADF500F6E0F50016E026A0E50DF
:10421000D96EDA6A030ED926DECF03F0DDCF04F0C3
:10422000BBEC26F001C007F002C008F0000E0A6ED9
:10423000640E096EF3EC24F00E50D96EDA6A030EA8
:10424000D926DF50106E0750105C116E0E50D96EDB
:10425000DA6A030ED926DF50126E50EF21F0000EFD
:10426000116E0E50D96EDA6ADF500F6E0F50016E6C
:10427000026A0E50D96EDA6A030ED926DECF03F039
:10428000DDCF04F0BBEC26F001C007F002C008F05F
:10429000000E0A6E640E096EF3EC24F00750126EE5
:1042A0000E50D96EDA6A010ED926DF50D8B45BEF12
:1042B00021F05DEF21F07DEF21F00E50D96EDA6A2A
:1042C000050ED926DECF0FF0DDCF10F00FC0D9FFDD
:1042D00010C0DAFF11C0DFFF0E50D96EDA6A070E88
:1042E000D926DECF0FF0DDCF10F00FC0D9FF10C000
:1042F000DAFF12C0DFFF9BEF21F00E50D96EDA6AB1
:10430000050ED926DECF0FF0DDCF10F00FC0D9FF9C
:1043100010C0DAFF12C0DFFF0E50D96EDA6A070E46
:10432000D926DECF0FF0DDCF10F00FC0D9FF10C0BF
:10433000DAFF11C0DFFF120058C001F059C002F0CF
:104340005AC003F05BC004F0000E056E000E066E4E
:10435000000E076E000E086E54EC24F0D8A0B3EFE8
:1043600021F0B5EF21F0BFEF21F0000E546E000EEA
:10437000556E000E566E000E576E27EF22F054C099
:1043800022F055C023F056C024F057C025F058C085
:1043900026F059C027F05AC028F05BC029F052EC33
:1043A00019F022C060F023C061F024C062F025C083
:1043B00063F060C001F061C002F062C003F063C04E
:1043C00004F028EC22F001C068F002C069F054C08B
:1043D0001AF055C01BF056C01CF057C01DF058C055
:1043E0003FF059C040F05AC041F05BC042F068C095
:1043F0000CF069C00DF0000E0DBEFF0E0E6E0F6EBC
:10440000010E71EC1CF00CC03BF00DC03CF00EC076
:104410003DF00FC03EF03DEC17F03BC01EF03CC03D
:104420001FF03DC020F03EC021F0FCEC25F01AC08A
:1044300064F01BC065F01CC066F01DC067F064C06E
:1044400054F065C055F066C056F067C057F01200D2
:10445000033404340A6E0A50D8A431EF22F033EF4B
:1044600022F03DEF22F0000E016E000E026E000EF3
:10447000036E000E046EAAEF22F001C005F002C028
:1044800006F003C007F004C008F0200E4DEF22F044
:10449000D8900832073206320532E82E48EF22F073
:1044A0000550096E038EFF0E0116FF0E0216FF0E59
:1044B0000316000E0416960E0A5E0ABE64EF22F082
:1044C00062EF22F07AEF22F00A50800A970FD8B0FC
:1044D0006CEF22F06EEF22F070EF22F033EF22F05B
:1044E000D89004320332023201320A3E70EF22F0D9
:1044F00092EF22F01F0E0A6480EF22F082EF22F08A
:104500008AEF22F033EF22F0D890013602360336DC
:1045100004360A060A50D8A490EF22F092EF22F057
:1045200084EF22F00950D8B498EF22F09AEF22F0ED
:10453000A2EF22F0041E031E021E016C000E0222D6
:104540000322042201C001F002C002F003C003F004
:1045500004C004F01200000E0114096E000E0214D3
:104560000A6E800E03140B6E7F0E04140C6E09503D
:104570000A100B100C10D8A4C0EF22F0C2EF22F0EA
:10458000CAEF22F0000E016E000E026E000E036EE6
:10459000000E046E000E0514096E000E06140A6E5D
:1045A000800E07140B6E7F0E08140C6E09500A1053
:1045B0000B100C10D8A4DFEF22F0E1EF22F0E9EFAE
:1045C00022F0000E056E000E066E000E076E000E45
:1045D000086E04AEEEEF22F0F0EF22F0F9EF22F0D9
:1045E000016C021ED8B0022A031ED8B0032A800E26
:1045F000045608AEFEEF22F000EF23F009EF23F09F
:10460000056C061ED8B0062A071ED8B0072A800EF1
:104610000856000E011A000E021A000E031A800E30
:10462000041A000E051A000E061A000E071A800E54
:10463000081A0550015C06500258075003580850EC
:104640000458D8B026EF23F028EF23F02BEF23F007
:10465000D8902CEF23F0D8801200000E026E630E6B
:10466000016EA9EC24F0849E7C9E889680968684B8
:104670000E01B4958686B497000E0001F46F010E0A
:10468000F56F010EF66FAA0EF96F0F0EFA6FA60EF8
:10469000FB6F0F0EFC6F000EF86F630EF76F000ECE
:1046A000EB6F010EEC6F010EED6F250EF06F0F0E2C
:1046B000F16F210EF26F0F0EF36F000EEF6F630EAE
:1046C000EE6F010E0101826F190E836F190E846F58
:1046D000280E856F280E866F640E876F640E886FB4
:1046E000210E896F210E8A6F2DEC25F0820E216E2E
:1046F000010E226EF40E236EEB0E246E1FEC1BF0E7
:10470000820E0001DF6F010EE06FF40EE16FEB0E21
:10471000E26FFEEC0FF0820E216E010E226EF40E9F
:10472000236EEB0E246EDEEC14F074EF23F000EF3A
:1047300000F0000E066E04BEA2EF23F0A0EF23F0FF
:10474000A8EF23F0036C041ED8B0042A010E066EF5
:1047500002BEAFEF23F0ADEF23F0B5EF23F0016C15
:10476000021ED8B0022A010E061A000E086E000EB4
:10477000076E03500410D8B4C0EF23F0C2EF23F04B
:10478000EAEF23F0010E056ECAEF23F0D89003364E
:104790000436052A04AECFEF23F0D1EF23F0C6EFA5
:1047A00023F0D890073608360350015C04500258B5
:1047B000D8A0DDEF23F0DFEF23F0E4EF23F0035088
:1047C000015E0450025A0780D89004320332052E4D
:1047D000D1EF23F00650D8B4F0EF23F0F2EF23F03E
:1047E000F6EF23F0076C081ED8B0082A07C001F0C6
:1047F00008C002F012008EB400EF24F002EF24F0A3
:1048000032EF24F0110E046E3C0E036ECB0EE82E38
:10481000FED7032EFCD7042EFAD7000001C0D9FF23
:1048200002C0DAFFDECF03F0DDCF04F0010E032675
:10483000000E042201C0D9FF02C0DAFF03C0DEFF70
:1048400004C0DDFF7C8E110E046E3C0E036ECB0E99
:10485000E82EFED7032EFCD7042EFAD700007C9E4C
:1048600053EF24F08EB637EF24F039EF24F0FBEF4E
:1048700023F0110E046E3C0E036ECB0EE82EFED715
:10488000032EFCD7042EFAD700008086110E046E8A
:104890003C0E036ECB0EE82EFED7032EFCD7042E63
:1048A000FAD7000080961200000E0114096E000E67
:1048B00002140A6E800E03140B6E7F0E04140C6E2D
:1048C00009500A100B100C10D8A469EF24F06BEFFC
:1048D00024F073EF24F0000E016E000E026E000E45
:1048E000036E000E046E000E0514096E000E061411
:1048F0000A6E800E07140B6E7F0E08140C6E0950A2
:104900000A100B100C10D8A488EF24F08AEF24F0C2
:1049100092EF24F0000E056E000E066E000E076E7C
:10492000000E086E055001180FE1065002180CE148
:104930000750031809E108500418D8B4A2EF24F076
:10494000A4EF24F0A7EF24F0D890A8EF24F0D880AB
:10495000120085948598839E879C7D947D987B9E8C
:104960007F9C050E0E01746F060E766F070E696F41
:10497000080E886FBD508F0B4009BD6EE00EBE164D
:10498000BF50F00B0109BF6E01C0BCFFBD8E000E11
:10499000AA6E000EA66E000E0F01256F000E216F8D
:1049A000FC0EAD16F30EAD16CF0EAD163F0EAD16C6
:1049B000AB88AB50F00B0C09AB6EAB8EA788A75041
:1049C000F00B0C09A76EA78E26892651F00B0C0957
:1049D000266F268F22892251F00B0C09226F228F1D
:1049E000889680961200000E0D6E000E0C6E095017
:1049F0000A10D8B4FEEF24F000EF25F028EF25F0E0
:104A0000010E0B6E08EF25F0D89009360A360B2AF6
:104A10000AAE0DEF25F00FEF25F004EF25F0D8904A
:104A20000C360D360950075C0A500858D8A01BEF09
:104A300025F01DEF25F022EF25F00950075E0A5002
:104A4000085A0C80D8900A3209320B2E0FEF25F04D
:104A50000CC007F00DC008F012007C8E090E026E2B
:104A60001E0E016EE40EE82EFED7012EFCD7022E9C
:104A7000FAD700D07C9E090E026E1E0E016EE40E67
:104A8000E82EFED7012EFCD7022EFAD700D08EB426
:104A90004CEF25F04EEF25F02DEF25F0110E026EB4
:104AA0003C0E016ECB0EE82EFED7012EFCD7022E57
:104AB000FAD700007C9E1200E9EC26F0520EDEECE4
:104AC00026F0B60EDEEC26F0EEEC26F0530EDEEC11
:104AD00026F0010E1FEC26F0076E07500A6E0B6AD7
:104AE000000E1FEC26F0076E0750096E086A0A5088
:104AF00008100A6E0B5009100B6EE4EC26F00AC089
:104B000005F00BC006F01200E9EC26F0520EDEECC8
:104B100026F0B80EDEEC26F0EEEC26F0530EDEECBE
:104B200026F0010E1FEC26F0076E07500A6E0B6A86
:104B3000000E1FEC26F0076E0750096E086A0A5037
:104B400008100A6E0B5009100B6EE4EC26F00AC038
:104B500005F00BC006F01200E9EC26F0520EDEEC78
:104B600026F0B40EDEEC26F0EEEC26F0530EDEEC72
:104B700026F0010E1FEC26F0076E07500A6E0B6A36
:104B8000000E1FEC26F0076E0750096E086A0A50E7
:104B900008100A6E0B5009100B6EE4EC26F00AC0E8
:104BA00005F00BC006F01200E9EC26F0520EDEEC28
:104BB00026F0BA0EDEEC26F0EEEC26F0530EDEEC1C
:104BC00026F0010E1FEC26F0076E07500A6E0B6AE6
:104BD000000E1FEC26F0076E0750096E086A0A5097
:104BE00008100A6E0B5009100B6EE4EC26F00AC098
:104BF00005F00BC006F01200000E1E1A000E1F1A60
:104C0000000E201A800E211A1AC001F01BC002F0FB
:104C10001CC003F01DC004F01EC005F01FC006F04C
:104C200020C007F021C008F07EEC12F001C01AF09D
:104C300002C01BF003C01CF004C01DF01200036E84
:104C4000A7EC26F00E01DA87A7EC26F0D5CE04F00B
:104C5000A7EC26F00350D8B430EF26F034EF26F05E
:104C6000026A022A35EF26F0026A023A02460E0173
:104C7000DA510218DF0B0218DA6FDA8904501200D9
:104C800092EC26F0010E036E000ECEEC26F03F0EE5
:104C9000056E550EE82EFED7052EFCD70000030E3C
:104CA000036E000ECEEC26F0D50E036E010ECEEC98
:104CB00026F087928198869E7F8279887E8E120068
:104CC000E60EF66E4D0EF76E000EF86E0900F5CF8B
:104CD000FDF00900F5CFFEF001EE00F08B0EEE6A5C
:104CE000E806FDE100EEE3F01A0EEE6AE806FDE1EB
:104CF00000012DEF23F088EF26F0150E036EC60E8F
:104D0000E82EFED7032EFCD700D00106D8A002065D
:104D100001500210D8A48FEF26F091EF26F07DEF1E
:104D200026F012000E01D951F00B0809D96FD98B6A
:104D30009F0ED66F848A848CA79BA79D1D0E1D6F26
:104D40001E0E1C6F1C0E6F6F1B0E706F12000E017B
:104D5000D8B5ADEF26F0AFEF26F0A7EF26F0DACE0C
:104D600001F01F0E0116D8A4B8EF26F0BAEF26F016
:104D7000A7EF26F0120001500302F3CF05F0F4CFA5
:104D800006F001500402F350062602500302F350CD
:104D9000062605C001F006C002F01200046EE9EC20
:104DA00026F0520EDEEC26F004508009DEEC26F0F0
:104DB0000350DEEC26F0E4EC26F01200026EA7ECC5
:104DC00026F002C0D5FE1200A7EC26F00E01DA850F
:104DD0001200A7EC26F00E01DA811200A7EC26F0F3
:084DE0000E01DA8312000F320C
:020000040030CA
:02000000AAFF55
:020004009FFF5C
:00000001FF
