:0400000003EF0CF00E
:100E00000000000E026E630E016E55EC0BF0000E3A
:100E1000366E010E376E010E386EAA0E3B6E0F0E47
:100E20003C6EA60E3D6E0F0E3E6E000E3A6E630EC9
:100E3000396E000E2D6E010E2E6E010E2F6E250ED8
:100E4000326E0F0E336E210E346E0F0E356E000EA5
:100E5000316E630E306E849E7C9E8896809686846A
:100E60000E01B4958686B4974A0E286E8EB43BEF79
:100E700007F03DEF07F04FEF07F080867C8E520EB3
:100E8000236E2B0E226E000EE82EFED7222EFCD7EC
:100E9000232EFAD700D080967C9E66EF07F08EB6A0
:100EA00054EF07F056EF07F036EF07F0280680867C
:100EB000190E236E5A0E226EB20EE82EFED7222E87
:100EC000FCD7232EFAD7809636EF07F0000E256E5A
:100ED000000E246E640E136E360E146E2D0E156EFB
:100EE000010EF5EC07F0520E236E2B0E226E000E53
:100EF000E82EFED7222EFCD7232EFAD700D0360EAE
:100F0000136E2D0E146E28508AEC09F0520E236ECB
:100F10002B0E226E000EE82EFED7222EFCD7232E9B
:100F2000FAD700D0244A252A25BEA0EF07F0255085
:100F300009E1040E245CD8A0A0EF07F0A2EF07F0AF
:100F40006AEF07F0360E136E2D0E146E28508AECE1
:100F500009F0520E236E2B0E226E000EE82EFED7E5
:100F6000222EFCD7232EFAD700D0000E276E000EBB
:100F7000266E640E136E360E146E2D0E156E010E57
:100F8000F5EC07F0520E236E2B0E226E000EE82EAB
:100F9000FED7222EFCD7232EFAD700D0360E136EA2
:100FA0002D0E146E550ECBEC08F0520E236E2B0E48
:100FB000226E000EE82EFED7222EFCD7232EFAD763
:100FC00000D0264A272A27BEEFEF07F0275009E175
:100FD000040E265CD8A0EFEF07F0F1EF07F0B9EFB1
:100FE00007F036EF07F000EF00F0196E1950D8B493
:100FF000FCEF07F0FEEF07F00EEF08F01450D96E8B
:10100000DA6A010ED926010EDF6E1550D96EDA6A42
:10101000010ED926010EDF6E1AEF08F01450D96EBA
:10102000DA6A010ED926DF6A1550D96EDA6A010E26
:10103000D926DF6A000E1F6E140E1E6E000E026EA1
:10104000640E016E000E046E140E036EF3EC0AF0D3
:1010500001C020F002C021F0000E1B6E000E1A6EBF
:1010600056EF08F01450D96EDA6A1450E16EE26A55
:10107000E750166E1628DF6E1550D96EDA6A1550D5
:10108000E16EE26AE750166E1628DF6E15C00EF0AC
:1010900049EC0AF014C00EF049EC0AF020C001F04F
:1010A00021C002F0D9EC0BF01A4A1B2A1E501A5C20
:1010B0001B50800A166E1F50800A1658D8A063EF86
:1010C00008F065EF08F032EF08F0000E1D6E000E1C
:1010D0001C6E74EF08F0D00E166ECA0EE82EFED706
:1010E000162EFCD71C4A1D2A1350166E176A16506E
:1010F0001C5C1D50800A186E1750800A1858D8A022
:1011000084EF08F086EF08F06BEF08F0B4EF08F01A
:101110001550D96EDA6ADF50D8B491EF08F093EF2A
:1011200008F097EF08F01550D96EDA6ADF06145010
:10113000D96EDA6ADF50D8B4A0EF08F0A2EF08F059
:10114000A6EF08F01450D96EDA6ADF0615C00EF06B
:1011500049EC0AF014C00EF049EC0AF020C001F08E
:1011600021C002F0D9EC0BF01450D96EDA6ADF50CE
:10117000D8A4BDEF08F0BFEF08F088EF08F01550D5
:10118000D96EDA6ADF50D8A4C8EF08F0CAEF08F0C9
:1011900088EF08F01200186E1350D96EDA6A010E4B
:1011A000D926010EDF6E1450D96EDA6A010ED926E7
:1011B000DF6A000E1E6E140E1D6E000E026E640EAF
:1011C000016E000E046E140E036EF3EC0AF001C003
:1011D0001FF002C020F0000E1A6E000E196E15EFFF
:1011E00009F01350D96EDA6A1350E16EE26AE750E3
:1011F000156E1528DF6E1450D96EDA6A1450E16E40
:10120000E26AE750156E1528DF6E14C00EF049EC47
:101210000AF013C00EF049EC0AF01FC001F020C024
:1012200002F0D9EC0BF0194A1A2A1D50195C1A5019
:10123000800A156E1E50800A1558D8A022EF09F0BA
:1012400024EF09F0F1EF08F0000E1C6E000E1B6E8B
:1012500033EF09F0D00E156ECA0EE82EFED7152E0C
:10126000FCD71B4A1C2A1850156E166A15501B5CB9
:101270001C50800A176E1650800A1758D8A043EFEA
:1012800009F045EF09F02AEF09F073EF09F0145067
:10129000D96EDA6ADF50D8B450EF09F052EF09F096
:1012A00056EF09F01450D96EDA6ADF061350D96E82
:1012B000DA6ADF50D8B45FEF09F061EF09F065EF4B
:1012C00009F01350D96EDA6ADF0614C00EF049EC4B
:1012D0000AF013C00EF049EC0AF01FC001F020C064
:1012E00002F0D9EC0BF01350D96EDA6ADF50D8A4B3
:1012F0007CEF09F07EEF09F047EF09F01450D96E4A
:10130000DA6ADF50D8A487EF09F089EF09F047EFD8
:1013100009F01200186E1350D96EDA6A010ED92640
:10132000DF6A1450D96EDA6A010ED926010EDF6E1B
:10133000000E1E6E140E1D6E000E026E640E016E07
:10134000000E046E140E036EF3EC0AF001C01FF0E1
:1013500002C020F0000E1A6E000E196ED4EF09F0D4
:101360001350D96EDA6A1350E16EE26AE750156ED7
:101370001528DF6E1450D96EDA6A1450E16EE26AF5
:10138000E750156E1528DF6E14C00EF049EC0AF018
:1013900013C00EF049EC0AF01FC001F020C002F0AB
:1013A000D9EC0BF0194A1A2A1D50195C1A50800A00
:1013B000156E1E50800A1558D8A0E1EF09F0E3EF32
:1013C00009F0B0EF09F0000E1C6E000E1B6EF2EF7C
:1013D00009F0D00E156ECA0EE82EFED7152EFCD7DA
:1013E0001B4A1C2A1850156E166A15501B5C1C509F
:1013F000800A176E1650800A1758D8A002EF0AF01C
:1014000004EF0AF0E9EF09F032EF0AF01450D96E58
:10141000DA6ADF50D8B40FEF0AF011EF0AF015EFD7
:101420000AF01450D96EDA6ADF061350D96EDA6A00
:10143000DF50D8B41EEF0AF020EF0AF024EF0AF0D4
:101440001350D96EDA6ADF0614C00EF049EC0AF0C8
:1014500013C00EF049EC0AF01FC001F020C002F0EA
:10146000D9EC0BF01350D96EDA6ADF50D8A43BEFF9
:101470000AF03DEF0AF006EF0AF01450D96EDA6A6E
:10148000DF50D8A446EF0AF048EF0AF006EF0AF062
:1014900012000E50D96EDA6A020ED926DF50D8B487
:1014A00054EF0AF056EF0AF086EF0AF00E50D96EAC
:1014B000DA6ADF500F6E0F50016E026A0E50D96E5D
:1014C000DA6A030ED926DECF03F0DDCF04F0F0ECAC
:1014D0000BF001C007F002C008F0000E0A6E640EA7
:1014E000096E9FEC0BF00E50D96EDA6A030ED92606
:1014F000DF50106E0750105C116E0E50D96EDA6A14
:10150000030ED926DF50126EA7EF0AF0000E116EFF
:101510000E50D96EDA6ADF500F6E0F50016E026AFC
:101520000E50D96EDA6A030ED926DECF03F0DDCF76
:1015300004F0F0EC0BF001C007F002C008F0000E60
:101540000A6E640E096E9FEC0BF00750126E0E507F
:10155000D96EDA6A010ED926DF50D8B4B2EF0AF09C
:10156000B4EF0AF0D4EF0AF00E50D96EDA6A050E25
:10157000D926DECF0FF0DDCF10F00FC0D9FF10C09D
:10158000DAFF11C0DFFF0E50D96EDA6A070ED926D6
:10159000DECF0FF0DDCF10F00FC0D9FF10C0DAFFA3
:1015A00012C0DFFFF2EF0AF00E50D96EDA6A050EB4
:1015B000D926DECF0FF0DDCF10F00FC0D9FF10C05D
:1015C000DAFF12C0DFFF0E50D96EDA6A070ED92695
:1015D000DECF0FF0DDCF10F00FC0D9FF10C0DAFF63
:1015E00011C0DFFF1200000E066E04BEFCEF0AF011
:1015F000FAEF0AF002EF0BF0036C041ED8B0042AD5
:10160000010E066E02BE09EF0BF007EF0BF00FEFB5
:101610000BF0016C021ED8B0022A010E061A000E51
:10162000086E000E076E03500410D8B41AEF0BF0CA
:101630001CEF0BF044EF0BF0010E056E24EF0BF0E6
:10164000D89003360436052A04AE29EF0BF02BEFB1
:101650000BF020EF0BF0D890073608360350015CF2
:1016600004500258D8A037EF0BF039EF0BF03EEFE3
:101670000BF00350015E0450025A0780D8900432E8
:101680000332052E2BEF0BF00650D8B44AEF0BF0C7
:101690004CEF0BF050EF0BF0076C081ED8B0082A87
:1016A00007C001F008C002F0120085948598839E5F
:1016B000879C7D947D987B9E7F9C050E0E01746FA8
:1016C000060E766F070E696F080E886FBD508F0B80
:1016D0004009BD6EE00EBE16BF50F00B0109BF6E93
:1016E00001C0BCFFBD8E000EAA6E000EA66E000EDD
:1016F0000F01256F000E216FFC0EAD16F30EAD1617
:10170000CF0EAD163F0EAD16AB88AB50F00B0C09EB
:10171000AB6EAB8EA788A750F00B0C09A76EA78EF7
:1017200026892651F00B0C09266F268F228922511B
:10173000F00B0C09226F228F889680961200000E03
:101740000C6E000E0B6E09500A10D8B4AAEF0BF005
:10175000ACEF0BF0D4EF0BF0010E0D6EB4EF0BF00D
:10176000D89009360A360D2A0AAEB9EF0BF0BBEF56
:101770000BF0B0EF0BF0D8900B360C360950075C2D
:101780000A500858D8A0C7EF0BF0C9EF0BF0CEEF06
:101790000BF00950075E0A50085A0B80D8900A32A5
:1017A00009320D2EBBEF0BF00BC007F00CC008F098
:1017B0001200E6EF0BF0150E036EC60EE82EFED7F4
:1017C000032EFCD700D00106D8A00206015002105B
:1017D000D8A4EDEF0BF0EFEF0BF0DBEF0BF0120006
:1017E00001500302F3CF05F0F4CF06F001500402DC
:1017F000F350062602500302F350062605C001F0FE
:1018000006C002F012002A0EF66E180EF76E000ED9
:10181000F86E0900F5CF3FF000EE29F0160EEE6AE3
:0B182000E806FDE1000101EF07F00702
:020000040030CA
:02000000AAFF55
:020004009FFF5C
:00000001FF
