:04000000EAEF09F02A
:100E00000000186E1350D96EDA6A010ED926DF6A17
:100E10001450D96EDA6A010ED926010EDF6E000E6B
:100E20001E6E460E1D6E000E026E640E016E000EEA
:100E3000046E460E036EDAEC08F001C01FF002C02B
:100E400020F0000E1A6E000E196E4BEF07F01350D3
:100E5000D96EDA6A1350E16EE26AE750156E152812
:100E6000DF6E1450D96EDA6A1450E16EE26AE75010
:100E7000156E1528DF6E14C00EF0C0EC07F013C01D
:100E80000EF0C0EC07F01FC001F020C002F0C0EC73
:100E900009F0194A1A2A1D50195C1A50800A156E59
:100EA0001E50800A1558D8A058EF07F05AEF07F0E7
:100EB00027EF07F0000E1C6E000E1B6E69EF07F0A7
:100EC000D00E156ECA0EE82EFED7152EFCD71B4A83
:100ED0001C2A1850156E166A15501B5C1C50800A8F
:100EE000176E1650800A1758D8A079EF07F07BEFDD
:100EF00007F060EF07F0A9EF07F01450D96EDA6A37
:100F0000DF50D8B486EF07F088EF07F08CEF07F0DA
:100F10001450D96EDA6ADF061350D96EDA6ADF50E0
:100F2000D8B495EF07F097EF07F09BEF07F0135059
:100F3000D96EDA6ADF0614C00EF0C0EC07F013C0F9
:100F40000EF0C0EC07F01FC001F020C002F0C0ECB2
:100F500009F01350D96EDA6ADF50D8A4B2EF07F067
:100F6000B4EF07F07DEF07F01450D96EDA6ADF5066
:100F7000D8A4BDEF07F0BFEF07F07DEF07F0120038
:100F80000E50D96EDA6A020ED926DF50D8B4CBEFF4
:100F900007F0CDEF07F0FDEF07F00E50D96EDA6ADB
:100FA000DF500F6E0F50016E026A0E50D96EDA6A72
:100FB000030ED926DECF03F0DDCF04F0D7EC09F025
:100FC00001C007F002C008F0000E0A6E640E096E40
:100FD00086EC09F00E50D96EDA6A030ED926DF507E
:100FE000106E0750105C116E0E50D96EDA6A030E47
:100FF000D926DF50126E1EEF08F0000E116E0E5053
:10100000D96EDA6ADF500F6E0F50016E026A0E5011
:10101000D96EDA6A030ED926DECF03F0DDCF04F0F5
:10102000D7EC09F001C007F002C008F0000E0A6E0C
:10103000640E096E86EC09F00750126E0E50D96EE0
:10104000DA6A010ED926DF50D8B429EF08F02BEF69
:1010500008F04BEF08F00E50D96EDA6A050ED9266B
:10106000DECF0FF0DDCF10F00FC0D9FF10C0DAFFD8
:1010700011C0DFFF0E50D96EDA6A070ED926DECF17
:101080000FF0DDCF10F00FC0D9FF10C0DAFF12C093
:10109000DFFF69EF08F00E50D96EDA6A050ED92627
:1010A000DECF0FF0DDCF10F00FC0D9FF10C0DAFF98
:1010B00012C0DFFF0E50D96EDA6A070ED926DECFD6
:1010C0000FF0DDCF10F00FC0D9FF10C0DAFF11C054
:1010D000DFFF1200000E026E630E016E3CEC09F0A1
:1010E000000E306E010E316E010E326EAA0E356E9C
:1010F0000F0E366EA60E376E0F0E386E000E346E63
:10110000630E336E000E276E010E286E010E296EDF
:10111000250E2C6E0F0E2D6E210E2E6E0F0E2F6EC5
:10112000000E2B6E630E2A6E849E7C9E889680969F
:101130007C9E849E86840E01B4958686B4978496A0
:101140007C86520E226E2B0E216E000EE82EFED7EC
:10115000212EFCD7222EFAD700D0300E136E270E88
:10116000146E280E01EC07F0520E226E2B0E216E2B
:10117000000EE82EFED7212EFCD7222EFAD700D063
:10118000520E226E2B0E216E000EE82EFED7212E5F
:10119000FCD7222EFAD700D0520E226E2B0E216ED3
:1011A000000EE82EFED7212EFCD7222EFAD700D033
:1011B00000EF00F0000E066E04BEE3EF08F0E1EF72
:1011C00008F0E9EF08F0036C041ED8B0042A010E01
:1011D000066E02BEF0EF08F0EEEF08F0F6EF08F052
:1011E000016C021ED8B0022A010E061A000E086E0B
:1011F000000E076E03500410D8B401EF09F003EF9E
:1012000009F02BEF09F0010E056E0BEF09F0D890F5
:1012100003360436052A04AE10EF09F012EF09F088
:1012200007EF09F0D890073608360350015C0450E8
:101230000258D8A01EEF09F020EF09F025EF09F0C1
:101240000350015E0450025A0780D89004320332E2
:10125000052E12EF09F00650D8B431EF09F033EF44
:1012600009F037EF09F0076C081ED8B0082A07C04C
:1012700001F008C002F0120085948598839E879C37
:101280007D947D987B9E7F9C050E0E01746F060EEB
:10129000766F070E696F080E886FBD508F0B40097F
:1012A000BD6EE00EBE16BF50F00B0109BF6E01C04F
:1012B000BCFFBD8E000EAA6E000EA66E000E0F01C2
:1012C000256F000E216FFC0EAD16F30EAD16CF0E7E
:1012D000AD163F0EAD16AB88AB50F00B0C09AB6EE4
:1012E000AB8EA788A750F00B0C09A76EA78E268996
:1012F0002651F00B0C09266F268F22892251F00B04
:101300000C09226F228F889680961200000E0C6EB8
:10131000000E0B6E09500A10D8B491EF09F093EF4C
:1013200009F0BBEF09F0010E0D6E9BEF09F0D890AC
:1013300009360A360D2A0AAEA0EF09F0A2EF09F02D
:1013400097EF09F0D8900B360C360950075C0A501D
:101350000858D8A0AEEF09F0B0EF09F0B5EF09F0EA
:101360000950075E0A50085A0B80D8900A32093299
:101370000D2EA2EF09F00BC007F00CC008F0120010
:10138000CDEF09F0150E036EC60EE82EFED7032E24
:10139000FCD700D00106D8A0020601500210D8A444
:1013A000D4EF09F0D6EF09F0C2EF09F012000150B6
:1013B0000302F3CF05F0F4CF06F001500402F3501E
:1013C000062602500302F350062605C001F006C0AF
:1013D00002F01200F80EF66E130EF76E000EF86EA5
:1013E0000900F5CF39F000EE23F0160EEE6AE8069C
:0913F000FDE100016AEF08F007BD
:020000040030CA
:02000000AAFF55
:020004009FFF5C
:00000001FF
