:0400000063EF08F0B2
:100E00000000000E186E630E176E19EC08F0000E4D
:100E10000A6E010E0B6E010E0C6EAA0E0F6E0F0EF7
:100E2000106EA60E116E0F0E126E000E0E6E630E79
:100E30000D6E000E016E010E026E010E036E250E88
:100E4000066E0F0E076E210E086E0F0E096E000E55
:100E5000056E630E046E849E7C9E889680968684C2
:100E60000E01B4958686B497000E1C6E000E1F6EA0
:100E70008EB43DEF07F03FEF07F064EF07F0150E7B
:100E80001A6E4B0E196EBE0EE82EFED7192EFCD729
:100E90001A2EFAD700D01F2A7C8E110E1A6E3C0E25
:100EA000196ECB0EE82EFED7192EFCD71A2EFAD7C4
:100EB00000007C9E040E1F6460EF07F062EF07F0F5
:100EC00064EF07F0000E1F6E8EB669EF07F06BEF50
:100ED00007F038EF07F0150E1A6E4B0E196EBE0EA6
:100EE000E82EFED7192EFCD71A2EFAD700D0000E06
:100EF0001E6E000E1D6E97EF07F07C8E190E1A6E97
:100F00005A0E196EB20EE82EFED7192EFCD71A2EE5
:100F1000FAD77C9E190E1A6E5A0E196EB20EE82E72
:100F2000FED7192EFCD71A2EFAD71D4A1E2A1F509B
:100F3000196E1A6A19501D5C1E50800A1B6E1A50D9
:100F4000800A1B58D8A0A7EF07F0A9EF07F07DEFA4
:100F500007F01F04D8A4AFEF07F0B1EF07F007EFD9
:100F600008F08EB4B6EF07F0B8EF07F0D3EF07F054
:100F7000150E1A6E4B0E196EBE0EE82EFED7192EE8
:100F8000FCD71A2EFAD700D01C2A7C8E110E1A6EAE
:100F90003C0E196ECB0EE82EFED7192EFCD71A2E5A
:100FA000FAD700007C9E8EB6D8EF07F0DAEF07F094
:100FB000F5EF07F0150E1A6E4B0E196EBE0EE82EE9
:100FC000FED7192EFCD71A2EFAD700D01C06808621
:100FD000110E1A6E3C0E196ECB0EE82EFED7192E8E
:100FE000FCD71A2EFAD7000080968EB4FAEF07F0DD
:100FF000FCEF07F007EF08F08EB601EF08F003EF03
:1010000008F007EF08F07C8E808617EF08F08EB4AA
:101010000CEF08F00EEF08F0A9EF07F08EB613EF13
:1010200008F015EF08F0A9EF07F07C8E808600EF3E
:1010300000F085948598839E879C7D947D987B9E07
:101040007F9C050E0E01746F060E766F070E696F9A
:10105000080E886FBD508F0B4009BD6EE00EBE16A6
:10106000BF50F00B0109BF6E17C0BCFFBD8E000E54
:10107000AA6E000EA66E000E0F01256F000E216FE6
:10108000FC0EAD16F30EAD16CF0EAD163F0EAD161F
:10109000AB88AB50F00B0C09AB6EAB8EA788A7509A
:1010A000F00B0C09A76EA78E26892651F00B0C09B0
:1010B000266F268F22892251F00B0C09226F228F76
:1010C000889680961200EA0EF66E100EF76E000EED
:1010D000F86E0900F5CF20F000EE01F0160EEE6A72
:0B10E000E806FDE1000101EF07F0074A
:020000040030CA
:02000000AAFF55
:020004009FFF5C
:00000001FF
