:040000009EEF24F05B
:100E000000483A252E326620533A20252E3266209D
:100E1000563A20252E326620433A257500696E66C3
:100E2000006E616E0000FCEC22F005C00CF006C004
:100E30000DF00E6A0F6A000EA0EC1DF00CC0B9F1A7
:100E40000DC0BAF10EC0BBF10FC0BCF124EC23F011
:100E500005C00CF006C00DF00E6A0F6A000EA0EC83
:100E60001DF00CC0BDF10DC0BEF10EC0BFF10FC032
:100E7000C0F174EC23F005C00CF006C00DF00E6A52
:100E80000F6A000EA0EC1DF00CC0C1F10DC0C2F144
:100E90000EC0C3F10FC0C4F14CEC23F005C00CF040
:100EA00006C00DF00E6A0F6A000EA0EC1DF00CC01B
:100EB000C5F10DC0C6F10EC0C7F10FC0C8F1B9C170
:100EC0006AF0BAC16BF0BBC16CF0BCC16DF0BDC1C2
:100ED0006EF0BEC16FF0BFC170F0C0C171F0C1C192
:100EE00072F0C2C173F0C3C174F0C4C175F0C5C162
:100EF00076F0C6C177F0C7C178F0C8C179F0CB0EE3
:100F000000017A6F010E7B6FCF0E7C6F010E7D6F3B
:100F1000D30E7E6F010E7F6F60EC11F0000E0101A9
:100F2000CA6F000EC96F000E336E800E346EB10EA4
:100F3000356E430E366ECBC137F0CCC138F0CDC123
:100F400039F0CEC13AF089EC1FF0D8B0AAEF07F023
:100F5000ACEF07F030EF08F0CBC133F0CCC134F088
:100F6000CDC135F0CEC136F0000E376E000E386EB2
:100F7000B40E396E430E3A6E89EC1FF0D8B0C3EF51
:100F800007F0C5EF07F030EF08F0000E336E000EEB
:100F9000346EAA0E356E420E366ECFC137F0D0C118
:100FA00038F0D1C139F0D2C13AF089EC1FF0D8B095
:100FB000DCEF07F0DEEF07F030EF08F0CFC133F0E1
:100FC000D0C134F0D1C135F0D2C136F0000E376E49
:100FD000000E386EB40E396E420E3A6E89EC1FF078
:100FE000D8B0F5EF07F0F7EF07F030EF08F0000E9C
:100FF000336E000E346EA00E356E420E366ED3C1C7
:1010000037F0D4C138F0D5C139F0D6C13AF089EC07
:101010001FF0D8B00EEF08F010EF08F030EF08F036
:10102000D3C133F0D4C134F0D5C135F0D6C136F0D8
:10103000000E376E000E386EAA0E396E420E3A6EF2
:1010400089EC1FF0D8B027EF08F029EF08F030EF57
:1010500008F0000E0101CA6F010EC96F30EF0CF0ED
:10106000000E336E000E346E860E356E420E366EF6
:10107000CBC137F0CCC138F0CDC139F0CEC13AF098
:1010800089EC1FF0D8B047EF08F049EF08F0CDEF3A
:1010900008F0CBC133F0CCC134F0CDC135F0CEC1B6
:1010A00036F0000E376E000E386E9E0E396E420E10
:1010B0003A6E89EC1FF0D8B060EF08F062EF08F0EC
:1010C000CDEF08F0000E336E000E346E480E356E14
:1010D000420E366ECFC137F0D0C138F0D1C139F0F1
:1010E000D2C13AF089EC1FF0D8B079EF08F07BEF6D
:1010F00008F0CDEF08F0CFC133F0D0C134F0D1C14A
:1011000035F0D2C136F0000E376E000E386E640E28
:10111000396E420E3A6E89EC1FF0D8B092EF08F0AB
:1011200094EF08F0CDEF08F0000E336E000E346E31
:10113000200E356E420E366ED3C137F0D4C138F072
:10114000D5C139F0D6C13AF089EC1FF0D8B0ABEF79
:1011500008F0ADEF08F0CDEF08F0D3C133F0D4C103
:1011600034F0D5C135F0D6C136F0000E376E000E22
:10117000386E380E396E420E3A6E89EC1FF0D8B0D8
:10118000C4EF08F0C6EF08F0CDEF08F0000E010143
:10119000CA6F020EC96F30EF0CF0CFC133F0D0C16F
:1011A00034F0D1C135F0D2C136F0000E376E000EEA
:1011B000386E200E396E410E3A6E89EC1FF0D8B0B1
:1011C000E4EF08F0E6EF08F01FEF09F0000E336ED1
:1011D000000E346EF00E356E410E366ED3C137F010
:1011E000D4C138F0D5C139F0D6C13AF089EC1FF03E
:1011F000D8B0FDEF08F0FFEF08F01FEF09F0D3C102
:1012000033F0D4C134F0D5C135F0D6C136F0000E7C
:10121000376E000E386E200E396E420E3A6E89EC33
:101220001FF0D8B016EF09F018EF09F01FEF09F022
:10123000000E0101CA6F030EC96F30EF0CF0000EF3
:10124000336E000E346EA00E356E410E366ECBC17D
:1012500037F0CCC138F0CDC139F0CEC13AF089ECCD
:101260001FF0D8B036EF09F038EF09F0BCEF09F005
:10127000CBC133F0CCC134F0CDC135F0CEC136F0A6
:10128000000E376E000E386EC80E396E410E3A6E83
:1012900089EC1FF0D8B04FEF09F051EF09F0BCEF27
:1012A00009F0000E336E000E346E820E356E420E63
:1012B000366ECFC137F0D0C138F0D1C139F0D2C1CC
:1012C0003AF089EC1FF0D8B068EF09F06AEF09F046
:1012D000BCEF09F0CFC133F0D0C134F0D1C135F04B
:1012E000D2C136F0000E376E000E386E8C0E396E9D
:1012F000420E3A6E89EC1FF0D8B081EF09F083EF0F
:1013000009F0BCEF09F0000E336E000E346E580E7B
:10131000356E420E366ED3C137F0D4C138F0D5C128
:1013200039F0D6C13AF089EC1FF0D8B09AEF09F045
:101330009CEF09F0BCEF09F0D3C133F0D4C134F015
:10134000D5C135F0D6C136F0000E376E000E386EBE
:10135000640E396E420E3A6E89EC1FF0D8B0B3EFCE
:1013600009F0B5EF09F0BCEF09F0000E0101CA6FFA
:10137000040EC96F30EF0CF0000E336E000E346EA9
:10138000500E356E410E366ECBC137F0CCC138F001
:10139000CDC139F0CEC13AF089EC1FF0D8B0D3EF0F
:1013A00009F0D5EF09F059EF0AF0CBC133F0CCC109
:1013B00034F0CDC135F0CEC136F0000E376E000EE0
:1013C000386E900E396E410E3A6E89EC1FF0D8B02F
:1013D000ECEF09F0EEEF09F059EF0AF0000E336E72
:1013E000000E346E5C0E356E420E366ECFC137F095
:1013F000D0C138F0D1C139F0D2C13AF089EC1FF038
:10140000D8B005EF0AF007EF0AF059EF0AF0CFC1A4
:1014100033F0D0C134F0D1C135F0D2C136F0000E76
:10142000376E000E386E700E396E420E3A6E89ECD1
:101430001FF0D8B01EEF0AF020EF0AF059EF0AF0C3
:10144000000E336E000E346E480E356E420E366E50
:10145000D3C137F0D4C138F0D5C139F0D6C13AF094
:1014600089EC1FF0D8B037EF0AF039EF0AF059EFE6
:101470000AF0D3C133F0D4C134F0D5C135F0D6C1B0
:1014800036F0000E376E000E386E580E396E420E72
:101490003A6E89EC1FF0D8B050EF0AF052EF0AF024
:1014A00059EF0AF0000E0101CA6F050EC96F30EF47
:1014B0000CF0000E336E000E346EA00E356E400E32
:1014C000366ECBC137F0CCC138F0CDC139F0CEC1CA
:1014D0003AF089EC1FF0D8B070EF0AF072EF0AF022
:1014E000F6EF0AF0CBC133F0CCC134F0CDC135F00A
:1014F000CEC136F0000E376E000E386E200E396EFB
:10150000410E3A6E89EC1FF0D8B089EF0AF08BEFEC
:101510000AF0F6EF0AF0000E336E000E346E8C0EF9
:10152000356E420E366ECFC137F0D0C138F0D1C122
:1015300039F0D2C13AF089EC1FF0D8B0A2EF0AF02E
:10154000A4EF0AF0F6EF0AF0CFC133F0D0C134F0C7
:10155000D1C135F0D2C136F0000E376E000E386EB4
:10156000960E396E420E3A6E89EC1FF0D8B0BBEF82
:101570000AF0BDEF0AF0F6EF0AF0000E336E000E2F
:10158000346E780E356E420E366ED3C137F0D4C14C
:1015900038F0D5C139F0D6C13AF089EC1FF0D8B097
:1015A000D4EF0AF0D6EF0AF0F6EF0AF0D3C133F029
:1015B000D4C134F0D5C135F0D6C136F0000E376E47
:1015C000000E386E860E396E420E3A6E89EC1FF0B0
:1015D000D8B0EDEF0AF0EFEF0AF0F6EF0AF0000EE8
:1015E0000101CA6F060EC96F30EF0CF0000E336EAA
:1015F000000E346E940E356E420E366ECBC137F04F
:10160000CCC138F0CDC139F0CEC13AF089EC1FF031
:10161000D8B00DEF0BF00FEF0BF093EF0BF0CBC149
:1016200033F0CCC134F0CDC135F0CEC136F0000E70
:10163000376E000E386EAA0E396E420E3A6E89EC85
:101640001FF0D8B026EF0BF028EF0BF093EF0BF064
:10165000000E336E000E346EE00E356E410E366EA7
:10166000CFC137F0D0C138F0D1C139F0D2C13AF092
:1016700089EC1FF0D8B03FEF0BF041EF0BF093EF88
:101680000BF0CFC133F0D0C134F0D1C135F0D2C1AD
:1016900036F0000E376E000E386E040E396E420EB4
:1016A0003A6E89EC1FF0D8B058EF0BF05AEF0BF000
:1016B00093EF0BF0000E336E000E346E140E356E89
:1016C000420E366ED3C137F0D4C138F0D5C139F0EF
:1016D000D6C13AF089EC1FF0D8B071EF0BF073EF80
:1016E0000BF093EF0BF0D3C133F0D4C134F0D5C17C
:1016F00035F0D6C136F0000E376E000E386E280E6B
:10170000396E420E3A6E89EC1FF0D8B08AEF0BF0BA
:101710008CEF0BF093EF0BF0000E0101CA6F070E78
:10172000C96F30EF0CF0000E336E000E346EB00E49
:10173000356E410E366ECBC137F0CCC138F0CDC11D
:1017400039F0CEC13AF089EC1FF0D8B0AAEF0BF017
:10175000ACEF0BF030EF0CF0CBC133F0CCC134F078
:10176000CDC135F0CEC136F0000E376E000E386EAA
:10177000D80E396E410E3A6E89EC1FF0D8B0C3EF27
:101780000BF0C5EF0BF030EF0CF0000E336E000ED7
:10179000346E400E356E420E366ECFC137F0D0C17A
:1017A00038F0D1C139F0D2C13AF089EC1FF0D8B08D
:1017B000DCEF0BF0DEEF0BF030EF0CF0CFC133F0CD
:1017C000D0C134F0D1C135F0D2C136F0000E376E41
:1017D000000E386E540E396E420E3A6E89EC1FF0D0
:1017E000D8B0F5EF0BF0F7EF0BF030EF0CF0000E88
:1017F000336E000E346E340E356E420E366ED3C12B
:1018000037F0D4C138F0D5C139F0D6C13AF089ECFF
:101810001FF0D8B00EEF0CF010EF0CF030EF0CF022
:10182000D3C133F0D4C134F0D5C135F0D6C136F0D0
:10183000000E376E000E386E480E396E420E3A6E4C
:1018400089EC1FF0D8B027EF0CF029EF0CF030EF47
:101850000CF0000E0101CA6F080EC96F30EF0CF0DA
:10186000A00E0001AB6F010EAC6F010EAD6FCBC1CE
:10187000AEF0CCC1AFF0CDC1B0F0CEC1B1F0CFC1B0
:10188000B2F0D0C1B3F0D1C1B4F0D2C1B5F0D3C180
:10189000B6F0D4C1B7F0D5C1B8F0D6C1B9F0C9C15E
:1018A000BAF0CAC1BBF023EC24F0A00E026E010E08
:1018B000036EB6EC24F0050E0001CC6F0F0ECB6F5B
:1018C000F10EE82EFED7CB2FFCD7CC2FFAD7C9C10B
:1018D000C9F0CAC1CAF01200000E0001916F6BC0BE
:1018E00092F06CC093F06DC094F06EC095F095BF0F
:1018F0007EEF0CF07CEF0CF092EF0CF0010E916F8C
:1019000092C001F093C002F094C003F095C004F0BF
:1019100082EC24F001C092F002C093F003C094F076
:1019200004C095F0000E0001976F000E966FF2C094
:1019300081F0F3C082F09151D8B4A1EF0CF0A3EF85
:101940000CF0B7EF0CF09151D8A4A9EF0CF0ABEF6D
:101950000CF0B1EF0CF0000E776F2B0E766FB5EF39
:101960000CF0000E776F2D0E766F76C091F092C05E
:1019700001F093C002F094C003F095C004F00BECAA
:1019800020F001040210D8A4C8EF0CF0CAEF0CF04C
:10199000F9EF0CF000019151D8B4D1EF0CF0D3EF76
:1019A0000CF0DCEF0CF091C050F18107D8A0820759
:1019B000000E976F010E966F500E9625016E010E68
:1019C0009721026E1D0E036E63EC24F00001FD0EE4
:1019D0008127FF0E82236AC00FF0500E106E010E99
:1019E000116E81C012F082C013F044EC22F05FEF60
:1019F00011F092C001F093C002F094C003F095C0C2
:101A000004F00BEC20F001500210D8A40AEF0DF006
:101A10000CEF0DF02AEF0DF000019151D8B413EF47
:101A20000DF015EF0DF01EEF0DF091C050F1810794
:101A3000D8A08207000E976F010E966F500E962564
:101A4000016E010E9721026E210E036E63EC24F0ED
:101A5000E6EF0CF0000E0001986F000E996F800EFB
:101A60009A6F3F0E9B6F000E806F000E7F6F92C0CB
:101A700001F093C002F094C003F095C004F0000E92
:101A8000056E000E066E000E076E000E086EB5ECB9
:101A900021F0D8B04EEF0DF050EF0DF02FEF0EF01B
:101AA0005DEF0DF083C098F084C099F085C09AF086
:101AB00086C09BF000017F4B802B98C01AF099C024
:101AC0001BF09AC01CF09BC01DF0000E1E6E000E95
:101AD0001F6E200E206E410E216E53EC17F01AC0BF
:101AE00083F01BC084F01CC085F01DC086F000018F
:101AF0008351925D016E84519359026E85519459C0
:101B0000036E86519559046EA9EC22F004BE94EF41
:101B10000DF004500310021009E1020E015CD8A080
:101B200094EF0DF096EF0DF052EF0DF083C033F00F
:101B300084C034F085C035F086C036F092C037F0EE
:101B400093C038F094C039F095C03AF089EC1FF09A
:101B5000D8A0ADEF0DF0AFEF0DF052EF0DF000019A
:101B60009851925D016E99519359026E9A51945910
:101B7000036E9B519559046EA9EC22F004BECEEF82
:101B80000DF004500310021007E1020E015CD8B002
:101B9000CCEF0DF0CEEF0DF016EF0EF098C092F0F6
:101BA00099C093F09AC094F09BC095F02FEF0EF07F
:101BB00098C03BF099C03CF09AC03DF09BC03EF00D
:101BC000000E3F6E000E406E200E416E410E426EC2
:101BD00068EC19F03BC098F03CC099F03DC09AF019
:101BE0003EC09BF000017F07D8A080079851925D0E
:101BF000016E99519359026E9A519459036E9B51FB
:101C00009559046EA9EC22F004BE14EF0EF00450B6
:101C10000310021007E1020E015CD8B012EF0EF0C3
:101C200014EF0EF016EF0EF0CEEF0DF092C033F081
:101C300093C034F094C035F095C036F098C037F0BA
:101C400099C038F09AC039F09BC03AF089EC1FF087
:101C5000D8A02DEF0EF02FEF0EF0D8EF0DF06FC0E3
:101C600079F079C07AF00001F5BF39EF0EF03BEF63
:101C70000EF041EF0EF0F4C072F0F5C073F045EFD6
:101C80000EF0000E736F060E726F72C07DF073C09F
:101C90007EF07D4B7E2B660E7A19D8A452EF0EF0A3
:101CA00054EF0EF074EF0EF080BF5BEF0EF059EFC3
:101CB0000EF067EF0EF0000E986F000E996F800E19
:101CC0009A6F3F0E9B6F000E806F000E7F6F670E46
:101CD0007919D8B46EEF0EF070EF0EF074EF0EF0CD
:101CE0007F517D2780517E23000E886F000E876F05
:101CF00092C089F093C08AF094C08BF095C08CF0AC
:101D000098C083F099C084F09AC085F09BC086F09B
:101D100005EF0FF089C03BF08AC03CF08BC03DF06E
:101D20008CC03EF098C03FF099C040F09AC041F09E
:101D30009BC042F068EC19F03BC054F03CC055F039
:101D40003DC056F03EC057F095EC1CF054C08DF0ED
:101D500055C08EF056C08FF057C090F08DC001F086
:101D60008EC002F08FC003F090C004F006EC1FF0AC
:101D700001C07BF002C07CF089C033F08AC034F02F
:101D80008BC035F08CC036F08DC01EF08EC01FF0B9
:101D90008FC020F090C021F098C01AF099C01BF0BD
:101DA0009AC01CF09BC01DF053EC17F01AC037F01E
:101DB0001BC038F01CC039F01DC03AF0BFEC23F056
:101DC00033C089F034C08AF035C08BF036C08CF057
:101DD00098C03BF099C03CF09AC03DF09BC03EF0EB
:101DE000000E3F6E000E406E200E416E410E426EA0
:101DF00068EC19F03BC098F03CC099F03DC09AF0F7
:101E00003EC09BF00001874B882B7D51875D885138
:101E1000800A5E6E7E51800A5E58D8A012EF0FF0E5
:101E200014EF0FF08AEF0EF098C01AF099C01BF073
:101E30009AC01CF09BC01DF0000E1E6E000E1F6E9F
:101E4000A00E206E400E216E53EC17F01AC08DF0DC
:101E50001BC08EF01CC08FF01DC090F089C033F005
:101E60008AC034F08BC035F08CC036F08DC037F0AE
:101E70008EC038F08FC039F090C03AF089EC1FF076
:101E8000D8B045EF0FF047EF0FF052EF0FF0000E14
:101E900000018D6F000E8E6F000E8F6F000E906F21
:101EA0007BEF0FF089C001F08AC002F08BC003F015
:101EB0008CC004F08DC005F08EC006F08FC007F016
:101EC00090C008F0B5EC21F0D8A069EF0FF06BEFEF
:101ED0000FF07BEF0FF000017BB171EF0FF073EFAC
:101EE0000FF07BEF0FF0000E8D6F000E8E6F000E67
:101EF0008F6F000E906F92C001F093C002F094C0FB
:101F000003F095C004F08DC005F08EC006F08FC0C0
:101F100007F090C008F0F3EC14F001C089F002C0A3
:101F20008AF003C08BF004C08CF089C033F08AC003
:101F300034F08BC035F08CC036F0000E1E6E000EF3
:101F40001F6E200E206E410E216E83C01AF084C0D9
:101F50001BF085C01CF086C01DF053EC17F01AC0B2
:101F600037F01BC038F01CC039F01DC03AF089ECC6
:101F70001FF0D8A0BEEF0FF0C0EF0FF0E9EF0FF0A9
:101F800000017F4B802B83C01AF084C01BF085C0FA
:101F90001CF086C01DF0000E1E6E000E1F6E200E7F
:101FA000206E410E216E53EC17F01AC083F01BC057
:101FB00084F01CC085F01DC086F0660E00017A1901
:101FC000D8A4E5EF0FF0E7EF0FF0E9EF0FF07D4B4E
:101FD0007E2B83C098F084C099F085C09AF086C0AB
:101FE0009BF07FC070F080C071F0000E0001786F30
:101FF000000E756F000E746F000E886F000E876FF5
:10200000E7EF10F089C03BF08AC03CF08BC03DF098
:102010008CC03EF098C03FF099C040F09AC041F0AB
:102020009BC042F068EC19F03BC054F03CC055F046
:102030003DC056F03EC057F095EC1CF054C08DF0FA
:1020400055C08EF056C08FF057C090F08DC001F093
:102050008EC002F08FC003F090C004F006EC1FF0B9
:1020600002BE3EEF10F0025007E10A0E015CD8B04C
:102070003CEF10F03EEF10F04EEF10F08DC001F08D
:102080008EC002F08FC003F090C004F006EC1FF089
:1020900001C07BF002C07CF053EF10F0000E000195
:1020A0007C6F090E7B6F00017851D8A45AEF10F0B5
:1020B0005CEF10F084EF10F071BF63EF10F061EF90
:1020C00010F084EF10F0500E9625D96E010E972176
:1020D000DA6E2E0EDF6E964B972B8107D8A0820703
:1020E000010E786F84EF10F0500E9625D96E010E18
:1020F0009721DA6E300EDF6E964B972B8107D8A0B2
:1021000082077407D8A0750774517511D8A48BEF96
:1021100010F08DEF10F074EF10F0500E9625D96E80
:10212000010E9721DA6E7B51300FDF6E964B972BA5
:102130008107D8A0820789C033F08AC034F08BC0F1
:1021400035F08CC036F08DC01EF08EC01FF08FC0F1
:1021500020F090C021F098C01AF099C01BF09AC0EE
:102160001CF09BC01DF053EC17F01AC037F01BC0D9
:1021700038F01CC039F01DC03AF0BFEC23F033C07A
:1021800089F034C08AF035C08BF036C08CF098C02E
:102190003BF099C03CF09AC03DF09BC03EF0000E71
:1021A0003F6E000E406E200E416E410E426E68EC96
:1021B00019F03BC098F03CC099F03DC09AF03EC089
:1021C0009BF000017007D8A07107874B882B7D51C9
:1021D000875D8851800A5E6E7E51800A5E58D8B055
:1021E000F4EF10F0F6EF10F004EF11F097BF02EFEC
:1021F00011F0975109E14B0E965DD8A002EF11F056
:1022000004EF11F002EF10F0000E886F4F0E876F91
:10221000500E8725D96E010E8821DA6EDF6A500EC6
:102220005E6E010E5F6E96515E5E97515F5A8751EA
:102230005E24016E88515F20026E500E036E010E07
:10224000046E96C005F097C006F0D4EC22F00001B1
:102250009651875D966F97518859976F9151D8A481
:1022600034EF11F037EF11F0010E38EF11F0000EDE
:10227000876F886B9151D8B440EF11F042EF11F0A5
:102280004DEF11F09607D8A09707500E9625D96EFE
:10229000010E9721DA6E91C0DFFF8751815F88516F
:1022A000825B6AC00FF0500E9625106E010E9721CA
:1022B000116E81C012F082C013F044EC22F01200C3
:1022C0006AC03BF06BC03CF06CC03DF06DC03EF0AE
:1022D00076C03FF077C040F078C041F079C042F05E
:1022E00068EC19F03BC0ACF03CC0ADF03DC0AEF0C6
:1022F0003EC0AFF06EC03BF06FC03CF070C03DF030
:1023000071C03EF076C03FF077C040F078C041F039
:1023100079C042F068EC19F03BC0B0F03CC0B1F0BD
:102320003DC0B2F03EC0B3F072C03BF073C03CF0B1
:1023300074C03DF075C03EF076C03FF077C040F00D
:1023400078C041F079C042F068EC19F03BC0B4F0BD
:102350003CC0B5F03DC0B6F03EC0B7F0B0C033F001
:10236000B1C034F0B2C035F0B3C036F0ACC037F015
:10237000ADC038F0AEC039F0AFC03AF089EC1FF014
:10238000D8A0C5EF11F0C7EF11F0FCEF11F0B4C009
:1023900033F0B5C034F0B6C035F0B7C036F0B0C0D9
:1023A00037F0B1C038F0B2C039F0B3C03AF089ECC0
:1023B0001FF0D8A0DEEF11F0E0EF11F0EAEF11F01E
:1023C000B4C088F0B5C089F0B6C08AF0B7C08BF051
:1023D000F2EF11F0B0C088F0B1C089F0B2C08AF05D
:1023E000B3C08BF088C0A8F089C0A9F08AC0AAF059
:1023F0008BC0ABF02FEF12F0B4C033F0B5C034F0A7
:10240000B6C035F0B7C036F0ACC037F0ADC038F06C
:10241000AEC039F0AFC03AF089EC1FF0D8A013EF8E
:1024200012F015EF12F01FEF12F0B4C08CF0B5C02F
:102430008DF0B6C08EF0B7C08FF027EF12F0ACC0B1
:102440008CF0ADC08DF0AEC08EF0AFC08FF08CC000
:10245000A8F08DC0A9F08EC0AAF08FC0ABF0ACC0C0
:1024600033F0ADC034F0AEC035F0AFC036F0B0C020
:1024700037F0B1C038F0B2C039F0B3C03AF089ECEF
:102480001FF0D8A046EF12F048EF12F07DEF12F0E7
:10249000B0C033F0B1C034F0B2C035F0B3C036F0E4
:1024A000B4C037F0B5C038F0B6C039F0B7C03AF0B4
:1024B00089EC1FF0D8A05FEF12F061EF12F06BEF24
:1024C00012F0B4C094F0B5C095F0B6C096F0B7C0A5
:1024D00097F073EF12F0B0C094F0B1C095F0B2C0B5
:1024E00096F0B3C097F094C090F095C091F096C06C
:1024F00092F097C093F0B0EF12F0ACC033F0ADC0E3
:1025000034F0AEC035F0AFC036F0B4C037F0B5C06F
:1025100038F0B6C039F0B7C03AF089EC1FF0D8A057
:1025200094EF12F096EF12F0A0EF12F0B4C098F012
:10253000B5C099F0B6C09AF0B7C09BF0A8EF12F002
:10254000ACC098F0ADC099F0AEC09AF0AFC09BF0AF
:1025500098C090F099C091F09AC092F09BC093F00F
:10256000A8C033F0A9C034F0AAC035F0ABC036F033
:1025700090C037F091C038F092C039F093C03AF073
:10258000BFEC23F033C0A4F034C0A5F035C0A6F0F2
:1025900036C0A7F0A4C001F0A5C002F0A6C003F0A9
:1025A000A7C004F0000E056E000E066E000E076E4A
:1025B000000E086EB5EC21F0D8A0E1EF12F0E3EFC9
:1025C00012F0EEEF12F0000E0001A06F000EA16FEE
:1025D000000EA26F000EA36F4FEF14F0A8C001F021
:1025E000A9C002F0AAC003F0ABC004F0ACC005F073
:1025F000ADC006F0AEC007F0AFC008F0B5EC21F0FA
:10260000D8A005EF13F007EF13F069EF13F0A4C0A3
:102610003FF0A5C040F0A6C041F0A7C042F0B4C052
:1026200037F0B5C038F0B6C039F0B7C03AF0B0C036
:1026300033F0B1C034F0B2C035F0B3C036F0BFEC07
:1026400023F033C03BF034C03CF035C03DF036C021
:102650003EF068EC19F03BC080F03CC081F03DC01A
:1026600082F03EC083F0000E586E000E596EC00E10
:102670005A6E400E5B6E80C054F081C055F082C02F
:1026800056F083C057F07AEC1EF054C084F055C069
:1026900085F056C086F057C087F084C01AF085C018
:1026A0001BF086C01CF087C01DF0000E1E6E000ED1
:1026B0001F6E700E206E420E216E53EC17F01AC082
:1026C000A0F01BC0A1F01CC0A2F01DC0A3F04FEFF2
:1026D00014F0A8C001F0A9C002F0AAC003F0ABC07A
:1026E00004F0B0C005F0B1C006F0B2C007F0B3C04E
:1026F00008F0B5EC21F0D8A080EF13F082EF13F0D2
:10270000DCEF13F0A4C03FF0A5C040F0A6C041F03C
:10271000A7C042F0ACC037F0ADC038F0AEC039F061
:10272000AFC03AF0B4C033F0B5C034F0B6C035F045
:10273000B7C036F0BFEC23F033C03BF034C03CF000
:1027400035C03DF036C03EF068EC19F03BC09CF05F
:102750003CC09DF03DC09EF03EC09FF0000E056E57
:10276000000E066E000E076E400E086E9CC001F053
:102770009DC002F09EC003F09FC004F0F3EC14F083
:1027800001C01AF002C01BF003C01CF004C01DF011
:10279000000E1E6E000E1F6E700E206E420E216E19
:1027A00053EC17F01AC0A0F01BC0A1F01CC0A2F09F
:1027B0001DC0A3F04FEF14F0A8C001F0A9C002F0B3
:1027C000AAC003F0ABC004F0B4C005F0B5C006F079
:1027D000B6C007F0B7C008F0B5EC21F0D8A0F3EF11
:1027E00013F0F5EF13F04FEF14F0A4C03FF0A5C0C5
:1027F00040F0A6C041F0A7C042F0B0C037F0B1C071
:1028000038F0B2C039F0B3C03AF0ACC033F0ADC06C
:1028100034F0AEC035F0AFC036F0BFEC23F033C0BB
:102820003BF034C03CF035C03DF036C03EF068ECC3
:1028300019F03BC09CF03CC09DF03DC09EF03EC0F6
:102840009FF0000E056E000E066E800E076E400EA5
:10285000086E9CC001F09DC002F09EC003F09FC0B6
:1028600004F0F3EC14F001C01AF002C01BF003C036
:102870001CF004C01DF0000E1E6E000E1F6E700EC8
:10288000206E420E216E53EC17F01AC0A0F01BC050
:10289000A1F01CC0A2F01DC0A3F04FEF14F0000186
:1028A000A3BF57EF14F055EF14F071EF14F0A0C070
:1028B00001F0A1C002F0A2C003F0A3C004F0000E1A
:1028C000056E000E066EB40E076E430E086EF3EC36
:1028D00014F001C0A0F002C0A1F003C0A2F004C037
:1028E000A3F07AC0D9FF7BC0DAFFA0C0DEFFA1C091
:1028F000DEFFA2C0DEFFA3C0DEFFA8C001F0A9C0BA
:1029000002F0AAC003F0ABC004F0000E056E000E8A
:10291000066E000E076E000E086EB5EC21F0D8A012
:1029200094EF14F096EF14F0A4EF14F07CC0D9FFEC
:102930007DC0DAFF000EDE6E000EDE6E000EDE6E73
:10294000000EDD6ED4EF14F0A8C03FF0A9C040F037
:10295000AAC041F0ABC042F0A4C03BF0A5C03CF01F
:10296000A6C03DF0A7C03EF068EC19F03BC01AF0DD
:102970003CC01BF03DC01CF03EC01DF0000E1E6EA2
:10298000000E1F6EC80E206E420E216E53EC17F023
:102990007CC0D9FF7DC0DAFF1AC0DEFF1BC0DEFF9E
:1029A0001CC0DEFF1DC0DEFFA8C01AF0A9C01BF0CE
:1029B000AAC01CF0ABC01DF0000E1E6E000E1F6EF4
:1029C000C80E206E420E216E53EC17F07EC0D9FF68
:1029D0007FC0DAFF1AC0DEFF1BC0DEFF1CC0DEFFB7
:1029E0001DC0DEFF12000450800B0D6E0450042445
:1029F0000F6E03AEFEEF14F000EF15F001EF15F0CF
:102A00000F800F50D8B407EF15F009EF15F01EEF47
:102A100015F00F28D8A40FEF15F011EF15F019EFEE
:102A200015F0000E016E000E026E000E036E000E19
:102A3000046E038E000E046E26EF15F0000E016E7C
:102A4000000E026E000E036E000E046E0850800B26
:102A50000E6E0D500E18D8B430EF15F032EF15F0A1
:102A600033EF15F00D8C085008240E6E07AE3BEFC7
:102A700015F03DEF15F03EEF15F00E800E50D8B476
:102A800044EF15F046EF15F05BEF15F00E28D8A4D3
:102A90004CEF15F04EEF15F056EF15F0000E056EE9
:102AA000000E066E000E076E000E086E078E000EFA
:102AB000086E63EF15F0000E056E000E066E000E38
:102AC000076E000E086E0F500E5CD8B06AEF15F05E
:102AD0006CEF15F093EF15F00DAC71EF15F073EF8F
:102AE00015F075EF15F0800E0D1A0FC010F00EC026
:102AF0000FF010C00EF001C010F005C001F010C0C2
:102B000005F002C010F006C002F010C006F003C0CD
:102B100010F007C003F010C007F004C010F008C0A8
:102B200004F010C008F0000E106E0F500EC009F037
:102B30000A6A095E000E0A5A0ABEA8EF15F00A508A
:102B400009E11A0E095CD8A0A8EF15F0AAEF15F05C
:102B5000E1EF15F00150021003100410D8A4B3EFF8
:102B600015F0B6EF15F0010EB7EF15F0000E106E70
:102B7000000E016E000E026E000E036E000E046E5B
:102B80000EC00FF0EAEF15F010A0C9EF15F0CBEF73
:102B900015F0D1EF15F0D89010300109106ED3EF79
:102BA00015F0D890103201A0D8EF15F0DAEF15F03B
:102BB000DBEF15F0108E043404320332023201329E
:102BC0000F2A0E500F5CD8A0E8EF15F0EAEF15F0D1
:102BD000C4EF15F00DBCEFEF15F0F1EF15F031EF8C
:102BE00016F00F50D8A4F7EF15F0F9EF15F003EF3A
:102BF00016F0000E016E000E026E000E036E000E47
:102C0000046E52EF17F005500126065002220750BD
:102C100003220850042204A010EF16F012EF16F061
:102C2000BEEF16F010A017EF16F019EF16F01FEF19
:102C300016F0D89010300109106E21EF16F0D890E0
:102C4000103201A026EF16F028EF16F029EF16F04B
:102C5000108E043404320332023201320F2ABEEFE6
:102C600016F00550015C06500258075003580450F6
:102C7000800A096E0850800A0958D8B042EF16F051
:102C800044EF16F06FEF16F00150055C096E02502C
:102C900006580A6E035007580B6E045008580C6E05
:102CA000FF0E0924016EFF0E0A20026EFF0E0B209C
:102CB000036EFF0E0C20046E800E0D1A106C105067
:102CC000D8A465EF16F067EF16F077EF16F0010E57
:102CD0000126000E02220322042277EF16F005508F
:102CE000015E0650025A0750035A0850045A015018
:102CF000021003100410D8A480EF16F082EF16F033
:102D0000B7EF16F01050D8A488EF16F08AEF16F03F
:102D1000B7EF16F0000E016E000E026E000E036E8D
:102D2000000E046E52EF17F0D890013602360336CB
:102D3000043610AE9EEF16F0A0EF16F0A1EF16F0DD
:102D4000018010A0A6EF16F0A8EF16F0ACEF16F079
:102D5000D8801036AEEF16F0D89010360F50D8B499
:102D6000B4EF16F0B6EF16F0B7EF16F00F0603AE9D
:102D7000BCEF16F0BEEF16F094EF16F0000E0E6EDC
:102D800010AEC5EF16F0C7EF16F0DFEF16F010C06B
:102D900009F07F0E0916D8B4D0EF16F0D2EF16F076
:102DA000D6EF16F0010E0E6EDFEF16F001A0DBEF8E
:102DB00016F0DDEF16F0DFEF16F0D2EF16F00E5042
:102DC000D8B4E5EF16F0E7EF16F012EF17F0010EAA
:102DD0000126000E02220322042204A0F2EF16F0C4
:102DE000F4EF16F012EF17F001C009F002C00AF07C
:102DF00003C00BF004C00CF00C340C320B320A325E
:102E0000093209C001F00AC002F00BC003F00CC087
:102E100004F00F28D8B40FEF17F011EF17F012EFEE
:102E200017F00F2A0F28D8B418EF17F01AEF17F081
:102E300022EF17F00F50D8A420EF17F022EF17F071
:102E400034EF17F0000E016E000E026E000E036EDE
:102E5000000E046E0F50D8A430EF17F032EF17F0C9
:102E600034EF17F0000E0D6E0FA039EF17F03BEFA7
:102E700017F03EEF17F0038E3FEF17F0039ED89048
:102E80000F30046E0DAE47EF17F049EF17F04AEF21
:102E900017F0048E01C001F002C002F003C003F07D
:102EA00004C004F012001D50800B266E1D501D241E
:102EB0002C6E1CAE5EEF17F060EF17F061EF17F0AD
:102EC0002C802C50D8B467EF17F069EF17F07CEF27
:102ED00017F02C28D8A46FEF17F071EF17F079EFE7
:102EE00017F0000E1A6E000E1B6E000E1C6E000E08
:102EF0001D6E1C8E84EF17F0000E1A6E000E1B6EF6
:102F0000000E1C6E000E1D6E2150800B261A2150E3
:102F10002124276E20AE8FEF17F091EF17F092EF7C
:102F200017F027802750D8B498EF17F09AEF17F0D2
:102F3000ADEF17F02728D8A4A0EF17F0A2EF17F0F5
:102F4000AAEF17F0000E1E6E000E1F6E000E206E10
:102F5000000E216E208EB5EF17F0000E1E6E000ED3
:102F60001F6E000E206E000E216E2750D8B4BBEFEE
:102F700017F0BDEF17F0C5EF17F02C50D8A4C3EF32
:102F800017F0C5EF17F0CFEF17F0000E1A6E000E16
:102F90001B6E000E1C6E000E1D6E67EF19F02050A8
:102FA0001A02F3CF31F0F4CF32F03150286E296A93
:102FB0002A6A2B6A32502D6E2E6A2F6A306A1F5091
:102FC0001B02F3CF31F0F4CF32F031502826000E3F
:102FD00029222A222B2232502D26000E2E222F2289
:102FE00030221E501C02F3CF31F0F4CF32F03150BA
:102FF0002826000E29222A222B2232502D26000EAE
:103000002E222F2230222AC02BF029C02AF028C0DD
:1030100029F0286A1E501B02F3CF31F0F4CF32F0B2
:103020003150282632502922000E2A22000E2B224F
:103030001F501A02F3CF31F0F4CF32F0315028266E
:1030400032502922000E2A22000E2B222AC02BF0F9
:1030500029C02AF028C029F0286A1E501A02F3CF8E
:1030600031F0F4CF32F03150282632502922000EB0
:103070002A22000E2B2220501B02F3CF31F0F4CF76
:1030800032F031502D2632502E22000E2F22000E0B
:1030900030221F501C02F3CF31F0F4CF32F0315008
:1030A0002D2632502E22000E2F22000E30222050CC
:1030B0001C02F3CF31F0F4CF32F03150226E325097
:1030C000236E246A256A24C025F023C024F022C080
:1030D00023F0226A22502D2623502E2224502F2204
:1030E0002550302228C022F029C023F02AC024F025
:1030F0002BC025F0190E82EF18F0D890253224321B
:1031000023322232E82E7DEF18F022502D26235054
:103110002E2224502F22255030222AC02BF029C0E5
:103120002AF028C029F0286A27502CC022F0236AF0
:103130002226000E2322820E2224316EFF0E23202F
:10314000326EB8EF18F0D8902D362E362F36303636
:103150002BAEADEF18F0AFEF18F0B0EF18F02D80F8
:10316000D890283629362A362B363106D8A0320692
:103170002FAEBDEF18F0BFEF18F0A3EF18F0000E60
:10318000276E2BAEC6EF18F0C8EF18F0ECEF18F072
:10319000FF0E2814226EFF0E2914236EFF0E2A1430
:1031A000246E7F0E2B14256E225023102410251020
:1031B000D8B4DDEF18F0DFEF18F0E3EF18F0010EF0
:1031C000276EECEF18F02DA0E8EF18F0EAEF18F0FA
:1031D000ECEF18F0DFEF18F02750D8B4F2EF18F04A
:1031E000F4EF18F018EF19F0010E2D26000E2E2224
:1031F0002F22302230A0FFEF18F001EF19F018EF66
:1032000019F02DC022F02EC023F02FC024F030C0C2
:1032100025F02534253224322332223222C02DF0EB
:1032200023C02EF024C02FF025C030F0314A322ABE
:1032300032BE23EF19F0325008E13128D8A023EF35
:1032400019F025EF19F02FEF19F0000E2D6E000E7A
:103250002E6E800E2F6E7F0E306E5DEF19F032BE37
:103260003CEF19F0325006E13104D8B03AEF19F0D2
:103270003CEF19F048EF19F0000E2D6E000E2E6E87
:10328000000E2F6E000E306E000E266E5DEF19F0F0
:1032900031C02CF0FF0E2D16FF0E2E167F0E2F16AE
:1032A000000E30162CA057EF19F059EF19F05AEF15
:1032B00019F02F8ED8902C30306E265030122DC041
:1032C0001AF02EC01BF02FC01CF030C01DF01200F1
:1032D0003E50800B4B6E3E503E24526E3DAE73EF1F
:1032E00019F075EF19F076EF19F052805250D8B4FA
:1032F0007CEF19F07EEF19F093EF19F05228D8A463
:1033000084EF19F086EF19F08EEF19F0000E3B6E86
:10331000000E3C6E000E3D6E000E3E6E3D8E000EA9
:103320003E6E9BEF19F0000E3B6E000E3C6E000EE1
:103330003D6E000E3E6E4250800B4B1A42504224AE
:10334000536E41AEA6EF19F0A8EF19F0A9EF19F0EE
:1033500053805350D8B4AFEF19F0B1EF19F0C6EF66
:1033600019F05328D8A4B7EF19F0B9EF19F0C1EF4D
:1033700019F0000E3F6E000E406E000E416E000E02
:10338000426E418E000E426ECEEF19F0000E3F6E7F
:10339000000E406E000E416E000E426E3F50401017
:1033A00041104210D8A4D7EF19F0D9EF19F0F1EF7E
:1033B00019F0000E3B6E000E3C6E000E3D6E000ECE
:1033C0003E6E800E3D127F0E3E124B503E123BC0B1
:1033D0003BF03CC03CF03DC03DF03EC03EF034EF21
:1033E0001BF05250D8A4F7EF19F0F9EF19F003EFE2
:1033F0001AF0000E3B6E000E3C6E000E3D6E000E8D
:103400003E6E34EF1BF0535052C043F0446A435EAB
:10341000000E445A7F0E43244C6E000E44204D6E25
:103420003BC047F03CC048F03DC049F03EC04AF0C8
:10343000000E3B6E000E3C6E000E3D6E000E3E6EAA
:10344000000E4E6E000E4F6E000E506E000E516E4E
:10345000000E536E64EF1AF05350D8B432EF1AF0E6
:1034600034EF1AF04BEF1AF0D89047364836493609
:103470004A36D8903B363C363D363E3651AE43EF69
:103480001AF045EF1AF046EF1AF03B80D8904E360E
:103490004F36503651363F50475C405048584150A7
:1034A000495842504A58D8A058EF1AF05AEF1AF02B
:1034B00063EF1AF0518C3F50475E4050485A4150DC
:1034C000495A42504A5A532A190E53646AEF1AF065
:1034D0006CEF1AF02CEF1AF04750481049104A10C0
:1034E000D8B475EF1AF077EF1AF08FEF1AF04E801C
:1034F0008FEF1AF0D8903B363C363D363E3651AE13
:1035000084EF1AF086EF1AF087EF1AF03B80D8901C
:103510004E364F36503651364C06D8A04D063DAE8D
:1035200094EF1AF096EF1AF07AEF1AF0000E536E3D
:1035300051AE9DEF1AF09FEF1AF0C3EF1AF0FF0E95
:103540004E14436EFF0E4F14446EFF0E5014456E22
:103550007F0E5114466E4350441045104610D8B4A7
:10356000B4EF1AF0B6EF1AF0BAEF1AF0010E536E7C
:10357000C3EF1AF03BA0BFEF1AF0C1EF1AF0C3EF90
:103580001AF0B6EF1AF05350D8B4C9EF1AF0CBEFD7
:103590001AF0EFEF1AF0010E3B26000E3C223D22FE
:1035A0003E223EA0D6EF1AF0D8EF1AF0EFEF1AF055
:1035B0003BC043F03CC044F03DC045F03EC046F047
:1035C0004634463245324432433243C03BF044C075
:1035D0003CF045C03DF046C03EF04C4A4D2A4DBE41
:1035E000FAEF1AF04D5008E14C28D8A0FAEF1AF083
:1035F000FCEF1AF007EF1BF0000E4D6E4C68000E4A
:103600003B6E000E3C6E000E3D6E000E3E6E4DBEDB
:1036100014EF1BF04D5006E14C04D8B012EF1BF034
:1036200014EF1BF022EF1BF0000E4D6E000E4C6EDF
:10363000000E3B6E000E3C6E000E3D6E000E3E6EA8
:10364000000E4B6E4CC052F052A029EF1BF02BEF36
:103650001BF02EEF1BF03D8E2FEF1BF03D9ED89000
:1036600052303E6EE5EF19F0120000019D51D96E07
:10367000DA6ADFCFF6FF0E0EF76E000EF86E080066
:10368000F550250AD8A447EF1BF049EF1BF081EF56
:103690001CF09D51D96EDA6ADF2A000EF36F000E1E
:1036A000F26FF2C0F6F0F469F5699D51D96EDA6AED
:1036B000DFCFF6FF0E0EF76E000EF86E0800F55025
:1036C0002E0AD8A466EF1BF068EF1BF076EF1BF014
:1036D0009D51D96EDA6ADF2A9DC007F09EC008F0BE
:1036E0005EEC21F007C0F4F008C0F5F000019D5138
:1036F000D96EDA6ADF50A66FA6C0F6FF0E0EF76E1F
:10370000000EF86E0800F550750AD8A48AEF1BF079
:103710008CEF1BF0C1EF1BF09E51D96EDA6A020EDE
:10372000DF26DF5CD96EDA6ADECFA1F0DECFA2F051
:103730009D51D96EDA6AA629DF6EA9EF1BF09CC0F5
:1037400017F0A1C018F0A2C019F08AEC20F094EF95
:103750001CF0A6C0F6FF0E0EF76E000EF86E080005
:10376000F5509F6FA06BA051000AD8B4BAEF1BF0C0
:10377000C1EF1BF09F51750AD8B49FEF1BF0C1EF4A
:103780001BF09D51D96EDA6ADF50A66FA6C0F6FF16
:103790000E0EF76E000EF86E0800F5CFA5F0DCEF08
:1037A0001BF0A62BF5EF1BF06C0EA56FF5EF1BF0D1
:1037B000000EA56FF5EF1BF0A5519F6FA06BA051F8
:1037C000000AD8B4E6EF1BF0D8EF1BF09F514C0A6B
:1037D000D8B4D1EF1BF02A0AD8B4D4EF1BF00A0AF0
:1037E000D8B4D1EF1BF0D8EF1BF0A6C0F6FF0E0E39
:1037F000F76E000EF86E0800F550660AD8A403EFC5
:103800001CF005EF1CF07AEF1CF02FEF1CF09E511E
:10381000D96EDA6ADFCF9FF0040EDF269F51D96E92
:10382000DA6ADECFA1F0DECFA2F0DECFA3F0DECFEA
:10383000A4F044EF1CF09E51D96EDA6ADFCF9FF0FE
:10384000040EDF269F51D96EDA6ADECFA1F0DECFFB
:10385000A2F0DECFA3F0DECFA4F044EF1CF0A55120
:103860009F6FA06BA051000AD8B439EF1CF044EF51
:103870001CF09F514C0AD8B41BEF1CF0200AD8B49E
:1038800007EF1CF044EF1CF09D51D96EDA6AA629AF
:10389000DF6E62EF1CF09CC06AF0A1C06BF0A2C0AA
:1038A0006CF0A3C06DF0A4C06EF0A6C0F6FF0E0EC3
:1038B000F76E000EF86E0800F5CF6FF06CEC0CF0B0
:1038C00094EF1CF0A6C0F6FF0E0EF76E000EF86E19
:1038D0000800F5509F6FA06BA051000AD8B473EF99
:1038E0001CF07AEF1CF09F51660AD8B44BEF1CF025
:1038F0007AEF1CF000019D51D96EDA6ADF2A94EF4D
:103900001CF09D51D96EDA6ADFCFF6FF0E0EF76E0E
:10391000000EF86E0800F550016E026A9CC003F0BC
:1039200001EC21F07AEF1CF01200EAC066F0EBC067
:1039300067F0ECC068F0EDC069F054C066F055C0A7
:1039400067F056C068F057C069F0810E586EFF0EE0
:10395000596E66C05AF067C05BF068C05CF069C021
:103960005DF0180EB9EF1CF0D8905D325C325B321E
:103970005A32E82EB4EF1CF05A5058240001646FFC
:10398000000E5920656F65BFCFEF1CF0655109E14E
:10399000170E645DD8A0CFEF1CF0D1EF1CF0DBEF69
:1039A0001CF054C054F055C055F056C056F057C0E6
:1039B00057F09FEF1DF065BFE0EF1CF0E2EF1CF049
:1039C00053EF1DF064C058F0FF0E596EFF0E5A6E93
:1039D0007F0E5B6E000E5C6E5866F1EF1CF0F9EF27
:1039E0001CF05C345C325B325A325932582EECEFA8
:1039F0001CF059C060F05AC061F05BC062F05CC05E
:103A000063F0000160516615586E61516715596E7B
:103A1000625168155A6E635169155B6E58505910A2
:103A20005A105B10D8A417EF1DF019EF1DF01BEF13
:103A30001DF0D1EF1CF066C058F067C059F068C0A7
:103A40005AF069C05BF0200E2BEF1DF0D8905B326E
:103A50005A3259325832E82E26EF1DF0585059107C
:103A60005A105B10D8B437EF1DF039EF1DF041EF5D
:103A70001DF06051662761516723625168236351CD
:103A80006923601D586E611D596E621D5A6E631D5B
:103A90005B6E58506617595067175A5068175B503D
:103AA000691797EF1DF066C058F067C059F068C0FD
:103AB0005AF069C05BF0200E63EF1DF0D8905B32C6
:103AC0005A3259325832E82E5EEF1DF058505910D4
:103AD0005A105B10D8A46FEF1DF071EF1DF07BEF53
:103AE0001DF0000E666F000E676F000E686F000E0F
:103AF000696F97EF1DF0D8906635586E6735596E2F
:103B000068355A6E69355B6E585059105A105B1003
:103B1000D8B48DEF1DF08FEF1DF097EF1DF0000E64
:103B2000666F000E676F800E686FBF0E696F66C0AC
:103B300054F067C055F068C056F069C057F01200E5
:103B4000146E1450D8B4A7EF1DF0A9EF1DF0CBEF01
:103B50001DF00FBEB0EF1DF0AEEF1DF0CBEF1DF06E
:103B60000CC010F00DC011F00EC012F00FC013F019
:103B7000101E111E121E131E102A000E11221222D8
:103B8000132210C016F011C017F012C018F013C0A5
:103B900019F0D3EF1DF00CC016F00DC017F00EC0D9
:103BA00018F00FC019F00C500D100E100F10D8A403
:103BB000DCEF1DF0DEEF1DF0E8EF1DF0000E0C6EE7
:103BC000000E0D6E000E0E6E000E0F6E79EF1EF0E1
:103BD000960E156EF2EF1DF0152AD8901932183294
:103BE00017321632000E1614106E000E1714116ED6
:103BF000000E1814126EFE0E1914136E10501110D0
:103C000012101310D8A407EF1EF009EF1EF0ECEF0E
:103C10001DF017EF1EF0152A010E1626000E1722B2
:103C200018221922D8901932183217321632000E83
:103C30001614106E000E1714116E000E1814126E6A
:103C4000FF0E1914136E1050111012101310D8A477
:103C50002CEF1EF02EEF1EF00BEF1EF036EF1EF0D5
:103C60001506D890163617361836193618BE3BEF9B
:103C70001EF03DEF1EF045EF1EF0020E156043EF03
:103C80001EF045EF1EF030EF1EF015B04AEF1EF0AB
:103C90004CEF1EF04DEF1EF0189ED890153215C057
:103CA00010F0116A126A136A10C013F0126A116AD6
:103CB000106A105016121150171212501812135089
:103CC00019121450D8B467EF1EF069EF1EF071EFAF
:103CD0001EF00FBE70EF1EF06EEF1EF071EF1EF0C3
:103CE000198E16C00CF017C00DF018C00EF019C0D8
:103CF0000FF0120058C001F059C002F05AC003F092
:103D00005BC004F0000E056E000E066E000E076E1E
:103D1000000E086EB5EC21F0D8A091EF1EF093EFE5
:103D20001EF09DEF1EF0000E546E000E556E000E3C
:103D3000566E000E576E05EF1FF054C03BF055C095
:103D40003CF056C03DF057C03EF058C03FF059C05F
:103D500040F05AC041F05BC042F068EC19F03BC043
:103D600060F03CC061F03DC062F03EC063F060C0F6
:103D700001F061C002F062C003F063C004F006EC21
:103D80001FF001C068F002C069F054C033F055C0A4
:103D900034F056C035F057C036F058C01EF059C048
:103DA0001FF05AC020F05BC021F068C00CF069C061
:103DB0000DF0000E0DBEFF0E0E6E0F6E010EA0EC8C
:103DC0001DF00CC01AF00DC01BF00EC01CF00FC08F
:103DD0001DF053EC17F01AC037F01BC038F01CC0B0
:103DE00039F01DC03AF0BFEC23F033C064F034C0AA
:103DF00065F035C066F036C067F064C054F065C049
:103E000055F066C056F067C057F012000334043412
:103E10000A6E0A50D8A40FEF1FF011EF1FF01BEF2E
:103E20001FF0000E016E000E026E000E036E000EFB
:103E3000046E88EF1FF001C005F002C006F003C059
:103E400007F004C008F0200E2BEF1FF0D8900832C6
:103E5000073206320532E82E26EF1FF00550096EB4
:103E6000038EFF0E0116FF0E0216FF0E0316000E44
:103E70000416960E0A5E0ABE42EF1FF040EF1FF0D6
:103E800058EF1FF00A50800A970FD8B04AEF1FF082
:103E90004CEF1FF04EEF1FF011EF1FF0D8900432DF
:103EA0000332023201320A3E4EEF1FF070EF1FF074
:103EB0001F0E0A645EEF1FF060EF1FF068EF1FF047
:103EC00011EF1FF0D89001360236033604360A0689
:103ED0000A50D8A46EEF1FF070EF1FF062EF1FF0D2
:103EE0000950D8B476EF1FF078EF1FF080EF1FF085
:103EF000041E031E021E016C000E02220322042275
:103F000001C001F002C002F003C003F004C004F0DD
:103F10001200000E33143B6E000E34143C6E800E03
:103F200035143D6E7F0E36143E6E3B503C103D10F6
:103F30003E10D8A49EEF1FF0A0EF1FF0A8EF1FF0D7
:103F4000000E336E000E346E000E356E000E366EAF
:103F5000000E37143B6E000E38143C6E800E391480
:103F60003D6E7F0E3A143E6E3B503C103D103E10AD
:103F7000D8A4BDEF1FF0BFEF1FF0C7EF1FF0000E7A
:103F8000376E000E386E000E396E000E3A6E36AE89
:103F9000CCEF1FF0CEEF1FF0D7EF1FF0336C341EC5
:103FA000D8B0342A351ED8B0352A800E36563AAEEF
:103FB000DCEF1FF0DEEF1FF0E7EF1FF0376C381E6D
:103FC000D8B0382A391ED8B0392A800E3A56000E99
:103FD000331A000E341A000E351A800E361A000EEF
:103FE000371A000E381A000E391A800E3A1A375056
:103FF000335C38503458395035583A503658D8B068
:1040000004EF20F006EF20F009EF20F0D8900AEF3F
:1040100020F0D8801200EEC00BF0EFC00CF0F0C022
:104020000DF0F1C00EF001C00BF002C00CF003C0A7
:104030000DF004C00EF00BC005F00CC006F00DC072
:1040400007F00EC008F0180E2BEF20F0D8900832C1
:10405000073206320532E82E26EF20F00550096EB1
:104060000A6A09500A10D8A438EF20F03AEF20F07D
:104070005AEF20F0D8900B34056E0C34066E0D34D8
:10408000076E0E34086E0550061007100810D8A4ED
:104090004CEF20F04EEF20F054EF20F0000E026EB7
:1040A000020E016E89EF20F0000E026E030E016E0B
:1040B00089EF20F009280A10D8A461EF20F063EFFF
:1040C00020F085EF20F00BC005F00CC006F00DC00D
:1040D00007F00EC008F0090ED890053606360736F0
:1040E0000836E82E6CEF20F0055006100710081077
:1040F000D8B47DEF20F080EF20F0010E81EF20F0AA
:10410000000E016E026A89EF20F0000E026E040EAE
:10411000016E12000001F5BF92EF20F090EF20F049
:1041200098EF20F0000E1D6E010E1C6E9CEF20F02B
:10413000F4C01CF0F5C01DF0F2C01AF0F3C01BF083
:10414000000E1F6E4F0E1E6E000E01019F6FD3EF0B
:1041500020F01E06D8A01F06500E1E24D96E010E98
:104160001F20DA6E18C001F019C002F0000E046EB4
:104170000A0E036E77EC22F00150300FDF6E1C0642
:10418000D8A01D061A06D8A01B0618C001F019C039
:1041900002F0000E046E0A0E036E0AEC22F001C05B
:1041A00018F002C019F01E501F10D8B4DAEF20F03A
:1041B000DCEF20F0F2EF20F018501910D8A4E3EF54
:1041C00020F0E5EF20F0A9EF20F01DBEF2EF20F087
:1041D0001D5006E11C04D8B0F0EF20F0F2EF20F003
:1041E000A9EF20F017C00FF0500E1E24106E010E24
:1041F0001F20116E1AC012F01BC013F044EC22F005
:1042000012000350D8B407EF21F009EF21F011EFAD
:1042100021F00350D8A40FEF21F011EF21F016EF99
:1042200021F0015061EC25F05DEF21F00350D96ED3
:10423000DA6A0A0ED926DE50DE10D8B422EF21F059
:1042400024EF21F03DEF21F00350D96EDA6A0A0E17
:10425000D9260350E16EE26A030EE126DE50E65CE9
:10426000E650800A086EDE50800A0858D8B03BEF4E
:1042700021F03DEF21F05DEF21F00350D96EDA6AB5
:10428000030ED926DECF04F0DDCF05F00350D96E42
:10429000DA6ADECF06F0DDCF07F004500624D96ECF
:1042A00005500720DA6E01C0DFFF0350D96EDA6ACD
:1042B000030ED926DE2A000EDD221200000E0B6E40
:1042C000000E0A6E0750D96EDA6ADFCFF6FF0E0EC7
:1042D000F76E000EF86E0800F5502A0AD8A473EFA6
:1042E00021F075EF21F09BEF21F00750D96EDA6ACB
:1042F000DF2A0850D96EDA6A020EDF26DF5CD96E3B
:10430000DA6ADECF0AF0DECF0BF0B0EF21F00AC0A0
:1043100001F00BC002F0000E046E0A0E036E0EECEC
:1043200025F0095001240A6E000E02200B6E075082
:10433000D96EDA6ADF2A0750D96EDA6ADFCFF6FF64
:104340000E0EF76E000EF86E0800F550D00F096ED5
:10435000090E0964AEEF21F0B0EF21F087EF21F0F4
:104360000AC007F00BC008F01200000E0114096E1D
:10437000000E02140A6E800E03140B6E7F0E0414DE
:104380000C6E09500A100B100C10D8A4CAEF21F0C3
:10439000CCEF21F0D4EF21F0000E016E000E026E82
:1043A000000E036E000E046E000E0514096E000E62
:1043B00006140A6E800E07140B6E7F0E08140C6E26
:1043C00009500A100B100C10D8A4E9EF21F0EBEF04
:1043D00021F0F3EF21F0000E056E000E066E000EC8
:1043E000076E000E086E055001180FE10650021806
:1043F0000CE10750031809E108500418D8B403EF82
:1044000022F005EF22F008EF22F0D89009EF22F019
:10441000D8801200000E076E000E066E03500410C6
:10442000D8B415EF22F017EF22F03FEF22F0010E83
:10443000056E1FEF22F0D89003360436052A04AE2D
:1044400024EF22F026EF22F01BEF22F0D890063660
:1044500007360350015C04500258D8A032EF22F016
:1044600034EF22F039EF22F00350015E0450025A7B
:104470000680D89004320332052E26EF22F006C0C3
:1044800001F007C002F0120013BE4BEF22F049EF1B
:1044900022F04FEF22F0000E136E000E126E000E8F
:1044A000166E000E156E5FEF22F0000E026E200EEB
:1044B000016E0FC003F001EC21F0154A162A1250CC
:1044C000155C1650800A146E1350800A1458D8A038
:1044D0006CEF22F06EEF22F055EF22F010C009F0E1
:1044E00011C00AF00FC00BF043EC24F0120003508F
:1044F0000410D8B47EEF22F080EF22F0A4EF22F077
:10450000010E056E88EF22F0D89003360436052A96
:1045100004AE8DEF22F08FEF22F084EF22F00350F3
:10452000015C04500258D8A098EF22F09AEF22F0D4
:104530009EEF22F00350015E0450025AD8900432DC
:104540000332052E8FEF22F001C001F002C002F00D
:10455000120004BEAEEF22F0B0EF22F0BAEF22F06C
:1045600001C001F002C002F003C003F004C004F077
:10457000D3EF22F001C005F002C006F003C007F03F
:1045800004C008F0051E061E071E081E052A000EA0
:1045900006220722082205C001F006C002F007C06B
:1045A00003F008C004F0120003C00AF004C00BF0CE
:1045B00001C008F002C009F0EEEF22F00AC0D9FFF6
:1045C0000BC0DAFFDF50076E0A4A0B2A08C0D9FF7A
:1045D00009C0DAFF07C0DFFF084A092A0506D8A08C
:1045E0000606052806E10628D8A4F9EF22F0FBEF1D
:1045F00022F0DEEF22F0120057EC25F0520E4CECC8
:1046000025F0B60E4CEC25F05CEC25F0530E4CEC8E
:1046100025F0010EE2EC23F0076E07500A6E0B6ADC
:10462000000EE2EC23F0076E0750096E086A0A508C
:1046300008100A6E0B5009100B6E52EC25F00AC0E0
:1046400005F00BC006F0120057EC25F0520E4CECB2
:1046500025F0B80E4CEC25F05CEC25F0530E4CEC3C
:1046600025F0010EE2EC23F0076E07500A6E0B6A8C
:10467000000EE2EC23F0076E0750096E086A0A503C
:1046800008100A6E0B5009100B6E52EC25F00AC090
:1046900005F00BC006F0120057EC25F0520E4CEC62
:1046A00025F0B40E4CEC25F05CEC25F0530E4CECF0
:1046B00025F0010EE2EC23F0076E07500A6E0B6A3C
:1046C000000EE2EC23F0076E0750096E086A0A50EC
:1046D00008100A6E0B5009100B6E52EC25F00AC040
:1046E00005F00BC006F0120057EC25F0520E4CEC12
:1046F00025F0BA0E4CEC25F05CEC25F0530E4CEC9A
:1047000025F0010EE2EC23F0076E07500A6E0B6AEB
:10471000000EE2EC23F0076E0750096E086A0A509B
:1047200008100A6E0B5009100B6E52EC25F00AC0EF
:1047300005F00BC006F01200A8C0AAF0A9EF23F004
:10474000A7C09CF0AA0E00019D6FA9C09EF035EC99
:104750001BF0AAC0F6FF0E0EF76E000EF86E0800F2
:10476000F5500009D8A4B7EF23F0B9EF23F0A0EF7C
:1047700023F0000E0001A86F000EA76F1200000EBC
:10478000371A000E381A000E391A800E3A1A33C042
:1047900001F034C002F035C003F036C004F037C079
:1047A00005F038C006F039C007F03AC008F0F3EC65
:1047B00014F001C033F002C034F003C035F004C07F
:1047C00036F01200036EFAEC24F00E01DA87FAECF0
:1047D00024F0D5CE04F0FAEC24F00350D8B4F3EF73
:1047E00023F0F7EF23F0026A022AF8EF23F0026ABF
:1047F000023A02460E01DA510218DF0B0218DA6F94
:10480000DA8904501200E5EC24F0010E036E000E6C
:1048100021EC25F03F0E056E550EE82EFED7052E35
:10482000FCD70000030E036E000E21EC25F0D50E20
:10483000036E010E21EC25F087928198869E7F827F
:1048400079887E8E1200AE0E0001BC6FABC0BDF049
:10485000ACC0BEF0000EC16F000EC06F000EC86F7E
:10486000000EC76FBD0EA76FADC0A8F0BC0EA96F3C
:104870009CEC23F00001C051AB25D96EC151AC2195
:10488000DA6EDF6A1200000E0E6E000E0D6E52EF31
:1048900024F00CC001F0026A0BC003F001EC21F01F
:1048A0000D4A0E2A0D500924D96E0E500A20DA6ED8
:1048B000DF500C6E0C50D8A460EF24F062EF24F0AF
:1048C00049EF24F0120001C005F002C006F0032AEF
:1048D0000304046E04C0F6FF0E0EF76E000EF86EB1
:1048E00005C0D9FF06C0DAFF054A062A0800F5CF41
:1048F000DFFFDF50D8A47FEF24F081EF24F067EFD3
:1049000024F012000150021003100410D8B48BEFF1
:1049100024F08DEF24F095EF24F0000E011A000E24
:10492000021A000E031A800E041A01C001F002C020
:1049300002F003C003F004C004F01200C40EF66ECF
:104940004A0EF76E000EF86E0900F5CFFBF001EE8F
:1049500000F0A00EEE6AE806FDE100EECFF02C0EAE
:10496000EE6AE806FDE10001CEEF24F0C1EF24F08D
:1049700002C0D9FF03C0DAFFDF5040EC25F0024A45
:10498000032A02C0D9FF03C0DAFFDF50D8A4CBEF5F
:1049900024F0CDEF24F0B8EF24F0120003EC24F063
:1049A00031EC25F0520E0001CE6F2B0ECD6F000EB4
:1049B000E82EFED7CD2FFCD7CE2FFAD7000013EC70
:1049C00007F0D2EF24F000EF00F00E01D951F00B08
:1049D0000809D96FD98B9F0ED66F848A848CA79BC8
:1049E000A79D1D0E1D6F1E0E1C6F1C0E6F6F1B0EE4
:1049F000706F12000E01D8B500EF25F002EF25F020
:104A0000FAEF24F0DACE01F01F0E0116D8A40BEF56
:104A100025F00DEF25F0FAEF24F01200015003020B
:104A2000F3CF05F0F4CF06F001500402F350062650
:104A300002500302F350062605C001F006C002F042
:104A40001200046E57EC25F0520E4CEC25F0045089
:104A500080094CEC25F003504CEC25F052EC25F08D
:104A60001200120E0E01626F110E156FE997E89594
:104A7000330EE56F000EE66FE789E88BE78F1200D3
:104A8000016E0E0137A547EF25F049EF25F041EF04
:104A900025F001C0E4FE1200026EFAEC24F002C020
:104AA000D5FE1200FAEC24F00E01DA851200FAECC1
:104AB00024F00E01DA811200FAEC24F00E01DA8300
:054AC0001200120007C6
:020000040030CA
:02000000AAFF55
:020004009FFF5C
:00000001FF
