:0400000088EF24F071
:070E00000025752C20000005
:100E080045EC23F005C00CF006C00DF00E6A0F6A21
:100E1800000E3EEC19F00CC0C1F00DC0C2F00EC0BF
:100E2800C3F00FC0C4F06DEC23F005C00CF006C091
:100E38000DF00E6A0F6A000E3EEC19F00CC0C5F0FA
:100E48000DC0C6F00EC0C7F00FC0C8F0BDEC23F04F
:100E580005C00CF006C00DF00E6A0F6A000E3EECDD
:100E680019F00CC0C9F00DC0CAF00EC0CBF00FC00D
:100E7800CCF095EC23F005C00CF006C00DF00E6A1E
:100E88000F6A000E3EEC19F00CC0CDF00DC0CEF08C
:100E98000EC0CFF00FC0D0F0C1C06AF0C2C06BF076
:100EA800C3C06CF0C4C06DF0C5C06EF0C6C06FF0B2
:100EB800C7C070F0C8C071F0C9C072F0CAC073F082
:100EC800CBC074F0CCC075F0CDC076F0CEC077F052
:100ED800CFC078F0D0C079F0D30E00017A6FD70E6A
:100EE8007B6FDB0E7C6F20EC0CF0000E0001D26FE4
:100EF800000ED16F000E016E800E026EB10E036EF1
:100F0800430E046ED3C005F0D4C006F0D5C007F078
:100F1800D6C008F0A0EC20F0D8B095EF07F097EF16
:100F280007F01BEF08F0D3C001F0D4C002F0D5C021
:100F380003F0D6C004F0000E056E000E066EB40E67
:100F4800076E430E086EA0EC20F0D8B0AEEF07F0A5
:100F5800B0EF07F01BEF08F0000E016E000E026EF6
:100F6800AA0E036E420E046ED7C005F0D8C006F074
:100F7800D9C007F0DAC008F0A0EC20F0D8B0C7EF6D
:100F880007F0C9EF07F01BEF08F0D7C001F0D8C091
:100F980002F0D9C003F0DAC004F0000E056E000EAE
:100FA800066EB40E076E420E086EA0EC20F0D8B0A4
:100FB800E0EF07F0E2EF07F01BEF08F0000E016E1C
:100FC800000E026EA00E036E420E046EDBC005F02A
:100FD800DCC006F0DDC007F0DEC008F0A0EC20F0B1
:100FE800D8B0F9EF07F0FBEF07F01BEF08F0DBC014
:100FF80001F0DCC002F0DDC003F0DEC004F0000E3A
:10100800056E000E066EAA0E076E420E086EA0EC64
:1010180020F0D8B012EF08F014EF08F01BEF08F03A
:10102800000E0001D26F010ED16F1BEF0CF0000E05
:10103800016E000E026E860E036E420E046ED3C061
:1010480005F0D4C006F0D5C007F0D6C008F0A0EC73
:1010580020F0D8B032EF08F034EF08F0B8EF08F01D
:10106800D3C001F0D4C002F0D5C003F0D6C004F05C
:10107800000E056E000E066E9E0E076E420E086E7E
:10108800A0EC20F0D8B04BEF08F04DEF08F0B8EF27
:1010980008F0000E016E000E026E480E036E420E3E
:1010A800046ED7C005F0D8C006F0D9C007F0DAC082
:1010B80008F0A0EC20F0D8B064EF08F066EF08F074
:1010C800B8EF08F0D7C001F0D8C002F0D9C003F0DB
:1010D800DAC004F0000E056E000E066E640E076E90
:1010E800420E086EA0EC20F0D8B07DEF08F07FEF3C
:1010F80008F0B8EF08F0000E016E000E026E200E28
:10110800036E420E046EDBC005F0DCC006F0DDC0E5
:1011180007F0DEC008F0A0EC20F0D8B096EF08F099
:1011280098EF08F0B8EF08F0DBC001F0DCC002F07F
:10113800DDC003F0DEC004F0000E056E000E066E82
:10114800380E076E420E086EA0EC20F0D8B0AFEF54
:1011580008F0B1EF08F0B8EF08F0000E0001D26F08
:10116800020ED16F1BEF0CF0D7C001F0D8C002F00F
:10117800D9C003F0DAC004F0000E056E000E066E4A
:10118800200E076E410E086EA0EC20F0D8B0CFEF0D
:1011980008F0D1EF08F00AEF09F0000E016E000E1A
:1011A800026EF00E036E410E046EDBC005F0DCC06B
:1011B80006F0DDC007F0DEC008F0A0EC20F0D8B0E3
:1011C800E8EF08F0EAEF08F00AEF09F0DBC001F0F9
:1011D800DCC002F0DDC003F0DEC004F0000E056ED6
:1011E800000E066E0C0E076E420E086EA0EC20F084
:1011F800D8B001EF09F003EF09F00AEF09F0000E8B
:101208000001D26F030ED16F1BEF0CF0000E016EC0
:10121800000E026EA00E036E410E046ED3C005F0E0
:10122800D4C006F0D5C007F0D6C008F0A0EC20F076
:10123800D8B021EF09F023EF09F0A7EF09F0D3C0E8
:1012480001F0D4C002F0D5C003F0D6C004F0000EFF
:10125800056E000E066EC80E076E410E086EA0ECF5
:1012680020F0D8B03AEF09F03CEF09F0A7EF09F009
:10127800000E016E000E026E820E036E420E046EA8
:10128800D7C005F0D8C006F0D9C007F0DAC008F01A
:10129800A0EC20F0D8B053EF09F055EF09F0A7EF14
:1012A80009F0D7C001F0D8C002F0D9C003F0DAC005
:1012B80004F0000E056E000E066E8C0E076E420ED0
:1012C800086EA0EC20F0D8B06CEF09F06EEF09F0D2
:1012D800A7EF09F0000E016E000E026E580E036EA5
:1012E800420E046EDBC005F0DCC006F0DDC007F07E
:1012F800DEC008F0A0EC20F0D8B085EF09F087EF49
:1013080009F0A7EF09F0DBC001F0DCC002F0DDC096
:1013180003F0DEC004F0000E056E000E066E640ECB
:10132800076E420E086EA0EC20F0D8B09EEF09F0D0
:10133800A0EF09F0A7EF09F0000E0001D26F040E2C
:10134800D16F1BEF0CF0000E016E000E026E500EF6
:10135800036E410E046ED3C005F0D4C006F0D5C0AC
:1013680007F0D6C008F0A0EC20F0D8B0BEEF09F026
:10137800C0EF09F044EF0AF0D3C001F0D4C002F086
:10138800D5C003F0D6C004F0000E056E000E066E40
:10139800900E076E410E086EA0EC20F0D8B0D7EF83
:1013A80009F0D9EF09F044EF0AF0000E016E000EC3
:1013B800026E5C0E036E420E046ED7C005F0D8C0F4
:1013C80006F0D9C007F0DAC008F0A0EC20F0D8B0D9
:1013D800F0EF09F0F2EF09F044EF0AF0D7C001F09E
:1013E800D8C002F0D9C003F0DAC004F0000E056ED0
:1013F800000E066E700E076E420E086EA0EC20F00E
:10140800D8B009EF0AF00BEF0AF044EF0AF0000E2B
:10141800016E000E026E480E036E420E046EDBC0B3
:1014280005F0DCC006F0DDC007F0DEC008F0A0EC77
:1014380020F0D8B022EF0AF024EF0AF044EF0AF0C7
:10144800DBC001F0DCC002F0DDC003F0DEC004F058
:10145800000E056E000E066E580E076E420E086EE0
:10146800A0EC20F0D8B03BEF0AF03DEF0AF044EFD3
:101478000AF0000E0001D26F050ED16F1BEF0CF0C1
:10148800000E016E000E026EA00E036E400E046E7A
:10149800D3C005F0D4C006F0D5C007F0D6C008F018
:1014A800A0EC20F0D8B05BEF0AF05DEF0AF0E1EFB6
:1014B8000AF0D3C001F0D4C002F0D5C003F0D6C002
:1014C80004F0000E056E000E066E200E076E410E2B
:1014D800086EA0EC20F0D8B074EF0AF076EF0AF0AE
:1014E800E1EF0AF0000E016E000E026E8C0E036E24
:1014F800420E046ED7C005F0D8C006F0D9C007F078
:10150800DAC008F0A0EC20F0D8B08DEF0AF08FEF29
:101518000AF0E1EF0AF0D7C001F0D8C002F0D9C054
:1015280003F0DAC004F0000E056E000E066E960E8B
:10153800076E420E086EA0EC20F0D8B0A6EF0AF0B5
:10154800A8EF0AF0E1EF0AF0000E016E000E026E3D
:10155800780E036E420E046EDBC005F0DCC006F0A8
:10156800DDC007F0DEC008F0A0EC20F0D8B0BFEF77
:101578000AF0C1EF0AF0E1EF0AF0DBC001F0DCC0CD
:1015880002F0DDC003F0DEC004F0000E056E000EB0
:10159800066E860E076E420E086EA0EC20F0D8B0DC
:1015A800D8EF0AF0DAEF0AF0E1EF0AF0000E0001D6
:1015B800D26F060ED16F1BEF0CF0000E016E000EFD
:1015C800026E940E036E420E046ED3C005F0D4C0B2
:1015D80006F0D5C007F0D6C008F0A0EC20F0D8B0CF
:1015E800F8EF0AF0FAEF0AF07EEF0BF0D3C001F043
:1015F800D4C002F0D5C003F0D6C004F0000E056ECA
:10160800000E066EAA0E076E420E086EA0EC20F0C1
:10161800D8B011EF0BF013EF0BF07EEF0BF0000ECC
:10162800016E000E026EE00E036E410E046ED7C00E
:1016380005F0D8C006F0D9C007F0DAC008F0A0EC71
:1016480020F0D8B02AEF0BF02CEF0BF07EEF0BF068
:10165800D7C001F0D8C002F0D9C003F0DAC004F056
:10166800000E056E000E066E040E076E420E086E22
:10167800A0EC20F0D8B043EF0BF045EF0BF07EEF75
:101688000BF0000E016E000E026E140E036E420E79
:10169800046EDBC005F0DCC006F0DDC007F0DEC07C
:1016A80008F0A0EC20F0D8B05CEF0BF05EEF0BF088
:1016B8007EEF0BF0DBC001F0DCC002F0DDC003F010
:1016C800DEC004F0000E056E000E066E280E076ED2
:1016D800420E086EA0EC20F0D8B075EF0BF077EF53
:1016E8000BF07EEF0BF0000E0001D26F070ED16FEA
:1016F8001BEF0CF0000E016E000E026EB00E036EB2
:10170800410E046ED3C005F0D4C006F0D5C007F072
:10171800D6C008F0A0EC20F0D8B095EF0BF097EF0A
:101728000BF01BEF0CF0D3C001F0D4C002F0D5C011
:1017380003F0D6C004F0000E056E000E066ED80E3B
:10174800076E410E086EA0EC20F0D8B0AEEF0BF09B
:10175800B0EF0BF01BEF0CF0000E016E000E026EE6
:10176800400E036E420E046ED7C005F0D8C006F0D6
:10177800D9C007F0DAC008F0A0EC20F0D8B0C7EF65
:101788000BF0C9EF0BF01BEF0CF0D7C001F0D8C07D
:1017980002F0D9C003F0DAC004F0000E056E000EA6
:1017A800066E540E076E420E086EA0EC20F0D8B0FC
:1017B800E0EF0BF0E2EF0BF01BEF0CF0000E016E08
:1017C800000E026E340E036E420E046EDBC005F08E
:1017D800DCC006F0DDC007F0DEC008F0A0EC20F0A9
:1017E800D8B0F9EF0BF0FBEF0BF01BEF0CF0DBC000
:1017F80001F0DCC002F0DDC003F0DEC004F0000E32
:10180800056E000E066E480E076E420E086EA0ECBE
:1018180020F0D8B012EF0CF014EF0CF01BEF0CF026
:10182800000E0001D26F080ED16F1BEF0CF0D1C073
:101838005CF0D2C05DF012006AC022F06BC023F0E9
:101848006CC024F06DC025F0000E266EFF0E276ECA
:101858007F0E286E470E296E71EC17F022C0B5F086
:1018680023C0B6F024C0B7F025C0B8F06EC022F08F
:101878006FC023F070C024F071C025F0000E266EF2
:10188800FF0E276E7F0E286E470E296E71EC17F03B
:1018980022C0B9F023C0BAF024C0BBF025C0BCF008
:1018A80072C022F073C023F074C024F075C025F014
:1018B800000E266EFF0E276E7F0E286E470E296ECD
:1018C80071EC17F022C0BDF023C0BEF024C0BFF0F9
:1018D80025C0C0F0000E266EFF0E276E7F0E286E04
:1018E800470E296E76C022F077C023F078C024F026
:1018F80079C025F071EC17F022C081F023C082F086
:1019080024C083F025C084F0000E226E000E236EE2
:10191800800E246E3F0E256E81C026F082C027F00F
:1019280083C028F084C029F071EC17F022C07DF044
:1019380023C07EF024C07FF025C080F0B9C001F03C
:10194800BAC002F0BBC003F0BCC004F0B5C005F0DB
:10195800B6C006F0B7C007F0B8C008F0A0EC20F099
:10196800D8A0B9EF0CF0BBEF0CF0F0EF0CF0BDC055
:1019780001F0BEC002F0BFC003F0C0C004F0B9C09F
:1019880005F0BAC006F0BBC007F0BCC008F0A0EC78
:1019980020F0D8A0D2EF0CF0D4EF0CF0DEEF0CF072
:1019A800BDC091F0BEC092F0BFC093F0C0C094F02B
:1019B800E6EF0CF0B9C091F0BAC092F0BBC093F05A
:1019C800BCC094F091C0B1F092C0B2F093C0B3F033
:1019D80094C0B4F023EF0DF0BDC001F0BEC002F01A
:1019E800BFC003F0C0C004F0B5C005F0B6C006F033
:1019F800B7C007F0B8C008F0A0EC20F0D8A007EFF7
:101A08000DF009EF0DF013EF0DF0BDC095F0BEC05D
:101A180096F0BFC097F0C0C098F01BEF0DF0B5C0AE
:101A280095F0B6C096F0B7C097F0B8C098F095C0DA
:101A3800B1F096C0B2F097C0B3F098C0B4F0B5C09A
:101A480001F0B6C002F0B7C003F0B8C004F0B9C0E6
:101A580005F0BAC006F0BBC007F0BCC008F0A0ECA7
:101A680020F0D8A03AEF0DF03CEF0DF071EF0DF03B
:101A7800B9C001F0BAC002F0BBC003F0BCC004F0AA
:101A8800BDC005F0BEC006F0BFC007F0C0C008F07A
:101A9800A0EC20F0D8A053EF0DF055EF0DF05FEF5C
:101AA8000DF0BDC09DF0BEC09EF0BFC09FF0C0C08D
:101AB800A0F067EF0DF0B9C09DF0BAC09EF0BBC0B2
:101AC8009FF0BCC0A0F09DC099F09EC09AF09FC046
:101AD8009BF0A0C09CF0A4EF0DF0B5C001F0B6C01B
:101AE80002F0B7C003F0B8C004F0BDC005F0BEC036
:101AF80006F0BFC007F0C0C008F0A0EC20F0D8A0E6
:101B080088EF0DF08AEF0DF094EF0DF0BDC0A1F055
:101B1800BEC0A2F0BFC0A3F0C0C0A4F09CEF0DF0FF
:101B2800B5C0A1F0B6C0A2F0B7C0A3F0B8C0A4F089
:101B3800A1C099F0A2C09AF0A3C09BF0A4C09CF0E9
:101B4800B1C01AF0B2C01BF0B3C01CF0B4C01DF095
:101B580099C01EF09AC01FF09BC020F09CC021F0D5
:101B6800E5EC23F01AC0ADF01BC0AEF01CC0AFF01E
:101B78001DC0B0F0ADC001F0AEC002F0AFC003F0C0
:101B8800B0C004F0000E056E000E066E000E076E63
:101B9800000E086E3AEC22F0D8A0D5EF0DF0D7EF82
:101BA8000DF0E2EF0DF0000E0001A96F000EAA6F14
:101BB800000EAB6F000EAC6F43EF0FF0B1C001F039
:101BC800B2C002F0B3C003F0B4C004F0B5C005F071
:101BD800B6C006F0B7C007F0B8C008F03AEC22F07B
:101BE800D8A0F9EF0DF0FBEF0DF05DEF0EF0ADC0F2
:101BF80026F0AEC027F0AFC028F0B0C029F0BDC0B5
:101C08001EF0BEC01FF0BFC020F0C0C021F0B9C098
:101C18001AF0BAC01BF0BBC01CF0BCC01DF0E5EC4C
:101C280023F01AC022F01BC023F01CC024F01DC0F2
:101C380025F071EC17F022C085F023C086F024C08F
:101C480087F025C088F0000E586E000E596EC00E41
:101C58005A6E400E5B6E85C054F086C055F087C042
:101C680056F088C057F091EC1FF054C089F055C069
:101C78008AF056C08BF057C08CF089C03BF08AC000
:101C88003CF08BC03DF08CC03EF0000E3F6E000E65
:101C9800406E700E416E420E426E5CEC15F03BC019
:101CA800A9F03CC0AAF03DC0ABF03EC0ACF043EF99
:101CB8000FF0B1C001F0B2C002F0B3C003F0B4C07D
:101CC80004F0B9C005F0BAC006F0BBC007F0BCC04C
:101CD80008F03AEC22F0D8A074EF0EF076EF0EF090
:101CE800D0EF0EF0ADC026F0AEC027F0AFC028F0A0
:101CF800B0C029F0B5C01EF0B6C01FF0B7C020F0C4
:101D0800B8C021F0BDC01AF0BEC01BF0BFC01CF0A7
:101D1800C0C01DF0E5EC23F01AC022F01BC023F070
:101D28001CC024F01DC025F071EC17F022C0A5F0EE
:101D380023C0A6F024C0A7F025C0A8F0000E056EA9
:101D4800000E066E000E076E400E086EA5C001F06C
:101D5800A6C002F0A7C003F0A8C004F0FCEC12F083
:101D680001C03BF002C03CF003C03DF004C03EF0AF
:101D7800000E3F6E000E406E700E416E420E426EB7
:101D88005CEC15F03BC0A9F03CC0AAF03DC0ABF03C
:101D98003EC0ACF043EF0FF0B1C001F0B2C002F0AA
:101DA800B3C003F0B4C004F0BDC005F0BEC006F077
:101DB800BFC007F0C0C008F03AEC22F0D8A0E7EFA7
:101DC8000EF0E9EF0EF043EF0FF0ADC026F0AEC015
:101DD80027F0AFC028F0B0C029F0B9C01EF0BAC0D3
:101DE8001FF0BBC020F0BCC021F0B5C01AF0B6C0CF
:101DF8001BF0B7C01CF0B8C01DF0E5EC23F01AC00A
:101E080022F01BC023F01CC024F01DC025F071EC8B
:101E180017F022C0A5F023C0A6F024C0A7F025C063
:101E2800A8F0000E056E000E066E800E076E400EBE
:101E3800086EA5C001F0A6C002F0A7C003F0A8C0B4
:101E480004F0FCEC12F001C03BF002C03CF003C00F
:101E58003DF004C03EF0000E3F6E000E406E700E66
:101E6800416E420E426E5CEC15F03BC0A9F03CC0DE
:101E7800AAF03DC0ABF03EC0ACF043EF0FF000015C
:101E8800ACBF4BEF0FF049EF0FF065EF0FF0A9C0B3
:101E980001F0AAC002F0ABC003F0ACC004F0000E21
:101EA800056E000E066EB40E076E430E086EFCEC4F
:101EB80012F001C0A9F002C0AAF003C0ABF004C040
:101EC800ACF000017A51D96EDA6AA9C0DEFFAAC067
:101ED800DEFFABC0DEFFACC0DEFFB1C001F0B2C0B8
:101EE80002F0B3C003F0B4C004F0000E056E000E9B
:101EF800066E000E076E000E086E3AEC22F0D8A0AF
:101F080088EF0FF08AEF0FF098EF0FF000017B5188
:101F1800D96EDA6A000EDE6E000EDE6E000EDE6E20
:101F2800000EDD6EC8EF0FF0B1C026F0B2C027F08A
:101F3800B3C028F0B4C029F0ADC022F0AEC023F081
:101F4800AFC024F0B0C025F071EC17F022C03BF010
:101F580023C03CF024C03DF025C03EF0000E3F6E8B
:101F6800000E406EC80E416E420E426E5CEC15F0DB
:101F780000017B51D96EDA6A3BC0DEFF3CC0DEFF50
:101F88003DC0DEFF3EC0DEFF000E3F6E000E406E1D
:101F9800C80E416E420E426EB1C03BF0B2C03CF07A
:101FA800B3C03DF0B4C03EF05CEC15F03BC08DF022
:101FB8003CC08EF03DC08FF03EC090F08DC03BF02D
:101FC8008EC03CF08FC03DF090C03EF07DC03FF029
:101FD8007EC040F07FC041F080C042F05CEC15F05C
:101FE80000017C51D96EDA6A3BC0DEFF3CC0DEFFDF
:101FF8003DC0DEFF3EC0DEFF1200000E026E630E23
:10200800016E8FEC22F0000E0101796F010E7A6FDC
:10201800010E7B6FAA0E7E6F0F0E7F6FA60E806F6C
:102028000F0E816F000E7D6F630E7C6F000E706F58
:10203800010E716F010E726F250E756F0F0E766FA0
:10204800210E776F0F0E786F000E746F630E736F2B
:10205800849E7C9E8896809686840E01B49586869A
:10206800B497010E0101826F4E0E846F4D0E836F7F
:102078003C0E856F0A0E866F460E876F460E886F78
:10208800140E896F140E8A6F8205D8A44EEF10F0D3
:1020980050EF10F068EF10F0840E016E010E026E22
:1020A800E6EC1EF0790E146E010E156E700E166EAB
:1020B800010E176E01018451ECEC1AF0820E016ECC
:1020C800010E026EE1EC21F0020E01018219D8A482
:1020D80070EF10F072EF10F08AEF10F0830E016EBF
:1020E800010E026EE6EC1EF0790E146E010E156EEE
:1020F800700E166E010E176E01018351BFEC1BF0B6
:10210800820E016E010E026EE1EC21F0040E010157
:102118008219D8A492EF10F094EF10F0ACEF10F001
:10212800870E016E010E026EE6EC1EF0790E146E3B
:10213800010E156E700E166E010E176E0101875195
:1021480018EC1AF0820E016E010E026EE1EC21F01D
:10215800050E01018219D8A4B4EF10F0B6EF10F003
:10216800CEEF10F0880E016E010E026EE6EC1EF046
:10217800790E146E010E156E700E166E010E176E26
:102188000101885192EC1CF0820E016E010E026E64
:10219800E1EC21F0030E01018219D8A4D6EF10F06A
:1021A800D8EF10F048EF10F0000EBA6F000EB76FBE
:1021B800140EB36F21EE9FF0130EDE6AE806FDE2FF
:1021C8004AEC24F01DEC25F080867C8E790E146E86
:1021D800010E156E700E166E010E176E01018751F5
:1021E80018EC1AF00101B72B04EC07F05CC0BBF146
:1021F8005DC0BCF180967C9E0101BB51BC11D8B476
:1022080008EF11F00AEF11F0BAEF12F09F0EBA259D
:10221800D96EDA6A010EDA22B7510A0FDF6E000EA4
:10222800B76FBA2BBB05BC11D8A41DEF11F01FEF77
:1022380011F041EF11F09F0EBA25D96EDA6A010E3E
:10224800DA22BBC1DFFFBA2B790E146E010E156EB0
:10225800700E166E010E176E885192EC1CF0790EF6
:10226800146E010E156E700E166E010E176E0101BA
:102278008451ECEC1AF0BAEF12F0020EBB19BC1143
:10228800D8A449EF11F04BEF11F06DEF11F09F0E4C
:10229800BA25D96EDA6A010EDA22BBC1DFFFBA2B82
:1022A800790E146E010E156E700E166E010E176EF5
:1022B800885192EC1CF0790E146E010E156E700E9A
:1022C800166E010E176E01018351BFEC1BF0BAEFB9
:1022D80012F0030EBB19BC11D8A475EF11F077EFFB
:1022E80011F0A5EF11F09F0EBA25D96EDA6A010E2A
:1022F800DA22BBC1DFFFBA2B790E146E010E156E00
:10230800700E166E010E176E885192EC1CF0790E45
:10231800146E010E156E700E166E010E176E010109
:102328008351BFEC1BF0790E146E010E156E700E02
:10233800166E010E176E01018351BFEC1BF0BAEF48
:1023480012F0080EBB19BC11D8A4ADEF11F0AFEF15
:1023580011F0BAEF12F0790E146E010E156E700EB0
:10236800166E010E176E885192EC1CF0790E146EE1
:10237800010E156E700E166E010E176E0101835157
:10238800BFEC1BF0790E146E010E156E700E166EF2
:10239800010E176E01018351BFEC1BF0790E146E0C
:1023A800010E156E700E166E010E176E0101885122
:1023B80092EC1CF0790E146E010E156E700E166EEE
:1023C800010E176E0101885192EC1CF0FF0E0101FD
:1023D800B325BD6FBE6BFF0EBE23BEBFF8EF11F075
:1023E800F6EF11F0FAEF11F0BAEF12F09F0EBD25DB
:1023F800D96E010EBE21DA6EDE04D8A406EF12F003
:1024080008EF12F021EF12F0790E146E010E156E1E
:10241800700E166E010E176E8351BFEC1BF0790E0D
:10242800146E010E156E700E166E010E176E0101F8
:10243800885192EC1CF0B4EF12F09F0EBD25D96EB6
:10244800010EBE21DA6E020EDE18D8A42EEF12F0AD
:1024580030EF12F049EF12F0790E146E010E156E7E
:10246800700E166E010E176E8451ECEC1AF0790E90
:10247800146E010E156E700E166E010E176E0101A8
:10248800885192EC1CF0B4EF12F09F0EBD25D96E66
:10249800010EBE21DA6E030EDE18D8A456EF12F034
:1024A80058EF12F071EF12F0790E146E010E156EDE
:1024B800700E166E010E176E8351BFEC1BF0790E6D
:1024C800146E010E156E700E166E010E176E010158
:1024D8008351BFEC1BF0B4EF12F09F0EBD25D96EEF
:1024E800010EBE21DA6E0A0EDF647DEF12F07FEF77
:1024F80012F0B4EF12F09F0EBD25D96E010EBE2169
:10250800DA6EDF50F60FB46F000EB66F000EB56FBF
:102518009DEF12F0790E146E010E156E700E166E88
:10252800010E176E0101875118EC1AF00101B54B25
:10253800B62BB4510001DF6FE06BDF510101B55DCF
:10254800B651800A0001E16FE051800AE159D8A034
:10255800B0EF12F0B2EF12F08EEF12F0B4EF12F00B
:102568000101BD07D8A0BE07F1EF11F0000E01016F
:10257800B96F000EB86FB9BFCBEF12F0B95109E1CE
:102588000A0EB85DD8A0CBEF12F0CDEF12F0CFEF66
:1025980012F0E8EF10F08B0E1D6E010E1E6E010E8C
:1025A8001F6E9F0EB825D96E010EB921DA6EDF5065
:1025B8000001DF6FDF51206E216A6AEC24F08B0E78
:1025C800026E010E036EA2EC24F0050E0001E06F0E
:1025D8000F0EDF6FF10EE82EFED7DF2FFCD7E02FAE
:1025E800FAD70101B84BB92BBFEF12F000EF00F09A
:1025F8000450800B0D6E045004240F6E03AE07EFD9
:1026080013F009EF13F00AEF13F00F800F50D8B44E
:1026180010EF13F012EF13F027EF13F00F28D8A4E0
:1026280018EF13F01AEF13F022EF13F0000E016EFB
:10263800000E026E000E036E000E046E038E000E76
:10264800046E2FEF13F0000E016E000E026E000EE6
:10265800036E000E046E0850800B0E6E0D500E189F
:10266800D8B439EF13F03BEF13F03CEF13F00D8CB7
:10267800085008240E6E07AE44EF13F046EF13F02F
:1026880047EF13F00E800E50D8B44DEF13F04FEF14
:1026980013F064EF13F00E28D8A455EF13F057EF9A
:1026A80013F05FEF13F0000E056E000E066E000EBD
:1026B800076E000E086E078E000E086E6CEF13F0A2
:1026C800000E056E000E066E000E076E000E086EF8
:1026D8000F500E5CD8B073EF13F075EF13F09CEF4A
:1026E80013F00DAC7AEF13F07CEF13F07EEF13F0DC
:1026F800800E0D1A0FC010F00EC00FF010C00EF0B3
:1027080001C010F005C001F010C005F002C010F0C3
:1027180006C002F010C006F003C010F007C003F0B6
:1027280010C007F004C010F008C004F010C008F092
:10273800000E106E0F500EC009F00A6A095E000EF6
:102748000A5A0ABEB1EF13F00A5009E11A0E095CE1
:10275800D8A0B1EF13F0B3EF13F0EAEF13F0015084
:10276800021003100410D8A4BCEF13F0BFEF13F04D
:10277800010EC0EF13F0000E106E000E016E000E79
:10278800026E000E036E000E046E0EC00FF0F3EF23
:1027980013F010A0D2EF13F0D4EF13F0DAEF13F028
:1027A800D89010300109106EDCEF13F0D890103279
:1027B80001A0E1EF13F0E3EF13F0E4EF13F0108E54
:1027C800043404320332023201320F2A0E500F5CF5
:1027D800D8A0F1EF13F0F3EF13F0CDEF13F00DBC29
:1027E800F8EF13F0FAEF13F03AEF14F00F50D8A403
:1027F80000EF14F002EF14F00CEF14F0000E016E6D
:10280800000E026E000E036E000E046E5BEF15F0F4
:1028180005500126065002220750032208500422C0
:1028280004A019EF14F01BEF14F0C7EF14F010A078
:1028380020EF14F022EF14F028EF14F0D8901030A5
:102848000109106E2AEF14F0D890103201A02FEF72
:1028580014F031EF14F032EF14F0108E0434043217
:102868000332023201320F2AC7EF14F00550015C1F
:1028780006500258075003580450800A096E085041
:10288800800A0958D8B04BEF14F04DEF14F078EFE8
:1028980014F00150055C096E025006580A6E035088
:1028A80007580B6E045008580C6EFF0E0924016E71
:1028B800FF0E0A20026EFF0E0B20036EFF0E0C2087
:1028C800046E800E0D1A106C1050D8A46EEF14F020
:1028D80070EF14F080EF14F0010E0126000E0222B2
:1028E8000322042280EF14F00550015E0650025ABC
:1028F8000750035A0850045A0150021003100410DC
:10290800D8A489EF14F08BEF14F0C0EF14F0105036
:10291800D8A491EF14F093EF14F0C0EF14F0000E68
:10292800016E000E026E000E036E000E046E5BEF69
:1029380015F0D890013602360336043610AEA7EFEC
:1029480014F0A9EF14F0AAEF14F0018010A0AFEF73
:1029580014F0B1EF14F0B5EF14F0D8801036B7EFDB
:1029680014F0D89010360F50D8B4BDEF14F0BFEF64
:1029780014F0C0EF14F00F0603AEC5EF14F0C7EF64
:1029880014F09DEF14F0000E0E6E10AECEEF14F0A2
:10299800D0EF14F0E8EF14F010C009F07F0E09161C
:1029A800D8B4D9EF14F0DBEF14F0DFEF14F0010E18
:1029B8000E6EE8EF14F001A0E4EF14F0E6EF14F067
:1029C800E8EF14F0DBEF14F00E50D8B4EEEF14F08B
:1029D800F0EF14F01BEF15F0010E0126000E022295
:1029E8000322042204A0FBEF14F0FDEF14F01BEF08
:1029F80015F001C009F002C00AF003C00BF004C0D2
:102A08000CF00C340C320B320A32093209C001F0D6
:102A18000AC002F00BC003F00CC004F00F28D8B4B1
:102A280018EF15F01AEF15F01BEF15F00F2A0F2805
:102A3800D8B421EF15F023EF15F02BEF15F00F5058
:102A4800D8A429EF15F02BEF15F03DEF15F0000E87
:102A5800016E000E026E000E036E000E046E0F5023
:102A6800D8A439EF15F03BEF15F03DEF15F0000E47
:102A78000D6E0FA042EF15F044EF15F047EF15F07B
:102A8800038E48EF15F0039ED8900F30046E0DAEFC
:102A980050EF15F052EF15F053EF15F0048E01C00A
:102AA80001F002C002F003C003F004C004F01200F9
:102AB8003E50800B476E3E503E244D6E3DAE67EF54
:102AC80015F069EF15F06AEF15F04D804D50D8B448
:102AD80070EF15F072EF15F085EF15F04D28D8A4BA
:102AE80078EF15F07AEF15F082EF15F0000E3B6ED7
:102AF800000E3C6E000E3D6E000E3E6E3D8E8DEF5C
:102B080015F0000E3B6E000E3C6E000E3D6E000E82
:102B18003E6E4250800B471A425042244C6E41AEE2
:102B280098EF15F09AEF15F09BEF15F04C804C508C
:102B3800D8B4A1EF15F0A3EF15F0B6EF15F04C28B7
:102B4800D8A4A9EF15F0ABEF15F0B3EF15F0000E10
:102B58003F6E000E406E000E416E000E426E418EBA
:102B6800BEEF15F0000E3F6E000E406E000E416E77
:102B7800000E426E4C50D8B4C4EF15F0C6EF15F0F5
:102B8800CEEF15F04D50D8A4CCEF15F0CEEF15F0E0
:102B9800D8EF15F0000E3B6E000E3C6E000E3D6E39
:102BA800000E3E6E70EF17F041503B02F3CF52F02B
:102BB800F4CF53F05250486E496A4A6A4B6A5350F0
:102BC8004E6E4F6A506A516A40503C02F3CF52F041
:102BD800F4CF53F052504826000E49224A224B2285
:102BE80053504E26000E4F22502251223F503D0294
:102BF800F3CF52F0F4CF53F052504826000E49223A
:102C08004A224B2253504E26000E4F225022512268
:102C18004AC04BF049C04AF048C049F0486A3F50A2
:102C28003C02F3CF52F0F4CF53F0525048265350A1
:102C38004922000E4A22000E4B2240503B02F3CF9D
:102C480052F0F4CF53F05250482653504922000E08
:102C58004A22000E4B224AC04BF049C04AF048C0F5
:102C680049F0486A3F503B02F3CF52F0F4CF53F09B
:102C78005250482653504922000E4A22000E4B2239
:102C880041503C02F3CF52F0F4CF53F052504E264D
:102C980053504F22000E5022000E512240503D0248
:102CA800F3CF52F0F4CF53F052504E2653504F22E8
:102CB800000E5022000E512241503D02F3CF52F037
:102CC800F4CF53F05250436E5350446E456A466AEF
:102CD80045C046F044C045F043C044F0436A435001
:102CE8004E2644504F22455050224650512248C04B
:102CF80043F049C044F04AC045F04BC046F0190EB5
:102D08008BEF16F0D8904632453244324332E82EE3
:102D180086EF16F043504E2644504F22455050221D
:102D2800465051224AC04BF049C04AF048C049F0C9
:102D3800486A4C504DC043F0446A4326000E442272
:102D4800820E4324526EFF0E4420536EC1EF16F0DC
:102D5800D8904E364F36503651364BAEB6EF16F049
:102D6800B8EF16F0B9EF16F04E80D89048364936CD
:102D78004A364B365206D8A0530650AEC6EF16F068
:102D8800C8EF16F0ACEF16F0000E4C6E4BAECFEF5E
:102D980016F0D1EF16F0F5EF16F0FF0E4814436E5B
:102DA800FF0E4914446EFF0E4A14456E7F0E4B14F5
:102DB800466E4350441045104610D8B4E6EF16F05E
:102DC800E8EF16F0ECEF16F0010E4C6EF5EF16F08A
:102DD8004EA0F1EF16F0F3EF16F0F5EF16F0E8EF6E
:102DE80016F04C50D8B4FBEF16F0FDEF16F021EFBB
:102DF80017F0010E4E26000E4F225022512251A0EC
:102E080008EF17F00AEF17F021EF17F04EC043F064
:102E18004FC044F050C045F051C046F046344632E9
:102E280045324432433243C04EF044C04FF045C0AF
:102E380050F046C051F0524A532A53BE2CEF17F0B7
:102E4800535008E15228D8A02CEF17F02EEF17F0B6
:102E580038EF17F0000E4E6E000E4F6E800E506E5B
:102E68007F0E516E66EF17F053BE45EF17F05350C3
:102E780006E15204D8B043EF17F045EF17F051EFD1
:102E880017F0000E4E6E000E4F6E000E506E000EC4
:102E9800516E000E476E66EF17F052C04DF0FF0EF0
:102EA8004E16FF0E4F167F0E5016000E51164DA0EF
:102EB80060EF17F062EF17F063EF17F0508ED890BD
:102EC8004D30516E475051124EC03BF04FC03CF050
:102ED80050C03DF051C03EF012002550800B326EBC
:102EE80025502524396E24AE7CEF17F07EEF17F0BD
:102EF8007FEF17F039803950D8B485EF17F087EF96
:102F080017F09CEF17F03928D8A48DEF17F08FEF42
:102F180017F097EF17F0000E226E000E236E000ECA
:102F2800246E000E256E248E000E256EA4EF17F079
:102F3800000E226E000E236E000E246E000E256E0B
:102F48002950800B321A295029243A6E28AEAFEF47
:102F580017F0B1EF17F0B2EF17F03A803A50D8B443
:102F6800B8EF17F0BAEF17F0CFEF17F03A28D8A458
:102F7800C0EF17F0C2EF17F0CAEF17F0000E266E79
:102F8800000E276E000E286E000E296E288E000E89
:102F9800296ED7EF17F0000E266E000E276E000E72
:102FA800286E000E296E2650271028102910D8A444
:102FB800E0EF17F0E2EF17F0FAEF17F0000E226ECD
:102FC800000E236E000E246E000E256E800E241255
:102FD8007F0E25123250251222C022F023C023F082
:102FE80024C024F025C025F03DEF19F03950D8A4AD
:102FF80000EF18F002EF18F00CEF18F0000E226E38
:10300800000E236E000E246E000E256E3DEF19F0A3
:103018003A5039C02AF02B6A2A5E000E2B5A7F0ECE
:103028002A24336E000E2B20346E22C02EF023C0CB
:103038002FF024C030F025C031F0000E226E000EB3
:10304800236E000E246E000E256E000E356E000EE7
:10305800366E000E376E000E386E000E3A6E6DEF4B
:1030680018F03A50D8B43BEF18F03DEF18F054EF91
:1030780018F0D8902E362F3630363136D890223682
:1030880023362436253638AE4CEF18F04EEF18F0BC
:103098004FEF18F02280D890353636363736383626
:1030A80026502E5C27502F58285030582950315818
:1030B800D8A061EF18F063EF18F06CEF18F0388CB7
:1030C80026502E5E27502F5A2850305A2950315AF0
:1030D8003A2A190E3A6473EF18F075EF18F035EFC5
:1030E80018F02E502F1030103110D8B47EEF18F091
:1030F80080EF18F098EF18F0358098EF18F0D89016
:10310800223623362436253638AE8DEF18F08FEF69
:1031180018F090EF18F02280D890353636363736CA
:1031280038363306D8A0340624AE9DEF18F09FEF4A
:1031380018F083EF18F0000E3A6E38AEA6EF18F0CC
:10314800A8EF18F0CCEF18F0FF0E35142A6EFF0E1A
:1031580036142B6EFF0E37142C6E7F0E38142D6E1E
:103168002A502B102C102D10D8B4BDEF18F0BFEF3B
:1031780018F0C3EF18F0010E3A6ECCEF18F022A049
:10318800C8EF18F0CAEF18F0CCEF18F0BFEF18F03E
:103198003A50D8B4D2EF18F0D4EF18F0F8EF18F08E
:1031A800010E2226000E23222422252225A0DFEF4D
:1031B80018F0E1EF18F0F8EF18F022C02AF023C059
:1031C8002BF024C02CF025C02DF02D342D322C32BC
:1031D8002B322A322AC022F02BC023F02CC024F034
:1031E8002DC025F0334A342A34BE03EF19F0345089
:1031F80008E13328D8A003EF19F005EF19F010EF14
:1032080019F0000E346E3368000E226E000E236E25
:10321800000E246E000E256E34BE1DEF19F03450DA
:1032280006E13304D8B01BEF19F01DEF19F02BEFAE
:1032380019F0000E346E000E336E000E226E000E72
:10324800236E000E246E000E256E000E326E33C003
:1032580039F039A032EF19F034EF19F037EF19F0DF
:10326800248E38EF19F0249ED8903930256EEEEF71
:1032780017F01200146E1450D8B445EF19F047EF48
:1032880019F069EF19F00FBE4EEF19F04CEF19F075
:1032980069EF19F00CC010F00DC011F00EC012F05B
:1032A8000FC013F0101E111E121E131E102A000E3E
:1032B80011221222132210C016F011C017F012C0EA
:1032C80018F013C019F071EF19F00CC016F00DC00A
:1032D80017F00EC018F00FC019F00C500D100E109A
:1032E8000F10D8A47AEF19F07CEF19F086EF19F0D7
:1032F800000E0C6E000E0D6E000E0E6E000E0F6EA0
:1033080017EF1AF0960E156E90EF19F0152AD8904F
:103318001932183217321632000E1614106E000EBB
:103328001714116E000E1814126EFE0E1914136E77
:103338001050111012101310D8A4A5EF19F0A7EF10
:1033480019F08AEF19F0B5EF19F0152A010E1626B3
:10335800000E172218221922D89019321832173263
:103368001632000E1614106E000E1714116E000E91
:103378001814126EFF0E1914136E1050111012103B
:103388001310D8A4CAEF19F0CCEF19F0A9EF19F06F
:10339800D4EF19F01506D8901636173618361936A0
:1033A80018BED9EF19F0DBEF19F0E3EF19F0020EB0
:1033B8001560E1EF19F0E3EF19F0CEEF19F015B051
:1033C800E8EF19F0EAEF19F0EBEF19F0189ED89032
:1033D800153215C010F0116A126A136A10C013F082
:1033E800126A116A106A10501612115017121250F0
:1033F8001812135019121450D8B405EF1AF007EF29
:103408001AF00FEF1AF00FBE0EEF1AF00CEF1AF0C9
:103418000FEF1AF0198E16C00CF017C00DF018C077
:103428000EF019C00FF012001B6E20EE01F01450C0
:10343800D9261550DA22010EDF6E20EE01F0165063
:10344800D9261750DA22010EDF6E000E216E140EF7
:10345800206E000E026E640E016E000E046E140ED5
:10346800036E22EC21F001C022F002C023F0000E0E
:103478001D6E000E1C6E6DEF1AF014C0D9FF15C03A
:10348800DAFFDF50186E182814C0D9FF15C0DAFF0C
:10349800DF6E16C0D9FF17C0DAFFDF50186E182884
:1034A80016C0D9FF17C0DAFFDF6E16C00EF017C0BE
:1034B8000FF030EC1EF014C00EF015C00FF030EC19
:1034C8001EF022C001F023C002F0BAEC24F01C4A1E
:1034D8001D2A20501C5C1D50800A186E2150800A3D
:1034E8001858D8A07AEF1AF07CEF1AF041EF1AF0CA
:1034F800000E1F6E000E1E6E8BEF1AF0D00E186EA7
:10350800CA0EE82EFED7182EFCD71E4A1F2A1B50BB
:10351800186E196A18501E5C1F50800A1A6E1950CE
:10352800800A1A58D8A09BEF1AF09DEF1AF082EF84
:103538001AF0D3EF1AF016C0D9FF17C0DAFFDF5020
:10354800D8B4A9EF1AF0ABEF1AF0B0EF1AF016C022
:10355800D9FF17C0DAFFDF0614C0D9FF15C0DAFF9C
:10356800DF50D8B4BAEF1AF0BCEF1AF0C1EF1AF076
:1035780014C0D9FF15C0DAFFDF0616C00EF017C059
:103588000FF030EC1EF014C00EF015C00FF030EC48
:103598001EF022C001F023C002F0BAEC24F014C0DF
:1035A800D9FF15C0DAFFDF50D8A4DDEF1AF0DFEF3E
:1035B8001AF09FEF1AF016C0D9FF17C0DAFFDF50D4
:1035C800D8A4E9EF1AF0EBEF1AF09FEF1AF0120007
:1035D8001B6E20EE01F01450D9261550DA22010E88
:1035E800DF6E20EE01F01650D9261750DA22DF6A76
:1035F800000E216E140E206E000E026E640E016E17
:10360800000E046E140E036E22EC21F001C022F0AD
:1036180002C023F0000E1D6E000E1C6E40EF1BF062
:1036280014C0D9FF15C0DAFFDF50186E182814C06F
:10363800D9FF15C0DAFFDF6E16C0D9FF17C0DAFF51
:10364800DF50186E182816C0D9FF17C0DAFFDF6ED2
:1036580016C00EF017C00FF030EC1EF014C00EF0BC
:1036680015C00FF030EC1EF022C001F023C002F0AC
:10367800BAEC24F01C4A1D2A20501C5C1D50800AFC
:10368800186E2150800A1858D8A04DEF1BF04FEF44
:103698001BF014EF1BF0000E1F6E000E1E6E5EEF87
:1036A8001BF0D00E186ECA0EE82EFED7182EFCD7C7
:1036B8001E4A1F2A1B50186E196A18501E5C1F508C
:1036C800800A1A6E1950800A1A58D8A06EEF1BF09B
:1036D80070EF1BF055EF1BF0A6EF1BF016C0D9FFDB
:1036E80017C0DAFFDF50D8B47CEF1BF07EEF1BF079
:1036F80083EF1BF016C0D9FF17C0DAFFDF0614C02E
:10370800D9FF15C0DAFFDF50D8B48DEF1BF08FEF6B
:103718001BF094EF1BF014C0D9FF15C0DAFFDF06C9
:1037280016C00EF017C00FF030EC1EF014C00EF0EB
:1037380015C00FF030EC1EF022C001F023C002F0DB
:10374800BAEC24F014C0D9FF15C0DAFFDF50D8A4B2
:10375800B0EF1BF0B2EF1BF072EF1BF016C0D9FFF1
:1037680017C0DAFFDF50D8A4BCEF1BF0BEEF1BF088
:1037780072EF1BF012001B6E20EE01F01450D926D8
:103788001550DA22DF6A20EE01F01650D9261750BC
:10379800DA22010EDF6E000E216E140E206E000E6E
:1037A800026E640E016E000E046E140E036E22EC9F
:1037B80021F001C022F002C023F0000E1D6E000EA1
:1037C8001C6E13EF1CF014C0D9FF15C0DAFFDF50D0
:1037D800186E182814C0D9FF15C0DAFFDF6E16C09E
:1037E800D9FF17C0DAFFDF50186E182816C0D9FFA6
:1037F80017C0DAFFDF6E16C00EF017C00FF030ECFE
:103808001EF014C00EF015C00FF030EC1EF022C0F0
:1038180001F023C002F0BAEC24F01C4A1D2A205003
:103828001C5C1D50800A186E2150800A1858D8A0B8
:1038380020EF1CF022EF1CF0E7EF1BF0000E1F6ECC
:10384800000E1E6E31EF1CF0D00E186ECA0EE82E58
:10385800FED7182EFCD71E4A1F2A1B50186E196A4D
:1038680018501E5C1F50800A1A6E1950800A1A5888
:10387800D8A041EF1CF043EF1CF028EF1CF079EFC3
:103888001CF016C0D9FF17C0DAFFDF50D8B44FEFCD
:103898001CF051EF1CF056EF1CF016C0D9FF17C0F2
:1038A800DAFFDF0614C0D9FF15C0DAFFDF50D8B43D
:1038B80060EF1CF062EF1CF067EF1CF014C0D9FF3A
:1038C80015C0DAFFDF0616C00EF017C00FF030EC97
:1038D8001EF014C00EF015C00FF030EC1EF022C020
:1038E80001F023C002F0BAEC24F014C0D9FF15C0CF
:1038F800DAFFDF50D8A483EF1CF085EF1CF045EF0A
:103908001CF016C0D9FF17C0DAFFDF50D8A48FEF1C
:103918001CF091EF1CF045EF1CF012001B6E20EE1E
:1039280001F01450D9261550DA22DF6A20EE01F092
:103938001650D9261750DA22DF6A000E216E140EAF
:10394800206E000E026E640E016E000E046E140EE0
:10395800036E22EC21F001C022F002C023F0000E19
:103968001D6E000E1C6EE5EF1CF014C0D9FF15C0CB
:10397800DAFFDF50186E182814C0D9FF15C0DAFF17
:10398800DF6E16C0D9FF17C0DAFFDF50186E18288F
:1039980016C0D9FF17C0DAFFDF6E16C00EF017C0C9
:1039A8000FF030EC1EF014C00EF015C00FF030EC24
:1039B8001EF022C001F023C002F0BAEC24F01C4A29
:1039C8001D2A20501C5C1D50800A186E2150800A48
:1039D8001858D8A0F2EF1CF0F4EF1CF0B9EF1CF067
:1039E800000E1F6E000E1E6E03EF1DF0D00E186E37
:1039F800CA0EE82EFED7182EFCD71E4A1F2A1B50C7
:103A0800186E196A18501E5C1F50800A1A6E1950D9
:103A1800800A1A58D8A013EF1DF015EF1DF0FAEF21
:103A28001CF04BEF1DF016C0D9FF17C0DAFFDF50AE
:103A3800D8B421EF1DF023EF1DF028EF1DF016C0BC
:103A4800D9FF17C0DAFFDF0614C0D9FF15C0DAFFA7
:103A5800DF50D8B432EF1DF034EF1DF039EF1DF010
:103A680014C0D9FF15C0DAFFDF0616C00EF017C064
:103A78000FF030EC1EF014C00EF015C00FF030EC53
:103A88001EF022C001F023C002F0BAEC24F014C0EA
:103A9800D9FF15C0DAFFDF50D8A455EF1DF057EF56
:103AA8001DF017EF1DF016C0D9FF17C0DAFFDF5061
:103AB800D8A461EF1DF063EF1DF017EF1DF01200A1
:103AC8000F50D96EDA6ADFCFF6FF0E0EF76E000ED2
:103AD800F86E0800F550250AD8A475EF1DF077EFA9
:103AE8001DF01CEF1EF00F50D96EDA6ADF2A000EA7
:103AF8000001F76F000EF66FF6C0FAF0F869F96981
:103B08000F50D96EDA6ADF50176E17C0F6FF0E0E27
:103B1800F76E000EF86E0800F550750AD8A497EFF6
:103B28001DF099EF1DF016EF1EF01050D96EDA6AED
:103B3800020EDF26DF5CD96EDA6ADECF13F0DECF45
:103B480014F00F50D96EDA6A1728DF6EFEEF1DF0F9
:103B5800200E186E18063C0E1824D96EDA6A010E6B
:103B6800DA2213C001F014C002F0000E046E0A0E2F
:103B7800036E13EC23F00150300FDF6E13C007F013
:103B880014C008F0000E0A6E0A0E096ED9EC22F075
:103B980007C013F008C014F013501410D8B4D7EFAE
:103BA8001DF0D9EF1DF0F3EF1DF01850D8A4DFEF8A
:103BB8001DF0E1EF1DF0AEEF1DF0F3EF1DF03C0E30
:103BC8001824D96EDA6A010EDA22DF50116E11500C
:103BD800016E026A0EC003F084EC21F0182A200E50
:103BE8001818D8A4FAEF1DF0FCEF1DF0E3EF1DF054
:103BF8002FEF1EF017C0F6FF0E0EF76E000EF86ED0
:103C08000800F550116E126A1250000AD8B40FEF6E
:103C18001EF016EF1EF01150750AD8B4ACEF1DF067
:103C280016EF1EF00F50D96EDA6ADF2A2FEF1EF05A
:103C38000F50D96EDA6ADFCFF6FF0E0EF76E000E60
:103C4800F86E0800F550016E026A0EC003F084ECAD
:103C580021F016EF1EF0120020EE02F00E50D926C9
:103C68000F50DA22DF50D8B43CEF1EF03EEF1EF0C2
:103C780072EF1EF00EC0D9FF0FC0DAFFDF50106ED2
:103C88001050016E026A20EE03F00E50D9260F5034
:103C9800DA22DECF03F0DDCF04F0FAEC24F001C025
:103CA80007F002C008F0000E0A6E640E096ED9EC27
:103CB80022F020EE03F00E50D9260F50DA22DF5002
:103CC800116E0750115C126E20EE03F00E50D926CB
:103CD8000F50DA22DF50136E95EF1EF0000E126EB1
:103CE8000EC0D9FF0FC0DAFFDF50106E1050016E02
:103CF800026A20EE03F00E50D9260F50DA22DECFEA
:103D080003F0DDCF04F0FAEC24F001C007F002C0A4
:103D180008F0000E0A6E640E096ED9EC22F0075006
:103D2800136E20EE01F00E50D9260F50DA22DF5024
:103D3800D8B4A1EF1EF0A3EF1EF0C5EF1EF020EEE1
:103D480005F00E50D9260F50DA22DECF10F0DDCF65
:103D580011F010C0D9FF11C0DAFF12C0DFFF20EE4A
:103D680007F00E50D9260F50DA22DECF10F0DDCF43
:103D780011F010C0D9FF11C0DAFF13C0DFFFE5EF63
:103D88001EF020EE05F00E50D9260F50DA22DECFB5
:103D980010F0DDCF11F010C0D9FF11C0DAFF13C049
:103DA800DFFF20EE07F00E50D9260F50DA22DECFC3
:103DB80010F0DDCF11F010C0D9FF11C0DAFF12C02A
:103DC800DFFF12008EA6EBEF1EF0EDEF1EF0F4EF12
:103DD8001EF08EB4F2EF1EF0F4EF1EF0E6EF1EF0C8
:103DE800090E046E1E0E036EE40EE82EFED7032E97
:103DF800FCD7042EFAD700D08EB605EF1FF007EFD8
:103E08001FF020EF1FF08EB40CEF1FF00EEF1FF025
:103E180020EF1FF080867C8E520E046E2B0E036EF0
:103E2800000EE82EFED7032EFCD7042EFAD700D0BA
:103E380080967C9E90EF1FF08EB425EF1FF027EF41
:103E48001FF055EF1FF0110E046E3C0E036ECB0EE3
:103E5800E82EFED7032EFCD7042EFAD7000001C0A7
:103E6800D9FF02C0DAFFDECF03F0DDCF04F0020E87
:103E78000326000E042201C0D9FF02C0DAFF03C0E6
:103E8800DEFF04C0DDFF7C8E110E046E3C0E036E57
:103E9800CB0EE82EFED7032EFCD7042EFAD700004F
:103EA8007C9E8EB65AEF1FF05CEF1FF08EEF1FF06E
:103EB800110E046E3C0E036ECB0EE82EFED7032EB9
:103EC800FCD7042EFAD7000001C0D9FF02C0DAFFE0
:103ED800DECF03F0DDCF04F0FE0E0324056EFF0EE7
:103EE8000420066E01C0D9FF02C0DAFF05C0DEFF5C
:103EF80006C0DDFF8086110E046E3C0E036ECB0EED
:103F0800E82EFED7032EFCD7042EFAD700008096A1
:103F1800E6EF1EF0E6EF1EF0120058C001F059C09F
:103F280002F05AC003F05BC004F0000E056E000EEC
:103F3800066E000E076E000E086E3AEC22F0D8A04E
:103F4800A8EF1FF0AAEF1FF0B4EF1FF0000E546E99
:103F5800000E556E000E566E000E576E1CEF20F0C8
:103F680054C022F055C023F056C024F057C025F0A5
:103F780058C026F059C027F05AC028F05BC029F075
:103F880071EC17F022C060F023C061F024C062F029
:103F980025C063F060C001F061C002F062C003F0A8
:103FA80063C004F01DEC20F001C068F002C069F0A5
:103FB80054C01AF055C01BF056C01CF057C01DF075
:103FC80058C03FF059C040F05AC041F05BC042F0C1
:103FD80068C00CF069C00DF0000E0DBEFF0E0E6E2D
:103FE8000F6E010E3EEC19F00CC03BF00DC03CF01A
:103FF8000EC03DF00FC03EF05CEC15F03BC01EF06B
:104008003CC01FF03DC020F03EC021F0E5EC23F09D
:104018001AC064F01BC065F01CC066F01DC067F0D4
:1040280064C054F065C055F066C056F067C057F0DC
:104038001200033404340A6E0A50D8A426EF20F084
:1040480028EF20F032EF20F0000E016E000E026E15
:10405800000E036E000E046E9FEF20F001C005F005
:1040680002C006F003C007F004C008F0200E42EFBB
:1040780020F0D8900832073206320532E82E3DEF9C
:1040880020F00550096E038EFF0E0116FF0E021672
:10409800FF0E0316000E0416960E0A5E0ABE59EFAE
:1040A80020F057EF20F06FEF20F00A50800A970FAA
:1040B800D8B061EF20F063EF20F065EF20F028EF33
:1040C80020F0D89004320332023201320A3E65EF02
:1040D80020F087EF20F01F0E0A6475EF20F077EFCD
:1040E80020F07FEF20F028EF20F0D890013602363C
:1040F800033604360A060A50D8A485EF20F087EF65
:1041080020F079EF20F00950D8B48DEF20F08FEF30
:1041180020F097EF20F0041E031E021E016C000E13
:1041280002220322042201C001F002C002F003C0EF
:1041380003F004C004F01200000E0114096E000E12
:1041480002140A6E800E03140B6E7F0E04140C6E9C
:1041580009500A100B100C10D8A4B5EF20F0B7EFD7
:1041680020F0BFEF20F0000E016E000E026E000E70
:10417800036E000E046E000E0514096E000E061480
:104188000A6E800E07140B6E7F0E08140C6E095011
:104198000A100B100C10D8A4D4EF20F0D6EF20F0A2
:1041A800DEEF20F0000E056E000E066E000E076EA4
:1041B800000E086E04AEE3EF20F0E5EF20F0EEEF1E
:1041C80020F0016C021ED8B0022A031ED8B0032AC0
:1041D800800E045608AEF3EF20F0F5EF20F0FEEF66
:1041E80020F0056C061ED8B0062A071ED8B0072A8C
:1041F800800E0856000E011A000E021A000E031A4D
:10420800800E041A000E051A000E061A000E071A70
:10421800800E081A0550015C0650025807500358D2
:1042280008500458D8B01BEF21F01DEF21F020EF03
:1042380021F0D89021EF21F0D8801200000E066EF0
:1042480004BE2BEF21F029EF21F031EF21F0036CB0
:10425800041ED8B0042A010E066E02BE38EF21F003
:1042680036EF21F03EEF21F0016C021ED8B0022A91
:10427800010E061A000E086E000E076E0350041099
:10428800D8B449EF21F04BEF21F073EF21F0010E84
:10429800056E53EF21F0D89003360436052A04AE94
:1042A80058EF21F05AEF21F04FEF21F0D890073660
:1042B80008360350015C04500258D8A066EF21F07C
:1042C80068EF21F06DEF21F00350015E0450025AAF
:1042D8000780D89004320332052E5AEF21F0065099
:1042E800D8B479EF21F07BEF21F07FEF21F0076C54
:1042F800081ED8B0082A07C001F008C002F0120052
:104308000350D8B48AEF21F08CEF21F094EF21F01C
:104318000350D8A492EF21F094EF21F099EF21F007
:1043280001504DEC25F0E0EF21F00350D96EDA6A28
:104338000A0ED926DE50DE10D8B4A5EF21F0A7EF7B
:1043480021F0C0EF21F00350D96EDA6A0A0ED9269F
:104358000350E16EE26A030EE126DE50E65CE650A9
:10436800800A086EDE50800A0858D8B0BEEF21F0E7
:10437800C0EF21F0E0EF21F00350D96EDA6A030EA6
:10438800D926DECF04F0DDCF05F00350D96EDA6A06
:10439800DECF06F0DDCF07F004500624D96E0550B5
:1043A8000720DA6E01C0DFFF0350D96EDA6A030E08
:1043B800D926DE2A000EDD2212008EB4E6EF21F0A7
:1043C800E8EF21F018EF22F0110E046E3C0E036E98
:1043D800CB0EE82EFED7032EFCD7042EFAD700000A
:1043E80001C0D9FF02C0DAFFDECF03F0DDCF04F051
:1043F800010E0326000E042201C0D9FF02C0DAFF15
:1044080003C0DEFF04C0DDFF7C8E110E046E3C0E7F
:10441800036ECB0EE82EFED7032EFCD7042EFAD758
:1044280000007C9E39EF22F08EB61DEF22F01FEFC0
:1044380022F0E1EF21F0110E046E3C0E036ECB0E5C
:10444800E82EFED7032EFCD7042EFAD7000080866C
:10445800110E046E3C0E036ECB0EE82EFED7032E13
:10446800FCD7042EFAD7000080961200000E011423
:10447800096E000E02140A6E800E03140B6E7F0E76
:1044880004140C6E09500A100B100C10D8A44FEF2E
:1044980022F051EF22F059EF22F0000E016E000ECB
:1044A800026E000E036E000E046E000E0514096EF7
:1044B800000E06140A6E800E07140B6E7F0E081489
:1044C8000C6E09500A100B100C10D8A46EEF22F0D5
:1044D80070EF22F078EF22F0000E056E000E066EE7
:1044E800000E076E000E086E055001180FE1065009
:1044F80002180CE10750031809E108500418D8B451
:1045080088EF22F08AEF22F08DEF22F0D8908EEF1C
:1045180022F0D880120085948598839E879C7D948C
:104528007D987B9E7F9C050E0E01746F060E766F3C
:10453800070E696F080E886FBD508F0B4009BD6E5E
:10454800E00EBE16BF50F00B0109BF6E01C0BCFFE4
:10455800BD8E000EAA6E000EA66E000E0F01256F0E
:10456800000E216FFC0EAD16F30EAD16CF0EAD1674
:104578003F0EAD16AB88AB50F00B0C09AB6EAB8E93
:10458800A788A750F00B0C09A76EA78E268926517D
:10459800F00B0C09266F268F22892251F00B0C098B
:1045A800226F228F889680961200000E0C6E000EE5
:1045B8000B6E09500A10D8B4E4EF22F0E6EF22F0AF
:1045C8000EEF23F0010E0D6EEEEF22F0D8900936B3
:1045D8000A360D2A0AAEF3EF22F0F5EF22F0EAEFE1
:1045E80022F0D8900B360C360950075C0A50085850
:1045F800D8A001EF23F003EF23F008EF23F00950D0
:10460800075E0A50085A0B80D8900A3209320D2EDC
:10461800F5EF22F00BC007F00CC008F012000350B1
:104628000410D8B41AEF23F01CEF23F040EF23F066
:10463800010E056E24EF23F0D89003360436052AC0
:1046480004AE29EF23F02BEF23F020EF23F00350E3
:10465800015C04500258D8A034EF23F036EF23F061
:104668003AEF23F00350015E0450025AD890043206
:104678000332052E2BEF23F001C001F002C002F037
:10468800120043EC25F0520E38EC25F0B60E38EC4B
:1046980025F048EC25F0530E38EC25F0010E29ECF6
:1046A80024F0076E07500A6E0B6A000E29EC24F0FE
:1046B800076E0750096E086A0A5008100A6E0B50F8
:1046C80009100B6E3EEC25F00AC005F00BC006F091
:1046D800120043EC25F0520E38EC25F0B80E38ECF9
:1046E80025F048EC25F0530E38EC25F0010E29ECA6
:1046F80024F0076E07500A6E0B6A000E29EC24F0AE
:10470800076E0750096E086A0A5008100A6E0B50A7
:1047180009100B6E3EEC25F00AC005F00BC006F040
:10472800120043EC25F0520E38EC25F0B40E38ECAC
:1047380025F048EC25F0530E38EC25F0010E29EC55
:1047480024F0076E07500A6E0B6A000E29EC24F05D
:10475800076E0750096E086A0A5008100A6E0B5057
:1047680009100B6E3EEC25F00AC005F00BC006F0F0
:10477800120043EC25F0520E38EC25F0BA0E38EC56
:1047880025F048EC25F0530E38EC25F0010E29EC05
:1047980024F0076E07500A6E0B6A000E29EC24F00D
:1047A800076E0750096E086A0A5008100A6E0B5007
:1047B80009100B6E3EEC25F00AC005F00BC006F0A0
:1047C8001200000E1E1A000E1F1A000E201A800E6C
:1047D800211A1AC001F01BC002F01CC003F01DC052
:1047E80004F01EC005F01FC006F020C007F021C06D
:1047F80008F0FCEC12F001C01AF002C01BF003C074
:104808001CF004C01DF012001AC01CF014EF24F0B4
:1048180019C00EF01C0E0F6E1BC010F064EC1DF0DA
:104828001CC0F6FF0E0EF76E000EF86E0800F5506D
:104838000009D8A422EF24F024EF24F00CEF24F090
:10484800000E1A6E000E196E1200036EE6EC24F0CC
:104858000E01DA87E6EC24F0D5CE04F0E6EC24F07D
:104868000350D8B43AEF24F03EEF24F0026A022A4B
:104878003FEF24F0026A023A02460E01DA510218AA
:10488800DF0B0218DA6FDA8904501200D1EC24F039
:10489800010E036E000E0DEC25F03F0E056E550E51
:1048A800E82EFED7052EFCD70000030E036E000E7F
:1048B8000DEC25F0D50E036E010E0DEC25F0879258
:1048C8008198869E7F8279887E8E1200200E226EC5
:1048D8001DC023F01EC024F0000E276E000E266EA9
:1048E800000E2E6E000E2D6E230E196E1FC01AF0CC
:1048F800220E1B6E08EC24F026501D24D96E27507A
:104908001E20DA6EDF6A12009C0EF66E4A0EF76EF3
:10491800000EF86E0900F5CFFDF001EE00F08B0EE9
:10492800EE6AE806FDE100EEE2F01B0EEE6AE8062C
:10493800FDE15F6A5E6A000101EF10F0ADEF24F05F
:1049480002C0D9FF03C0DAFFDF502CEC25F0024A81
:10495800032A02C0D9FF03C0DAFFDF50D8A4B7EF9B
:1049680024F0B9EF24F0A4EF24F01200C7EF24F0EC
:10497800150E036EC60EE82EFED7032EFCD700D008
:104988000106D8A0020601500210D8A4CEEF24F0E8
:10499800D0EF24F0BCEF24F012000E01D951F00B37
:1049A8000809D96FD98B9F0ED66F848A848CA79BF0
:1049B800A79D1D0E1D6F1E0E1C6F1C0E6F6F1B0E0C
:1049C800706F12000E01D8B5ECEF24F0EEEF24F072
:1049D800E6EF24F0DACE01F01F0E0116D8A4F7EFA7
:1049E80024F0F9EF24F0E6EF24F01200015003025E
:1049F800F3CF05F0F4CF06F001500402F350062679
:104A080002500302F350062605C001F006C002F06A
:104A18001200046E43EC25F0520E38EC25F00450D9
:104A2800800938EC25F0035038EC25F03EEC25F0F1
:104A38001200120E0E01626F110E156FE997E895BC
:104A4800330EE56F000EE66FE789E88BE78F1200FB
:104A5800016E0E0137A533EF25F035EF25F02DEF68
:104A680025F001C0E4FE1200026EE6EC24F002C05C
:104A7800D5FE1200E6EC24F00E01DA851200E6EC11
:104A880024F00E01DA811200E6EC24F00E01DA833C
:054A98001200120007EE
:020000040030CA
:02000000AAFF55
:020004009FFF5C
:00000001FF
