:04000000B4EF0BF05E
:100E000000003E6E3950D96EDA6A010ED926010E05
:100E1000DF6E3A50D96EDA6A010ED926DF6A000E0B
:100E2000446E140E436E000E286E640E276E000E84
:100E30002A6E140E296E4DEC0AF027C045F028C02A
:100E400046F0000E406E000E3F6E4BEF07F039503B
:100E5000D96EDA6A3950E16EE26AE7503B6E3B28A0
:100E6000DF6E3A50D96EDA6A3A50E16EE26AE750C4
:100E70003B6E3B28DF6E3AC034F07FEC08F039C09F
:100E800034F07FEC08F045C027F046C028F08AEC2B
:100E90000BF03F4A402A43503F5C4050800A3B6E73
:100EA0004450800A3B58D8A058EF07F05AEF07F09B
:100EB00027EF07F0000E426E000E416E69EF07F05B
:100EC000D00E3B6ECA0EE82EFED73B2EFCD7414A11
:100ED000422A3E503B6E3C6A3B50415C4250800A85
:100EE0003D6E3C50800A3D58D8A079EF07F07BEF6B
:100EF00007F060EF07F0A9EF07F03A50D96EDA6A11
:100F0000DF50D8B486EF07F088EF07F08CEF07F0DA
:100F10003A50D96EDA6ADF063950D96EDA6ADF5094
:100F2000D8B495EF07F097EF07F09BEF07F0395033
:100F3000D96EDA6ADF063AC034F07FEC08F039C0C7
:100F400034F07FEC08F045C027F046C028F08AEC6A
:100F50000BF03950D96EDA6ADF50D8A4B2EF07F03F
:100F6000B4EF07F07DEF07F03A50D96EDA6ADF5040
:100F7000D8A4BDEF07F0BFEF07F07DEF07F0120038
:100F80003E6E3950D96EDA6A010ED926DF6A3A50C0
:100F9000D96EDA6A010ED926010EDF6E000E446E9C
:100FA000140E436E000E286E640E276E000E2A6E1D
:100FB000140E296E4DEC0AF027C045F028C046F00B
:100FC000000E406E000E3F6E0AEF08F03950D96EE9
:100FD000DA6A3950E16EE26AE7503B6E3B28DF6E19
:100FE0003A50D96EDA6A3A50E16EE26AE7503B6EE7
:100FF0003B28DF6E3AC034F07FEC08F039C034F0A3
:101000007FEC08F045C027F046C028F08AEC0BF0D2
:101010003F4A402A43503F5C4050800A3B6E445058
:10102000800A3B58D8A017EF08F019EF08F0E6EF58
:1010300007F0000E426E000E416E28EF08F0D00E51
:101040003B6ECA0EE82EFED73B2EFCD7414A422A01
:101050003E503B6E3C6A3B50415C4250800A3D6EC4
:101060003C50800A3D58D8A038EF08F03AEF08F01D
:101070001FEF08F068EF08F03A50D96EDA6ADF50D7
:10108000D8B445EF08F047EF08F04BEF08F03A50BE
:10109000D96EDA6ADF063950D96EDA6ADF50D8B411
:1010A00054EF08F056EF08F05AEF08F03950D96EB7
:1010B000DA6ADF063AC034F07FEC08F039C034F069
:1010C0007FEC08F045C027F046C028F08AEC0BF012
:1010D0003950D96EDA6ADF50D8A471EF08F073EF97
:1010E00008F03CEF08F03A50D96EDA6ADF50D8A425
:1010F0007CEF08F07EEF08F03CEF08F0120034506F
:10110000D96EDA6A020ED926DF50D8B48AEF08F019
:101110008CEF08F0BCEF08F03450D96EDA6ADF507B
:10112000356E3550276E286A3450D96EDA6A030E50
:10113000D926DECF29F0DDCF2AF0A1EC0BF027C0B5
:101140002DF028C02EF0000E306E640E2F6E50EC85
:101150000BF03450D96EDA6A030ED926DF50366EA2
:101160002D50365C376E3450D96EDA6A030ED926AC
:10117000DF50386EDDEF08F0000E376E3450D96E58
:10118000DA6ADF50356E3550276E286A3450D96ED2
:10119000DA6A030ED926DECF29F0DDCF2AF0A1ECE2
:1011A0000BF027C02DF028C02EF0000E306E640E1C
:1011B0002F6E50EC0BF02D50386E3450D96EDA6A29
:1011C000010ED926DF50D8B4E8EF08F0EAEF08F0B6
:1011D0000AEF09F03450D96EDA6A050ED926DECF4F
:1011E00035F0DDCF36F035C0D9FF36C0DAFF37C075
:1011F000DFFF3450D96EDA6A070ED926DECF35F01C
:10120000DDCF36F035C0D9FF36C0DAFF38C0DFFF9A
:1012100028EF09F03450D96EDA6A050ED926DECFF0
:1012200035F0DDCF36F035C0D9FF36C0DAFF38C033
:10123000DFFF3450D96EDA6A070ED926DECF35F0DB
:10124000DDCF36F035C0D9FF36C0DAFF37C0DFFF5B
:1012500012008EA62EEF09F030EF09F037EF09F0FB
:101260008EB435EF09F037EF09F029EF09F0090ED8
:10127000296E1E0E286EE40EE82EFED7282EFCD70F
:10128000292EFAD700D08EB648EF09F04AEF09F0C0
:1012900063EF09F08EB44FEF09F051EF09F063EFFF
:1012A00009F080867C8E520E296E2B0E286E000E61
:1012B000E82EFED7282EFCD7292EFAD700D080960C
:1012C0007C9ECFEF09F08EB468EF09F06AEF09F069
:1012D00096EF09F0110E296E3C0E286ECB0EE82E0B
:1012E000FED7282EFCD7292EFAD700002750D96E1A
:1012F000DA6ADECF28F0DDCF29F0050E2826000EB1
:1013000029222750D96EDA6A28C0DEFF29C0DDFF06
:101310007C8E110E296E3C0E286ECB0EE82EFED769
:10132000282EFCD7292EFAD700007C9E8EB69BEF84
:1013300009F09DEF09F0CDEF09F0110E296E3C0E7A
:10134000286ECB0EE82EFED7282EFCD7292EFAD7F2
:1013500000002750D96EDA6ADECF28F0DDCF29F001
:10136000FB0E28242A6EFF0E29202B6E2750D96EE3
:10137000DA6A2AC0DEFF2BC0DDFF8086110E296EDF
:101380003C0E286ECB0EE82EFED7282EFCD7292E39
:10139000FAD70000809629EF09F029EF09F0120032
:1013A000000E286E630E276E06EC0BF0000E186E12
:1013B000010E196E010E1A6EAA0E1D6E0F0E1E6E14
:1013C000A60E1F6E0F0E206E000E1C6E630E1B6E9F
:1013D000000E0F6E010E106E010E116E250E146EB2
:1013E0000F0E156E210E166E0F0E176E000E136E79
:1013F000630E126E849E7C9E8896809686840E0173
:10140000B4958686B497010E216E000E226E3C0EB6
:10141000236E0A0E246E140E256E140E266E210401
:10142000D8A415EF0AF017EF0AF026EF0AF0240E01
:10143000276E29EC09F0180E396E0F0E3A6E245003
:1014400001EC07F0210E276EAFEC0AF0020E211816
:10145000D8A42DEF0AF02FEF0AF03EEF0AF0230E8A
:10146000276E29EC09F0180E396E0F0E3A6E2350D4
:10147000C0EC07F0210E276EAFEC0AF0030E211826
:10148000D8A445EF0AF047EF0AF00FEF0AF0010E7B
:10149000216E0FEF0AF000EF00F0000E2C6E2ABE56
:1014A00056EF0AF054EF0AF05CEF0AF0296C2A1E9E
:1014B000D8B02A2A010E2C6E28BE63EF0AF061EF25
:1014C0000AF069EF0AF0276C281ED8B0282A010E0E
:1014D0002C1A000E2E6E000E2D6E29502A10D8B434
:1014E00074EF0AF076EF0AF09EEF0AF0010E2B6E11
:1014F0007EEF0AF0D89029362A362B2A2AAE83EFBF
:101500000AF085EF0AF07AEF0AF0D8902D362E36E1
:101510002950275C2A502858D8A091EF0AF093EF61
:101520000AF098EF0AF02950275E2A50285A2D8099
:10153000D8902A3229322B2E85EF0AF02C50D8B4BD
:10154000A4EF0AF0A6EF0AF0AAEF0AF02D6C2E1E07
:10155000D8B02E2A2DC027F02EC028F012008EB44D
:10156000B4EF0AF0B6EF0AF0E4EF0AF0110E296EBC
:101570003C0E286ECB0EE82EFED7282EFCD7292E47
:10158000FAD700002750D96EDA6ADECF28F0DDCF17
:1015900029F0010E2826000E29222750D96EDA6A7A
:1015A00028C0DEFF29C0DDFF7C8E110E296E3C0EA7
:1015B000286ECB0EE82EFED7282EFCD7292EFAD780
:1015C00000007C9E05EF0BF08EB6E9EF0AF0EBEF22
:1015D0000AF0AFEF0AF0110E296E3C0E286ECB0E0A
:1015E000E82EFED7282EFCD7292EFAD700008086B9
:1015F000110E296E3C0E286ECB0EE82EFED7282E3B
:10160000FCD7292EFAD70000809612008594859881
:10161000839E879C7D947D987B9E7F9C050E0E010A
:10162000746F060E766F070E696F080E886FBD50D7
:101630008F0B4009BD6EE00EBE16BF50F00B0109C6
:10164000BF6E27C0BCFFBD8E000EAA6E000EA66E38
:10165000000E0F01256F000E216FFC0EAD16F30E6C
:10166000AD16CF0EAD163F0EAD16AB88AB50F00BDE
:101670000C09AB6EAB8EA788A750F00B0C09A76EB8
:10168000A78E26892651F00B0C09266F268F2289FA
:101690002251F00B0C09226F228F8896809612003F
:1016A000000E326E000E316E2F503010D8B45BEF4A
:1016B0000BF05DEF0BF085EF0BF0010E336E65EF75
:1016C0000BF0D8902F363036332A30AE6AEF0BF05D
:1016D0006CEF0BF061EF0BF0D890313632362F50B3
:1016E0002D5C30502E58D8A078EF0BF07AEF0BF02D
:1016F0007FEF0BF02F502D5E30502E5A3180D89056
:1017000030322F32332E6CEF0BF031C02DF032C05F
:101710002EF0120097EF0BF0150E296EC60EE82E74
:10172000FED7292EFCD700D02706D8A028062750A0
:101730002810D8A49EEF0BF0A0EF0BF08CEF0BF06D
:10174000120027502902F3CF2BF0F4CF2CF02750B2
:101750002A02F3502C2628502902F3502C262BC0A5
:1017600027F02CC028F012008C0EF66E170EF76EC4
:10177000000EF86E0900F5CF47F000EE01F0260EDE
:0D178000EE6AE806FDE10001D0EF09F00778
:020000040030CA
:02000000AAFF55
:020004009FFF5C
:00000001FF
