:040000009CEF21F060
:100E0000000098EC20F005C00CF006C00DF00E6A52
:100E10000F6A000EC9EC18F00CC0C1F00DC0C2F092
:100E20000EC0C3F00FC0C4F0C0EC20F005C00CF041
:100E300006C00DF00E6A0F6A000EC9EC18F00CC067
:100E4000C5F00DC0C6F00EC0C7F00FC0C8F010EC62
:100E500021F005C00CF006C00DF00E6A0F6A000EFE
:100E6000C9EC18F00CC0C9F00DC0CAF00EC0CBF030
:100E70000FC0CCF0E8EC20F005C00CF006C00DF07F
:100E80000E6A0F6A000EC9EC18F00CC0CDF00DC050
:100E9000CEF00EC0CFF00FC0D0F0C1C06AF0C2C01B
:100EA0006BF0C3C06CF0C4C06DF0C5C06EF0C6C0BE
:100EB0006FF0C7C070F0C8C071F0C9C072F0CAC08E
:100EC00073F0CBC074F0CCC075F0CDC076F0CEC05E
:100ED00077F0CFC078F0D0C079F0D30E00017A6FF0
:100EE000D70E7B6FDB0E7C6F1DEC0CF0000E00014B
:100EF000D26F000ED16F000E016E800E026EB10E29
:100F0000036E430E046ED3C005F0D4C006F0D5C006
:100F100007F0D6C008F058EC1EF0D8B092EF07F0FA
:100F200094EF07F018EF08F0D3C001F0D4C002F03E
:100F3000D5C003F0D6C004F0000E056E000E066E9C
:100F4000B40E076E430E086E58EC1EF0D8B0ABEF2F
:100F500007F0ADEF07F018EF08F0000E016E000E7D
:100F6000026EAA0E036E420E046ED7C005F0D8C002
:100F700006F0D9C007F0DAC008F058EC1EF0D8B07F
:100F8000C4EF07F0C6EF07F018EF08F0D7C001F084
:100F9000D8C002F0D9C003F0DAC004F0000E056E2C
:100FA000000E066EB40E076E420E086E58EC1EF070
:100FB000D8B0DDEF07F0DFEF07F018EF08F0000E14
:100FC000016E000E026EA00E036E420E046EDBC0B8
:100FD00005F0DCC006F0DDC007F0DEC008F058EC1C
:100FE0001EF0D8B0F6EF07F0F8EF07F018EF08F0B2
:100FF000DBC001F0DCC002F0DDC003F0DEC004F0B5
:10100000000E056E000E066EAA0E076E420E086EEA
:1010100058EC1EF0D8B00FEF08F011EF08F018EF01
:1010200008F0000E0001D26F010ED16F18EF0CF026
:10103000000E016E000E026E860E036E420E046EEE
:10104000D3C005F0D4C006F0D5C007F0D6C008F074
:1010500058EC1EF0D8B02FEF08F031EF08F0B5EFE4
:1010600008F0D3C001F0D4C002F0D5C003F0D6C060
:1010700004F0000E056E000E066E9E0E076E420E08
:10108000086E58EC1EF0D8B048EF08F04AEF08F0B0
:10109000B5EF08F0000E016E000E026E480E036EF2
:1010A000420E046ED7C005F0D8C006F0D9C007F0D4
:1010B000DAC008F058EC1EF0D8B061EF08F063EF2A
:1010C00008F0B5EF08F0D7C001F0D8C002F0D9C0E1
:1010D00003F0DAC004F0000E056E000E066E640E1A
:1010E000076E420E086E58EC1EF0D8B07AEF08F08A
:1010F0007CEF08F0B5EF08F0000E016E000E026EF6
:10110000200E036E420E046EDBC005F0DCC006F05C
:10111000DDC007F0DEC008F058EC1EF0D8B093EF49
:1011200008F095EF08F0B5EF08F0DBC001F0DCC087
:1011300002F0DDC003F0DEC004F0000E056E000E0C
:10114000066E380E076E420E086E58EC1EF0D8B0D0
:10115000ACEF08F0AEEF08F0B5EF08F0000E0001BC
:10116000D26F020ED16F18EF0CF0D7C001F0D8C0CB
:1011700002F0D9C003F0DAC004F0000E056E000ED4
:10118000066E200E076E410E086E58EC1EF0D8B0A9
:10119000CCEF08F0CEEF08F007EF09F0000E016E7B
:1011A000000E026EF00E036E410E046EDBC005F001
:1011B000DCC006F0DDC007F0DEC008F058EC1EF021
:1011C000D8B0E5EF08F0E7EF08F007EF09F0DBC073
:1011D00001F0DCC002F0DDC003F0DEC004F0000E60
:1011E000056E000E066E0C0E076E420E086E58EC71
:1011F0001EF0D8B0FEEF08F000EF09F007EF09F09D
:10120000000E0001D26F030ED16F18EF0CF0000E2C
:10121000016E000E026EA00E036E410E046ED3C06E
:1012200005F0D4C006F0D5C007F0D6C008F058ECE1
:101230001EF0D8B01EEF09F020EF09F0A4EF09F07E
:10124000D3C001F0D4C002F0D5C003F0D6C004F082
:10125000000E056E000E066EC80E076E410E086E7B
:1012600058EC1EF0D8B037EF09F039EF09F0A4EFD1
:1012700009F0000E016E000E026E820E036E420E29
:10128000046ED7C005F0D8C006F0D9C007F0DAC0A8
:1012900008F058EC1EF0D8B050EF09F052EF09F00A
:1012A000A4EF09F0D7C001F0D8C002F0D9C003F014
:1012B000DAC004F0000E056E000E066E8C0E076E8E
:1012C000420E086E58EC1EF0D8B069EF09F06BEFD3
:1012D00009F0A4EF09F0000E016E000E026E580E28
:1012E000036E420E046EDBC005F0DCC006F0DDC00C
:1012F00007F0DEC008F058EC1EF0D8B082EF09F01D
:1013000084EF09F0A4EF09F0DBC001F0DCC002F0CB
:10131000DDC003F0DEC004F0000E056E000E066EA8
:10132000640E076E420E086E58EC1EF0D8B09BEFAC
:1013300009F09DEF09F0A4EF09F0000E0001D26F53
:10134000040ED16F18EF0CF0000E016E000E026E4D
:10135000500E036E410E046ED3C005F0D4C006F0EB
:10136000D5C007F0D6C008F058EC1EF0D8B0BBEFDF
:1013700009F0BDEF09F041EF0AF0D3C001F0D4C08D
:1013800002F0D5C003F0D6C004F0000E056E000ECA
:10139000066E900E076E410E086E58EC1EF0D8B027
:1013A000D4EF09F0D6EF09F041EF0AF0000E016E1C
:1013B000000E026E5C0E036E420E046ED7C005F086
:1013C000D8C006F0D9C007F0DAC008F058EC1EF01B
:1013D000D8B0EDEF09F0EFEF09F041EF0AF0D7C018
:1013E00001F0D8C002F0D9C003F0DAC004F0000E5A
:1013F000056E000E066E700E076E420E086E58ECFB
:101400001EF0D8B006EF0AF008EF0AF041EF0AF03C
:10141000000E016E000E026E480E036E420E046E48
:10142000DBC005F0DCC006F0DDC007F0DEC008F070
:1014300058EC1EF0D8B01FEF0AF021EF0AF041EF90
:101440000AF0DBC001F0DCC002F0DDC003F0DEC05A
:1014500004F0000E056E000E066E580E076E420E6A
:10146000086E58EC1EF0D8B038EF0AF03AEF0AF0E8
:1014700041EF0AF0000E0001D26F050ED16F18EF98
:101480000CF0000E016E000E026EA00E036E400EF8
:10149000046ED3C005F0D4C006F0D5C007F0D6C0A6
:1014A00008F058EC1EF0D8B058EF0AF05AEF0AF0E6
:1014B000DEEF0AF0D3C001F0D4C002F0D5C003F0D3
:1014C000D6C004F0000E056E000E066E200E076EEC
:1014D000410E086E58EC1EF0D8B071EF0AF073EFB1
:1014E0000AF0DEEF0AF0000E016E000E026E8C0EA6
:1014F000036E420E046ED7C005F0D8C006F0D9C006
:1015000007F0DAC008F058EC1EF0D8B08AEF0AF005
:101510008CEF0AF0DEEF0AF0D7C001F0D8C002F07D
:10152000D9C003F0DAC004F0000E056E000E066E9E
:10153000960E076E420E086E58EC1EF0D8B0A3EF60
:101540000AF0A5EF0AF0DEEF0AF0000E016E000EC1
:10155000026E780E036E420E046EDBC005F0DCC036
:1015600006F0DDC007F0DEC008F058EC1EF0D8B081
:10157000BCEF0AF0BEEF0AF0DEEF0AF0DBC001F0CC
:10158000DCC002F0DDC003F0DEC004F0000E056E2A
:10159000000E066E860E076E420E086E58EC1EF0A8
:1015A000D8B0D5EF0AF0D7EF0AF0DEEF0AF0000E60
:1015B0000001D26F060ED16F18EF0CF0000E016E15
:1015C000000E026E940E036E420E046ED3C005F040
:1015D000D4C006F0D5C007F0D6C008F058EC1EF015
:1015E000D8B0F5EF0AF0F7EF0AF07BEF0BF0D3C0BD
:1015F00001F0D4C002F0D5C003F0D6C004F0000E54
:10160000056E000E066EAA0E076E420E086E58ECAE
:101610001EF0D8B00EEF0BF010EF0BF07BEF0BF0DD
:10162000000E016E000E026EE00E036E410E046E9F
:10163000D7C005F0D8C006F0D9C007F0DAC008F06E
:1016400058EC1EF0D8B027EF0BF029EF0BF07BEF32
:101650000BF0D7C001F0D8C002F0D9C003F0DAC057
:1016600004F0000E056E000E066E040E076E420EAC
:10167000086E58EC1EF0D8B040EF0BF042EF0BF0C4
:101680007BEF0BF0000E016E000E026E140E036E67
:10169000420E046EDBC005F0DCC006F0DDC007F0D2
:1016A000DEC008F058EC1EF0D8B059EF0BF05BEF3D
:1016B0000BF07BEF0BF0DBC001F0DCC002F0DDC013
:1016C00003F0DEC004F0000E056E000E066E280E5C
:1016D000076E420E086E58EC1EF0D8B072EF0BF099
:1016E00074EF0BF07BEF0BF0000E0001D26F070ED2
:1016F000D16F18EF0CF0000E016E000E026EB00EEE
:10170000036E410E046ED3C005F0D4C006F0D5C000
:1017100007F0D6C008F058EC1EF0D8B092EF0BF0EE
:1017200094EF0BF018EF0CF0D3C001F0D4C002F02E
:10173000D5C003F0D6C004F0000E056E000E066E94
:10174000D80E076E410E086E58EC1EF0D8B0ABEF05
:101750000BF0ADEF0BF018EF0CF0000E016E000E69
:10176000026E400E036E420E046ED7C005F0D8C064
:1017700006F0D9C007F0DAC008F058EC1EF0D8B077
:10178000C4EF0BF0C6EF0BF018EF0CF0D7C001F070
:10179000D8C002F0D9C003F0DAC004F0000E056E24
:1017A000000E066E540E076E420E086E58EC1EF0C8
:1017B000D8B0DDEF0BF0DFEF0BF018EF0CF0000E00
:1017C000016E000E026E340E036E420E046EDBC01C
:1017D00005F0DCC006F0DDC007F0DEC008F058EC14
:1017E0001EF0D8B0F6EF0BF0F8EF0BF018EF0CF09E
:1017F000DBC001F0DCC002F0DDC003F0DEC004F0AD
:10180000000E056E000E066E480E076E420E086E44
:1018100058EC1EF0D8B00FEF0CF011EF0CF018EFF1
:101820000CF0000E0001D26F080ED16F18EF0CF013
:10183000D1C05CF0D2C05DF012006AC022F06BC073
:1018400023F06CC024F06DC025F0000E266EFF0E54
:10185000276E7F0E286E470E296EFCEC16F022C014
:10186000B5F023C0B6F024C0B7F025C0B8F06EC004
:1018700022F06FC023F070C024F071C025F0000E7C
:10188000266EFF0E276E7F0E286E470E296EFCEC2B
:1018900016F022C0B9F023C0BAF024C0BBF025C0B6
:1018A000BCF072C022F073C023F074C024F075C085
:1018B00025F0000E266EFF0E276E7F0E286E470E57
:1018C000296EFCEC16F022C0BDF023C0BEF024C08F
:1018D000BFF025C0C0F0000E266EFF0E276E7F0EF3
:1018E000286E470E296E76C022F077C023F078C0AC
:1018F00024F079C025F0FCEC16F022C081F023C062
:1019000082F024C083F025C084F0000E226E000E09
:10191000236E800E246E3F0E256E81C026F082C09D
:1019200027F083C028F084C029F0FCEC16F022C018
:101930007DF023C07EF024C07FF025C080F0B9C0C8
:1019400001F0BAC002F0BBC003F0BCC004F0B5C0E7
:1019500005F0B6C006F0B7C007F0B8C008F058EC04
:101960001EF0D8A0B6EF0CF0B8EF0CF0EDEF0CF0D5
:10197000BDC001F0BEC002F0BFC003F0C0C004F0A3
:10198000B9C005F0BAC006F0BBC007F0BCC008F093
:1019900058EC1EF0D8A0CFEF0CF0D1EF0CF0DBEF3D
:1019A0000CF0BDC091F0BEC092F0BFC093F0C0C0BB
:1019B00094F0E3EF0CF0B9C091F0BAC092F0BBC064
:1019C00093F0BCC094F091C0B1F092C0B2F093C05B
:1019D000B3F094C0B4F020EF0DF0BDC001F0BEC074
:1019E00002F0BFC003F0C0C004F0B5C005F0B6C03F
:1019F00006F0B7C007F0B8C008F058EC1EF0D8A049
:101A000004EF0DF006EF0DF010EF0DF0BDC095F0F6
:101A1000BEC096F0BFC097F0C0C098F018EF0DF0B0
:101A2000B5C095F0B6C096F0B7C097F0B8C098F0C2
:101A300095C0B1F096C0B2F097C0B3F098C0B4F0C2
:101A4000B5C001F0B6C002F0B7C003F0B8C004F0F2
:101A5000B9C005F0BAC006F0BBC007F0BCC008F0C2
:101A600058EC1EF0D8A037EF0DF039EF0DF06EEF07
:101A70000DF0B9C001F0BAC002F0BBC003F0BCC0A9
:101A800004F0BDC005F0BEC006F0BFC007F0C0C086
:101A900008F058EC1EF0D8A050EF0DF052EF0DF00A
:101AA0005CEF0DF0BDC09DF0BEC09EF0BFC09FF0CA
:101AB000C0C0A0F064EF0DF0B9C09DF0BAC09EF0B8
:101AC000BBC09FF0BCC0A0F09DC099F09EC09AF032
:101AD0009FC09BF0A0C09CF0A1EF0DF0B5C001F03D
:101AE000B6C002F0B7C003F0B8C004F0BDC005F046
:101AF000BEC006F0BFC007F0C0C008F058EC1EF032
:101B0000D8A085EF0DF087EF0DF091EF0DF0BDC07F
:101B1000A1F0BEC0A2F0BFC0A3F0C0C0A4F099EF76
:101B20000DF0B5C0A1F0B6C0A2F0B7C0A3F0B8C028
:101B3000A4F0A1C099F0A2C09AF0A3C09BF0A4C0E9
:101B40009CF0B1C01AF0B2C01BF0B3C01CF0B4C01E
:101B50001DF099C01EF09AC01FF09BC020F09CC0E1
:101B600021F038EC21F01AC0ADF01BC0AEF01CC063
:101B7000AFF01DC0B0F0ADC001F0AEC002F0AFC01C
:101B800003F0B0C004F0000E056E000E066E000EED
:101B9000076E000E086E3CEC1FF0D8A0D2EF0DF0DF
:101BA000D4EF0DF0DFEF0DF0000E0001A96F000E75
:101BB000AA6F000EAB6F000EAC6F40EF0FF0B1C01C
:101BC00001F0B2C002F0B3C003F0B4C004F0B5C07D
:101BD00005F0B6C006F0B7C007F0B8C008F03CEC9E
:101BE0001FF0D8A0F6EF0DF0F8EF0DF05AEF0EF061
:101BF000ADC026F0AEC027F0AFC028F0B0C029F0CD
:101C0000BDC01EF0BEC01FF0BFC020F0C0C021F09C
:101C1000B9C01AF0BAC01BF0BBC01CF0BCC01DF0AC
:101C200038EC21F01AC022F01BC023F01CC024F0B5
:101C30001DC025F0FCEC16F022C085F023C086F014
:101C400024C087F025C088F0000E586E000E596E33
:101C5000C00E5A6E400E5B6E85C054F086C055F0C3
:101C600087C056F088C057F049EC1DF054C089F089
:101C700055C08AF056C08BF057C08CF089C03BF03D
:101C80008AC03CF08BC03DF08CC03EF0000E3F6E31
:101C9000000E406E700E416E420E426EE7EC14F084
:101CA0003BC0A9F03CC0AAF03DC0ABF03EC0ACF0D8
:101CB00040EF0FF0B1C001F0B2C002F0B3C003F0CA
:101CC000B4C004F0B9C005F0BAC006F0BBC007F05C
:101CD000BCC008F03CEC1FF0D8A071EF0EF073EF21
:101CE0000EF0CDEF0EF0ADC026F0AEC027F0AFC0C5
:101CF00028F0B0C029F0B5C01EF0B6C01FF0B7C0C4
:101D000020F0B8C021F0BDC01AF0BEC01BF0BFC0AB
:101D10001CF0C0C01DF038EC21F01AC022F01BC02E
:101D200023F01CC024F01DC025F0FCEC16F022C0EE
:101D3000A5F023C0A6F024C0A7F025C0A8F0000E8F
:101D4000056E000E066E000E076E400E086EA5C0F2
:101D500001F0A6C002F0A7C003F0A8C004F087EC11
:101D600012F001C03BF002C03CF003C03DF004C0E3
:101D70003EF0000E3F6E000E406E700E416E420E41
:101D8000426EE7EC14F03BC0A9F03CC0AAF03DC0A5
:101D9000ABF03EC0ACF040EF0FF0B1C001F0B2C00C
:101DA00002F0B3C003F0B4C004F0BDC005F0BEC083
:101DB00006F0BFC007F0C0C008F03CEC1FF0D8A090
:101DC000E4EF0EF0E6EF0EF040EF0FF0ADC026F0BE
:101DD000AEC027F0AFC028F0B0C029F0B9C01EF0E7
:101DE000BAC01FF0BBC020F0BCC021F0B5C01AF0D3
:101DF000B6C01BF0B7C01CF0B8C01DF038EC21F025
:101E00001AC022F01BC023F01CC024F01DC025F016
:101E1000FCEC16F022C0A5F023C0A6F024C0A7F069
:101E200025C0A8F0000E056E000E066E800E076E2F
:101E3000400E086EA5C001F0A6C002F0A7C003F0D6
:101E4000A8C004F087EC12F001C03BF002C03CF0E7
:101E500003C03DF004C03EF0000E3F6E000E406E29
:101E6000700E416E420E426EE7EC14F03BC0A9F0DA
:101E70003CC0AAF03DC0ABF03EC0ACF040EF0FF06C
:101E80000001ACBF48EF0FF046EF0FF062EF0FF02C
:101E9000A9C001F0AAC002F0ABC003F0ACC004F0CE
:101EA000000E056E000E066EB40E076E430E086E31
:101EB00087EC12F001C0A9F002C0AAF003C0ABF099
:101EC00004C0ACF000017A51D96EDA6AA9C0DEFF15
:101ED000AAC0DEFFABC0DEFFACC0DEFFB1C001F0C8
:101EE000B2C002F0B3C003F0B4C004F0000E056E3F
:101EF000000E066E000E076E000E086E3CEC1FF022
:101F0000D8A085EF0FF087EF0FF095EF0FF00001ED
:101F10007B51D96EDA6A000EDE6E000EDE6E000EA8
:101F2000DE6E000EDD6EC5EF0FF0B1C026F0B2C060
:101F300027F0B3C028F0B4C029F0ADC022F0AEC085
:101F400023F0AFC024F0B0C025F0FCEC16F022C0A6
:101F50003BF023C03CF024C03DF025C03EF0000E15
:101F60003F6E000E406EC80E416E420E426EE7ECB0
:101F700014F000017B51D96EDA6A3BC0DEFF3CC031
:101F8000DEFF3DC0DEFF3EC0DEFF000E3F6E000EF6
:101F9000406EC80E416E420E426EB1C03BF0B2C000
:101FA0003CF0B3C03DF0B4C03EF0E7EC14F03BC0F1
:101FB0008DF03CC08EF03DC08FF03EC090F08DC0E3
:101FC0003BF08EC03CF08FC03DF090C03EF07DC035
:101FD0003FF07EC040F07FC041F080C042F0E7ECAF
:101FE00014F000017C51D96EDA6A3BC0DEFF3CC0C0
:101FF000DEFF3DC0DEFF3EC0DEFF12007CEC21F0C4
:10200000290E5F6E960E5E6E7F0EE82EFED75E2E58
:10201000FCD75F2EFAD7000080867C8EE1C013F0DB
:10202000E2C014F0000120EE05F0DF51D926E051A6
:10203000DA22DF50A3EC19F00001E52B01EC07F0E8
:102040005CC0E3F05DC0E4F080967C9E0001E3514B
:10205000E411D8B42EEF10F030EF10F000EF10F0D4
:102060003C0EE625D96EDA6A010EDA22E5510A0F36
:10207000DF6E000EE56FE62BE305E411D8A443EF15
:1020800010F045EF10F079EF10F03C0EE625D96E18
:10209000DA6A010EDA22E3C0DFFFE62B20EE06F05B
:1020A000DF51D926E051DA22DF505E6E5E50016EBC
:1020B000026A000E046E020E036EDAEC1EF001508E
:1020C00001018A6FE1C013F0E2C014F08A51E1EC23
:1020D0001BF0E1C013F0E2C014F0000120EE01F0AB
:1020E000DF51D926E051DA22DF5063EC1AF000EF1D
:1020F00010F0020EE319E411D8A481EF10F083EF81
:1021000010F0B7EF10F03C0EE625D96EDA6A010E3A
:10211000DA22E3C0DFFFE62B20EE06F0DF51D926FE
:10212000E051DA22DF505E6E5E50016E026A000EF0
:10213000046E020E036EDAEC1EF0015001018A6F8C
:10214000E1C013F0E2C014F08A51E1EC1BF0E1C0F1
:1021500013F0E2C014F0000120EE02F0DF51D926A6
:10216000E051DA22DF5022EC1BF000EF10F0030EFA
:10217000E319E411D8A4BFEF10F0C1EF10F003EFA2
:1021800011F03C0EE625D96EDA6A010EDA22E3C0C0
:10219000DFFFE62B20EE06F0DF51D926E051DA22F0
:1021A000DF505E6E5E50016E026A000E046E020E1B
:1021B000036EDAEC1EF0015001018A6FE1C013F0EA
:1021C000E2C014F08A51E1EC1BF0E1C013F0E2C070
:1021D00014F0000120EE01F0DF51D926E051DA229F
:1021E000DF5063EC1AF0E1C013F0E2C014F000011C
:1021F00020EE01F0DF51D926E051DA22DF5063EC06
:102200001AF000EF10F0040EE319E411D8A40BEF5C
:1022100011F00DEF11F04FEF11F03C0EE625D96EE5
:10222000DA6A010EDA22E3C0DFFFE62B20EE06F0C9
:10223000DF51D926E051DA22DF505E6E5E50016E2A
:10224000026A000E046E020E036EDAEC1EF00150FC
:1022500001018A6FE1C013F0E2C014F08A51E1EC91
:102260001BF0E1C013F0E2C014F0000120EE06F014
:10227000DF51D926E051DA22DF50E1EC1BF0E1C05A
:1022800013F0E2C014F0000120EE01F0DF51D92676
:10229000E051DA22DF5063EC1AF000EF10F0050E87
:1022A000E319E411D8A457EF11F059EF11F09BEFA7
:1022B00011F03C0EE625D96EDA6A010EDA22E3C08F
:1022C000DFFFE62B20EE06F0DF51D926E051DA22BF
:1022D000DF505E6E5E50016E026A000E046E020EEA
:1022E000036EDAEC1EF0015001018A6FE1C013F0B9
:1022F000E2C014F08A51E1EC1BF0E1C013F0E2C03F
:1023000014F0000120EE06F0DF51D926E051DA2268
:10231000DF50E1EC1BF0E1C013F0E2C014F000016B
:1023200020EE02F0DF51D926E051DA22DF5022EC14
:102330001BF000EF10F0060EE319E411D8A4A3EF90
:1023400011F0A5EF11F0D9EF11F03C0EE625D96E92
:10235000DA6A010EDA22E3C0DFFFE62B20EE06F098
:10236000DF51D926E051DA22DF505E6E5E50016EF9
:10237000026A000E046E020E036EDAEC1EF00150CB
:1023800001018A6FE1C013F0E2C014F08A51E1EC60
:102390001BF0E1C013F0E2C014F0000120EE03F0E6
:1023A000DF51D926E051DA22DF5063EC1AF000EF5A
:1023B00010F0070EE319E411D8A4E1EF11F0E3EFF8
:1023C00011F017EF12F03C0EE625D96EDA6A010E15
:1023D000DA22E3C0DFFFE62B20EE06F0DF51D9263C
:1023E000E051DA22DF505E6E5E50016E026A000E2E
:1023F000046E020E036EDAEC1EF0015001018A6FCA
:10240000E1C013F0E2C014F08A51E1EC1BF0E1C02E
:1024100013F0E2C014F0000120EE04F0DF51D926E1
:10242000E051DA22DF5022EC1BF000EF10F0080E32
:10243000E319E411D8A41FEF12F021EF12F084EF9A
:1024400012F020EE06F0DF51D926E051DA22DF50FB
:102450005E6E5E50016E026A000E046E020E036E26
:10246000DAEC1EF0015001018A6FE1C013F0E2C006
:1024700014F08A51E1EC1BF0E1C013F0E2C014F05B
:10248000000120EE01F0DF51D926E051DA22DF50C1
:1024900063EC1AF0E1C013F0E2C014F0000120EE8A
:1024A00001F0DF51D926E051DA22DF5063EC1AF057
:1024B000E1C013F0E2C014F0000120EE06F0DF519D
:1024C000D926E051DA22DF50E1EC1BF0000120EECA
:1024D00005F0DF51D926E051DA22DF505E6E5E5002
:1024E000016E026A000E046E020E036EDAEC1EF03C
:1024F00001500101896FE1C013F0E2C014F089516D
:10250000A3EC19F086EF12F000EF10F01200045067
:10251000800B0D6E045004240F6E03AE92EF12F088
:1025200094EF12F095EF12F00F800F50D8B49BEF9C
:1025300012F09DEF12F0B2EF12F00F28D8A4A3EF23
:1025400012F0A5EF12F0ADEF12F0000E016E000ECA
:10255000026E000E036E000E046E038E000E046EFB
:10256000BAEF12F0000E016E000E026E000E036E46
:10257000000E046E0850800B0E6E0D500E18D8B46D
:10258000C4EF12F0C6EF12F0C7EF12F00D8C085036
:1025900008240E6E07AECFEF12F0D1EF12F0D2EF9B
:1025A00012F00E800E50D8B4D8EF12F0DAEF12F01D
:1025B000EFEF12F00E28D8A4E0EF12F0E2EF12F0E5
:1025C000EAEF12F0000E056E000E066E000E076EAA
:1025D000000E086E078E000E086EF7EF12F0000E68
:1025E000056E000E066E000E076E000E086E0F5090
:1025F0000E5CD8B0FEEF12F000EF13F027EF13F0EF
:102600000DAC05EF13F007EF13F009EF13F0800E98
:102610000D1A0FC010F00EC00FF010C00EF001C068
:1026200010F005C001F010C005F002C010F006C0A7
:1026300002F010C006F003C010F007C003F010C095
:1026400007F004C010F008C004F010C008F0000E3D
:10265000106E0F500EC009F00A6A095E000E0A5A89
:102660000ABE3CEF13F00A5009E11A0E095CD8A02B
:102670003CEF13F03EEF13F075EF13F00150021032
:1026800003100410D8A447EF13F04AEF13F0010E23
:102690004BEF13F0000E106E000E016E000E026E76
:1026A000000E036E000E046E0EC00FF07EEF13F0EE
:1026B00010A05DEF13F05FEF13F065EF13F0D8900B
:1026C00010300109106E67EF13F0D890103201A09E
:1026D0006CEF13F06EEF13F06FEF13F0108E043405
:1026E00004320332023201320F2A0E500F5CD8A09E
:1026F0007CEF13F07EEF13F058EF13F00DBC83EF77
:1027000013F085EF13F0C5EF13F00F50D8A48BEF43
:1027100013F08DEF13F097EF13F0000E016E000E23
:10272000026E000E036E000E046EE6EF14F005500C
:10273000012606500222075003220850042204A05A
:10274000A4EF13F0A6EF13F052EF14F010A0ABEFCC
:1027500013F0ADEF13F0B3EF13F0D8901030010980
:10276000106EB5EF13F0D890103201A0BAEF13F04D
:10277000BCEF13F0BDEF13F0108E043404320332BB
:10278000023201320F2A52EF14F00550015C06505C
:102790000258075003580450800A096E0850800AF6
:1027A0000958D8B0D6EF13F0D8EF13F003EF14F0B8
:1027B0000150055C096E025006580A6E0350075816
:1027C0000B6E045008580C6EFF0E0924016EFF0EAC
:1027D0000A20026EFF0E0B20036EFF0E0C20046E0B
:1027E000800E0D1A106C1050D8A4F9EF13F0FBEF07
:1027F00013F00BEF14F0010E0126000E022203224B
:1028000004220BEF14F00550015E0650025A0750E7
:10281000035A0850045A0150021003100410D8A49F
:1028200014EF14F016EF14F04BEF14F01050D8A47E
:102830001CEF14F01EEF14F04BEF14F0000E016EBD
:10284000000E026E000E036E000E046EE6EF14F032
:10285000D890013602360336043610AE32EF14F04B
:1028600034EF14F035EF14F0018010A03AEF14F0BB
:102870003CEF14F040EF14F0D880103642EF14F023
:10288000D89010360F50D8B448EF14F04AEF14F037
:102890004BEF14F00F0603AE50EF14F052EF14F0AC
:1028A00028EF14F0000E0E6E10AE59EF14F05BEF2F
:1028B00014F073EF14F010C009F07F0E0916D8B4AD
:1028C00064EF14F066EF14F06AEF14F0010E0E6E70
:1028D00073EF14F001A06FEF14F071EF14F073EFC9
:1028E00014F066EF14F00E50D8B479EF14F07BEFCB
:1028F00014F0A6EF14F0010E0126000E02220322AE
:10290000042204A086EF14F088EF14F0A6EF14F070
:1029100001C009F002C00AF003C00BF004C00CF0C3
:102920000C340C320B320A32093209C001F00AC0F1
:1029300002F00BC003F00CC004F00F28D8B4A3EFD2
:1029400014F0A5EF14F0A6EF14F00F2A0F28D8B456
:10295000ACEF14F0AEEF14F0B6EF14F00F50D8A4B3
:10296000B4EF14F0B6EF14F0C8EF14F0000E016EDF
:10297000000E026E000E036E000E046E0F50D8A4FF
:10298000C4EF14F0C6EF14F0C8EF14F0000E0D6E93
:102990000FA0CDEF14F0CFEF14F0D2EF14F0038EB0
:1029A000D3EF14F0039ED8900F30046E0DAEDBEF22
:1029B00014F0DDEF14F0DEEF14F0048E01C001F02E
:1029C00002C002F003C003F004C004F012003E5045
:1029D000800B476E3E503E244D6E3DAEF2EF14F03C
:1029E000F4EF14F0F5EF14F04D804D50D8B4FBEF38
:1029F00014F0FDEF14F010EF15F04D28D8A403EFFC
:102A000015F005EF15F00DEF15F0000E3B6E000E02
:102A10003C6E000E3D6E000E3E6E3D8E18EF15F0C2
:102A2000000E3B6E000E3C6E000E3D6E000E3E6EC4
:102A30004250800B471A42504224486E41AE23EF69
:102A400015F025EF15F026EF15F048804850D8B462
:102A50002CEF15F02EEF15F041EF15F04828D8A413
:102A600034EF15F036EF15F03EEF15F0000E3F6E27
:102A7000000E406E000E416E000E426E418E49EF18
:102A800015F0000E3F6E000E406E000E416E000EFF
:102A9000426E4850D8B44FEF15F051EF15F059EF92
:102AA00015F04D50D8A457EF15F059EF15F063EF1E
:102AB00015F0000E3B6E000E3C6E000E3D6E000EDB
:102AC0003E6EFBEF16F041503B02F3CF52F0F4CFD5
:102AD00053F05250496E4A6A4B6A4C6A53504E6EDC
:102AE0004F6A506A516A40503C02F3CF52F0F4CF23
:102AF00053F052504926000E4A224B224C2253508A
:102B00004E26000E4F22502251223F503D02F3CF5D
:102B100052F0F4CF53F052504926000E4A224B2275
:102B20004C2253504E26000E4F22502251224BC0B1
:102B30004CF04AC04BF049C04AF0496A3F503C0251
:102B4000F3CF52F0F4CF53F05250492653504A225B
:102B5000000E4B22000E4C2240503B02F3CF52F0AD
:102B6000F4CF53F05250492653504A22000E4B22C4
:102B7000000E4C224BC04CF04AC04BF049C04AF00A
:102B8000496A3F503B02F3CF52F0F4CF53F052501A
:102B9000492653504A22000E4B22000E4C2241502F
:102BA0003C02F3CF52F0F4CF53F052504E26535024
:102BB0004F22000E5022000E512240503D02F3CF12
:102BC00052F0F4CF53F052504E2653504F22000E85
:102BD0005022000E512241503D02F3CF52F0F4CF6B
:102BE00053F05250436E5350446E456A466A45C096
:102BF00046F044C045F043C044F0436A43504E267B
:102C000044504F22455050224650512249C043F073
:102C10004AC044F04BC045F04CC046F0190E16EFC8
:102C200016F0D8904632453244324332E82E11EF46
:102C300016F043504E2644504F22455050224650E5
:102C400051224BC04CF04AC04BF049C04AF0496A8F
:102C500048504DC043F0446A4326000E4422820E81
:102C60004324526EFF0E4420536E4CEF16F0D89062
:102C70004E364F36503651364CAE41EF16F043EFDC
:102C800016F044EF16F04E80D89049364A364B364F
:102C90004C365206D8A0530650AE51EF16F053EF03
:102CA00016F037EF16F0000E486E4CAE5AEF16F0E5
:102CB0005CEF16F080EF16F0FF0E4914436EFF0E26
:102CC0004A14446EFF0E4B14456E7F0E4C14466E34
:102CD0004350441045104610D8B471EF16F073EF0E
:102CE00016F077EF16F0010E486E80EF16F04EA04A
:102CF0007CEF16F07EEF16F080EF16F073EF16F013
:102D00004850D8B486EF16F088EF16F0ACEF16F006
:102D1000010E4E26000E4F225022512251A093EF59
:102D200016F095EF16F0ACEF16F04EC043F04FC022
:102D300044F050C045F051C046F04634463245326A
:102D40004432433243C04EF044C04FF045C050F0CF
:102D500046C051F0524A532A53BEB7EF16F05350B3
:102D600008E15228D8A0B7EF16F0B9EF16F0C3EF7C
:102D700016F0000E4E6E000E4F6E800E506E7F0EDF
:102D8000516EF1EF16F053BED0EF16F0535006E13E
:102D90005204D8B0CEEF16F0D0EF16F0DCEF16F0FC
:102DA000000E4E6E000E4F6E000E506E000E516EF5
:102DB000000E476EF1EF16F052C04DF0FF0E4E16AA
:102DC000FF0E4F167F0E5016000E51164DA0EBEF62
:102DD00016F0EDEF16F0EEEF16F0508ED8904D3065
:102DE000516E475051124EC03BF04FC03CF050C0A6
:102DF0003DF051C03EF012002550800B326E255040
:102E00002524396E24AE07EF17F009EF17F00AEF0B
:102E100017F039803950D8B410EF17F012EF17F0CF
:102E200027EF17F03928D8A418EF17F01AEF17F08A
:102E300022EF17F0000E226E000E236E000E246E9D
:102E4000000E256E248E000E256E2FEF17F0000E5B
:102E5000226E000E236E000E246E000E256E295089
:102E6000800B321A295029243A6E28AE3AEF17F017
:102E70003CEF17F03DEF17F03A803A50D8B443EFEB
:102E800017F045EF17F05AEF17F03A28D8A44BEF98
:102E900017F04DEF17F055EF17F0000E266E000EED
:102EA000276E000E286E000E296E288E000E296EE9
:102EB00062EF17F0000E266E000E276E000E286ED1
:102EC000000E296E2650271028102910D8A46BEF69
:102ED00017F06DEF17F085EF17F0000E226E000E61
:102EE000236E000E246E000E256E800E24127F0EBF
:102EF00025123250251222C022F023C023F024C014
:102F000024F025C025F0C8EF18F03950D8A48BEF75
:102F100017F08DEF17F097EF17F0000E226E000EEE
:102F2000236E000E246E000E256EC8EF18F03A5086
:102F300039C02AF02B6A2A5E000E2B5A7F0E2A24F3
:102F4000336E000E2B20346E22C02EF023C02FF0E3
:102F500024C030F025C031F0000E226E000E236E2A
:102F6000000E246E000E256E000E356E000E366EBD
:102F7000000E376E000E386E000E3A6EF8EF17F046
:102F80003A50D8B4C6EF17F0C8EF17F0DFEF17F0DC
:102F9000D8902E362F3630363136D890223623361A
:102FA0002436253638AED7EF17F0D9EF17F0DAEF21
:102FB00017F02280D89035363636373638362650D8
:102FC0002E5C27502F582850305829503158D8A0FF
:102FD000ECEF17F0EEEF17F0F7EF17F0388C265004
:102FE0002E5E27502F5A2850305A2950315A3A2AEB
:102FF000190E3A64FEEF17F000EF18F0C0EF17F06B
:103000002E502F1030103110D8B409EF18F00BEFFC
:1030100018F023EF18F0358023EF18F0D8902236FF
:1030200023362436253638AE18EF18F01AEF18F08C
:103030001BEF18F02280D8903536363637363836C2
:103040003306D8A0340624AE28EF18F02AEF18F083
:103050000EEF18F0000E3A6E38AE31EF18F033EF85
:1030600018F057EF18F0FF0E35142A6EFF0E3614C5
:103070002B6EFF0E37142C6E7F0E38142D6E2A50D7
:103080002B102C102D10D8B448EF18F04AEF18F080
:103090004EEF18F0010E3A6E57EF18F022A053EFE2
:1030A00018F055EF18F057EF18F04AEF18F03A50B3
:1030B000D8B45DEF18F05FEF18F083EF18F0010E51
:1030C0002226000E23222422252225A06AEF18F0B2
:1030D0006CEF18F083EF18F022C02AF023C02BF019
:1030E00024C02CF025C02DF02D342D322C322B3263
:1030F0002A322AC022F02BC023F02CC024F02DC08D
:1031000025F0334A342A34BE8EEF18F0345008E1EB
:103110003328D8A08EEF18F090EF18F09BEF18F03E
:10312000000E346E3368000E226E000E236E000E09
:10313000246E000E256E34BEA8EF18F0345006E160
:103140003304D8B0A6EF18F0A8EF18F0B6EF18F0D7
:10315000000E346E000E336E000E226E000E236ED3
:10316000000E246E000E256E000E326E33C039F054
:1031700039A0BDEF18F0BFEF18F0C2EF18F0248EA1
:10318000C3EF18F0249ED8903930256E79EF17F0F0
:103190001200146E1450D8B4D0EF18F0D2EF18F01B
:1031A000F4EF18F00FBED9EF18F0D7EF18F0F4EFE6
:1031B00018F00CC010F00DC011F00EC012F00FC0CE
:1031C00013F0101E111E121E131E102A000E1122C3
:1031D0001222132210C016F011C017F012C018F0FE
:1031E00013C019F0FCEF18F00CC016F00DC017F06A
:1031F0000EC018F00FC019F00C500D100E100F106B
:10320000D8A405EF19F007EF19F011EF19F0000E2F
:103210000C6E000E0D6E000E0E6E000E0F6EA2EF05
:1032200019F0960E156E1BEF19F0152AD890193269
:10323000183217321632000E1614106E000E1714C4
:10324000116E000E1814126EFE0E1914136E10502B
:10325000111012101310D8A430EF19F032EF19F03A
:1032600015EF19F040EF19F0152A010E1626000E81
:10327000172218221922D890193218321732163212
:10328000000E1614106E000E1714116E000E181496
:10329000126EFF0E1914136E10501110121013102D
:1032A000D8A455EF19F057EF19F034EF19F05FEF8C
:1032B00019F01506D890163617361836193618BE76
:1032C00064EF19F066EF19F06EEF19F0020E156059
:1032D0006CEF19F06EEF19F059EF19F015B073EFAC
:1032E00019F075EF19F076EF19F0189ED890153295
:1032F00015C010F0116A126A136A10C013F0126A36
:10330000116A106A1050161211501712125018122A
:10331000135019121450D8B490EF19F092EF19F01D
:103320009AEF19F00FBE99EF19F097EF19F09AEF95
:1033300019F0198E16C00CF017C00DF018C00EF061
:1033400019C00FF01200186E1350D96EDA6A010E10
:10335000D926010EDF6E1450D96EDA6A010ED92615
:10336000010EDF6E000E1E6E280E1D6E000E026E28
:10337000640E016E000E046E280E036EDAEC1EF071
:1033800001C01FF002C020F0000E1A6E000E196E70
:10339000EEEF19F01350D96EDA6A1350E16EE26A5B
:1033A000E750156E1528DF6E1450D96EDA6A145086
:1033B000E16EE26AE750156E1528DF6E14C00EF05C
:1033C0009FEC1CF013C00EF09FEC1CF01FC001F02E
:1033D00020C002F0B7EC21F0194A1A2A1D50195CDE
:1033E0001A50800A156E1E50800A1558D8A0FBEF9F
:1033F00019F0FDEF19F0CAEF19F0000E1C6E000E67
:103400001B6E0CEF1AF0D00E156ECA0EE82EFED70A
:10341000152EFCD71B4A1C2A1850156E166A15501B
:103420001B5C1C50800A176E1650800A1758D8A0D3
:103430001CEF1AF01EEF1AF003EF1AF04CEF1AF01F
:103440001450D96EDA6ADF50D8B429EF1AF02BEF96
:103450001AF02FEF1AF01450D96EDA6ADF06135003
:10346000D96EDA6ADF50D8B438EF1AF03AEF1AF0B2
:103470003EEF1AF01350D96EDA6ADF0614C00EF070
:103480009FEC1CF013C00EF09FEC1CF01FC001F06D
:1034900020C002F0B7EC21F01350D96EDA6ADF5089
:1034A000D8A455EF1AF057EF1AF020EF1AF0145085
:1034B000D96EDA6ADF50D8A460EF1AF062EF1AF022
:1034C00020EF1AF01200186E1350D96EDA6A010E4E
:1034D000D926010EDF6E1450D96EDA6A010ED92694
:1034E000DF6A000E1E6E280E1D6E000E026E640E48
:1034F000016E000E046E280E036EDAEC1EF001C0A1
:103500001FF002C020F0000E1A6E000E196EADEF13
:103510001AF01350D96EDA6A1350E16EE26AE7507E
:10352000156E1528DF6E1450D96EDA6A1450E16EEC
:10353000E26AE750156E1528DF6E14C00EF09FEC9E
:103540001CF013C00EF09FEC1CF01FC001F020C057
:1035500002F0B7EC21F0194A1A2A1D50195C1A50D2
:10356000800A156E1E50800A1558D8A0BAEF1AF0BE
:10357000BCEF1AF089EF1AF0000E1C6E000E1B6EE5
:10358000CBEF1AF0D00E156ECA0EE82EFED7152E10
:10359000FCD71B4A1C2A1850156E166A15501B5C66
:1035A0001C50800A176E1650800A1758D8A0DBEFFF
:1035B0001AF0DDEF1AF0C2EF1AF00BEF1BF0145007
:1035C000D96EDA6ADF50D8B4E8EF1AF0EAEF1AF0F1
:1035D000EEEF1AF01450D96EDA6ADF061350D96E86
:1035E000DA6ADF50D8B4F7EF1AF0F9EF1AF0FDEF0E
:1035F0001AF01350D96EDA6ADF0614C00EF09FEC91
:103600001CF013C00EF09FEC1CF01FC001F020C096
:1036100002F0B7EC21F01350D96EDA6ADF50D8A46B
:1036200014EF1BF016EF1BF0DFEF1AF01450D96EF9
:10363000DA6ADF50D8A41FEF1BF021EF1BF0DFEF99
:103640001AF01200186E1350D96EDA6A010ED926DC
:10365000DF6A1450D96EDA6A010ED926010EDF6EC8
:10366000000E1E6E280E1D6E000E026E640E016EA0
:10367000000E046E280E036EDAEC1EF001C01FF07F
:1036800002C020F0000E1A6E000E196E6CEF1BF0D7
:103690001350D96EDA6A1350E16EE26AE750156E84
:1036A0001528DF6E1450D96EDA6A1450E16EE26AA2
:1036B000E750156E1528DF6E14C00EF09FEC1CF05D
:1036C00013C00EF09FEC1CF01FC001F020C002F0F0
:1036D000B7EC21F0194A1A2A1D50195C1A50800AB9
:1036E000156E1E50800A1558D8A079EF1BF07BEF9D
:1036F0001BF048EF1BF0000E1C6E000E1B6E8AEFD5
:103700001BF0D00E156ECA0EE82EFED7152EFCD774
:103710001B4A1C2A1850156E166A15501B5C1C504B
:10372000800A176E1650800A1758D8A09AEF1BF01F
:103730009CEF1BF081EF1BF0CAEF1BF01450D96E09
:10374000DA6ADF50D8B4A7EF1BF0A9EF1BF0ADEF9A
:103750001BF01450D96EDA6ADF061350D96EDA6A9C
:10376000DF50D8B4B6EF1BF0B8EF1BF0BCEF1BF086
:103770001350D96EDA6ADF0614C00EF09FEC1CF00D
:1037800013C00EF09FEC1CF01FC001F020C002F02F
:10379000B7EC21F01350D96EDA6ADF50D8A4D3EF1A
:1037A0001BF0D5EF1BF09EEF1BF01450D96EDA6AB8
:1037B000DF50D8A4DEEF1BF0E0EF1BF09EEF1BF014
:1037C0001200186E1350D96EDA6A010ED926DF6A1C
:1037D0001450D96EDA6A010ED926DF6A000E1E6E09
:1037E000280E1D6E000E026E640E016E000E046E39
:1037F000280E036EDAEC1EF001C01FF002C020F0AC
:10380000000E1A6E000E196E2AEF1CF01350D96EBE
:10381000DA6A1350E16EE26AE750156E1528DF6E22
:103820001450D96EDA6A1450E16EE26AE750156EF0
:103830001528DF6E14C00EF09FEC1CF013C00EF0C4
:103840009FEC1CF01FC001F020C002F0B7EC21F08B
:10385000194A1A2A1D50195C1A50800A156E1E50FA
:10386000800A1558D8A037EF1CF039EF1CF006EF8E
:103870001CF0000E1C6E000E1B6E48EF1CF0D00EEC
:10388000156ECA0EE82EFED7152EFCD71B4A1C2A31
:103890001850156E166A15501B5C1C50800A176E66
:1038A0001650800A1758D8A058EF1CF05AEF1CF099
:1038B0003FEF1CF088EF1CF01450D96EDA6ADF502D
:1038C000D8B465EF1CF067EF1CF06BEF1CF01450E0
:1038D000D96EDA6ADF061350D96EDA6ADF50D8B4CF
:1038E00074EF1CF076EF1CF07AEF1CF01350D96ED9
:1038F000DA6ADF0614C00EF09FEC1CF013C00EF065
:103900009FEC1CF01FC001F020C002F0B7EC21F0CA
:103910001350D96EDA6ADF50D8A491EF1CF093EF00
:103920001CF05CEF1CF01450D96EDA6ADF50D8A49A
:103930009CEF1CF09EEF1CF05CEF1CF012000E5090
:10394000D96EDA6A020ED926DF50D8B4AAEF1CF07D
:10395000ACEF1CF0DCEF1CF00E50D96EDA6ADF50D1
:103960000F6E0F50016E026A0E50D96EDA6A030EA6
:10397000D926DECF03F0DDCF04F0F7EC21F001C053
:1039800007F002C008F0000E0A6E640E096E2FECFC
:1039900020F00E50D96EDA6A030ED926DF50106E71
:1039A0000750105C116E0E50D96EDA6A030ED926DC
:1039B000DF50126EFDEF1CF0000E116E0E50D96E2E
:1039C000DA6ADF500F6E0F50016E026A0E50D96E28
:1039D000DA6A030ED926DECF03F0DDCF04F0F7EC70
:1039E00021F001C007F002C008F0000E0A6E640E5C
:1039F000096E2FEC20F00750126E0E50D96EDA6A65
:103A0000010ED926DF50D8B408EF1DF00AEF1DF0E3
:103A10002AEF1DF00E50D96EDA6A050ED926DECFD8
:103A20000FF0DDCF10F00FC0D9FF10C0DAFF11C0CA
:103A3000DFFF0E50D96EDA6A070ED926DECF0FF0FF
:103A4000DDCF10F00FC0D9FF10C0DAFF12C0DFFFCA
:103A500048EF1DF00E50D96EDA6A050ED926DECF7A
:103A60000FF0DDCF10F00FC0D9FF10C0DAFF12C089
:103A7000DFFF0E50D96EDA6A070ED926DECF0FF0BF
:103A8000DDCF10F00FC0D9FF10C0DAFF11C0DFFF8B
:103A9000120058C001F059C002F05AC003F05BC0D8
:103AA00004F0000E056E000E066E000E076E000E8E
:103AB000086E3CEC1FF0D8A060EF1DF062EF1DF027
:103AC0006CEF1DF0000E546E000E556E000E566E1B
:103AD000000E576ED4EF1DF054C022F055C023F0F5
:103AE00056C024F057C025F058C026F059C027F022
:103AF0005AC028F05BC029F0FCEC16F022C060F040
:103B000023C061F024C062F025C063F060C001F002
:103B100061C002F062C003F063C004F0D5EC1DF098
:103B200001C068F002C069F054C01AF055C01BF023
:103B300056C01CF057C01DF058C03FF059C040F0AF
:103B40005AC041F05BC042F068C00CF069C00DF093
:103B5000000E0DBEFF0E0E6E0F6E010EC9EC18F0BA
:103B60000CC03BF00DC03CF00EC03DF00FC03EF06D
:103B7000E7EC14F03BC01EF03CC01FF03DC020F04D
:103B80003EC021F038EC21F01AC064F01BC065F093
:103B90001CC066F01DC067F064C054F065C055F0ED
:103BA00066C056F067C057F01200033404340A6E42
:103BB0000A50D8A4DEEF1DF0E0EF1DF0EAEF1DF093
:103BC000000E016E000E026E000E036E000E046EFB
:103BD00057EF1EF001C005F002C006F003C007F069
:103BE00004C008F0200EFAEF1DF0D890083207321A
:103BF00006320532E82EF5EF1DF00550096E038EF2
:103C0000FF0E0116FF0E0216FF0E0316000E04161D
:103C1000960E0A5E0ABE11EF1EF00FEF1EF027EFA0
:103C20001EF00A50800A970FD8B019EF1EF01BEF54
:103C30001EF01DEF1EF0E0EF1DF0D89004320332AD
:103C4000023201320A3E1DEF1EF03FEF1EF01F0E42
:103C50000A642DEF1EF02FEF1EF037EF1EF0E0EF9D
:103C60001DF0D89001360236033604360A060A5093
:103C7000D8A43DEF1EF03FEF1EF031EF1EF00950CB
:103C8000D8B445EF1EF047EF1EF04FEF1EF0041EB4
:103C9000031E021E016C000E02220322042201C038
:103CA00001F002C002F003C003F004C004F01200EF
:103CB000000E0114096E000E02140A6E800E031429
:103CC0000B6E7F0E04140C6E09500A100B100C10B2
:103CD000D8A46DEF1EF06FEF1EF077EF1EF0000E10
:103CE000016E000E026E000E036E000E046E000EDA
:103CF0000514096E000E06140A6E800E07140B6E72
:103D00007F0E08140C6E09500A100B100C10D8A46A
:103D10008CEF1EF08EEF1EF096EF1EF0000E056E7B
:103D2000000E066E000E076E000E086E04AE9BEFCE
:103D30001EF09DEF1EF0A6EF1EF0016C021ED8B023
:103D4000022A031ED8B0032A800E045608AEABEF39
:103D50001EF0ADEF1EF0B6EF1EF0056C061ED8B0DB
:103D6000062A071ED8B0072A800E0856000E011A30
:103D7000000E021A000E031A800E041A000E051A15
:103D8000000E061A000E071A800E081A0550015C74
:103D9000065002580750035808500458D8B0D3EFC3
:103DA0001EF0D5EF1EF0D8EF1EF0D890D9EF1EF020
:103DB000D8801200000E066E04BEE3EF1EF0E1EFA5
:103DC0001EF0E9EF1EF0036C041ED8B0042A010EA9
:103DD000066E02BEF0EF1EF0EEEF1EF0F6EF1EF0E4
:103DE000016C021ED8B0022A010E061A000E086EDF
:103DF000000E076E03500410D8B401EF1FF003EF5C
:103E00001FF02BEF1FF0010E056E0BEF1FF0D89087
:103E100003360436052A04AE10EF1FF012EF1FF030
:103E200007EF1FF0D890073608360350015C0450A6
:103E30000258D8A01EEF1FF020EF1FF025EF1FF053
:103E40000350015E0450025A0780D89004320332B6
:103E5000052E12EF1FF00650D8B431EF1FF033EFEC
:103E60001FF037EF1FF0076C081ED8B0082A07C0F4
:103E700001F008C002F01200000E0114096E000EDD
:103E800002140A6E800E03140B6E7F0E04140C6E67
:103E900009500A100B100C10D8A451EF1FF053EF6B
:103EA0001FF05BEF1FF0000E016E000E026E000EA1
:103EB000036E000E046E000E0514096E000E06144B
:103EC0000A6E800E07140B6E7F0E08140C6E0950DC
:103ED0000A100B100C10D8A470EF1FF072EF1FF037
:103EE0007AEF1FF0000E056E000E066E000E076ED4
:103EF000000E086E055001180FE1065002180CE183
:103F00000750031809E108500418D8B48AEF1FF0CD
:103F10008CEF1FF08FEF1FF0D89090EF1FF0D8803C
:103F20001200000E026E630E016EE5EC1FF0000E33
:103F30000001F46F010EF56F010EF66FAA0EF96F16
:103F40000F0EFA6FA60EFB6F0F0EFC6F000EF86FD0
:103F5000630EF76F000EEB6F010EEC6F010EED6F4D
:103F6000250EF06F0F0EF16F210EF26F0F0EF36F33
:103F7000000EEF6F630EEE6F849E7C9E8896809697
:103F800086840E01B4958686B497010E0101826F76
:103F9000190E836F190E846F280E856F280E866F99
:103FA000640E876F640E886F69EC20F0820E00014A
:103FB000DF6F010EE06FF40EE16FEB0EE26FFEECCF
:103FC0000FF0D4EF1FF000EF00F085948598839EEA
:103FD000879C7D947D987B9E7F9C050E0E01746F5F
:103FE000060E766F070E696F080E886FBD508F0B37
:103FF0004009BD6EE00EBE16BF50F00B0109BF6E4A
:1040000001C0BCFFBD8E000EAA6E000EA66E000E93
:104010000F01256F000E216FFC0EAD16F30EAD16CD
:10402000CF0EAD163F0EAD16AB88AB50F00B0C09A2
:10403000AB6EAB8EA788A750F00B0C09A76EA78EAE
:1040400026892651F00B0C09266F268F22892251D2
:10405000F00B0C09226F228F889680961200000EBA
:104060000D6E000E0C6E09500A10D8B43AEF20F015
:104070003CEF20F064EF20F0010E0B6E44EF20F0D7
:10408000D89009360A360B2A0AAE49EF20F04BEFDA
:1040900020F040EF20F0D8900C360D360950075C28
:1040A0000A500858D8A057EF20F059EF20F05EEFE3
:1040B00020F00950075E0A50085A0C80D8900A3246
:1040C00009320B2E4BEF20F00CC007F00DC008F0AA
:1040D00012007C8E090E026E1E0E016EE40EE82E9A
:1040E000FED7012EFCD7022EFAD700D07C9E090EF7
:1040F000026E1E0E016EE40EE82EFED7012EFCD7D6
:10410000022EFAD700D08EB488EF20F08AEF20F08C
:1041100069EF20F0110E026E3C0E016ECB0EE82E00
:10412000FED7012EFCD7022EFAD700007C9E12008B
:1041300025EC22F0520E1AEC22F0B60E1AEC22F008
:104140002AEC22F0530E1AEC22F0010E5BEC21F067
:10415000076E07500A6E0B6A000E5BEC21F0076ECB
:104160000750096E086A0A5008100A6E0B500910B1
:104170000B6E20EC22F00AC005F00BC006F0120016
:1041800025EC22F0520E1AEC22F0B80E1AEC22F0B6
:104190002AEC22F0530E1AEC22F0010E5BEC21F017
:1041A000076E07500A6E0B6A000E5BEC21F0076E7B
:1041B0000750096E086A0A5008100A6E0B50091061
:1041C0000B6E20EC22F00AC005F00BC006F01200C6
:1041D00025EC22F0520E1AEC22F0B40E1AEC22F06A
:1041E0002AEC22F0530E1AEC22F0010E5BEC21F0C7
:1041F000076E07500A6E0B6A000E5BEC21F0076E2B
:104200000750096E086A0A5008100A6E0B50091010
:104210000B6E20EC22F00AC005F00BC006F0120075
:1042200025EC22F0520E1AEC22F0BA0E1AEC22F013
:104230002AEC22F0530E1AEC22F0010E5BEC21F076
:10424000076E07500A6E0B6A000E5BEC21F0076EDA
:104250000750096E086A0A5008100A6E0B500910C0
:104260000B6E20EC22F00AC005F00BC006F0120025
:10427000000E1E1A000E1F1A000E201A800E211AA0
:104280001AC001F01BC002F01CC003F01DC004F0F6
:104290001EC005F01FC006F020C007F021C008F0C6
:1042A00087EC12F001C01AF002C01BF003C01CF032
:1042B00004C01DF01200036EE3EC21F00E01DA875A
:1042C000E3EC21F0D5CE04F0E3EC21F00350D8B4B8
:1042D0006CEF21F070EF21F0026A022A71EF21F0F9
:1042E000026A023A02460E01DA510218DF0B021886
:1042F000DA6FDA8904501200CEEC21F0010E036E61
:10430000000E0AEC22F03F0E056E550EE82EFED789
:10431000052EFCD70000030E036E000E0AEC22F0FF
:10432000D50E036E010E0AEC22F087928198869ECC
:104330007F8279887E8E12005E0EF66E440EF76ED6
:10434000000EF86E0900F5CFFDF00900F5CFFEF084
:1043500001EE00F0890EEE6AE806FDE100EEE3F002
:104360001A0EEE6AE806FDE1000191EF1FF0C4EFBE
:1043700021F0150E036EC60EE82EFED7032EFCD7D5
:1043800000D00106D8A0020601500210D8A4CBEF3D
:1043900021F0CDEF21F0B9EF21F012000E01D9513B
:1043A000F00B0809D96FD98B9F0ED66F848A848C45
:1043B000A79BA79D1D0E1D6F1E0E1C6F1C0E6F6F01
:1043C0001B0E706F12000E01D8B5E9EF21F0EBEF74
:1043D00021F0E3EF21F0DACE01F01F0E0116D8A490
:1043E000F4EF21F0F6EF21F0E3EF21F0120001509D
:1043F0000302F3CF05F0F4CF06F001500402F350AE
:10440000062602500302F350062605C001F006C03E
:1044100002F01200046E25EC22F0520E1AEC22F08B
:10442000045080091AEC22F003501AEC22F020EC20
:1044300022F01200026EE3EC21F002C0D5FE120061
:10444000E3EC21F00E01DA851200E3EC21F00E011D
:10445000DA811200E3EC21F00E01DA831200320758
:020000040030CA
:02000000AAFF55
:020004009FFF5C
:00000001FF
