:0400000094EF08F081
:100E00000000000E276E630E266E4AEC08F0000EFE
:100E1000146E010E156E010E166EAA0E196E0F0ECF
:100E20001A6EA60E1B6E0F0E1C6E000E186E630E51
:100E3000176E000E0B6E010E0C6E010E0D6E250E60
:100E4000106E0F0E116E210E126E0F0E136E000E2D
:100E50000F6E630E0E6E849E7C9E889680968684AE
:100E60000E01B4958686B497000E216E0A0E226E8E
:100E7000140E236E140E246E140E256E8EB443EFE2
:100E800007F045EF07F07BEF07F0000E2F6E000E26
:100E90002E6E67EF07F0110E2C6E3C0E2B6ECB0EF4
:100EA000E82EFED72B2EFCD72C2EFAD700008086FA
:100EB000110E2C6E3C0E2B6ECB0EE82EFED72B2E79
:100EC000FCD72C2EFAD7000080962E4A2F2A2150CC
:100ED0002B6E2C6A2B502E5C2F50800A2D6E2C50BE
:100EE000800A2D58D8A077EF07F079EF07F04BEF85
:100EF00007F0A9EF07F08EB680EF07F082EF07F05A
:100F00003EEF07F0212A110E2C6E3C0E2B6ECB0EFD
:100F1000E82EFED72B2EFCD72C2EFAD70000808689
:100F2000110E2C6E3C0E2B6ECB0EE82EFED72B2E08
:100F3000FCD72C2EFAD700008096050E2164A3EF73
:100F400007F0A5EF07F03EEF07F0FE0E216E3EEF33
:100F500007F02150D8A4AFEF07F0B1EF07F0BAEFD8
:100F600007F08EB4B6EF07F0B8EF07F0BAEF07F06E
:100F7000DFEF07F02104D8A4C0EF07F0C2EF07F0BD
:100F8000CBEF07F08EB4C7EF07F0C9EF07F0CBEF58
:100F900007F0DFEF07F0020E2118D8A4D2EF07F018
:100FA000D4EF07F0A9EF07F0230E266EE1EC07F06F
:100FB0008EB4DDEF07F0DFEF07F0A9EF07F000EFE9
:100FC00000F08EB4E6EF07F0E8EF07F014EF08F05A
:100FD000110E286E3C0E276ECB0EE82EFED7272E64
:100FE000FCD7282EFAD700002650D96EDA6ADECF59
:100FF00027F0DDCF28F0010E2726000E28222650EC
:10100000D96EDA6A27C0DEFF28C0DDFF7C8E110EA4
:10101000286E3C0E276ECB0EE82EFED7272EFCD76F
:10102000282EFAD700007C9E8EB619EF08F01BEF31
:1010300008F049EF08F0110E286E3C0E276ECB0E1B
:10104000E82EFED7272EFCD7282EFAD700002650F0
:10105000D96EDA6ADECF27F0DDCF28F0FF0E272425
:10106000296EFF0E28202A6E2650D96EDA6A29C012
:10107000DEFF2AC0DDFF8086110E286E3C0E276E33
:10108000CB0EE82EFED7272EFCD7282EFAD700004D
:101090008096120085948598839E879C7D947D9888
:1010A0007B9E7F9C050E0E01746F060E766F070EF9
:1010B000696F080E886FBD508F0B4009BD6EE00E42
:1010C000BE16BF50F00B0109BF6E26C0BCFFBD8E1F
:1010D000000EAA6E000EA66E000E0F01256F000E08
:1010E000216FFC0EAD16F30EAD16CF0EAD163F0EF2
:1010F000AD16AB88AB50F00B0C09AB6EAB8EA7886E
:10110000A750F00B0C09A76EA78E26892651F00B6D
:101110000C09266F268F22892251F00B0C09226FB1
:10112000228F8896809612004C0EF66E110EF76E86
:10113000000EF86E0900F5CF30F000EE01F0250E3C
:0D114000EE6AE806FDE1000101EF07F0078F
:020000040030CA
:02000000AAFF55
:020004009FFF5C
:00000001FF
