:040000007EEF23F07C
:100E000000007AEC22F005C00CF006C00DF00E6A6E
:100E10000F6A000E93EC19F00CC0C1F00DC0C2F0C7
:100E20000EC0C3F00FC0C4F0A2EC22F005C00CF05D
:100E300006C00DF00E6A0F6A000E93EC19F00CC09C
:100E4000C5F00DC0C6F00EC0C7F00FC0C8F0F2EC80
:100E500022F005C00CF006C00DF00E6A0F6A000EFD
:100E600093EC19F00CC0C9F00DC0CAF00EC0CBF065
:100E70000FC0CCF0CAEC22F005C00CF006C00DF09B
:100E80000E6A0F6A000E93EC19F00CC0CDF00DC085
:100E9000CEF00EC0CFF00FC0D0F0C1C06AF0C2C01B
:100EA0006BF0C3C06CF0C4C06DF0C5C06EF0C6C0BE
:100EB0006FF0C7C070F0C8C071F0C9C072F0CAC08E
:100EC00073F0CBC074F0CCC075F0CDC076F0CEC05E
:100ED00077F0CFC078F0D0C079F0D30E00017A6FF0
:100EE000D70E7B6FDB0E7C6F1DEC0CF0000E00014B
:100EF000D26F000ED16F000E016E800E026EB10E29
:100F0000036E430E046ED3C005F0D4C006F0D5C006
:100F100007F0D6C008F0CDEC1FF0D8B092EF07F084
:100F200094EF07F018EF08F0D3C001F0D4C002F03E
:100F3000D5C003F0D6C004F0000E056E000E066E9C
:100F4000B40E076E430E086ECDEC1FF0D8B0ABEFB9
:100F500007F0ADEF07F018EF08F0000E016E000E7D
:100F6000026EAA0E036E420E046ED7C005F0D8C002
:100F700006F0D9C007F0DAC008F0CDEC1FF0D8B009
:100F8000C4EF07F0C6EF07F018EF08F0D7C001F084
:100F9000D8C002F0D9C003F0DAC004F0000E056E2C
:100FA000000E066EB40E076E420E086ECDEC1FF0FA
:100FB000D8B0DDEF07F0DFEF07F018EF08F0000E14
:100FC000016E000E026EA00E036E420E046EDBC0B8
:100FD00005F0DCC006F0DDC007F0DEC008F0CDECA7
:100FE0001FF0D8B0F6EF07F0F8EF07F018EF08F0B1
:100FF000DBC001F0DCC002F0DDC003F0DEC004F0B5
:10100000000E056E000E066EAA0E076E420E086EEA
:10101000CDEC1FF0D8B00FEF08F011EF08F018EF8B
:1010200008F0000E0001D26F010ED16F18EF0CF026
:10103000000E016E000E026E860E036E420E046EEE
:10104000D3C005F0D4C006F0D5C007F0D6C008F074
:10105000CDEC1FF0D8B02FEF08F031EF08F0B5EF6E
:1010600008F0D3C001F0D4C002F0D5C003F0D6C060
:1010700004F0000E056E000E066E9E0E076E420E08
:10108000086ECDEC1FF0D8B048EF08F04AEF08F03A
:10109000B5EF08F0000E016E000E026E480E036EF2
:1010A000420E046ED7C005F0D8C006F0D9C007F0D4
:1010B000DAC008F0CDEC1FF0D8B061EF08F063EFB4
:1010C00008F0B5EF08F0D7C001F0D8C002F0D9C0E1
:1010D00003F0DAC004F0000E056E000E066E640E1A
:1010E000076E420E086ECDEC1FF0D8B07AEF08F014
:1010F0007CEF08F0B5EF08F0000E016E000E026EF6
:10110000200E036E420E046EDBC005F0DCC006F05C
:10111000DDC007F0DEC008F0CDEC1FF0D8B093EFD3
:1011200008F095EF08F0B5EF08F0DBC001F0DCC087
:1011300002F0DDC003F0DEC004F0000E056E000E0C
:10114000066E380E076E420E086ECDEC1FF0D8B05A
:10115000ACEF08F0AEEF08F0B5EF08F0000E0001BC
:10116000D26F020ED16F18EF0CF0D7C001F0D8C0CB
:1011700002F0D9C003F0DAC004F0000E056E000ED4
:10118000066E200E076E410E086ECDEC1FF0D8B033
:10119000CCEF08F0CEEF08F007EF09F0000E016E7B
:1011A000000E026EF00E036E410E046EDBC005F001
:1011B000DCC006F0DDC007F0DEC008F0CDEC1FF0AB
:1011C000D8B0E5EF08F0E7EF08F007EF09F0DBC073
:1011D00001F0DCC002F0DDC003F0DEC004F0000E60
:1011E000056E000E066E0C0E076E420E086ECDECFC
:1011F0001FF0D8B0FEEF08F000EF09F007EF09F09C
:10120000000E0001D26F030ED16F18EF0CF0000E2C
:10121000016E000E026EA00E036E410E046ED3C06E
:1012200005F0D4C006F0D5C007F0D6C008F0CDEC6C
:101230001FF0D8B01EEF09F020EF09F0A4EF09F07D
:10124000D3C001F0D4C002F0D5C003F0D6C004F082
:10125000000E056E000E066EC80E076E410E086E7B
:10126000CDEC1FF0D8B037EF09F039EF09F0A4EF5B
:1012700009F0000E016E000E026E820E036E420E29
:10128000046ED7C005F0D8C006F0D9C007F0DAC0A8
:1012900008F0CDEC1FF0D8B050EF09F052EF09F094
:1012A000A4EF09F0D7C001F0D8C002F0D9C003F014
:1012B000DAC004F0000E056E000E066E8C0E076E8E
:1012C000420E086ECDEC1FF0D8B069EF09F06BEF5D
:1012D00009F0A4EF09F0000E016E000E026E580E28
:1012E000036E420E046EDBC005F0DCC006F0DDC00C
:1012F00007F0DEC008F0CDEC1FF0D8B082EF09F0A7
:1013000084EF09F0A4EF09F0DBC001F0DCC002F0CB
:10131000DDC003F0DEC004F0000E056E000E066EA8
:10132000640E076E420E086ECDEC1FF0D8B09BEF36
:1013300009F09DEF09F0A4EF09F0000E0001D26F53
:10134000040ED16F18EF0CF0000E016E000E026E4D
:10135000500E036E410E046ED3C005F0D4C006F0EB
:10136000D5C007F0D6C008F0CDEC1FF0D8B0BBEF69
:1013700009F0BDEF09F041EF0AF0D3C001F0D4C08D
:1013800002F0D5C003F0D6C004F0000E056E000ECA
:10139000066E900E076E410E086ECDEC1FF0D8B0B1
:1013A000D4EF09F0D6EF09F041EF0AF0000E016E1C
:1013B000000E026E5C0E036E420E046ED7C005F086
:1013C000D8C006F0D9C007F0DAC008F0CDEC1FF0A5
:1013D000D8B0EDEF09F0EFEF09F041EF0AF0D7C018
:1013E00001F0D8C002F0D9C003F0DAC004F0000E5A
:1013F000056E000E066E700E076E420E086ECDEC86
:101400001FF0D8B006EF0AF008EF0AF041EF0AF03B
:10141000000E016E000E026E480E036E420E046E48
:10142000DBC005F0DCC006F0DDC007F0DEC008F070
:10143000CDEC1FF0D8B01FEF0AF021EF0AF041EF1A
:101440000AF0DBC001F0DCC002F0DDC003F0DEC05A
:1014500004F0000E056E000E066E580E076E420E6A
:10146000086ECDEC1FF0D8B038EF0AF03AEF0AF072
:1014700041EF0AF0000E0001D26F050ED16F18EF98
:101480000CF0000E016E000E026EA00E036E400EF8
:10149000046ED3C005F0D4C006F0D5C007F0D6C0A6
:1014A00008F0CDEC1FF0D8B058EF0AF05AEF0AF070
:1014B000DEEF0AF0D3C001F0D4C002F0D5C003F0D3
:1014C000D6C004F0000E056E000E066E200E076EEC
:1014D000410E086ECDEC1FF0D8B071EF0AF073EF3B
:1014E0000AF0DEEF0AF0000E016E000E026E8C0EA6
:1014F000036E420E046ED7C005F0D8C006F0D9C006
:1015000007F0DAC008F0CDEC1FF0D8B08AEF0AF08F
:101510008CEF0AF0DEEF0AF0D7C001F0D8C002F07D
:10152000D9C003F0DAC004F0000E056E000E066E9E
:10153000960E076E420E086ECDEC1FF0D8B0A3EFEA
:101540000AF0A5EF0AF0DEEF0AF0000E016E000EC1
:10155000026E780E036E420E046EDBC005F0DCC036
:1015600006F0DDC007F0DEC008F0CDEC1FF0D8B00B
:10157000BCEF0AF0BEEF0AF0DEEF0AF0DBC001F0CC
:10158000DCC002F0DDC003F0DEC004F0000E056E2A
:10159000000E066E860E076E420E086ECDEC1FF032
:1015A000D8B0D5EF0AF0D7EF0AF0DEEF0AF0000E60
:1015B0000001D26F060ED16F18EF0CF0000E016E15
:1015C000000E026E940E036E420E046ED3C005F040
:1015D000D4C006F0D5C007F0D6C008F0CDEC1FF09F
:1015E000D8B0F5EF0AF0F7EF0AF07BEF0BF0D3C0BD
:1015F00001F0D4C002F0D5C003F0D6C004F0000E54
:10160000056E000E066EAA0E076E420E086ECDEC39
:101610001FF0D8B00EEF0BF010EF0BF07BEF0BF0DC
:10162000000E016E000E026EE00E036E410E046E9F
:10163000D7C005F0D8C006F0D9C007F0DAC008F06E
:10164000CDEC1FF0D8B027EF0BF029EF0BF07BEFBC
:101650000BF0D7C001F0D8C002F0D9C003F0DAC057
:1016600004F0000E056E000E066E040E076E420EAC
:10167000086ECDEC1FF0D8B040EF0BF042EF0BF04E
:101680007BEF0BF0000E016E000E026E140E036E67
:10169000420E046EDBC005F0DCC006F0DDC007F0D2
:1016A000DEC008F0CDEC1FF0D8B059EF0BF05BEFC7
:1016B0000BF07BEF0BF0DBC001F0DCC002F0DDC013
:1016C00003F0DEC004F0000E056E000E066E280E5C
:1016D000076E420E086ECDEC1FF0D8B072EF0BF023
:1016E00074EF0BF07BEF0BF0000E0001D26F070ED2
:1016F000D16F18EF0CF0000E016E000E026EB00EEE
:10170000036E410E046ED3C005F0D4C006F0D5C000
:1017100007F0D6C008F0CDEC1FF0D8B092EF0BF078
:1017200094EF0BF018EF0CF0D3C001F0D4C002F02E
:10173000D5C003F0D6C004F0000E056E000E066E94
:10174000D80E076E410E086ECDEC1FF0D8B0ABEF8F
:101750000BF0ADEF0BF018EF0CF0000E016E000E69
:10176000026E400E036E420E046ED7C005F0D8C064
:1017700006F0D9C007F0DAC008F0CDEC1FF0D8B001
:10178000C4EF0BF0C6EF0BF018EF0CF0D7C001F070
:10179000D8C002F0D9C003F0DAC004F0000E056E24
:1017A000000E066E540E076E420E086ECDEC1FF052
:1017B000D8B0DDEF0BF0DFEF0BF018EF0CF0000E00
:1017C000016E000E026E340E036E420E046EDBC01C
:1017D00005F0DCC006F0DDC007F0DEC008F0CDEC9F
:1017E0001FF0D8B0F6EF0BF0F8EF0BF018EF0CF09D
:1017F000DBC001F0DCC002F0DDC003F0DEC004F0AD
:10180000000E056E000E066E480E076E420E086E44
:10181000CDEC1FF0D8B00FEF0CF011EF0CF018EF7B
:101820000CF0000E0001D26F080ED16F18EF0CF013
:10183000D1C05CF0D2C05DF012006AC022F06BC073
:1018400023F06CC024F06DC025F0000E266EFF0E54
:10185000276E7F0E286E470E296E73EC14F022C09F
:10186000B5F023C0B6F024C0B7F025C0B8F06EC004
:1018700022F06FC023F070C024F071C025F0000E7C
:10188000266EFF0E276E7F0E286E470E296E73ECB4
:1018900014F022C0B9F023C0BAF024C0BBF025C0B8
:1018A000BCF072C022F073C023F074C024F075C085
:1018B00025F0000E266EFF0E276E7F0E286E470E57
:1018C000296E73EC14F022C0BDF023C0BEF024C01A
:1018D000BFF025C0C0F0000E266EFF0E276E7F0EF3
:1018E000286E470E296E76C022F077C023F078C0AC
:1018F00024F079C025F073EC14F022C081F023C0ED
:1019000082F024C083F025C084F0000E226E000E09
:10191000236E800E246E3F0E256E81C026F082C09D
:1019200027F083C028F084C029F073EC14F022C0A3
:101930007DF023C07EF024C07FF025C080F0B9C0C8
:1019400001F0BAC002F0BBC003F0BCC004F0B5C0E7
:1019500005F0B6C006F0B7C007F0B8C008F0CDEC8F
:101960001FF0D8A0B6EF0CF0B8EF0CF0EDEF0CF0D4
:10197000BDC001F0BEC002F0BFC003F0C0C004F0A3
:10198000B9C005F0BAC006F0BBC007F0BCC008F093
:10199000CDEC1FF0D8A0CFEF0CF0D1EF0CF0DBEFC7
:1019A0000CF0BDC091F0BEC092F0BFC093F0C0C0BB
:1019B00094F0E3EF0CF0B9C091F0BAC092F0BBC064
:1019C00093F0BCC094F091C0B1F092C0B2F093C05B
:1019D000B3F094C0B4F020EF0DF0BDC001F0BEC074
:1019E00002F0BFC003F0C0C004F0B5C005F0B6C03F
:1019F00006F0B7C007F0B8C008F0CDEC1FF0D8A0D3
:101A000004EF0DF006EF0DF010EF0DF0BDC095F0F6
:101A1000BEC096F0BFC097F0C0C098F018EF0DF0B0
:101A2000B5C095F0B6C096F0B7C097F0B8C098F0C2
:101A300095C0B1F096C0B2F097C0B3F098C0B4F0C2
:101A4000B5C001F0B6C002F0B7C003F0B8C004F0F2
:101A5000B9C005F0BAC006F0BBC007F0BCC008F0C2
:101A6000CDEC1FF0D8A037EF0DF039EF0DF06EEF91
:101A70000DF0B9C001F0BAC002F0BBC003F0BCC0A9
:101A800004F0BDC005F0BEC006F0BFC007F0C0C086
:101A900008F0CDEC1FF0D8A050EF0DF052EF0DF094
:101AA0005CEF0DF0BDC09DF0BEC09EF0BFC09FF0CA
:101AB000C0C0A0F064EF0DF0B9C09DF0BAC09EF0B8
:101AC000BBC09FF0BCC0A0F09DC099F09EC09AF032
:101AD0009FC09BF0A0C09CF0A1EF0DF0B5C001F03D
:101AE000B6C002F0B7C003F0B8C004F0BDC005F046
:101AF000BEC006F0BFC007F0C0C008F0CDEC1FF0BC
:101B0000D8A085EF0DF087EF0DF091EF0DF0BDC07F
:101B1000A1F0BEC0A2F0BFC0A3F0C0C0A4F099EF76
:101B20000DF0B5C0A1F0B6C0A2F0B7C0A3F0B8C028
:101B3000A4F0A1C099F0A2C09AF0A3C09BF0A4C0E9
:101B40009CF0B1C01AF0B2C01BF0B3C01CF0B4C01E
:101B50001DF099C01EF09AC01FF09BC020F09CC0E1
:101B600021F01AEC23F01AC0ADF01BC0AEF01CC07F
:101B7000AFF01DC0B0F0ADC001F0AEC002F0AFC01C
:101B800003F0B0C004F0000E056E000E066E000EED
:101B9000076E000E086E72EC21F0D8A0D2EF0DF0A7
:101BA000D4EF0DF0DFEF0DF0000E0001A96F000E75
:101BB000AA6F000EAB6F000EAC6F40EF0FF0B1C01C
:101BC00001F0B2C002F0B3C003F0B4C004F0B5C07D
:101BD00005F0B6C006F0B7C007F0B8C008F072EC68
:101BE00021F0D8A0F6EF0DF0F8EF0DF05AEF0EF05F
:101BF000ADC026F0AEC027F0AFC028F0B0C029F0CD
:101C0000BDC01EF0BEC01FF0BFC020F0C0C021F09C
:101C1000B9C01AF0BAC01BF0BBC01CF0BCC01DF0AC
:101C20001AEC23F01AC022F01BC023F01CC024F0D1
:101C30001DC025F073EC14F022C085F023C086F09F
:101C400024C087F025C088F0000E586E000E596E33
:101C5000C00E5A6E400E5B6E85C054F086C055F0C3
:101C600087C056F088C057F0BEEC1EF054C089F013
:101C700055C08AF056C08BF057C08CF089C03BF03D
:101C80008AC03CF08BC03DF08CC03EF0000E3F6E31
:101C9000000E406E700E416E420E426E5EEC12F00F
:101CA0003BC0A9F03CC0AAF03DC0ABF03EC0ACF0D8
:101CB00040EF0FF0B1C001F0B2C002F0B3C003F0CA
:101CC000B4C004F0B9C005F0BAC006F0BBC007F05C
:101CD000BCC008F072EC21F0D8A071EF0EF073EFE9
:101CE0000EF0CDEF0EF0ADC026F0AEC027F0AFC0C5
:101CF00028F0B0C029F0B5C01EF0B6C01FF0B7C0C4
:101D000020F0B8C021F0BDC01AF0BEC01BF0BFC0AB
:101D10001CF0C0C01DF01AEC23F01AC022F01BC04A
:101D200023F01CC024F01DC025F073EC14F022C079
:101D3000A5F023C0A6F024C0A7F025C0A8F0000E8F
:101D4000056E000E066E000E076E400E086EA5C0F2
:101D500001F0A6C002F0A7C003F0A8C004F0FEEC9A
:101D60000FF001C03BF002C03CF003C03DF004C0E6
:101D70003EF0000E3F6E000E406E700E416E420E41
:101D8000426E5EEC12F03BC0A9F03CC0AAF03DC030
:101D9000ABF03EC0ACF040EF0FF0B1C001F0B2C00C
:101DA00002F0B3C003F0B4C004F0BDC005F0BEC083
:101DB00006F0BFC007F0C0C008F072EC21F0D8A058
:101DC000E4EF0EF0E6EF0EF040EF0FF0ADC026F0BE
:101DD000AEC027F0AFC028F0B0C029F0B9C01EF0E7
:101DE000BAC01FF0BBC020F0BCC021F0B5C01AF0D3
:101DF000B6C01BF0B7C01CF0B8C01DF01AEC23F041
:101E00001AC022F01BC023F01CC024F01DC025F016
:101E100073EC14F022C0A5F023C0A6F024C0A7F0F4
:101E200025C0A8F0000E056E000E066E800E076E2F
:101E3000400E086EA5C001F0A6C002F0A7C003F0D6
:101E4000A8C004F0FEEC0FF001C03BF002C03CF073
:101E500003C03DF004C03EF0000E3F6E000E406E29
:101E6000700E416E420E426E5EEC12F03BC0A9F065
:101E70003CC0AAF03DC0ABF03EC0ACF040EF0FF06C
:101E80000001ACBF48EF0FF046EF0FF062EF0FF02C
:101E9000A9C001F0AAC002F0ABC003F0ACC004F0CE
:101EA000000E056E000E066EB40E076E430E086E31
:101EB000FEEC0FF001C0A9F002C0AAF003C0ABF025
:101EC00004C0ACF000017A51D96EDA6AA9C0DEFF15
:101ED000AAC0DEFFABC0DEFFACC0DEFFB1C001F0C8
:101EE000B2C002F0B3C003F0B4C004F0000E056E3F
:101EF000000E066E000E076E000E086E72EC21F0EA
:101F0000D8A085EF0FF087EF0FF095EF0FF00001ED
:101F10007B51D96EDA6A000EDE6E000EDE6E000EA8
:101F2000DE6E000EDD6EC5EF0FF0B1C026F0B2C060
:101F300027F0B3C028F0B4C029F0ADC022F0AEC085
:101F400023F0AFC024F0B0C025F073EC14F022C031
:101F50003BF023C03CF024C03DF025C03EF0000E15
:101F60003F6E000E406EC80E416E420E426E5EEC39
:101F700012F000017B51D96EDA6A3BC0DEFF3CC033
:101F8000DEFF3DC0DEFF3EC0DEFF000E3F6E000EF6
:101F9000406EC80E416E420E426EB1C03BF0B2C000
:101FA0003CF0B3C03DF0B4C03EF05EEC12F03BC07C
:101FB0008DF03CC08EF03DC08FF03EC090F08DC0E3
:101FC0003BF08EC03CF08FC03DF090C03EF07DC035
:101FD0003FF07EC040F07FC041F080C042F05EEC38
:101FE00012F000017C51D96EDA6A3BC0DEFF3CC0C2
:101FF000DEFF3DC0DEFF3EC0DEFF12000450800B5E
:102000000D6E045004240F6E03AE09EF10F00BEFB9
:1020100010F00CEF10F00F800F50D8B412EF10F04A
:1020200014EF10F029EF10F00F28D8A41AEF10F0D9
:102030001CEF10F024EF10F0000E016E000E026E87
:10204000000E036E000E046E038E000E046E31EF60
:1020500010F0000E016E000E026E000E036E000EF8
:10206000046E0850800B0E6E0D500E18D8B43BEF66
:1020700010F03DEF10F03EEF10F00D8C08500824EA
:102080000E6E07AE46EF10F048EF10F049EF10F07B
:102090000E800E50D8B44FEF10F051EF10F066EFF5
:1020A00010F00E28D8A457EF10F059EF10F061EFA0
:1020B00010F0000E056E000E066E000E076E000E8C
:1020C000086E078E000E086E6EEF10F0000E056EA3
:1020D000000E066E000E076E000E086E0F500E5CAE
:1020E000D8B075EF10F077EF10F09EEF10F00DAC58
:1020F0007CEF10F07EEF10F080EF10F0800E0D1AE4
:102100000FC010F00EC00FF010C00EF001C010F0A4
:1021100005C001F010C005F002C010F006C002F0CA
:1021200010C006F003C010F007C003F010C007F0A5
:1021300004C010F008C004F010C008F0000E106ECB
:102140000F500EC009F00A6A095E000E0A5A0ABE54
:10215000B3EF10F00A5009E11A0E095CD8A0B3EFF2
:1021600010F0B5EF10F0ECEF10F00150021003107A
:102170000410D8A4BEEF10F0C1EF10F0010EC2EFB2
:1021800010F0000E106E000E016E000E026E000EBA
:10219000036E000E046E0EC00FF0F5EF10F010A0ED
:1021A000D4EF10F0D6EF10F0DCEF10F0D890103034
:1021B0000109106EDEEF10F0D890103201A0E3EFAD
:1021C00010F0E5EF10F0E6EF10F0108E043404325A
:1021D0000332023201320F2A0E500F5CD8A0F3EF07
:1021E00010F0F5EF10F0CFEF10F00DBCFAEF10F09B
:1021F000FCEF10F03CEF11F00F50D8A402EF11F0FB
:1022000004EF11F00EEF11F0000E016E000E026EE1
:10221000000E036E000E046E5DEF12F005500126F5
:1022200006500222075003220850042204A01BEF8C
:1022300011F01DEF11F0C9EF11F010A022EF11F015
:1022400024EF11F02AEF11F0D89010300109106E30
:102250002CEF11F0D890103201A031EF11F033EFD4
:1022600011F034EF11F0108E0434043203320232D4
:1022700001320F2AC9EF11F00550015C06500258D7
:10228000075003580450800A096E0850800A095804
:10229000D8B04DEF11F04FEF11F07AEF11F001507F
:1022A000055C096E025006580A6E035007580B6E03
:1022B000045008580C6EFF0E0924016EFF0E0A2010
:1022C000026EFF0E0B20036EFF0E0C20046E800EBC
:1022D0000D1A106C1050D8A470EF11F072EF11F0BD
:1022E00082EF11F0010E0126000E022203220422C9
:1022F00082EF11F00550015E0650025A0750035A52
:102300000850045A0150021003100410D8A48BEF97
:1023100011F08DEF11F0C2EF11F01050D8A493EF2F
:1023200011F095EF11F0C2EF11F0000E016E000EEA
:10233000026E000E036E000E046E5DEF12F0D89078
:10234000013602360336043610AEA9EF11F0ABEFBA
:1023500011F0ACEF11F0018010A0B1EF11F0B3EF6C
:1023600011F0B7EF11F0D8801036B9EF11F0D89016
:1023700010360F50D8B4BFEF11F0C1EF11F0C2EF1B
:1023800011F00F0603AEC7EF11F0C9EF11F09FEF88
:1023900011F0000E0E6E10AED0EF11F0D2EF11F072
:1023A000EAEF11F010C009F07F0E0916D8B4DBEF88
:1023B00011F0DDEF11F0E1EF11F0010E0E6EEAEF1A
:1023C00011F001A0E6EF11F0E8EF11F0EAEF11F0E3
:1023D000DDEF11F00E50D8B4F0EF11F0F2EF11F084
:1023E0001DEF12F0010E0126000E0222032204222C
:1023F00004A0FDEF11F0FFEF11F01DEF12F001C08E
:1024000009F002C00AF003C00BF004C00CF00C3459
:102410000C320B320A32093209C001F00AC002F054
:102420000BC003F00CC004F00F28D8B41AEF12F060
:102430001CEF12F01DEF12F00F2A0F28D8B423EF73
:1024400012F025EF12F02DEF12F00F50D8A42BEF61
:1024500012F02DEF12F03FEF12F0000E016E000EA1
:10246000026E000E036E000E046E0F50D8A43BEFF8
:1024700012F03DEF12F03FEF12F0000E0D6E0FA0C4
:1024800044EF12F046EF12F049EF12F0038E4AEFDC
:1024900012F0039ED8900F30046E0DAE52EF12F082
:1024A00054EF12F055EF12F0048E01C001F002C09B
:1024B00002F003C003F004C004F012003E50800B91
:1024C000476E3E503E244D6E3DAE69EF12F06BEF0D
:1024D00012F06CEF12F04D804D50D8B472EF12F044
:1024E00074EF12F087EF12F04D28D8A47AEF12F0B3
:1024F0007CEF12F084EF12F0000E3B6E000E3C6E8B
:10250000000E3D6E000E3E6E3D8E8FEF12F0000EFF
:102510003B6E000E3C6E000E3D6E000E3E6E425055
:10252000800B471A425042244C6E41AE9AEF12F093
:102530009CEF12F09DEF12F04C804C50D8B4A3EFFA
:1025400012F0A5EF12F0B8EF12F04C28D8A4ABEFC0
:1025500012F0ADEF12F0B5EF12F0000E3F6E000E6C
:10256000406E000E416E000E426E418EC0EF12F0C2
:10257000000E3F6E000E406E000E416E000E426E69
:102580004C50D8B4C6EF12F0C8EF12F0D0EF12F0F2
:102590004D50D8A4CEEF12F0D0EF12F0DAEF12F0D7
:1025A000000E3B6E000E3C6E000E3D6E000E3E6E49
:1025B00072EF14F041503B02F3CF52F0F4CF53F0DE
:1025C0005250486E496A4A6A4B6A53504E6E4F6A7F
:1025D000506A516A40503C02F3CF52F0F4CF53F0AE
:1025E00052504826000E49224A224B2253504E2672
:1025F000000E4F22502251223F503D02F3CF52F0A5
:10260000F4CF53F052504826000E49224A224B2262
:1026100053504E26000E4F22502251224AC04BF0FA
:1026200049C04AF048C049F0486A3F503C02F3CFE5
:1026300052F0F4CF53F05250482653504922000E26
:102640004A22000E4B2240503B02F3CF52F0F4CF0F
:1026500053F05250482653504922000E4A22000E91
:102660004B224AC04BF049C04AF048C049F0486A82
:102670003F503B02F3CF52F0F4CF53F05250482674
:1026800053504922000E4A22000E4B2241503C0278
:10269000F3CF52F0F4CF53F052504E2653504F2206
:1026A000000E5022000E512240503D02F3CF52F056
:1026B000F4CF53F052504E2653504F22000E50226A
:1026C000000E512241503D02F3CF52F0F4CF53F0AF
:1026D0005250436E5350446E456A466A45C046F0B8
:1026E00044C045F043C044F0436A43504E26445032
:1026F0004F22455050224650512248C043F049C015
:1027000044F04AC045F04BC046F0190E8DEF13F06F
:10271000D8904632453244324332E82E88EF13F0E7
:1027200043504E2644504F2245505022465051228D
:102730004AC04BF049C04AF048C049F0486A4C5082
:102740004DC043F0446A4326000E4422820E4324C7
:10275000526EFF0E4420536EC3EF13F0D8904E36E6
:102760004F36503651364BAEB8EF13F0BAEF13F088
:10277000BBEF13F04E80D890483649364A364B3678
:102780005206D8A0530650AEC8EF13F0CAEF13F0AC
:10279000AEEF13F0000E4C6E4BAED1EF13F0D3EF53
:1027A00013F0F7EF13F0FF0E4814436EFF0E4914B9
:1027B000446EFF0E4A14456E7F0E4B14466E435016
:1027C000441045104610D8B4E8EF13F0EAEF13F0C8
:1027D000EEEF13F0010E4C6EF7EF13F04EA0F3EF97
:1027E00013F0F5EF13F0F7EF13F0EAEF13F04C509E
:1027F000D8B4FDEF13F0FFEF13F023EF14F0010E48
:102800004E26000E4F225022512251A00AEF14F002
:102810000CEF14F023EF14F04EC043F04FC044F01F
:1028200050C045F051C046F046344632453244323D
:10283000433243C04EF044C04FF045C050F046C054
:1028400051F0524A532A53BE2EEF14F0535008E170
:102850005228D8A02EEF14F030EF14F03AEF14F015
:10286000000E4E6E000E4F6E800E506E7F0E516E3B
:1028700068EF14F053BE47EF14F0535006E15204D2
:10288000D8B045EF14F047EF14F053EF14F0000EFA
:102890004E6E000E4F6E000E506E000E516E000E0A
:1028A000476E68EF14F052C04DF0FF0E4E16FF0E4B
:1028B0004F167F0E5016000E51164DA062EF14F009
:1028C00064EF14F065EF14F0508ED8904D30516ED7
:1028D000475051124EC03BF04FC03CF050C03DF04D
:1028E00051C03EF012002550800B326E2550252439
:1028F000396E24AE7EEF14F080EF14F081EF14F007
:1029000039803950D8B487EF14F089EF14F09EEF76
:1029100014F03928D8A48FEF14F091EF14F099EF48
:1029200014F0000E226E000E236E000E246E000EB8
:10293000256E248E000E256EA6EF14F0000E226E7A
:10294000000E236E000E246E000E256E2950800BA3
:10295000321A295029243A6E28AEB1EF14F0B3EFA1
:1029600014F0B4EF14F03A803A50D8B4BAEF14F03F
:10297000BCEF14F0D1EF14F03A28D8A4C2EF14F051
:10298000C4EF14F0CCEF14F0000E266E000E276E8C
:10299000000E286E000E296E288E000E296ED9EFCB
:1029A00014F0000E266E000E276E000E286E000E2C
:1029B000296E2650271028102910D8A4E2EF14F011
:1029C000E4EF14F0FCEF14F0000E226E000E236E04
:1029D000000E246E000E256E800E24127F0E25122E
:1029E0003250251222C022F023C023F024C024F04C
:1029F00025C025F03FEF16F03950D8A402EF15F0AE
:102A000004EF15F00EEF15F0000E226E000E236E8F
:102A1000000E246E000E256E3FEF16F03A5039C0BE
:102A20002AF02B6A2A5E000E2B5A7F0E2A24336E60
:102A3000000E2B20346E22C02EF023C02FF024C0B5
:102A400030F025C031F0000E226E000E236E000E15
:102A5000246E000E256E000E356E000E366E000ED2
:102A6000376E000E386E000E3A6E6FEF15F03A506A
:102A7000D8B43DEF15F03FEF15F056EF15F0D890B4
:102A80002E362F3630363136D8902236233624363D
:102A9000253638AE4EEF15F050EF15F051EF15F02A
:102AA0002280D890353636363736383626502E5C6A
:102AB00027502F582850305829503158D8A063EF4C
:102AC00015F065EF15F06EEF15F0388C26502E5E80
:102AD00027502F5A2850305A2950315A3A2A190E65
:102AE0003A6475EF15F077EF15F037EF15F02E50CB
:102AF0002F1030103110D8B480EF15F082EF15F0A0
:102B00009AEF15F035809AEF15F0D89022362336DB
:102B10002436253638AE8FEF15F091EF15F092EF91
:102B200015F02280D89035363636373638363306AB
:102B3000D8A0340624AE9FEF15F0A1EF15F085EF75
:102B400015F0000E3A6E38AEA8EF15F0AAEF15F0AA
:102B5000CEEF15F0FF0E35142A6EFF0E36142B6ED5
:102B6000FF0E37142C6E7F0E38142D6E2A502B104A
:102B70002C102D10D8B4BFEF15F0C1EF15F0C5EF34
:102B800015F0010E3A6ECEEF15F022A0CAEF15F047
:102B9000CCEF15F0CEEF15F0C1EF15F03A50D8B4E8
:102BA000D4EF15F0D6EF15F0FAEF15F0010E22264E
:102BB000000E23222422252225A0E1EF15F0E3EFC9
:102BC00015F0FAEF15F022C02AF023C02BF024C034
:102BD0002CF025C02DF02D342D322C322B322A3200
:102BE0002AC022F02BC023F02CC024F02DC025F0E9
:102BF000334A342A34BE05EF16F0345008E1332846
:102C0000D8A005EF16F007EF16F012EF16F0000E41
:102C1000346E3368000E226E000E236E000E246E9A
:102C2000000E256E34BE1FEF16F0345006E133045B
:102C3000D8B01DEF16F01FEF16F02DEF16F0000EB6
:102C4000346E000E336E000E226E000E236E000EE8
:102C5000246E000E256E000E326E33C039F039A09E
:102C600034EF16F036EF16F039EF16F0248E3AEF07
:102C700016F0249ED8903930256EF0EF14F0120033
:102C8000000E0001966F320E956F6E0E9525D96E6F
:102C9000010E9621DA6E0A0EDF6451EF16F053EF43
:102CA00016F088EF16F06E0E9525D96E010E96215E
:102CB000DA6EDF50F60F926F000E946F000E936F76
:102CC00072EF16F023C013F024C014F020EE05F0CC
:102CD0002150D9262250DA22DF506DEC1AF0000183
:102CE000934B942B9251256E266A2550935D9451F7
:102CF000800A276E2650800A2758D8A082EF16F047
:102D000084EF16F062EF16F05BEF17F05BEF17F051
:102D10006E0E9525D96E010E9621DA6EDE04D8A4CA
:102D200094EF16F096EF16F0B2EF16F023C013F002
:102D300024C014F020EE02F02150D9262250DA22CD
:102D4000DF50ECEC1BF023C013F024C014F020EE95
:102D500006F02150D9262250DA22DF50ABEC1CF0CD
:102D60005BEF17F06E0E9525D96E010E9621DA6E87
:102D7000020EDE18D8A4BFEF16F0C1EF16F0DDEF9B
:102D800016F023C013F024C014F020EE01F02150FF
:102D9000D9262250DA22DF502DEC1BF023C013F08D
:102DA00024C014F020EE06F02150D9262250DA2259
:102DB000DF50ABEC1CF05BEF17F06E0E9525D96E73
:102DC000010E9621DA6E030EDE18D8A4EAEF16F093
:102DD000ECEF16F008EF17F023C013F024C014F046
:102DE00020EE01F02150D9262250DA22DF502DECBE
:102DF0001BF023C013F024C014F020EE01F021508A
:102E0000D9262250DA22DF502DEC1BF05BEF17F0B1
:102E10006E0E9525D96E010E9621DA6E040EDE181F
:102E2000D8A415EF17F017EF17F019EF17F05BEFB5
:102E300017F06E0E9525D96E010E9621DA6E050EED
:102E4000DE18D8A426EF17F028EF17F02AEF17F0B6
:102E50005BEF17F06E0E9525D96E010E9621DA6E96
:102E6000060EDE18D8A437EF17F039EF17F03BEF56
:102E700017F05BEF17F06E0E9525D96E010E9621B7
:102E8000DA6E070EDE18D8A448EF17F04AEF17F0F5
:102E90004CEF17F05BEF17F06E0E9525D96E010E13
:102EA0009621DA6E080EDE18D8A459EF17F05BEF02
:102EB00017F086EF16F000019507D8A0960796BF89
:102EC00066EF17F064EF17F045EF16F020EE60F0B4
:102ED000310EDE6AE806FDE212005EEC23F0808629
:102EE0007C8EE1C013F0E2C014F0000120EE05F08A
:102EF000DF51D926E051DA22DF506DEC1AF00001E3
:102F0000E52B01EC07F05CC0E3F05DC0E4F08096D7
:102F10007C9E0001E351E411D8B491EF17F093EFD8
:102F200017F06FEF17F06E0EE625D96EDA6A010E14
:102F3000DA22E5510A0FDF6E000EE56FE62BE3059E
:102F4000E411D8A4A6EF17F0A8EF17F0CEEF17F012
:102F50006E0EE625D96EDA6A010EDA22E3C0DFFFD3
:102F6000E62BE1C013F0E2C014F020EE06F0DF51D2
:102F7000D926E051DA22DF50ABEC1CF0E1C013F0AF
:102F8000E2C014F0000120EE01F0DF51D926E0513B
:102F9000DA22DF502DEC1BF06FEF17F0020EE31971
:102FA000E411D8A4D6EF17F0D8EF17F0FEEF17F022
:102FB0006E0EE625D96EDA6A010EDA22E3C0DFFF73
:102FC000E62BE1C013F0E2C014F020EE06F0DF5172
:102FD000D926E051DA22DF50ABEC1CF0E1C013F04F
:102FE000E2C014F0000120EE02F0DF51D926E051DA
:102FF000DA22DF50ECEC1BF06FEF17F0030EE31951
:10300000E411D8A406EF18F008EF18F03CEF18F020
:103010006E0EE625D96EDA6A010EDA22E3C0DFFF12
:10302000E62BE1C013F0E2C014F020EE06F0DF5111
:10303000D926E051DA22DF50ABEC1CF0E1C013F0EE
:10304000E2C014F0000120EE01F0DF51D926E0517A
:10305000DA22DF502DEC1BF0E1C013F0E2C014F0D7
:10306000000120EE01F0DF51D926E051DA22DF50D5
:103070002DEC1BF06FEF17F0080EE319E411D8A444
:1030800044EF18F046EF18F08DEF18F0E1C013F0A0
:10309000E2C014F020EE06F0DF51D926E051DA222A
:1030A000DF50ABEC1CF0E1C013F0E2C014F0000103
:1030B00020EE01F0DF51D926E051DA22DF502DEC6D
:1030C0001BF0E1C013F0E2C014F0000120EE01F0AB
:1030D000DF51D926E051DA22DF502DEC1BF0E1C0A0
:1030E00013F0E2C014F0000120EE06F0DF51D92603
:1030F000E051DA22DF50ABEC1CF0E1C013F0E2C08B
:1031000014F0000120EE06F0DF51D926E051DA225A
:10311000DF50ABEC1CF08FEF18F06FEF17F01200E0
:1031200021C0D9FF22C0DAFF050EDE18D8A49BEF1C
:1031300018F09DEF18F0B8EF18F0010E2124016E81
:10314000000E2220026E69EC1DF023C013F024C093
:1031500014F020EE01F02150D9262250DA22DF505F
:103160002DEC1BF021C001F022C002F019EC21F07F
:1031700021C0D9FF22C0DAFF060EDE18D8A4C3EFA3
:1031800018F0C5EF18F0E0EF18F0020E2124016EE0
:10319000000E2220026E69EC1DF023C013F024C043
:1031A00014F020EE02F02150D9262250DA22DF500E
:1031B000ECEC1BF021C001F022C002F019EC21F070
:1031C00021C0D9FF22C0DAFF030EDE18D8A4EBEF2E
:1031D00018F0EDEF18F008EF19F0030E2124016E3E
:1031E000000E2220026E69EC1DF023C013F024C0F3
:1031F00014F020EE03F02150D9262250DA22DF50BD
:103200002DEC1BF021C001F022C002F019EC21F0DE
:1032100021C0D9FF22C0DAFF040EDE18D8A413EFB4
:1032200019F015EF19F030EF19F0040E2124016E9A
:10323000000E2220026E69EC1DF023C013F024C0A2
:1032400014F020EE04F02150D9262250DA22DF506B
:10325000ECEC1BF021C001F022C002F019EC21F0CF
:1032600021C0D9FF22C0DAFFDE04D8A43AEF19F05A
:103270003CEF19F057EF19F0050E2124016E000EF6
:103280002220026E69EC1DF023C013F024C014F05C
:1032900020EE05F02150D9262250DA22DF506DECC5
:1032A0001AF021C001F022C002F019EC21F021C077
:1032B000D9FF22C0DAFF020EDE18D8A462EF19F09F
:1032C00064EF19F07FEF19F0060E2124016E000E55
:1032D0002220026E69EC1DF023C013F024C014F00C
:1032E00020EE06F02150D9262250DA22DF50ABEC36
:1032F0001CF021C001F022C002F019EC21F021C025
:10330000D9FF22C0DAFF070EDE18D8A48AEF19F021
:103310008CEF19F090EF18F021C0D9FF22C0DAFF2E
:10332000050EDF6E1200146E1450D8B49AEF19F027
:103330009CEF19F0BEEF19F00FBEA3EF19F0A1EF4B
:1033400019F0BEEF19F00CC010F00DC011F00EC056
:1033500012F00FC013F0101E111E121E131E102AA1
:10336000000E11221222132210C016F011C017F005
:1033700012C018F013C019F0C6EF19F00CC016F007
:103380000DC017F00EC018F00FC019F00C500D1042
:103390000E100F10D8A4CFEF19F0D1EF19F0DBEF1A
:1033A00019F0000E0C6E000E0D6E000E0E6E000E6B
:1033B0000F6E6CEF1AF0960E156EE5EF19F0152AE8
:1033C000D8901932183217321632000E1614106EB9
:1033D000000E1714116E000E1814126EFE0E191442
:1033E000136E1050111012101310D8A4FAEF19F028
:1033F000FCEF19F0DFEF19F00AEF1AF0152A010EB1
:103400001626000E172218221922D89019321832C7
:1034100017321632000E1614106E000E1714116EAD
:10342000000E1814126EFF0E1914136E10501110A6
:1034300012101310D8A41FEF1AF021EF1AF0FEEFAC
:1034400019F029EF1AF01506D890163617361836E7
:10345000193618BE2EEF1AF030EF1AF038EF1AF0C6
:10346000020E156036EF1AF038EF1AF023EF1AF05B
:1034700015B03DEF1AF03FEF1AF040EF1AF0189E2A
:10348000D890153215C010F0116A126A136A10C074
:1034900013F0126A116A106A1050161211501712A6
:1034A00012501812135019121450D8B45AEF1AF0BF
:1034B0005CEF1AF064EF1AF00FBE63EF1AF061EFE1
:1034C0001AF064EF1AF0198E16C00CF017C00DF048
:1034D00018C00EF019C00FF01200186E1350D96EFC
:1034E000DA6A010ED926010EDF6E1450D96EDA6A3F
:1034F000010ED926010EDF6E000E1E6E140E1D6E1B
:10350000000E026E640E016E000E046E140E036E49
:10351000B7EC20F001C01FF002C020F0000E1A6EC0
:10352000000E196EB8EF1AF01350D96EDA6A135004
:10353000E16EE26AE750156E1528DF6E1450D96E01
:10354000DA6A1450E16EE26AE750156E1528DF6EF4
:1035500014C00EF014EC1EF013C00EF014EC1EF0AC
:103560001FC001F020C002F09BEC23F0194A1A2A78
:103570001D50195C1A50800A156E1E50800A15588D
:10358000D8A0C5EF1AF0C7EF1AF094EF1AF0000EAA
:103590001C6E000E1B6ED6EF1AF0D00E156ECA0E02
:1035A000E82EFED7152EFCD71B4A1C2A1850156E84
:1035B000166A15501B5C1C50800A176E1650800A44
:1035C0001758D8A0E6EF1AF0E8EF1AF0CDEF1AF08E
:1035D00016EF1BF01450D96EDA6ADF50D8B4F3EF4F
:1035E0001AF0F5EF1AF0F9EF1AF01450D96EDA6A02
:1035F000DF061350D96EDA6ADF50D8B402EF1BF041
:1036000004EF1BF008EF1BF01350D96EDA6ADF06E7
:1036100014C00EF014EC1EF013C00EF014EC1EF0EB
:103620001FC001F020C002F09BEC23F01350D96EB4
:10363000DA6ADF50D8A41FEF1BF021EF1BF0EAEF8E
:103640001AF01450D96EDA6ADF50D8A42AEF1BF0B2
:103650002CEF1BF0EAEF1AF01200186E1350D96E1F
:10366000DA6A010ED926010EDF6E1450D96EDA6ABD
:10367000010ED926DF6A000E1E6E140E1D6E000E9E
:10368000026E640E016E000E046E140E036EB7EC33
:1036900020F001C01FF002C020F0000E1A6E000ED4
:1036A000196E77EF1BF01350D96EDA6A1350E16E82
:1036B000E26AE750156E1528DF6E1450D96EDA6A8B
:1036C0001450E16EE26AE750156E1528DF6E14C0E3
:1036D0000EF014EC1EF013C00EF014EC1EF01FC020
:1036E00001F020C002F09BEC23F0194A1A2A1D5069
:1036F000195C1A50800A156E1E50800A1558D8A001
:1037000084EF1BF086EF1BF053EF1BF0000E1C6ED6
:10371000000E1B6E95EF1BF0D00E156ECA0EE82E34
:10372000FED7152EFCD71B4A1C2A1850156E166A98
:1037300015501B5C1C50800A176E1650800A1758D3
:10374000D8A0A5EF1BF0A7EF1BF08CEF1BF0D5EF77
:103750001BF01450D96EDA6ADF50D8B4B2EF1BF008
:10376000B4EF1BF0B8EF1BF01450D96EDA6ADF0625
:103770001350D96EDA6ADF50D8B4C1EF1BF0C3EF33
:103780001BF0C7EF1BF01350D96EDA6ADF0614C0C6
:103790000EF014EC1EF013C00EF014EC1EF01FC05F
:1037A00001F020C002F09BEC23F01350D96EDA6ACE
:1037B000DF50D8A4DEEF1BF0E0EF1BF0A9EF1BF009
:1037C0001450D96EDA6ADF50D8A4E9EF1BF0EBEFA2
:1037D0001BF0A9EF1BF01200186E1350D96EDA6AB5
:1037E000010ED926DF6A1450D96EDA6A010ED92685
:1037F000010EDF6E000E1E6E140E1D6E000E026EA8
:10380000640E016E000E046E140E036EB7EC20F011
:1038100001C01FF002C020F0000E1A6E000E196EDB
:1038200036EF1CF01350D96EDA6A1350E16EE26A7B
:10383000E750156E1528DF6E1450D96EDA6A1450F1
:10384000E16EE26AE750156E1528DF6E14C00EF0C7
:1038500014EC1EF013C00EF014EC1EF01FC001F0AB
:1038600020C002F09BEC23F0194A1A2A1D50195C63
:103870001A50800A156E1E50800A1558D8A043EFC2
:103880001CF045EF1CF012EF1CF0000E1C6E000E39
:103890001B6E54EF1CF0D00E156ECA0EE82EFED72C
:1038A000152EFCD71B4A1C2A1850156E166A155087
:1038B0001B5C1C50800A176E1650800A1758D8A03F
:1038C00064EF1CF066EF1CF04BEF1CF094EF1CF063
:1038D0001450D96EDA6ADF50D8B471EF1CF073EF70
:1038E0001CF077EF1CF01450D96EDA6ADF06135023
:1038F000D96EDA6ADF50D8B480EF1CF082EF1CF08A
:1039000086EF1CF01350D96EDA6ADF0614C00EF091
:1039100014EC1EF013C00EF014EC1EF01FC001F0EA
:1039200020C002F09BEC23F01350D96EDA6ADF500E
:10393000D8A49DEF1CF09FEF1CF068EF1CF0145012
:10394000D96EDA6ADF50D8A4A8EF1CF0AAEF1CF0F9
:1039500068EF1CF01200186E1350D96EDA6A010E6F
:10396000D926DF6A1450D96EDA6A010ED926DF6AC9
:10397000000E1E6E140E1D6E000E026E640E016EA1
:10398000000E046E140E036EB7EC20F001C01FF0A1
:1039900002C020F0000E1A6E000E196EF4EF1CF03B
:1039A0001350D96EDA6A1350E16EE26AE750156E71
:1039B0001528DF6E1450D96EDA6A1450E16EE26A8F
:1039C000E750156E1528DF6E14C00EF014EC1EF0D3
:1039D00013C00EF014EC1EF01FC001F020C002F066
:1039E0009BEC23F0194A1A2A1D50195C1A50800AC0
:1039F000156E1E50800A1558D8A001EF1DF003EF78
:103A00001DF0D0EF1CF0000E1C6E000E1B6E12EFAE
:103A10001DF0D00E156ECA0EE82EFED7152EFCD75F
:103A20001B4A1C2A1850156E166A15501B5C1C5038
:103A3000800A176E1650800A1758D8A022EF1DF082
:103A400024EF1DF009EF1DF052EF1DF01450D96E58
:103A5000DA6ADF50D8B42FEF1DF031EF1DF035EFEB
:103A60001DF01450D96EDA6ADF061350D96EDA6A87
:103A7000DF50D8B43EEF1DF040EF1DF044EF1DF0D5
:103A80001350D96EDA6ADF0614C00EF014EC1EF083
:103A900013C00EF014EC1EF01FC001F020C002F0A5
:103AA0009BEC23F01350D96EDA6ADF50D8A45BEF99
:103AB0001DF05DEF1DF026EF1DF01450D96EDA6A8F
:103AC000DF50D8A466EF1DF068EF1DF026EF1DF063
:103AD00012008EA66EEF1DF070EF1DF077EF1DF057
:103AE0008EB475EF1DF077EF1DF069EF1DF0090E34
:103AF000046E1E0E036EE40EE82EFED7032EFCD7D6
:103B0000042EFAD700D08EB688EF1DF08AEF1DF094
:103B1000A3EF1DF08EB48FEF1DF091EF1DF0A3EF1A
:103B20001DF080867C8E520E046E2B0E036E000EEE
:103B3000E82EFED7032EFCD7042EFAD700D08096AD
:103B40007C9E13EF1EF08EB4A8EF1DF0AAEF1DF0BF
:103B5000D8EF1DF0110E046E3C0E036ECB0EE82E56
:103B6000FED7032EFCD7042EFAD7000001C0D9FFE0
:103B700002C0DAFFDECF03F0DDCF04F0020E032631
:103B8000000E042201C0D9FF02C0DAFF03C0DEFF2D
:103B900004C0DDFF7C8E110E046E3C0E036ECB0E56
:103BA000E82EFED7032EFCD7042EFAD700007C9E09
:103BB0008EB6DDEF1DF0DFEF1DF011EF1EF0110EE0
:103BC000046E3C0E036ECB0EE82EFED7032EFCD700
:103BD000042EFAD7000001C0D9FF02C0DAFFDECF01
:103BE00003F0DDCF04F0FE0E0324056EFF0E04206B
:103BF000066E01C0D9FF02C0DAFF05C0DEFF06C0B5
:103C0000DDFF8086110E046E3C0E036ECB0EE82E97
:103C1000FED7032EFCD7042EFAD70000809669EF5A
:103C20001DF069EF1DF012000E50D96EDA6A020E17
:103C3000D926DF50D8B41FEF1EF021EF1EF051EF50
:103C40001EF00E50D96EDA6ADF500F6E0F50016E03
:103C5000026A0E50D96EDA6A030ED926DECF03F05F
:103C6000DDCF04F0DBEC23F001C007F002C008F068
:103C7000000E0A6E640E096E11EC22F00E50D96E21
:103C8000DA6A030ED926DF50106E0750105C116EF1
:103C90000E50D96EDA6A030ED926DF50126E72EF1B
:103CA0001EF0000E116E0E50D96EDA6ADF500F6EE4
:103CB0000F50016E026A0E50D96EDA6A030ED926D1
:103CC000DECF03F0DDCF04F0DBEC23F001C007F022
:103CD00002C008F0000E0A6E640E096E11EC22F0AC
:103CE0000750126E0E50D96EDA6A010ED926DF50D7
:103CF000D8B47DEF1EF07FEF1EF09FEF1EF00E5048
:103D0000D96EDA6A050ED926DECF0FF0DDCF10F0BE
:103D10000FC0D9FF10C0DAFF11C0DFFF0E50D96EFF
:103D2000DA6A070ED926DECF0FF0DDCF10F00FC014
:103D3000D9FF10C0DAFF12C0DFFFBDEF1EF00E503A
:103D4000D96EDA6A050ED926DECF0FF0DDCF10F07E
:103D50000FC0D9FF10C0DAFF12C0DFFF0E50D96EBE
:103D6000DA6A070ED926DECF0FF0DDCF10F00FC0D4
:103D7000D9FF10C0DAFF11C0DFFF120058C001F0F8
:103D800059C002F05AC003F05BC004F0000E056E8B
:103D9000000E066E000E076E000E086E72EC21F02B
:103DA000D8A0D5EF1EF0D7EF1EF0E1EF1EF0000E09
:103DB000546E000E556E000E566E000E576E49EF93
:103DC0001FF054C022F055C023F056C024F057C055
:103DD00025F058C026F059C027F05AC028F05BC023
:103DE00029F073EC14F022C060F023C061F024C00D
:103DF00062F025C063F060C001F061C002F062C0F3
:103E000003F063C004F04AEC1FF001C068F002C088
:103E100069F054C01AF055C01BF056C01CF057C0D2
:103E20001DF058C03FF059C040F05AC041F05BC08F
:103E300042F068C00CF069C00DF0000E0DBEFF0E20
:103E40000E6E0F6E010E93EC19F00CC03BF00DC01E
:103E50003CF00EC03DF00FC03EF05EEC12F03BC0F7
:103E60001EF03CC01FF03DC020F03EC021F01AEC17
:103E700023F01AC064F01BC065F01CC066F01DC0C2
:103E800067F064C054F065C055F066C056F067C076
:103E900057F01200033404340A6E0A50D8A453EFCA
:103EA0001FF055EF1FF05FEF1FF0000E016E000EC8
:103EB000026E000E036E000E046ECCEF1FF001C008
:103EC00005F002C006F003C007F004C008F0200EA1
:103ED0006FEF1FF0D8900832073206320532E82E15
:103EE0006AEF1FF00550096E038EFF0E0116FF0EDC
:103EF0000216FF0E0316000E0416960E0A5E0ABE88
:103F000086EF1FF084EF1FF09CEF1FF00A50800A2D
:103F1000970FD8B08EEF1FF090EF1FF092EF1FF0C9
:103F200055EF1FF0D89004320332023201320A3EBC
:103F300092EF1FF0B4EF1FF01F0E0A64A2EF1FF004
:103F4000A4EF1FF0ACEF1FF055EF1FF0D890013633
:103F50000236033604360A060A50D8A4B2EF1FF020
:103F6000B4EF1FF0A6EF1FF00950D8B4BAEF1FF05E
:103F7000BCEF1FF0C4EF1FF0041E031E021E016CF5
:103F8000000E02220322042201C001F002C002F04E
:103F900003C003F004C004F01200000E0114096E07
:103FA000000E02140A6E800E03140B6E7F0E0414B2
:103FB0000C6E09500A100B100C10D8A4E2EF1FF081
:103FC000E4EF1FF0ECEF1FF0000E016E000E026E2A
:103FD000000E036E000E046E000E0514096E000E36
:103FE00006140A6E800E07140B6E7F0E08140C6EFA
:103FF00009500A100B100C10D8A401EF20F003EFA9
:1040000020F00BEF20F0000E056E000E066E000E85
:10401000076E000E086E04AE10EF20F012EF20F0D5
:104020001BEF20F0016C021ED8B0022A031ED8B08C
:10403000032A800E045608AE20EF20F022EF20F075
:104040002BEF20F0056C061ED8B0062A071ED8B04C
:10405000072A800E0856000E011A000E021A000EE2
:10406000031A800E041A000E051A000E061A000E1E
:10407000071A800E081A0550015C065002580750B6
:10408000035808500458D8B048EF20F04AEF20F009
:104090004DEF20F0D8904EEF20F0D8801200000EA7
:1040A000026E630E016EC7EC21F0000E0001F26F8C
:1040B000010EF36F010EF46FAA0EF76F0F0EF86F7B
:1040C000A60EF96F0F0EFA6F000EF66F630EF56F06
:1040D000000EE96F010EEA6F010EEB6F250EEE6F19
:1040E0000F0EEF6F210EF06F0F0EF16F000EED6FE0
:1040F000630EEC6F849E7C9E8896809686840E016B
:10410000B4958686B497050E0101B46F4E0EB56F57
:104110004D0EB66F8C0EB76F8C0EB86F460EB96F22
:10412000280EBA6F4BEC22F0B40E216E010E226EF7
:10413000F20E236EE90E246E90EC18F0B40E00011E
:10414000DF6F010EE06FF20EE16FE90EE26F6DECD2
:1041500017F0B40E216E010E226EF20E236EE90EE0
:10416000246E40EC16F092EF20F000EF00F0000E0D
:10417000066E04BEC0EF20F0BEEF20F0C6EF20F0C8
:10418000036C041ED8B0042A010E066E02BECDEFE9
:1041900020F0CBEF20F0D3EF20F0016C021ED8B05E
:1041A000022A010E061A000E086E000E076E03505A
:1041B0000410D8B4DEEF20F0E0EF20F008EF21F09B
:1041C000010E056EE8EF20F0D89003360436052A7C
:1041D00004AEEDEF20F0EFEF20F0E4EF20F0D89008
:1041E000073608360350015C04500258D8A0FBEF94
:1041F00020F0FDEF20F002EF21F00350015E0450AB
:10420000025A0780D89004320332052EEFEF20F0D7
:104210000650D8B40EEF21F010EF21F014EF21F08A
:10422000076C081ED8B0082A07C001F008C002F0C9
:1042300012008EB41EEF21F020EF21F050EF21F09C
:10424000110E046E3C0E036ECB0EE82EFED7032E2D
:10425000FCD7042EFAD7000001C0D9FF02C0DAFF54
:10426000DECF03F0DDCF04F0010E0326000E0422A2
:1042700001C0D9FF02C0DAFF03C0DEFF04C0DDFFCA
:104280007C8E110E046E3C0E036ECB0EE82EFED714
:10429000032EFCD7042EFAD700007C9E71EF21F08C
:1042A0008EB655EF21F057EF21F019EF21F0110EE6
:1042B000046E3C0E036ECB0EE82EFED7032EFCD709
:1042C000042EFAD700008086110E046E3C0E036E99
:1042D000CB0EE82EFED7032EFCD7042EFAD7000013
:1042E00080961200000E0114096E000E02140A6E70
:1042F000800E03140B6E7F0E04140C6E09500A100E
:104300000B100C10D8A487EF21F089EF21F091EF6A
:1043100021F0000E016E000E026E000E036E000E04
:10432000046E000E0514096E000E06140A6E800E4F
:1043300007140B6E7F0E08140C6E09500A100B1038
:104340000C10D8A4A6EF21F0A8EF21F0B0EF21F0D7
:10435000000E056E000E066E000E076E000E086E53
:10436000055001180FE1065002180CE10750031820
:1043700009E108500418D8B4C0EF21F0C2EF21F0D1
:10438000C5EF21F0D890C6EF21F0D88012008594B7
:104390008598839E879C7D947D987B9E7F9C050E4F
:1043A0000E01746F060E766F070E696F080E886F28
:1043B000BD508F0B4009BD6EE00EBE16BF50F00B16
:1043C0000109BF6E01C0BCFFBD8E000EAA6E000EBB
:1043D000A66E000E0F01256F000E216FFC0EAD16AC
:1043E000F30EAD16CF0EAD163F0EAD16AB88AB502B
:1043F000F00B0C09AB6EAB8EA788A750F00B0C0925
:10440000A76EA78E26892651F00B0C09266F268FE2
:1044100022892251F00B0C09226F228F88968096F8
:104420001200000E0D6E000E0C6E09500A10D8B46A
:104430001CEF22F01EEF22F046EF22F0010E0B6E71
:1044400026EF22F0D89009360A360B2A0AAE2BEF57
:1044500022F02DEF22F022EF22F0D8900C360D360C
:104460000950075C0A500858D8A039EF22F03BEFFA
:1044700022F040EF22F00950075E0A50085A0C80E3
:10448000D8900A3209320B2E2DEF22F00CC007F023
:104490000DC008F012007C8E090E026E1E0E016E19
:1044A000E40EE82EFED7012EFCD7022EFAD700D05C
:1044B0007C9E090E026E1E0E016EE40EE82EFED7E3
:1044C000012EFCD7022EFAD700D08EB46AEF22F06C
:1044D0006CEF22F04BEF22F0110E026E3C0E016EDB
:1044E000CB0EE82EFED7012EFCD7022EFAD7000005
:1044F0007C9E120009EC24F0520EFEEC23F0B60E66
:10450000FEEC23F00EEC24F0530EFEEC23F0010E33
:104510003DEC23F0076E07500A6E0B6A000E3DEC6F
:1045200023F0076E0750096E086A0A5008100A6ED9
:104530000B5009100B6E04EC24F00AC005F00BC000
:1045400006F0120009EC24F0520EFEEC23F0B80E37
:10455000FEEC23F00EEC24F0530EFEEC23F0010EE3
:104560003DEC23F0076E07500A6E0B6A000E3DEC1F
:1045700023F0076E0750096E086A0A5008100A6E89
:104580000B5009100B6E04EC24F00AC005F00BC0B0
:1045900006F0120009EC24F0520EFEEC23F0B40EEB
:1045A000FEEC23F00EEC24F0530EFEEC23F0010E93
:1045B0003DEC23F0076E07500A6E0B6A000E3DECCF
:1045C00023F0076E0750096E086A0A5008100A6E39
:1045D0000B5009100B6E04EC24F00AC005F00BC060
:1045E00006F0120009EC24F0520EFEEC23F0BA0E95
:1045F000FEEC23F00EEC24F0530EFEEC23F0010E43
:104600003DEC23F0076E07500A6E0B6A000E3DEC7E
:1046100023F0076E0750096E086A0A5008100A6EE8
:104620000B5009100B6E04EC24F00AC005F00BC00F
:1046300006F01200000E1E1A000E1F1A000E201A9D
:10464000800E211A1AC001F01BC002F01CC003F03A
:104650001DC004F01EC005F01FC006F020C007F00A
:1046600021C008F0FEEC0FF001C01AF002C01BF0F0
:1046700003C01CF004C01DF01200036EC7EC23F051
:104680000E01DA87C7EC23F0D5CE04F0C7EC23F097
:104690000350D8B44EEF23F052EF23F0026A022AFF
:1046A00053EF23F0026A023A02460E01DA51021871
:1046B000DF0B0218DA6FDA8904501200B2EC23F033
:1046C000010E036E000EEEEC23F03F0E056E550E4C
:1046D000E82EFED7052EFCD70000030E036E000E59
:1046E000EEEC23F0D50E036E010EEEEC23F0879274
:1046F0008198869E7F8279887E8E1200260EF66EC5
:10470000480EF76E000EF86E0900F5CFFBF00900B9
:10471000F5CFFCF001EE00F0BB0EEE6AE806FDE11D
:1047200000EEE3F0180EEE6AE806FDE15F6A5E6AED
:1047300000014FEF20F0A8EF23F0150E036EC60E18
:10474000E82EFED7032EFCD700D00106D8A0020623
:1047500001500210D8A4AFEF23F0B1EF23F09DEF8A
:1047600023F012000E01D951F00B0809D96FD98B33
:104770009F0ED66F848A848CA79BA79D1D0E1D6FEC
:104780001E0E1C6F1C0E6F6F1B0E706F12000E0141
:10479000D8B5CDEF23F0CFEF23F0C7EF23F0DACE7B
:1047A00001F01F0E0116D8A4D8EF23F0DAEF23F0A2
:1047B000C7EF23F0120001500302F3CF05F0F4CF4E
:1047C00006F001500402F350062602500302F35093
:1047D000062605C001F006C002F01200046E09ECC6
:1047E00024F0520EFEEC23F004508009FEEC23F07E
:1047F0000350FEEC23F004EC24F01200026EC7EC30
:1048000023F002C0D5FE1200C7EC23F00E01DA85BA
:104810001200C7EC23F00E01DA811200C7EC23F07E
:084820000E01DA8312003207D9
:020000040030CA
:02000000AAFF55
:020004009FFF5C
:00000001FF
